{
  "_format": "hh-sol-artifact-1",
  "contractName": "LigoRentalAgreement",
  "sourceName": "contracts/LigoRentalAgreement.sol",
  "abi": [
    {
      "inputs": [
        {
          "internalType": "address",
          "name": "_vehicleOwner",
          "type": "address"
        },
        {
          "internalType": "address",
          "name": "_renter",
          "type": "address"
        },
        {
          "internalType": "uint256",
          "name": "_startDateTime",
          "type": "uint256"
        },
        {
          "internalType": "uint256",
          "name": "_endDateTime",
          "type": "uint256"
        },
        {
          "internalType": "uint256",
          "name": "_totalRentCost",
          "type": "uint256"
        },
        {
          "internalType": "uint256",
          "name": "_totalBond",
          "type": "uint256"
        },
        {
          "internalType": "address",
          "name": "_link",
          "type": "address"
        },
        {
          "internalType": "address",
          "name": "_oracle",
          "type": "address"
        },
        {
          "internalType": "uint256",
          "name": "_oraclePaymentAmount",
          "type": "uint256"
        },
        {
          "internalType": "bytes32",
          "name": "_jobId",
          "type": "bytes32"
        }
      ],
      "stateMutability": "payable",
      "type": "constructor"
    },
    {
      "anonymous": false,
      "inputs": [
        {
          "indexed": true,
          "internalType": "bytes32",
          "name": "id",
          "type": "bytes32"
        }
      ],
      "name": "ChainlinkCancelled",
      "type": "event"
    },
    {
      "anonymous": false,
      "inputs": [
        {
          "indexed": true,
          "internalType": "bytes32",
          "name": "id",
          "type": "bytes32"
        }
      ],
      "name": "ChainlinkFulfilled",
      "type": "event"
    },
    {
      "anonymous": false,
      "inputs": [
        {
          "indexed": true,
          "internalType": "bytes32",
          "name": "id",
          "type": "bytes32"
        }
      ],
      "name": "ChainlinkRequested",
      "type": "event"
    },
    {
      "anonymous": false,
      "inputs": [
        {
          "indexed": true,
          "internalType": "address",
          "name": "previousOwner",
          "type": "address"
        },
        {
          "indexed": true,
          "internalType": "address",
          "name": "newOwner",
          "type": "address"
        }
      ],
      "name": "OwnershipTransferred",
      "type": "event"
    },
    {
      "anonymous": false,
      "inputs": [
        {
          "indexed": false,
          "internalType": "uint256",
          "name": "_platformFee",
          "type": "uint256"
        },
        {
          "indexed": false,
          "internalType": "uint256",
          "name": "_totalRent",
          "type": "uint256"
        },
        {
          "indexed": false,
          "internalType": "uint256",
          "name": "_totalBondReturned",
          "type": "uint256"
        },
        {
          "indexed": false,
          "internalType": "uint256",
          "name": "_totalBondForfeitted",
          "type": "uint256"
        },
        {
          "indexed": false,
          "internalType": "uint256",
          "name": "_timePenality",
          "type": "uint256"
        },
        {
          "indexed": false,
          "internalType": "uint256",
          "name": "_locationPenalty",
          "type": "uint256"
        },
        {
          "indexed": false,
          "internalType": "uint256",
          "name": "_kmPenalty",
          "type": "uint256"
        }
      ],
      "name": "agreementPayments",
      "type": "event"
    },
    {
      "anonymous": false,
      "inputs": [
        {
          "indexed": false,
          "internalType": "uint256",
          "name": "_startOdometer",
          "type": "uint256"
        },
        {
          "indexed": false,
          "internalType": "int256",
          "name": "_startVehicleLongitude",
          "type": "int256"
        },
        {
          "indexed": false,
          "internalType": "int256",
          "name": "_startVehicleLatitude",
          "type": "int256"
        }
      ],
      "name": "contractActive",
      "type": "event"
    },
    {
      "anonymous": false,
      "inputs": [
        {
          "indexed": false,
          "internalType": "uint256",
          "name": "_endOdometer",
          "type": "uint256"
        },
        {
          "indexed": false,
          "internalType": "int256",
          "name": "_endVehicleLongitude",
          "type": "int256"
        },
        {
          "indexed": false,
          "internalType": "int256",
          "name": "_endVehicleLatitide",
          "type": "int256"
        }
      ],
      "name": "contractCompleted",
      "type": "event"
    },
    {
      "anonymous": false,
      "inputs": [
        {
          "indexed": false,
          "internalType": "uint256",
          "name": "_endOdometer",
          "type": "uint256"
        },
        {
          "indexed": false,
          "internalType": "int256",
          "name": "_endVehicleLongitude",
          "type": "int256"
        },
        {
          "indexed": false,
          "internalType": "int256",
          "name": "_endVehicleLatitide",
          "type": "int256"
        }
      ],
      "name": "contractCompletedError",
      "type": "event"
    },
    {
      "anonymous": false,
      "inputs": [
        {
          "indexed": false,
          "internalType": "address",
          "name": "_vehicleOwner",
          "type": "address"
        },
        {
          "indexed": false,
          "internalType": "address",
          "name": "_renter",
          "type": "address"
        },
        {
          "indexed": false,
          "internalType": "uint256",
          "name": "_startDateTime",
          "type": "uint256"
        },
        {
          "indexed": false,
          "internalType": "uint256",
          "name": "_endDateTime",
          "type": "uint256"
        },
        {
          "indexed": false,
          "internalType": "uint256",
          "name": "_totalRentCost",
          "type": "uint256"
        },
        {
          "indexed": false,
          "internalType": "uint256",
          "name": "_totalBond",
          "type": "uint256"
        }
      ],
      "name": "rentalAgreementCreated",
      "type": "event"
    },
    {
      "inputs": [
        {
          "internalType": "string",
          "name": "_encToken",
          "type": "string"
        }
      ],
      "name": "activateRentalContract",
      "outputs": [],
      "stateMutability": "nonpayable",
      "type": "function"
    },
    {
      "inputs": [
        {
          "internalType": "bytes32",
          "name": "_requestId",
          "type": "bytes32"
        },
        {
          "internalType": "bytes32",
          "name": "_vehicleData",
          "type": "bytes32"
        }
      ],
      "name": "activateRentalContractCallback",
      "outputs": [],
      "stateMutability": "nonpayable",
      "type": "function"
    },
    {
      "inputs": [],
      "name": "approveContract",
      "outputs": [],
      "stateMutability": "nonpayable",
      "type": "function"
    },
    {
      "inputs": [
        {
          "internalType": "string",
          "name": "_encToken",
          "type": "string"
        }
      ],
      "name": "endRentalContract",
      "outputs": [],
      "stateMutability": "nonpayable",
      "type": "function"
    },
    {
      "inputs": [
        {
          "internalType": "bytes32",
          "name": "_requestId",
          "type": "bytes32"
        },
        {
          "internalType": "bytes32",
          "name": "_vehicleData",
          "type": "bytes32"
        }
      ],
      "name": "endRentalContractCallback",
      "outputs": [],
      "stateMutability": "nonpayable",
      "type": "function"
    },
    {
      "inputs": [
        {
          "internalType": "string",
          "name": "_encToken",
          "type": "string"
        }
      ],
      "name": "forceEndRentalContract",
      "outputs": [],
      "stateMutability": "nonpayable",
      "type": "function"
    },
    {
      "inputs": [
        {
          "internalType": "bytes32",
          "name": "_requestId",
          "type": "bytes32"
        },
        {
          "internalType": "bytes32",
          "name": "_vehicleData",
          "type": "bytes32"
        }
      ],
      "name": "forceEndRentalContractCallback",
      "outputs": [],
      "stateMutability": "nonpayable",
      "type": "function"
    },
    {
      "inputs": [],
      "name": "getAgreementData",
      "outputs": [
        {
          "internalType": "uint256",
          "name": "",
          "type": "uint256"
        },
        {
          "internalType": "int256",
          "name": "",
          "type": "int256"
        },
        {
          "internalType": "int256",
          "name": "",
          "type": "int256"
        },
        {
          "internalType": "uint256",
          "name": "",
          "type": "uint256"
        },
        {
          "internalType": "int256",
          "name": "",
          "type": "int256"
        },
        {
          "internalType": "int256",
          "name": "",
          "type": "int256"
        }
      ],
      "stateMutability": "view",
      "type": "function"
    },
    {
      "inputs": [],
      "name": "getAgreementDetails",
      "outputs": [
        {
          "internalType": "address",
          "name": "",
          "type": "address"
        },
        {
          "internalType": "address",
          "name": "",
          "type": "address"
        },
        {
          "internalType": "uint256",
          "name": "",
          "type": "uint256"
        },
        {
          "internalType": "uint256",
          "name": "",
          "type": "uint256"
        },
        {
          "internalType": "uint256",
          "name": "",
          "type": "uint256"
        },
        {
          "internalType": "uint256",
          "name": "",
          "type": "uint256"
        },
        {
          "internalType": "enum LigoRentalAgreement.RentalAgreementStatus",
          "name": "",
          "type": "uint8"
        }
      ],
      "stateMutability": "view",
      "type": "function"
    },
    {
      "inputs": [],
      "name": "getAgreementEndTime",
      "outputs": [
        {
          "internalType": "uint256",
          "name": "",
          "type": "uint256"
        }
      ],
      "stateMutability": "view",
      "type": "function"
    },
    {
      "inputs": [],
      "name": "getAgreementStartTime",
      "outputs": [
        {
          "internalType": "uint256",
          "name": "",
          "type": "uint256"
        }
      ],
      "stateMutability": "view",
      "type": "function"
    },
    {
      "inputs": [],
      "name": "getAgreementStatus",
      "outputs": [
        {
          "internalType": "enum LigoRentalAgreement.RentalAgreementStatus",
          "name": "",
          "type": "uint8"
        }
      ],
      "stateMutability": "view",
      "type": "function"
    },
    {
      "inputs": [],
      "name": "getChainlinkToken",
      "outputs": [
        {
          "internalType": "address",
          "name": "",
          "type": "address"
        }
      ],
      "stateMutability": "view",
      "type": "function"
    },
    {
      "inputs": [],
      "name": "getPaymentDetails",
      "outputs": [
        {
          "internalType": "uint256",
          "name": "",
          "type": "uint256"
        },
        {
          "internalType": "uint256",
          "name": "",
          "type": "uint256"
        },
        {
          "internalType": "uint256",
          "name": "",
          "type": "uint256"
        },
        {
          "internalType": "uint256",
          "name": "",
          "type": "uint256"
        },
        {
          "internalType": "uint256",
          "name": "",
          "type": "uint256"
        },
        {
          "internalType": "uint256",
          "name": "",
          "type": "uint256"
        },
        {
          "internalType": "uint256",
          "name": "",
          "type": "uint256"
        }
      ],
      "stateMutability": "view",
      "type": "function"
    },
    {
      "inputs": [],
      "name": "getVehicleOwner",
      "outputs": [
        {
          "internalType": "address",
          "name": "",
          "type": "address"
        }
      ],
      "stateMutability": "view",
      "type": "function"
    },
    {
      "inputs": [],
      "name": "getVehicleRenter",
      "outputs": [
        {
          "internalType": "address",
          "name": "",
          "type": "address"
        }
      ],
      "stateMutability": "view",
      "type": "function"
    },
    {
      "inputs": [],
      "name": "owner",
      "outputs": [
        {
          "internalType": "address",
          "name": "",
          "type": "address"
        }
      ],
      "stateMutability": "view",
      "type": "function"
    },
    {
      "inputs": [],
      "name": "rejectContract",
      "outputs": [],
      "stateMutability": "nonpayable",
      "type": "function"
    },
    {
      "inputs": [],
      "name": "renounceOwnership",
      "outputs": [],
      "stateMutability": "nonpayable",
      "type": "function"
    },
    {
      "inputs": [
        {
          "internalType": "string",
          "name": "numString",
          "type": "string"
        }
      ],
      "name": "stringToUint",
      "outputs": [
        {
          "internalType": "uint256",
          "name": "",
          "type": "uint256"
        }
      ],
      "stateMutability": "pure",
      "type": "function"
    },
    {
      "inputs": [
        {
          "internalType": "address",
          "name": "newOwner",
          "type": "address"
        }
      ],
      "name": "transferOwnership",
      "outputs": [],
      "stateMutability": "nonpayable",
      "type": "function"
    }
  ],
  "bytecode": "0x608060405260016004556000600e556000600f5560006010556000601155600060125560006013556000601455600060155560006016556000601755600060185560006019556000601a556000601b556000601c556000601d556000601e556000601f5560405162004ff938038062004ff98339818101604052810190620000889190620003de565b620000a86200009c6200024360201b60201c565b6200024b60201b60201c565b620000b9846200031160201b60201c565b620000ca836200035560201b60201c565b806021819055508160208190555089600760006101000a81548173ffffffffffffffffffffffffffffffffffffffff021916908373ffffffffffffffffffffffffffffffffffffffff16021790555088600860006101000a81548173ffffffffffffffffffffffffffffffffffffffff021916908373ffffffffffffffffffffffffffffffffffffffff1602179055508760098190555086600a8190555085600b8190555084600c819055506000600d60006101000a81548160ff021916908360058111156200019f576200019e620005e7565b5b02179055507f3132a2cb0b8eb76453926793c3d8709cf31b987728faa0c223963e8703351188600760009054906101000a900473ffffffffffffffffffffffffffffffffffffffff16600860009054906101000a900473ffffffffffffffffffffffffffffffffffffffff16600954600a54600b54600c546040516200022b96959493929190620004f6565b60405180910390a15050505050505050505062000669565b600033905090565b6000600660009054906101000a900473ffffffffffffffffffffffffffffffffffffffff16905081600660006101000a81548173ffffffffffffffffffffffffffffffffffffffff021916908373ffffffffffffffffffffffffffffffffffffffff1602179055508173ffffffffffffffffffffffffffffffffffffffff168173ffffffffffffffffffffffffffffffffffffffff167f8be0079c531659141344cd1fd0a4f28419497f9722a3daafe3b4186f6b6457e060405160405180910390a35050565b80600260006101000a81548173ffffffffffffffffffffffffffffffffffffffff021916908373ffffffffffffffffffffffffffffffffffffffff16021790555050565b80600360006101000a81548173ffffffffffffffffffffffffffffffffffffffff021916908373ffffffffffffffffffffffffffffffffffffffff16021790555050565b600081519050620003aa816200061b565b92915050565b600081519050620003c18162000635565b92915050565b600081519050620003d8816200064f565b92915050565b6000806000806000806000806000806101408b8d03121562000405576200040462000616565b5b6000620004158d828e0162000399565b9a50506020620004288d828e0162000399565b99505060406200043b8d828e01620003c7565b98505060606200044e8d828e01620003c7565b9750506080620004618d828e01620003c7565b96505060a0620004748d828e01620003c7565b95505060c0620004878d828e0162000399565b94505060e06200049a8d828e0162000399565b935050610100620004ae8d828e01620003c7565b925050610120620004c28d828e01620003b0565b9150509295989b9194979a5092959850565b620004df81620005ab565b82525050565b620004f081620005a1565b82525050565b600060c0820190506200050d6000830189620004d4565b6200051c6020830188620004d4565b6200052b6040830187620004e5565b6200053a6060830186620004e5565b620005496080830185620004e5565b6200055860a0830184620004e5565b979650505050505050565b6000620005708262000581565b9050919050565b6000819050919050565b600073ffffffffffffffffffffffffffffffffffffffff82169050919050565b6000819050919050565b6000620005b882620005bf565b9050919050565b6000620005cc82620005d3565b9050919050565b6000620005e08262000581565b9050919050565b7f4e487b7100000000000000000000000000000000000000000000000000000000600052602160045260246000fd5b600080fd5b620006268162000563565b81146200063257600080fd5b50565b620006408162000577565b81146200064c57600080fd5b50565b6200065a81620005a1565b81146200066657600080fd5b50565b61498080620006796000396000f3fe608060405234801561001057600080fd5b50600436106101375760003560e01c806370da5368116100b8578063ce7706e21161007c578063ce7706e2146102df578063dbc8e0c6146102fb578063dddab24014610319578063e29bb64014610337578063f2fde38b14610353578063f95419261461036f57610137565b806370da536814610253578063715018a61461026f5780638da5cb5b14610279578063b4bd778414610297578063c92ae959146102bb57610137565b806327b0a930116100ff57806327b0a930146101e757806331c84ea61461020557806338582b891461020f57806343d00d041461022d57806364e373141461023757610137565b8063165d35e11461013c5780631723537d1461015a57806317cefd29146101785780631bce33c8146101945780631bd95155146101b7575b600080fd5b61014461038b565b60405161015191906138a4565b60405180910390f35b61016261039a565b60405161016f9190613a35565b60405180910390f35b610192600480360381019061018d91906134dc565b6103b1565b005b61019c6106ff565b6040516101ae96959493929190613c22565b60405180910390f35b6101d160048036038101906101cc91906134dc565b61072e565b6040516101de9190613bd0565b60405180910390f35b6101ef6107e8565b6040516101fc9190613bd0565b60405180910390f35b61020d6107f2565b005b610217610af6565b60405161022491906138a4565b60405180910390f35b610235610b20565b005b610251600480360381019061024c919061349c565b610c53565b005b61026d6004803603810190610268919061349c565b6113e1565b005b610277611665565b005b6102816116ed565b60405161028e91906138a4565b60405180910390f35b61029f611717565b6040516102b297969594939291906138da565b60405180910390f35b6102c361179b565b6040516102d69796959493929190613c83565b60405180910390f35b6102f960048036038101906102f491906134dc565b6117d2565b005b610303611b2c565b60405161031091906138a4565b60405180910390f35b610321611b56565b60405161032e9190613bd0565b60405180910390f35b610351600480360381019061034c919061349c565b611b60565b005b61036d60048036038101906103689190613442565b611ed5565b005b610389600480360381019061038491906134dc565b611fcd565b005b60006103956122d6565b905090565b6000600d60009054906101000a900460ff16905090565b3373ffffffffffffffffffffffffffffffffffffffff16600860009054906101000a900473ffffffffffffffffffffffffffffffffffffffff1673ffffffffffffffffffffffffffffffffffffffff1614610441576040517f08c379a000000000000000000000000000000000000000000000000000000000815260040161043890613b10565b60405180910390fd5b600160058111156104555761045461447d565b5b600d60009054906101000a900460ff1660058111156104775761047661447d565b5b146104b7576040517f08c379a00000000000000000000000000000000000000000000000000000000081526004016104ae90613bb0565b60405180910390fd5b4260095411156104fc576040517f08c379a00000000000000000000000000000000000000000000000000000000081526004016104f390613ab0565b60405180910390fd5b60006105066116ed565b73ffffffffffffffffffffffffffffffffffffffff16633f1aafe3600760009054906101000a900473ffffffffffffffffffffffffffffffffffffffff166040518263ffffffff1660e01b815260040161056091906138bf565b60206040518083038186803b15801561057857600080fd5b505afa15801561058c573d6000803e3d6000fd5b505050506040513d601f19601f820116820180604052508101906105b09190613525565b905060006105c86021543063e29bb64060e01b612300565b905061061c6040518060400160405280600981526020017f76656869636c654964000000000000000000000000000000000000000000000081525061060c84612331565b836124929092919063ffffffff16565b6106666040518060400160405280600881526020017f656e63546f6b656e00000000000000000000000000000000000000000000000081525084836124929092919063ffffffff16565b6106e56040518060400160405280600681526020017f616374696f6e00000000000000000000000000000000000000000000000000008152506040518060400160405280600681526020017f756e6c6f636b0000000000000000000000000000000000000000000000000000815250836124929092919063ffffffff16565b6106f96106f06124c5565b826020546124ef565b50505050565b600080600080600080600e54601054601154600f54601254601354955095509550955095509550909192939495565b60008060009050600083905060005b81518110156107dd5760008183516107559190614188565b9050600083838151811061076c5761076b6144ac565b5b602001015160f81c60f81b905060008160f81c9050600060308260ff166107939190614188565b90506001846107a29190614188565b600a6107ae9190613e65565b816107b9919061409a565b876107c49190613d8b565b96505050505080806107d590614324565b91505061073d565b508192505050919050565b6000600a54905090565b3373ffffffffffffffffffffffffffffffffffffffff16600760009054906101000a900473ffffffffffffffffffffffffffffffffffffffff1673ffffffffffffffffffffffffffffffffffffffff1614610882576040517f08c379a000000000000000000000000000000000000000000000000000000000815260040161087990613af0565b60405180910390fd5b600060058111156108965761089561447d565b5b600d60009054906101000a900460ff1660058111156108b8576108b761447d565b5b146108f8576040517f08c379a00000000000000000000000000000000000000000000000000000000081526004016108ef90613b70565b60405180910390fd5b600860009054906101000a900473ffffffffffffffffffffffffffffffffffffffff1673ffffffffffffffffffffffffffffffffffffffff166108fc479081150290604051600060405180830381858888f19350505050158015610960573d6000803e3d6000fd5b50600061096b6122d6565b90508073ffffffffffffffffffffffffffffffffffffffff1663a9059cbb6109916116ed565b8373ffffffffffffffffffffffffffffffffffffffff166370a08231306040518263ffffffff1660e01b81526004016109ca91906138a4565b60206040518083038186803b1580156109e257600080fd5b505afa1580156109f6573d6000803e3d6000fd5b505050506040513d601f19601f82011682018060405250810190610a1a9190613525565b6040518363ffffffff1660e01b8152600401610a37929190613949565b602060405180830381600087803b158015610a5157600080fd5b505af1158015610a65573d6000803e3d6000fd5b505050506040513d601f19601f82011682018060405250810190610a89919061346f565b610ac8576040517f08c379a0000000000000000000000000000000000000000000000000000000008152600401610abf90613b30565b60405180910390fd5b6002600d60006101000a81548160ff02191690836005811115610aee57610aed61447d565b5b021790555050565b6000600860009054906101000a900473ffffffffffffffffffffffffffffffffffffffff16905090565b3373ffffffffffffffffffffffffffffffffffffffff16600760009054906101000a900473ffffffffffffffffffffffffffffffffffffffff1673ffffffffffffffffffffffffffffffffffffffff1614610bb0576040517f08c379a0000000000000000000000000000000000000000000000000000000008152600401610ba790613af0565b60405180910390fd5b60006005811115610bc457610bc361447d565b5b600d60009054906101000a900460ff166005811115610be657610be561447d565b5b14610c26576040517f08c379a0000000000000000000000000000000000000000000000000000000008152600401610c1d90613b70565b60405180910390fd5b6001600d60006101000a81548160ff02191690836005811115610c4c57610c4b61447d565b5b0217905550565b816005600082815260200190815260200160002060009054906101000a900473ffffffffffffffffffffffffffffffffffffffff1673ffffffffffffffffffffffffffffffffffffffff163373ffffffffffffffffffffffffffffffffffffffff1614610cf5576040517f08c379a0000000000000000000000000000000000000000000000000000000008152600401610cec90613b90565b60405180910390fd5b6005600082815260200190815260200160002060006101000a81549073ffffffffffffffffffffffffffffffffffffffff0219169055807f7cc135e0cebb02c3480ae5d74d377283180a2601f8f644edf7987b009316c63a60405160405180910390a2600080606080600086604051602001610d719190613831565b60405160208183030381529060405290506000610d8d826125bb565b9050610db381600081518110610da657610da56144ac565b5b602002602001015161072e565b600f81905550610ddd81600181518110610dd057610dcf6144ac565b5b602002602001015161072e565b955080600281518110610df357610df26144ac565b5b60200260200101519350610e2181600381518110610e1457610e136144ac565b5b602002602001015161072e565b945080600481518110610e3757610e366144ac565b5b602002602001015192508560128190555084601381905550604051602001610e5e9061388f565b6040516020818303038152906040528051906020012084604051602001610e859190613878565b604051602081830303815290604052805190602001201415610ed0577fffffffffffffffffffffffffffffffffffffffffffffffffffffffffffffffff86610ecd9190613f83565b95505b604051602001610edf9061388f565b6040516020818303038152906040528051906020012083604051602001610f069190613878565b604051602081830303815290604052805190602001201415610f51577fffffffffffffffffffffffffffffffffffffffffffffffffffffffffffffffff85610f4e9190613f83565b94505b85601281905550846013819055504260148190555060016064610f749190613de1565b600b54610f819190613de1565b601c81905550601c54600b54610f979190614188565b601d81905550600e54600f54610fad9190614188565b60158190555060056015541115610ff95760016064610fcc9190613de1565b600c54610fd99190613de1565b6005601554610fe89190614188565b610ff2919061409a565b601a819055505b600a5460145411156110b157600a546014546110159190614188565b601681905550612a3060165411156110b057610e10612a3060165461103a9190614188565b1015611066576001606461104e9190613de1565b600c5461105b9190613de1565b601b819055506110af565b600160646110749190613de1565b600c546110819190613de1565b610e10612a306016546110949190614188565b61109e9190613de1565b6110a8919061409a565b601b819055505b5b5b6110c96012546010546110c491906140f4565b6126e0565b6017819055506110e76013546011546110e291906140f4565b6126e0565b601881905550600a601754111561113857600160646111069190613de1565b600c546111139190613de1565b6127106017546111239190613de1565b61112d919061409a565b601981905550611180565b600a601854111561117f57600160646111519190613de1565b600c5461115e9190613de1565b61271060185461116e9190613de1565b611178919061409a565b6019819055505b5b601954601b54601a546111939190613d8b565b61119d9190613d8b565b601f81905550600c54601f5411156111bd57600c54601f819055506111d4565b601f54600c546111cd9190614188565b601e819055505b6111dc6116ed565b73ffffffffffffffffffffffffffffffffffffffff166108fc601c549081150290604051600060405180830381858888f19350505050158015611223573d6000803e3d6000fd5b506000601f54601d546112369190613d8b565b9050600760009054906101000a900473ffffffffffffffffffffffffffffffffffffffff1673ffffffffffffffffffffffffffffffffffffffff166108fc829081150290604051600060405180830381858888f193505050501580156112a0573d6000803e3d6000fd5b506000601e54111561131857600860009054906101000a900473ffffffffffffffffffffffffffffffffffffffff1673ffffffffffffffffffffffffffffffffffffffff166108fc601e549081150290604051600060405180830381858888f19350505050158015611316573d6000803e3d6000fd5b505b6004600d60006101000a81548160ff0219169083600581111561133e5761133d61447d565b5b02179055507f2b0da50a9f3e635e4867ebdd1ae92c657705d81584e4346770bc26c0b66308d1601c54601d54601e54601f54601b54601954601a5460405161138c9796959493929190613c83565b60405180910390a17f5f10e40433cd5d42d0bde2f03ba7e122f1ad2993f1c7333b2ce74dc0cdfab18a600f546012546013546040516113cd93929190613beb565b60405180910390a150505050505050505050565b816005600082815260200190815260200160002060009054906101000a900473ffffffffffffffffffffffffffffffffffffffff1673ffffffffffffffffffffffffffffffffffffffff163373ffffffffffffffffffffffffffffffffffffffff1614611483576040517f08c379a000000000000000000000000000000000000000000000000000000000815260040161147a90613b90565b60405180910390fd5b6005600082815260200190815260200160002060006101000a81549073ffffffffffffffffffffffffffffffffffffffff0219169055807f7cc135e0cebb02c3480ae5d74d377283180a2601f8f644edf7987b009316c63a60405160405180910390a2600160646114f49190613de1565b600b546115019190613de1565b601c81905550601c54600b546115179190614188565b601d81905550600c54601f8190555061152e6116ed565b73ffffffffffffffffffffffffffffffffffffffff166108fc601c549081150290604051600060405180830381858888f19350505050158015611575573d6000803e3d6000fd5b506000601f54601d546115889190613d8b565b9050600760009054906101000a900473ffffffffffffffffffffffffffffffffffffffff1673ffffffffffffffffffffffffffffffffffffffff166108fc829081150290604051600060405180830381858888f193505050501580156115f2573d6000803e3d6000fd5b506005600d60006101000a81548160ff021916908360058111156116195761161861447d565b5b02179055507f0f8471b07aa834f7bdec51c4767701ea242e0cddf089e2c6fb2732d217b1c880600f5460125460135460405161165793929190613beb565b60405180910390a150505050565b61166d612702565b73ffffffffffffffffffffffffffffffffffffffff1661168b6116ed565b73ffffffffffffffffffffffffffffffffffffffff16146116e1576040517f08c379a00000000000000000000000000000000000000000000000000000000081526004016116d890613b50565b60405180910390fd5b6116eb600061270a565b565b6000600660009054906101000a900473ffffffffffffffffffffffffffffffffffffffff16905090565b6000806000806000806000600760009054906101000a900473ffffffffffffffffffffffffffffffffffffffff16600860009054906101000a900473ffffffffffffffffffffffffffffffffffffffff16600954600a54600b54600c54600d60009054906101000a900460ff16965096509650965096509650965090919293949596565b6000806000806000806000601454601954601a54601b54601c54601d54601e54965096509650965096509650965090919293949596565b3373ffffffffffffffffffffffffffffffffffffffff16600760009054906101000a900473ffffffffffffffffffffffffffffffffffffffff1673ffffffffffffffffffffffffffffffffffffffff1614611862576040517f08c379a000000000000000000000000000000000000000000000000000000000815260040161185990613af0565b60405180910390fd5b600360058111156118765761187561447d565b5b600d60009054906101000a900460ff1660058111156118985761189761447d565b5b146118d8576040517f08c379a00000000000000000000000000000000000000000000000000000000081526004016118cf90613ad0565b60405180910390fd5b612a30600a546118e89190613d8b565b4211611929576040517f08c379a000000000000000000000000000000000000000000000000000000000815260040161192090613a70565b60405180910390fd5b60006119336116ed565b73ffffffffffffffffffffffffffffffffffffffff16633f1aafe3600760009054906101000a900473ffffffffffffffffffffffffffffffffffffffff166040518263ffffffff1660e01b815260040161198d91906138bf565b60206040518083038186803b1580156119a557600080fd5b505afa1580156119b9573d6000803e3d6000fd5b505050506040513d601f19601f820116820180604052508101906119dd9190613525565b905060006119f5602154306370da536860e01b612300565b9050611a496040518060400160405280600981526020017f76656869636c6549640000000000000000000000000000000000000000000000815250611a3984612331565b836124929092919063ffffffff16565b611a936040518060400160405280600881526020017f656e63546f6b656e00000000000000000000000000000000000000000000000081525084836124929092919063ffffffff16565b611b126040518060400160405280600681526020017f616374696f6e00000000000000000000000000000000000000000000000000008152506040518060400160405280600c81526020017f76656869636c655f646174610000000000000000000000000000000000000000815250836124929092919063ffffffff16565b611b26611b1d6124c5565b826020546124ef565b50505050565b6000600760009054906101000a900473ffffffffffffffffffffffffffffffffffffffff16905090565b6000600954905090565b816005600082815260200190815260200160002060009054906101000a900473ffffffffffffffffffffffffffffffffffffffff1673ffffffffffffffffffffffffffffffffffffffff163373ffffffffffffffffffffffffffffffffffffffff1614611c02576040517f08c379a0000000000000000000000000000000000000000000000000000000008152600401611bf990613b90565b60405180910390fd5b6005600082815260200190815260200160002060006101000a81549073ffffffffffffffffffffffffffffffffffffffff0219169055807f7cc135e0cebb02c3480ae5d74d377283180a2601f8f644edf7987b009316c63a60405160405180910390a2600080606080600086604051602001611c7e9190613831565b60405160208183030381529060405290506000611c9a826125bb565b9050611cc081600081518110611cb357611cb26144ac565b5b602002602001015161072e565b600e81905550611cea81600181518110611cdd57611cdc6144ac565b5b602002602001015161072e565b955080600281518110611d0057611cff6144ac565b5b60200260200101519350611d2e81600381518110611d2157611d206144ac565b5b602002602001015161072e565b945080600481518110611d4457611d436144ac565b5b60200260200101519250604051602001611d5d9061388f565b6040516020818303038152906040528051906020012084604051602001611d849190613878565b604051602081830303815290604052805190602001201415611dcf577fffffffffffffffffffffffffffffffffffffffffffffffffffffffffffffffff86611dcc9190613f83565b95505b604051602001611dde9061388f565b6040516020818303038152906040528051906020012083604051602001611e059190613878565b604051602081830303815290604052805190602001201415611e50577fffffffffffffffffffffffffffffffffffffffffffffffffffffffffffffffff85611e4d9190613f83565b94505b85601081905550846011819055506003600d60006101000a81548160ff02191690836005811115611e8457611e8361447d565b5b02179055507fecffdc5f6e74be4dabdb4e5f024eec5677f5be94e1715541b3e6294cd4e11dff600e54601054601154604051611ec293929190613beb565b60405180910390a1505050505050505050565b611edd612702565b73ffffffffffffffffffffffffffffffffffffffff16611efb6116ed565b73ffffffffffffffffffffffffffffffffffffffff1614611f51576040517f08c379a0000000000000000000000000000000000000000000000000000000008152600401611f4890613b50565b60405180910390fd5b600073ffffffffffffffffffffffffffffffffffffffff168173ffffffffffffffffffffffffffffffffffffffff161415611fc1576040517f08c379a0000000000000000000000000000000000000000000000000000000008152600401611fb890613a50565b60405180910390fd5b611fca8161270a565b50565b3373ffffffffffffffffffffffffffffffffffffffff16600860009054906101000a900473ffffffffffffffffffffffffffffffffffffffff1673ffffffffffffffffffffffffffffffffffffffff161461205d576040517f08c379a000000000000000000000000000000000000000000000000000000000815260040161205490613b10565b60405180910390fd5b600360058111156120715761207061447d565b5b600d60009054906101000a900460ff1660058111156120935761209261447d565b5b146120d3576040517f08c379a00000000000000000000000000000000000000000000000000000000081526004016120ca90613ad0565b60405180910390fd5b60006120dd6116ed565b73ffffffffffffffffffffffffffffffffffffffff16633f1aafe3600760009054906101000a900473ffffffffffffffffffffffffffffffffffffffff166040518263ffffffff1660e01b815260040161213791906138bf565b60206040518083038186803b15801561214f57600080fd5b505afa158015612163573d6000803e3d6000fd5b505050506040513d601f19601f820116820180604052508101906121879190613525565b9050600061219f602154306364e3731460e01b612300565b90506121f36040518060400160405280600981526020017f76656869636c65496400000000000000000000000000000000000000000000008152506121e384612331565b836124929092919063ffffffff16565b61223d6040518060400160405280600881526020017f656e63546f6b656e00000000000000000000000000000000000000000000000081525084836124929092919063ffffffff16565b6122bc6040518060400160405280600681526020017f616374696f6e00000000000000000000000000000000000000000000000000008152506040518060400160405280600481526020017f6c6f636b00000000000000000000000000000000000000000000000000000000815250836124929092919063ffffffff16565b6122d06122c76124c5565b826020546124ef565b50505050565b6000600260009054906101000a900473ffffffffffffffffffffffffffffffffffffffff16905090565b6123086132dd565b6123106132dd565b612327858585846127d0909392919063ffffffff16565b9150509392505050565b60606000821415612379576040518060400160405280600181526020017f3000000000000000000000000000000000000000000000000000000000000000815250905061248d565b600082905060005b600082146123ab57808061239490614324565b915050600a826123a49190613de1565b9150612381565b60008167ffffffffffffffff8111156123c7576123c66144db565b5b6040519080825280601f01601f1916602001820160405280156123f95781602001600182028036833780820191505090505b5090505b60008514612486576001826124129190614188565b9150600a8561242191906143a5565b603061242d9190613d8b565b60f81b818381518110612443576124426144ac565b5b60200101907effffffffffffffffffffffffffffffffffffffffffffffffffffffffffffff1916908160001a905350600a8561247f9190613de1565b94506123fd565b8093505050505b919050565b6124a982846080015161288090919063ffffffff16565b6124c081846080015161288090919063ffffffff16565b505050565b6000600360009054906101000a900473ffffffffffffffffffffffffffffffffffffffff16905090565b60008060045490506001816125049190613d8b565b6004819055506000634042994660e01b60008087600001513089604001518760018c6080015160000151604051602401612545989796959493929190613972565b604051602081830303815290604052907bffffffffffffffffffffffffffffffffffffffffffffffffffffffff19166020820180517bffffffffffffffffffffffffffffffffffffffffffffffffffffffff838183161783525050505090506125b0868386846128a5565b925050509392505050565b606060006125c883612a49565b9050600061260a6040518060400160405280600181526020017f2d00000000000000000000000000000000000000000000000000000000000000815250612a49565b9050600060016126238385612a7790919063ffffffff16565b61262d9190613d8b565b67ffffffffffffffff811115612646576126456144db565b5b60405190808252806020026020018201604052801561267957816020015b60608152602001906001900390816126645790505b50905060005b81518110156126d4576126a361269e8486612b1f90919063ffffffff16565b612b39565b8282815181106126b6576126b56144ac565b5b602002602001018190525080806126cc90614324565b91505061267f565b50809350505050919050565b6000808212156126f957816126f4906143d6565b6126fb565b815b9050919050565b600033905090565b6000600660009054906101000a900473ffffffffffffffffffffffffffffffffffffffff16905081600660006101000a81548173ffffffffffffffffffffffffffffffffffffffff021916908373ffffffffffffffffffffffffffffffffffffffff1602179055508173ffffffffffffffffffffffffffffffffffffffff168173ffffffffffffffffffffffffffffffffffffffff167f8be0079c531659141344cd1fd0a4f28419497f9722a3daafe3b4186f6b6457e060405160405180910390a35050565b6127d86132dd565b6127e88560800151610100612bb5565b508385600001818152505082856020019073ffffffffffffffffffffffffffffffffffffffff16908173ffffffffffffffffffffffffffffffffffffffff16815250508185604001907bffffffffffffffffffffffffffffffffffffffffffffffffffffffff191690817bffffffffffffffffffffffffffffffffffffffffffffffffffffffff191681525050849050949350505050565b61288d8260038351612c1f565b6128a08183612da490919063ffffffff16565b505050565b600030846040516020016128ba92919061384c565b604051602081830303815290604052805190602001209050846005600083815260200190815260200160002060006101000a81548173ffffffffffffffffffffffffffffffffffffffff021916908373ffffffffffffffffffffffffffffffffffffffff160217905550807fb5e6e01e79f91267dc17b4e6314d5d4d03593d2ceee0fbb452b750bd70ea5af960405160405180910390a2600260009054906101000a900473ffffffffffffffffffffffffffffffffffffffff1673ffffffffffffffffffffffffffffffffffffffff16634000aea08685856040518463ffffffff1660e01b81526004016129b0939291906139f7565b602060405180830381600087803b1580156129ca57600080fd5b505af11580156129de573d6000803e3d6000fd5b505050506040513d601f19601f82011682018060405250810190612a02919061346f565b612a41576040517f08c379a0000000000000000000000000000000000000000000000000000000008152600401612a3890613a90565b60405180910390fd5b949350505050565b612a5161334a565b600060208301905060405180604001604052808451815260200182815250915050919050565b6000808260000151612a9b8560000151866020015186600001518760200151612dc6565b612aa59190613d8b565b90505b83600001518460200151612abc9190613d8b565b8111612b18578180612acd90614324565b9250508260000151612b07856020015183612ae89190614188565b8660000151612af79190614188565b8386600001518760200151612dc6565b612b119190613d8b565b9050612aa8565b5092915050565b612b2761334a565b612b32838383612f10565b5092915050565b60606000826000015167ffffffffffffffff811115612b5b57612b5a6144db565b5b6040519080825280601f01601f191660200182016040528015612b8d5781602001600182028036833780820191505090505b5090506000602082019050612bab8185602001518660000151612fdb565b8192505050919050565b612bbd613364565b6000602083612bcc91906143a5565b14612bf857602082612bde91906143a5565b6020612bea9190614188565b82612bf59190613d8b565b91505b81836020018181525050604051808452600081528281016020016040525082905092915050565b60178167ffffffffffffffff1611612c5657612c508160058460ff16901b60ff16178461308790919063ffffffff16565b50612d9f565b60ff8167ffffffffffffffff1611612cac57612c85601860058460ff16901b178461308790919063ffffffff16565b50612ca68167ffffffffffffffff166001856130a79092919063ffffffff16565b50612d9e565b61ffff8167ffffffffffffffff1611612d0357612cdc601960058460ff16901b178461308790919063ffffffff16565b50612cfd8167ffffffffffffffff166002856130a79092919063ffffffff16565b50612d9d565b63ffffffff8167ffffffffffffffff1611612d5c57612d35601a60058460ff16901b178461308790919063ffffffff16565b50612d568167ffffffffffffffff166004856130a79092919063ffffffff16565b50612d9c565b612d79601b60058460ff16901b178461308790919063ffffffff16565b50612d9a8167ffffffffffffffff166008856130a79092919063ffffffff16565b505b5b5b5b505050565b612dac613364565b612dbe838460000151518485516130c9565b905092915050565b6000808490506000868511612ef75760208511612e9957600080861115612e1f576001866020612df69190614188565b6008612e02919061409a565b6002612e0e9190613e65565b612e189190614188565b1960001b90505b60008186511690506000878a8a612e369190613d8b565b612e409190614188565b905060008386511690505b828114612e8b57818610612e72578a8a612e659190613d8b565b9650505050505050612f08565b8580612e7d90614324565b965050838651169050612e4b565b859650505050505050612f08565b60008585209050600091505b8588612eb19190614188565b8211612ef5576000868420905080821415612ed25783945050505050612f08565b600184612edf9190613d8b565b9350508180612eed90614324565b925050612ea5565b505b8686612f039190613d8b565b925050505b949350505050565b612f1861334a565b6000612f368560000151866020015186600001518760200151612dc6565b90508460200151836020018181525050846020015181612f569190614188565b83600001818152505084600001518560200151612f739190613d8b565b811415612f8a576000856000018181525050612fd0565b83600001518360000151612f9e9190613d8b565b85600001818151612faf9190614188565b91508181525050836000015181612fc69190613d8b565b8560200181815250505b829150509392505050565b5b6020811061301a5781518352602083612ff59190613d8b565b92506020826130049190613d8b565b91506020816130139190614188565b9050612fdc565b60007fffffffffffffffffffffffffffffffffffffffffffffffffffffffffffffffff905060008211156130715760018260206130579190614188565b6101006130649190613e65565b61306e9190614188565b90505b8019835116818551168181178652505050505050565b61308f613364565b61309f83846000015151846131b8565b905092915050565b6130af613364565b6130c084856000015151858561320f565b90509392505050565b6130d1613364565b82518211156130df57600080fd5b846020015182856130f09190613d8b565b111561312557613124856002613115886020015188876131109190613d8b565b61329d565b61311f919061409a565b6132b9565b5b6000808651805187602083010193508088870111156131445787860182525b60208701925050505b6020841061318b57805182526020826131669190613d8b565b91506020816131759190613d8b565b90506020846131849190614188565b935061314d565b60006001856020036101000a03905080198251168184511681811785525050508692505050949350505050565b6131c0613364565b836020015183106131e6576131e584600286602001516131e0919061409a565b6132b9565b5b8351805160208583010184815381861415613202576001820183525b5050508390509392505050565b613217613364565b846020015184836132289190613d8b565b11156132505761324f85600286856132409190613d8b565b61324a919061409a565b6132b9565b5b60006001836101006132629190613e65565b61326c9190614188565b9050855183868201018583198251161781528151858801111561328f5784870182525b505085915050949350505050565b6000818311156132af578290506132b3565b8190505b92915050565b6000826000015190506132cc8383612bb5565b506132d78382612da4565b50505050565b6040518060a0016040528060008019168152602001600073ffffffffffffffffffffffffffffffffffffffff16815260200160007bffffffffffffffffffffffffffffffffffffffffffffffffffffffff1916815260200160008152602001613344613364565b81525090565b604051806040016040528060008152602001600081525090565b604051806040016040528060608152602001600081525090565b600061339161338c84613d17565b613cf2565b9050828152602081018484840111156133ad576133ac61450f565b5b6133b88482856142b1565b509392505050565b6000813590506133cf816148ee565b92915050565b6000815190506133e481614905565b92915050565b6000813590506133f98161491c565b92915050565b600082601f8301126134145761341361450a565b5b813561342484826020860161337e565b91505092915050565b60008151905061343c81614933565b92915050565b60006020828403121561345857613457614519565b5b6000613466848285016133c0565b91505092915050565b60006020828403121561348557613484614519565b5b6000613493848285016133d5565b91505092915050565b600080604083850312156134b3576134b2614519565b5b60006134c1858286016133ea565b92505060206134d2858286016133ea565b9150509250929050565b6000602082840312156134f2576134f1614519565b5b600082013567ffffffffffffffff8111156135105761350f614514565b5b61351c848285016133ff565b91505092915050565b60006020828403121561353b5761353a614519565b5b60006135498482850161342d565b91505092915050565b61355b81614257565b82525050565b61356a816141bc565b82525050565b613579816141da565b82525050565b61359061358b826141da565b61437f565b82525050565b61359f816141e4565b82525050565b60006135b082613d48565b6135ba8185613d5e565b93506135ca8185602086016142c0565b6135d38161451e565b840191505092915050565b6135ef6135ea82614269565b61436d565b82525050565b6135fe8161427b565b82525050565b61360d81614223565b82525050565b600061361e82613d53565b6136288185613d80565b93506136388185602086016142c0565b80840191505092915050565b6000613651602683613d6f565b915061365c82614549565b604082019050919050565b6000613674603283613d6f565b915061367f82614598565b604082019050919050565b6000613697602383613d6f565b91506136a2826145e7565b604082019050919050565b60006136ba602483613d6f565b91506136c582614636565b604082019050919050565b60006136dd602183613d6f565b91506136e882614685565b604082019050919050565b6000613700602883613d6f565b915061370b826146d4565b604082019050919050565b6000613723600483613d80565b915061372e82614723565b600482019050919050565b6000613746602983613d6f565b91506137518261474c565b604082019050919050565b6000613769601283613d6f565b91506137748261479b565b602082019050919050565b600061378c602083613d6f565b9150613797826147c4565b602082019050919050565b60006137af602383613d6f565b91506137ba826147ed565b604082019050919050565b60006137d2602883613d6f565b91506137dd8261483c565b604082019050919050565b60006137f5602383613d6f565b91506138008261488b565b604082019050919050565b6138148161424d565b82525050565b61382b6138268261424d565b61439b565b82525050565b600061383d828461357f565b60208201915081905092915050565b600061385882856135de565b601482019150613868828461381a565b6020820191508190509392505050565b60006138848284613613565b915081905092915050565b600061389a82613716565b9150819050919050565b60006020820190506138b96000830184613561565b92915050565b60006020820190506138d46000830184613552565b92915050565b600060e0820190506138ef600083018a613561565b6138fc6020830189613561565b613909604083018861380b565b613916606083018761380b565b613923608083018661380b565b61393060a083018561380b565b61393d60c08301846135f5565b98975050505050505050565b600060408201905061395e6000830185613561565b61396b602083018461380b565b9392505050565b600061010082019050613988600083018b613561565b613995602083018a61380b565b6139a26040830189613570565b6139af6060830188613561565b6139bc6080830187613596565b6139c960a083018661380b565b6139d660c083018561380b565b81810360e08301526139e881846135a5565b90509998505050505050505050565b6000606082019050613a0c6000830186613561565b613a19602083018561380b565b8181036040830152613a2b81846135a5565b9050949350505050565b6000602082019050613a4a60008301846135f5565b92915050565b60006020820190508181036000830152613a6981613644565b9050919050565b60006020820190508181036000830152613a8981613667565b9050919050565b60006020820190508181036000830152613aa98161368a565b9050919050565b60006020820190508181036000830152613ac9816136ad565b9050919050565b60006020820190508181036000830152613ae9816136d0565b9050919050565b60006020820190508181036000830152613b09816136f3565b9050919050565b60006020820190508181036000830152613b2981613739565b9050919050565b60006020820190508181036000830152613b498161375c565b9050919050565b60006020820190508181036000830152613b698161377f565b9050919050565b60006020820190508181036000830152613b89816137a2565b9050919050565b60006020820190508181036000830152613ba9816137c5565b9050919050565b60006020820190508181036000830152613bc9816137e8565b9050919050565b6000602082019050613be5600083018461380b565b92915050565b6000606082019050613c00600083018661380b565b613c0d6020830185613604565b613c1a6040830184613604565b949350505050565b600060c082019050613c37600083018961380b565b613c446020830188613604565b613c516040830187613604565b613c5e606083018661380b565b613c6b6080830185613604565b613c7860a0830184613604565b979650505050505050565b600060e082019050613c98600083018a61380b565b613ca5602083018961380b565b613cb2604083018861380b565b613cbf606083018761380b565b613ccc608083018661380b565b613cd960a083018561380b565b613ce660c083018461380b565b98975050505050505050565b6000613cfc613d0d565b9050613d0882826142f3565b919050565b6000604051905090565b600067ffffffffffffffff821115613d3257613d316144db565b5b613d3b8261451e565b9050602081019050919050565b600081519050919050565b600081519050919050565b600082825260208201905092915050565b600082825260208201905092915050565b600081905092915050565b6000613d968261424d565b9150613da18361424d565b9250827fffffffffffffffffffffffffffffffffffffffffffffffffffffffffffffffff03821115613dd657613dd561441f565b5b828201905092915050565b6000613dec8261424d565b9150613df78361424d565b925082613e0757613e0661444e565b5b828204905092915050565b6000808291508390505b6001851115613e5c57808604811115613e3857613e3761441f565b5b6001851615613e475780820291505b8081029050613e558561453c565b9450613e1c565b94509492505050565b6000613e708261424d565b9150613e7b8361424d565b9250613ea87fffffffffffffffffffffffffffffffffffffffffffffffffffffffffffffffff8484613eb0565b905092915050565b600082613ec05760019050613f7c565b81613ece5760009050613f7c565b8160018114613ee45760028114613eee57613f1d565b6001915050613f7c565b60ff841115613f0057613eff61441f565b5b8360020a915084821115613f1757613f1661441f565b5b50613f7c565b5060208310610133831016604e8410600b8410161715613f525782820a905083811115613f4d57613f4c61441f565b5b613f7c565b613f5f8484846001613e12565b92509050818404811115613f7657613f7561441f565b5b81810290505b9392505050565b6000613f8e82614223565b9150613f9983614223565b9250827f7fffffffffffffffffffffffffffffffffffffffffffffffffffffffffffffff0482116000841360008413161615613fd857613fd761441f565b5b817f800000000000000000000000000000000000000000000000000000000000000005831260008412600084131616156140155761401461441f565b5b827f800000000000000000000000000000000000000000000000000000000000000005821260008413600084121616156140525761405161441f565b5b827f7fffffffffffffffffffffffffffffffffffffffffffffffffffffffffffffff058212600084126000841216161561408f5761408e61441f565b5b828202905092915050565b60006140a58261424d565b91506140b08361424d565b9250817fffffffffffffffffffffffffffffffffffffffffffffffffffffffffffffffff04831182151516156140e9576140e861441f565b5b828202905092915050565b60006140ff82614223565b915061410a83614223565b9250827f8000000000000000000000000000000000000000000000000000000000000000018212600084121516156141455761414461441f565b5b827f7fffffffffffffffffffffffffffffffffffffffffffffffffffffffffffffff01821360008412161561417d5761417c61441f565b5b828203905092915050565b60006141938261424d565b915061419e8361424d565b9250828210156141b1576141b061441f565b5b828203905092915050565b60006141c78261422d565b9050919050565b60008115159050919050565b6000819050919050565b60007fffffffff0000000000000000000000000000000000000000000000000000000082169050919050565b600081905061421e826148da565b919050565b6000819050919050565b600073ffffffffffffffffffffffffffffffffffffffff82169050919050565b6000819050919050565b60006142628261428d565b9050919050565b60006142748261428d565b9050919050565b600061428682614210565b9050919050565b60006142988261429f565b9050919050565b60006142aa8261422d565b9050919050565b82818337600083830152505050565b60005b838110156142de5780820151818401526020810190506142c3565b838111156142ed576000848401525b50505050565b6142fc8261451e565b810181811067ffffffffffffffff8211171561431b5761431a6144db565b5b80604052505050565b600061432f8261424d565b91507fffffffffffffffffffffffffffffffffffffffffffffffffffffffffffffffff8214156143625761436161441f565b5b600182019050919050565b600061437882614389565b9050919050565b6000819050919050565b60006143948261452f565b9050919050565b6000819050919050565b60006143b08261424d565b91506143bb8361424d565b9250826143cb576143ca61444e565b5b828206905092915050565b60006143e182614223565b91507f80000000000000000000000000000000000000000000000000000000000000008214156144145761441361441f565b5b816000039050919050565b7f4e487b7100000000000000000000000000000000000000000000000000000000600052601160045260246000fd5b7f4e487b7100000000000000000000000000000000000000000000000000000000600052601260045260246000fd5b7f4e487b7100000000000000000000000000000000000000000000000000000000600052602160045260246000fd5b7f4e487b7100000000000000000000000000000000000000000000000000000000600052603260045260246000fd5b7f4e487b7100000000000000000000000000000000000000000000000000000000600052604160045260246000fd5b600080fd5b600080fd5b600080fd5b600080fd5b6000601f19601f8301169050919050565b60008160601b9050919050565b60008160011c9050919050565b7f4f776e61626c653a206e6577206f776e657220697320746865207a65726f206160008201527f6464726573730000000000000000000000000000000000000000000000000000602082015250565b7f41677265656d656e74206e6f7420656c696769626c6520666f7220666f72636560008201527f642063616e63656c6c6174696f6e207965740000000000000000000000000000602082015250565b7f756e61626c6520746f207472616e73666572416e6443616c6c20746f206f726160008201527f636c650000000000000000000000000000000000000000000000000000000000602082015250565b7f537461727420446174652f54696d6520686173206e6f74206265656e2072656160008201527f6368656400000000000000000000000000000000000000000000000000000000602082015250565b7f436f6e7472616374206d75737420626520696e2041435449564520737461747560008201527f7300000000000000000000000000000000000000000000000000000000000000602082015250565b7f4f6e6c792056656869636c65204f776e65722063616e20706572666f726d207460008201527f6869732073746570000000000000000000000000000000000000000000000000602082015250565b7f7472756500000000000000000000000000000000000000000000000000000000600082015250565b7f4f6e6c792056656869636c652052656e7465722063616e20706572666f726d2060008201527f7468697320737465700000000000000000000000000000000000000000000000602082015250565b7f556e61626c6520746f207472616e736665720000000000000000000000000000600082015250565b7f4f776e61626c653a2063616c6c6572206973206e6f7420746865206f776e6572600082015250565b7f436f6e7472616374206d75737420626520696e2050524f504f5345442073746160008201527f7475730000000000000000000000000000000000000000000000000000000000602082015250565b7f536f75726365206d75737420626520746865206f7261636c65206f662074686560008201527f2072657175657374000000000000000000000000000000000000000000000000602082015250565b7f436f6e7472616374206d75737420626520696e20415050524f5645442073746160008201527f7475730000000000000000000000000000000000000000000000000000000000602082015250565b600681106148eb576148ea61447d565b5b50565b6148f7816141bc565b811461490257600080fd5b50565b61490e816141ce565b811461491957600080fd5b50565b614925816141da565b811461493057600080fd5b50565b61493c8161424d565b811461494757600080fd5b5056fea264697066735822122022ce64187f7b5c12f1891ce8ed16c3a7bd6ec2b92ca1d9c17e6363d487d4b42c64736f6c63430008070033",
  "linkReferences": {},
  "deployedLinkReferences": {}
}