{
  "_format": "hh-sol-artifact-1",
  "contractName": "LigoRentalAgreement",
  "sourceName": "contracts/LigoRentalAgreement.sol",
  "abi": [
    {
      "inputs": [
        {
          "internalType": "address",
          "name": "_vehicleOwner",
          "type": "address"
        },
        {
          "internalType": "address",
          "name": "_renter",
          "type": "address"
        },
        {
          "internalType": "uint256",
          "name": "_startDateTime",
          "type": "uint256"
        },
        {
          "internalType": "uint256",
          "name": "_endDateTime",
          "type": "uint256"
        },
        {
          "internalType": "uint256",
          "name": "_totalRentCost",
          "type": "uint256"
        },
        {
          "internalType": "uint256",
          "name": "_totalBond",
          "type": "uint256"
        },
        {
          "internalType": "address",
          "name": "_link",
          "type": "address"
        },
        {
          "internalType": "address",
          "name": "_oracle",
          "type": "address"
        },
        {
          "internalType": "uint256",
          "name": "_oraclePaymentAmount",
          "type": "uint256"
        },
        {
          "internalType": "bytes32",
          "name": "_jobId",
          "type": "bytes32"
        }
      ],
      "stateMutability": "payable",
      "type": "constructor"
    },
    {
      "anonymous": false,
      "inputs": [
        {
          "indexed": true,
          "internalType": "bytes32",
          "name": "id",
          "type": "bytes32"
        }
      ],
      "name": "ChainlinkCancelled",
      "type": "event"
    },
    {
      "anonymous": false,
      "inputs": [
        {
          "indexed": true,
          "internalType": "bytes32",
          "name": "id",
          "type": "bytes32"
        }
      ],
      "name": "ChainlinkFulfilled",
      "type": "event"
    },
    {
      "anonymous": false,
      "inputs": [
        {
          "indexed": true,
          "internalType": "bytes32",
          "name": "id",
          "type": "bytes32"
        }
      ],
      "name": "ChainlinkRequested",
      "type": "event"
    },
    {
      "anonymous": false,
      "inputs": [
        {
          "indexed": true,
          "internalType": "address",
          "name": "previousOwner",
          "type": "address"
        },
        {
          "indexed": true,
          "internalType": "address",
          "name": "newOwner",
          "type": "address"
        }
      ],
      "name": "OwnershipTransferred",
      "type": "event"
    },
    {
      "anonymous": false,
      "inputs": [
        {
          "indexed": false,
          "internalType": "uint256",
          "name": "_platformFee",
          "type": "uint256"
        },
        {
          "indexed": false,
          "internalType": "uint256",
          "name": "_totalRent",
          "type": "uint256"
        },
        {
          "indexed": false,
          "internalType": "uint256",
          "name": "_totalBondKept",
          "type": "uint256"
        },
        {
          "indexed": false,
          "internalType": "uint256",
          "name": "_totalBondForfeitted",
          "type": "uint256"
        },
        {
          "indexed": false,
          "internalType": "uint256",
          "name": "_timePenality",
          "type": "uint256"
        },
        {
          "indexed": false,
          "internalType": "uint256",
          "name": "_chargePenalty",
          "type": "uint256"
        },
        {
          "indexed": false,
          "internalType": "uint256",
          "name": "_locationPenalty",
          "type": "uint256"
        },
        {
          "indexed": false,
          "internalType": "uint256",
          "name": "_milesPenalty",
          "type": "uint256"
        }
      ],
      "name": "agreementPayments",
      "type": "event"
    },
    {
      "anonymous": false,
      "inputs": [
        {
          "indexed": false,
          "internalType": "uint256",
          "name": "_startOdometer",
          "type": "uint256"
        },
        {
          "indexed": false,
          "internalType": "uint256",
          "name": "_startChargeState",
          "type": "uint256"
        },
        {
          "indexed": false,
          "internalType": "int256",
          "name": "_startVehicleLongitude",
          "type": "int256"
        },
        {
          "indexed": false,
          "internalType": "int256",
          "name": "_startVehicleLatitude",
          "type": "int256"
        }
      ],
      "name": "contractActive",
      "type": "event"
    },
    {
      "anonymous": false,
      "inputs": [
        {
          "indexed": false,
          "internalType": "uint256",
          "name": "_endOdometer",
          "type": "uint256"
        },
        {
          "indexed": false,
          "internalType": "uint256",
          "name": "_endChargeState",
          "type": "uint256"
        },
        {
          "indexed": false,
          "internalType": "int256",
          "name": "_endVehicleLongitude",
          "type": "int256"
        },
        {
          "indexed": false,
          "internalType": "int256",
          "name": "_endVehicleLatitide",
          "type": "int256"
        }
      ],
      "name": "contractCompleted",
      "type": "event"
    },
    {
      "anonymous": false,
      "inputs": [
        {
          "indexed": false,
          "internalType": "uint256",
          "name": "_endOdometer",
          "type": "uint256"
        },
        {
          "indexed": false,
          "internalType": "uint256",
          "name": "_endChargeState",
          "type": "uint256"
        },
        {
          "indexed": false,
          "internalType": "int256",
          "name": "_endVehicleLongitude",
          "type": "int256"
        },
        {
          "indexed": false,
          "internalType": "int256",
          "name": "_endVehicleLatitide",
          "type": "int256"
        }
      ],
      "name": "contractCompletedError",
      "type": "event"
    },
    {
      "anonymous": false,
      "inputs": [
        {
          "indexed": false,
          "internalType": "address",
          "name": "_vehicleOwner",
          "type": "address"
        },
        {
          "indexed": false,
          "internalType": "address",
          "name": "_renter",
          "type": "address"
        },
        {
          "indexed": false,
          "internalType": "uint256",
          "name": "_startDateTime",
          "type": "uint256"
        },
        {
          "indexed": false,
          "internalType": "uint256",
          "name": "_endDateTime",
          "type": "uint256"
        },
        {
          "indexed": false,
          "internalType": "uint256",
          "name": "_totalRentCost",
          "type": "uint256"
        },
        {
          "indexed": false,
          "internalType": "uint256",
          "name": "_totalBond",
          "type": "uint256"
        }
      ],
      "name": "rentalAgreementCreated",
      "type": "event"
    },
    {
      "inputs": [
        {
          "internalType": "string",
          "name": "_encToken",
          "type": "string"
        }
      ],
      "name": "activateRentalContract",
      "outputs": [],
      "stateMutability": "nonpayable",
      "type": "function"
    },
    {
      "inputs": [
        {
          "internalType": "bytes32",
          "name": "_requestId",
          "type": "bytes32"
        },
        {
          "internalType": "bytes32",
          "name": "_vehicleData",
          "type": "bytes32"
        }
      ],
      "name": "activateRentalContractCallback",
      "outputs": [],
      "stateMutability": "nonpayable",
      "type": "function"
    },
    {
      "inputs": [],
      "name": "approveContract",
      "outputs": [],
      "stateMutability": "nonpayable",
      "type": "function"
    },
    {
      "inputs": [
        {
          "internalType": "string",
          "name": "_encToken",
          "type": "string"
        }
      ],
      "name": "endRentalContract",
      "outputs": [],
      "stateMutability": "nonpayable",
      "type": "function"
    },
    {
      "inputs": [
        {
          "internalType": "bytes32",
          "name": "_requestId",
          "type": "bytes32"
        },
        {
          "internalType": "bytes32",
          "name": "_vehicleData",
          "type": "bytes32"
        }
      ],
      "name": "endRentalContractCallback",
      "outputs": [],
      "stateMutability": "nonpayable",
      "type": "function"
    },
    {
      "inputs": [
        {
          "internalType": "string",
          "name": "_encToken",
          "type": "string"
        }
      ],
      "name": "forceEndRentalContract",
      "outputs": [],
      "stateMutability": "nonpayable",
      "type": "function"
    },
    {
      "inputs": [
        {
          "internalType": "bytes32",
          "name": "_requestId",
          "type": "bytes32"
        },
        {
          "internalType": "bytes32",
          "name": "_vehicleData",
          "type": "bytes32"
        }
      ],
      "name": "forceEndRentalContractCallback",
      "outputs": [],
      "stateMutability": "nonpayable",
      "type": "function"
    },
    {
      "inputs": [],
      "name": "getAgreementData",
      "outputs": [
        {
          "internalType": "uint256",
          "name": "",
          "type": "uint256"
        },
        {
          "internalType": "int256",
          "name": "",
          "type": "int256"
        },
        {
          "internalType": "int256",
          "name": "",
          "type": "int256"
        },
        {
          "internalType": "uint256",
          "name": "",
          "type": "uint256"
        },
        {
          "internalType": "int256",
          "name": "",
          "type": "int256"
        },
        {
          "internalType": "int256",
          "name": "",
          "type": "int256"
        }
      ],
      "stateMutability": "view",
      "type": "function"
    },
    {
      "inputs": [],
      "name": "getAgreementDetails",
      "outputs": [
        {
          "internalType": "address",
          "name": "",
          "type": "address"
        },
        {
          "internalType": "address",
          "name": "",
          "type": "address"
        },
        {
          "internalType": "uint256",
          "name": "",
          "type": "uint256"
        },
        {
          "internalType": "uint256",
          "name": "",
          "type": "uint256"
        },
        {
          "internalType": "uint256",
          "name": "",
          "type": "uint256"
        },
        {
          "internalType": "uint256",
          "name": "",
          "type": "uint256"
        },
        {
          "internalType": "enum LigoRentalAgreement.RentalAgreementStatus",
          "name": "",
          "type": "uint8"
        }
      ],
      "stateMutability": "view",
      "type": "function"
    },
    {
      "inputs": [],
      "name": "getAgreementEndTime",
      "outputs": [
        {
          "internalType": "uint256",
          "name": "",
          "type": "uint256"
        }
      ],
      "stateMutability": "view",
      "type": "function"
    },
    {
      "inputs": [],
      "name": "getAgreementStartTime",
      "outputs": [
        {
          "internalType": "uint256",
          "name": "",
          "type": "uint256"
        }
      ],
      "stateMutability": "view",
      "type": "function"
    },
    {
      "inputs": [],
      "name": "getAgreementStatus",
      "outputs": [
        {
          "internalType": "enum LigoRentalAgreement.RentalAgreementStatus",
          "name": "",
          "type": "uint8"
        }
      ],
      "stateMutability": "view",
      "type": "function"
    },
    {
      "inputs": [],
      "name": "getChainlinkToken",
      "outputs": [
        {
          "internalType": "address",
          "name": "",
          "type": "address"
        }
      ],
      "stateMutability": "view",
      "type": "function"
    },
    {
      "inputs": [],
      "name": "getPaymentDetails",
      "outputs": [
        {
          "internalType": "uint256",
          "name": "",
          "type": "uint256"
        },
        {
          "internalType": "uint256",
          "name": "",
          "type": "uint256"
        },
        {
          "internalType": "uint256",
          "name": "",
          "type": "uint256"
        },
        {
          "internalType": "uint256",
          "name": "",
          "type": "uint256"
        },
        {
          "internalType": "uint256",
          "name": "",
          "type": "uint256"
        },
        {
          "internalType": "uint256",
          "name": "",
          "type": "uint256"
        },
        {
          "internalType": "uint256",
          "name": "",
          "type": "uint256"
        }
      ],
      "stateMutability": "view",
      "type": "function"
    },
    {
      "inputs": [],
      "name": "getVehicleOwner",
      "outputs": [
        {
          "internalType": "address",
          "name": "",
          "type": "address"
        }
      ],
      "stateMutability": "view",
      "type": "function"
    },
    {
      "inputs": [],
      "name": "getVehicleRenter",
      "outputs": [
        {
          "internalType": "address",
          "name": "",
          "type": "address"
        }
      ],
      "stateMutability": "view",
      "type": "function"
    },
    {
      "inputs": [],
      "name": "owner",
      "outputs": [
        {
          "internalType": "address",
          "name": "",
          "type": "address"
        }
      ],
      "stateMutability": "view",
      "type": "function"
    },
    {
      "inputs": [],
      "name": "rejectContract",
      "outputs": [],
      "stateMutability": "nonpayable",
      "type": "function"
    },
    {
      "inputs": [],
      "name": "renounceOwnership",
      "outputs": [],
      "stateMutability": "nonpayable",
      "type": "function"
    },
    {
      "inputs": [
        {
          "internalType": "address",
          "name": "newOwner",
          "type": "address"
        }
      ],
      "name": "transferOwnership",
      "outputs": [],
      "stateMutability": "nonpayable",
      "type": "function"
    }
  ],
  "bytecode": "0x608060405260016004556000600e556000600f5560006010556000601155600060125560006013556000601455600060155560006016556000601755600060185560006019556000601a556000601b556000601c556000601d556000601e556000601f5560405162003dec38038062003dec8339818101604052810190620000889190620004dc565b620000a86200009c6200031760201b60201c565b6200031f60201b60201c565b620000b86200031760201b60201c565b73ffffffffffffffffffffffffffffffffffffffff16620000de620003e560201b60201c565b73ffffffffffffffffffffffffffffffffffffffff161462000137576040517f08c379a00000000000000000000000000000000000000000000000000000000081526004016200012e90620006d1565b60405180910390fd5b8434116200017c576040517f08c379a00000000000000000000000000000000000000000000000000000000081526004016200017390620006af565b60405180910390fd5b6200018d846200040f60201b60201c565b6200019e836200045360201b60201c565b806021819055508160208190555089600760006101000a81548173ffffffffffffffffffffffffffffffffffffffff021916908373ffffffffffffffffffffffffffffffffffffffff16021790555088600860006101000a81548173ffffffffffffffffffffffffffffffffffffffff021916908373ffffffffffffffffffffffffffffffffffffffff1602179055508760098190555086600a8190555085600b8190555084600c819055506000600d60006101000a81548160ff0219169083600581111562000273576200027262000788565b5b02179055507f3132a2cb0b8eb76453926793c3d8709cf31b987728faa0c223963e8703351188600760009054906101000a900473ffffffffffffffffffffffffffffffffffffffff16600860009054906101000a900473ffffffffffffffffffffffffffffffffffffffff16600954600a54600b54600c54604051620002ff9695949392919062000642565b60405180910390a15050505050505050505062000882565b600033905090565b6000600660009054906101000a900473ffffffffffffffffffffffffffffffffffffffff16905081600660006101000a81548173ffffffffffffffffffffffffffffffffffffffff021916908373ffffffffffffffffffffffffffffffffffffffff1602179055508173ffffffffffffffffffffffffffffffffffffffff168173ffffffffffffffffffffffffffffffffffffffff167f8be0079c531659141344cd1fd0a4f28419497f9722a3daafe3b4186f6b6457e060405160405180910390a35050565b6000600660009054906101000a900473ffffffffffffffffffffffffffffffffffffffff16905090565b80600260006101000a81548173ffffffffffffffffffffffffffffffffffffffff021916908373ffffffffffffffffffffffffffffffffffffffff16021790555050565b80600360006101000a81548173ffffffffffffffffffffffffffffffffffffffff021916908373ffffffffffffffffffffffffffffffffffffffff16021790555050565b600081519050620004a88162000834565b92915050565b600081519050620004bf816200084e565b92915050565b600081519050620004d68162000868565b92915050565b6000806000806000806000806000806101408b8d031215620005035762000502620007b7565b5b6000620005138d828e0162000497565b9a50506020620005268d828e0162000497565b9950506040620005398d828e01620004c5565b98505060606200054c8d828e01620004c5565b97505060806200055f8d828e01620004c5565b96505060a0620005728d828e01620004c5565b95505060c0620005858d828e0162000497565b94505060e0620005988d828e0162000497565b935050610100620005ac8d828e01620004c5565b925050610120620005c08d828e01620004ae565b9150509295989b9194979a5092959850565b620005dd816200074c565b82525050565b6000620005f2602183620006f3565b9150620005ff82620007bc565b604082019050919050565b600062000619602083620006f3565b915062000626826200080b565b602082019050919050565b6200063c8162000742565b82525050565b600060c082019050620006596000830189620005d2565b620006686020830188620005d2565b62000677604083018762000631565b62000686606083018662000631565b62000695608083018562000631565b620006a460a083018462000631565b979650505050505050565b60006020820190508181036000830152620006ca81620005e3565b9050919050565b60006020820190508181036000830152620006ec816200060a565b9050919050565b600082825260208201905092915050565b6000620007118262000722565b9050919050565b6000819050919050565b600073ffffffffffffffffffffffffffffffffffffffff82169050919050565b6000819050919050565b6000620007598262000760565b9050919050565b60006200076d8262000774565b9050919050565b6000620007818262000722565b9050919050565b7f4e487b7100000000000000000000000000000000000000000000000000000000600052602160045260246000fd5b600080fd5b7f4e6f7420656e6f7567682066756e64732073656e7420746f20636f6e7472616360008201527f7400000000000000000000000000000000000000000000000000000000000000602082015250565b7f4f776e61626c653a2063616c6c6572206973206e6f7420746865206f776e6572600082015250565b6200083f8162000704565b81146200084b57600080fd5b50565b620008598162000718565b81146200086557600080fd5b50565b620008738162000742565b81146200087f57600080fd5b50565b61355a80620008926000396000f3fe608060405234801561001057600080fd5b506004361061012c5760003560e01c8063715018a6116100ad578063dbc8e0c611610071578063dbc8e0c6146102c0578063dddab240146102de578063e29bb640146102fc578063f2fde38b14610318578063f9541926146103345761012c565b8063715018a6146102345780638da5cb5b1461023e578063b4bd77841461025c578063c92ae95914610280578063ce7706e2146102a45761012c565b806331c84ea6116100f457806331c84ea6146101ca57806338582b89146101d457806343d00d04146101f257806364e37314146101fc57806370da5368146102185761012c565b8063165d35e1146101315780631723537d1461014f57806317cefd291461016d5780631bce33c81461018957806327b0a930146101ac575b600080fd5b610139610350565b60405161014691906126f2565b60405180910390f35b61015761035f565b6040516101649190612883565b60405180910390f35b610187600480360381019061018291906123dc565b610376565b005b6101916106c4565b6040516101a396959493929190612a39565b60405180910390f35b6101b46106f3565b6040516101c19190612a1e565b60405180910390f35b6101d26106fd565b005b6101dc610a01565b6040516101e991906126f2565b60405180910390f35b6101fa610a2b565b005b6102166004803603810190610211919061239c565b610b5e565b005b610232600480360381019061022d919061239c565b610c68565b005b61023c610d72565b005b610246610dfa565b60405161025391906126f2565b60405180910390f35b610264610e24565b6040516102779796959493929190612728565b60405180910390f35b610288610ea8565b60405161029b9796959493929190612a9a565b60405180910390f35b6102be60048036038101906102b991906123dc565b610edf565b005b6102c8611225565b6040516102d591906126f2565b60405180910390f35b6102e661124f565b6040516102f39190612a1e565b60405180910390f35b6103166004803603810190610311919061239c565b611259565b005b610332600480360381019061032d9190612342565b611363565b005b61034e600480360381019061034991906123dc565b61145b565b005b600061035a611764565b905090565b6000600d60009054906101000a900460ff16905090565b3373ffffffffffffffffffffffffffffffffffffffff16600860009054906101000a900473ffffffffffffffffffffffffffffffffffffffff1673ffffffffffffffffffffffffffffffffffffffff1614610406576040517f08c379a00000000000000000000000000000000000000000000000000000000081526004016103fd9061295e565b60405180910390fd5b6001600581111561041a57610419613080565b5b600d60009054906101000a900460ff16600581111561043c5761043b613080565b5b1461047c576040517f08c379a0000000000000000000000000000000000000000000000000000000008152600401610473906129fe565b60405180910390fd5b4260095411156104c1576040517f08c379a00000000000000000000000000000000000000000000000000000000081526004016104b8906128fe565b60405180910390fd5b60006104cb610dfa565b73ffffffffffffffffffffffffffffffffffffffff16633f1aafe3600760009054906101000a900473ffffffffffffffffffffffffffffffffffffffff166040518263ffffffff1660e01b8152600401610525919061270d565b60206040518083038186803b15801561053d57600080fd5b505afa158015610551573d6000803e3d6000fd5b505050506040513d601f19601f820116820180604052508101906105759190612425565b9050600061058d6021543063e29bb64060e01b61178e565b90506105e16040518060400160405280600981526020017f76656869636c65496400000000000000000000000000000000000000000000008152506105d1846117bf565b836119209092919063ffffffff16565b61062b6040518060400160405280600881526020017f656e63546f6b656e00000000000000000000000000000000000000000000000081525084836119209092919063ffffffff16565b6106aa6040518060400160405280600681526020017f616374696f6e00000000000000000000000000000000000000000000000000008152506040518060400160405280600681526020017f756e6c6f636b0000000000000000000000000000000000000000000000000000815250836119209092919063ffffffff16565b6106be6106b5611953565b8260205461197d565b50505050565b600080600080600080600e54601054601154600f54601254601354955095509550955095509550909192939495565b6000600a54905090565b3373ffffffffffffffffffffffffffffffffffffffff16600760009054906101000a900473ffffffffffffffffffffffffffffffffffffffff1673ffffffffffffffffffffffffffffffffffffffff161461078d576040517f08c379a00000000000000000000000000000000000000000000000000000000081526004016107849061293e565b60405180910390fd5b600060058111156107a1576107a0613080565b5b600d60009054906101000a900460ff1660058111156107c3576107c2613080565b5b14610803576040517f08c379a00000000000000000000000000000000000000000000000000000000081526004016107fa906129be565b60405180910390fd5b600860009054906101000a900473ffffffffffffffffffffffffffffffffffffffff1673ffffffffffffffffffffffffffffffffffffffff166108fc479081150290604051600060405180830381858888f1935050505015801561086b573d6000803e3d6000fd5b506000610876611764565b90508073ffffffffffffffffffffffffffffffffffffffff1663a9059cbb61089c610dfa565b8373ffffffffffffffffffffffffffffffffffffffff166370a08231306040518263ffffffff1660e01b81526004016108d591906126f2565b60206040518083038186803b1580156108ed57600080fd5b505afa158015610901573d6000803e3d6000fd5b505050506040513d601f19601f820116820180604052508101906109259190612425565b6040518363ffffffff1660e01b8152600401610942929190612797565b602060405180830381600087803b15801561095c57600080fd5b505af1158015610970573d6000803e3d6000fd5b505050506040513d601f19601f82011682018060405250810190610994919061236f565b6109d3576040517f08c379a00000000000000000000000000000000000000000000000000000000081526004016109ca9061297e565b60405180910390fd5b6002600d60006101000a81548160ff021916908360058111156109f9576109f8613080565b5b021790555050565b6000600860009054906101000a900473ffffffffffffffffffffffffffffffffffffffff16905090565b3373ffffffffffffffffffffffffffffffffffffffff16600760009054906101000a900473ffffffffffffffffffffffffffffffffffffffff1673ffffffffffffffffffffffffffffffffffffffff1614610abb576040517f08c379a0000000000000000000000000000000000000000000000000000000008152600401610ab29061293e565b60405180910390fd5b60006005811115610acf57610ace613080565b5b600d60009054906101000a900460ff166005811115610af157610af0613080565b5b14610b31576040517f08c379a0000000000000000000000000000000000000000000000000000000008152600401610b28906129be565b60405180910390fd5b6001600d60006101000a81548160ff02191690836005811115610b5757610b56613080565b5b0217905550565b816005600082815260200190815260200160002060009054906101000a900473ffffffffffffffffffffffffffffffffffffffff1673ffffffffffffffffffffffffffffffffffffffff163373ffffffffffffffffffffffffffffffffffffffff1614610c00576040517f08c379a0000000000000000000000000000000000000000000000000000000008152600401610bf7906129de565b60405180910390fd5b6005600082815260200190815260200160002060006101000a81549073ffffffffffffffffffffffffffffffffffffffff0219169055807f7cc135e0cebb02c3480ae5d74d377283180a2601f8f644edf7987b009316c63a60405160405180910390a2505050565b816005600082815260200190815260200160002060009054906101000a900473ffffffffffffffffffffffffffffffffffffffff1673ffffffffffffffffffffffffffffffffffffffff163373ffffffffffffffffffffffffffffffffffffffff1614610d0a576040517f08c379a0000000000000000000000000000000000000000000000000000000008152600401610d01906129de565b60405180910390fd5b6005600082815260200190815260200160002060006101000a81549073ffffffffffffffffffffffffffffffffffffffff0219169055807f7cc135e0cebb02c3480ae5d74d377283180a2601f8f644edf7987b009316c63a60405160405180910390a2505050565b610d7a611a49565b73ffffffffffffffffffffffffffffffffffffffff16610d98610dfa565b73ffffffffffffffffffffffffffffffffffffffff1614610dee576040517f08c379a0000000000000000000000000000000000000000000000000000000008152600401610de59061299e565b60405180910390fd5b610df86000611a51565b565b6000600660009054906101000a900473ffffffffffffffffffffffffffffffffffffffff16905090565b6000806000806000806000600760009054906101000a900473ffffffffffffffffffffffffffffffffffffffff16600860009054906101000a900473ffffffffffffffffffffffffffffffffffffffff16600954600a54600b54600c54600d60009054906101000a900460ff16965096509650965096509650965090919293949596565b6000806000806000806000601454601954601a54601b54601c54601d54601e54965096509650965096509650965090919293949596565b610ee7611a49565b73ffffffffffffffffffffffffffffffffffffffff16610f05610dfa565b73ffffffffffffffffffffffffffffffffffffffff1614610f5b576040517f08c379a0000000000000000000000000000000000000000000000000000000008152600401610f529061299e565b60405180910390fd5b60036005811115610f6f57610f6e613080565b5b600d60009054906101000a900460ff166005811115610f9157610f90613080565b5b14610fd1576040517f08c379a0000000000000000000000000000000000000000000000000000000008152600401610fc89061291e565b60405180910390fd5b612a30600a54610fe19190612b8c565b4211611022576040517f08c379a0000000000000000000000000000000000000000000000000000000008152600401611019906128be565b60405180910390fd5b600061102c610dfa565b73ffffffffffffffffffffffffffffffffffffffff16633f1aafe3600760009054906101000a900473ffffffffffffffffffffffffffffffffffffffff166040518263ffffffff1660e01b8152600401611086919061270d565b60206040518083038186803b15801561109e57600080fd5b505afa1580156110b2573d6000803e3d6000fd5b505050506040513d601f19601f820116820180604052508101906110d69190612425565b905060006110ee602154306370da536860e01b61178e565b90506111426040518060400160405280600981526020017f76656869636c6549640000000000000000000000000000000000000000000000815250611132846117bf565b836119209092919063ffffffff16565b61118c6040518060400160405280600881526020017f656e63546f6b656e00000000000000000000000000000000000000000000000081525084836119209092919063ffffffff16565b61120b6040518060400160405280600681526020017f616374696f6e00000000000000000000000000000000000000000000000000008152506040518060400160405280600c81526020017f76656869636c655f646174610000000000000000000000000000000000000000815250836119209092919063ffffffff16565b61121f611216611953565b8260205461197d565b50505050565b6000600760009054906101000a900473ffffffffffffffffffffffffffffffffffffffff16905090565b6000600954905090565b816005600082815260200190815260200160002060009054906101000a900473ffffffffffffffffffffffffffffffffffffffff1673ffffffffffffffffffffffffffffffffffffffff163373ffffffffffffffffffffffffffffffffffffffff16146112fb576040517f08c379a00000000000000000000000000000000000000000000000000000000081526004016112f2906129de565b60405180910390fd5b6005600082815260200190815260200160002060006101000a81549073ffffffffffffffffffffffffffffffffffffffff0219169055807f7cc135e0cebb02c3480ae5d74d377283180a2601f8f644edf7987b009316c63a60405160405180910390a2505050565b61136b611a49565b73ffffffffffffffffffffffffffffffffffffffff16611389610dfa565b73ffffffffffffffffffffffffffffffffffffffff16146113df576040517f08c379a00000000000000000000000000000000000000000000000000000000081526004016113d69061299e565b60405180910390fd5b600073ffffffffffffffffffffffffffffffffffffffff168173ffffffffffffffffffffffffffffffffffffffff16141561144f576040517f08c379a00000000000000000000000000000000000000000000000000000000081526004016114469061289e565b60405180910390fd5b61145881611a51565b50565b3373ffffffffffffffffffffffffffffffffffffffff16600860009054906101000a900473ffffffffffffffffffffffffffffffffffffffff1673ffffffffffffffffffffffffffffffffffffffff16146114eb576040517f08c379a00000000000000000000000000000000000000000000000000000000081526004016114e29061295e565b60405180910390fd5b600360058111156114ff576114fe613080565b5b600d60009054906101000a900460ff16600581111561152157611520613080565b5b14611561576040517f08c379a00000000000000000000000000000000000000000000000000000000081526004016115589061291e565b60405180910390fd5b600061156b610dfa565b73ffffffffffffffffffffffffffffffffffffffff16633f1aafe3600760009054906101000a900473ffffffffffffffffffffffffffffffffffffffff166040518263ffffffff1660e01b81526004016115c5919061270d565b60206040518083038186803b1580156115dd57600080fd5b505afa1580156115f1573d6000803e3d6000fd5b505050506040513d601f19601f820116820180604052508101906116159190612425565b9050600061162d602154306364e3731460e01b61178e565b90506116816040518060400160405280600981526020017f76656869636c6549640000000000000000000000000000000000000000000000815250611671846117bf565b836119209092919063ffffffff16565b6116cb6040518060400160405280600881526020017f656e63546f6b656e00000000000000000000000000000000000000000000000081525084836119209092919063ffffffff16565b61174a6040518060400160405280600681526020017f616374696f6e00000000000000000000000000000000000000000000000000008152506040518060400160405280600481526020017f6c6f636b00000000000000000000000000000000000000000000000000000000815250836119209092919063ffffffff16565b61175e611755611953565b8260205461197d565b50505050565b6000600260009054906101000a900473ffffffffffffffffffffffffffffffffffffffff16905090565b6117966121f7565b61179e6121f7565b6117b585858584611b17909392919063ffffffff16565b9150509392505050565b60606000821415611807576040518060400160405280600181526020017f3000000000000000000000000000000000000000000000000000000000000000815250905061191b565b600082905060005b6000821461183957808061182290612f7a565b915050600a826118329190612be2565b915061180f565b60008167ffffffffffffffff811115611855576118546130de565b5b6040519080825280601f01601f1916602001820160405280156118875781602001600182028036833780820191505090505b5090505b60008514611914576001826118a09190612dde565b9150600a856118af9190612ff1565b60306118bb9190612b8c565b60f81b8183815181106118d1576118d06130af565b5b60200101907effffffffffffffffffffffffffffffffffffffffffffffffffffffffffffff1916908160001a905350600a8561190d9190612be2565b945061188b565b8093505050505b919050565b611937828460800151611bc790919063ffffffff16565b61194e818460800151611bc790919063ffffffff16565b505050565b6000600360009054906101000a900473ffffffffffffffffffffffffffffffffffffffff16905090565b60008060045490506001816119929190612b8c565b6004819055506000634042994660e01b60008087600001513089604001518760018c60800151600001516040516024016119d39897969594939291906127c0565b604051602081830303815290604052907bffffffffffffffffffffffffffffffffffffffffffffffffffffffff19166020820180517bffffffffffffffffffffffffffffffffffffffffffffffffffffffff83818316178352505050509050611a3e86838684611bec565b925050509392505050565b600033905090565b6000600660009054906101000a900473ffffffffffffffffffffffffffffffffffffffff16905081600660006101000a81548173ffffffffffffffffffffffffffffffffffffffff021916908373ffffffffffffffffffffffffffffffffffffffff1602179055508173ffffffffffffffffffffffffffffffffffffffff168173ffffffffffffffffffffffffffffffffffffffff167f8be0079c531659141344cd1fd0a4f28419497f9722a3daafe3b4186f6b6457e060405160405180910390a35050565b611b1f6121f7565b611b2f8560800151610100611d90565b508385600001818152505082856020019073ffffffffffffffffffffffffffffffffffffffff16908173ffffffffffffffffffffffffffffffffffffffff16815250508185604001907bffffffffffffffffffffffffffffffffffffffffffffffffffffffff191690817bffffffffffffffffffffffffffffffffffffffffffffffffffffffff191681525050849050949350505050565b611bd48260038351611dfa565b611be78183611f7f90919063ffffffff16565b505050565b60003084604051602001611c019291906126c6565b604051602081830303815290604052805190602001209050846005600083815260200190815260200160002060006101000a81548173ffffffffffffffffffffffffffffffffffffffff021916908373ffffffffffffffffffffffffffffffffffffffff160217905550807fb5e6e01e79f91267dc17b4e6314d5d4d03593d2ceee0fbb452b750bd70ea5af960405160405180910390a2600260009054906101000a900473ffffffffffffffffffffffffffffffffffffffff1673ffffffffffffffffffffffffffffffffffffffff16634000aea08685856040518463ffffffff1660e01b8152600401611cf793929190612845565b602060405180830381600087803b158015611d1157600080fd5b505af1158015611d25573d6000803e3d6000fd5b505050506040513d601f19601f82011682018060405250810190611d49919061236f565b611d88576040517f08c379a0000000000000000000000000000000000000000000000000000000008152600401611d7f906128de565b60405180910390fd5b949350505050565b611d98612264565b6000602083611da79190612ff1565b14611dd357602082611db99190612ff1565b6020611dc59190612dde565b82611dd09190612b8c565b91505b81836020018181525050604051808452600081528281016020016040525082905092915050565b60178167ffffffffffffffff1611611e3157611e2b8160058460ff16901b60ff161784611fa190919063ffffffff16565b50611f7a565b60ff8167ffffffffffffffff1611611e8757611e60601860058460ff16901b1784611fa190919063ffffffff16565b50611e818167ffffffffffffffff16600185611fc19092919063ffffffff16565b50611f79565b61ffff8167ffffffffffffffff1611611ede57611eb7601960058460ff16901b1784611fa190919063ffffffff16565b50611ed88167ffffffffffffffff16600285611fc19092919063ffffffff16565b50611f78565b63ffffffff8167ffffffffffffffff1611611f3757611f10601a60058460ff16901b1784611fa190919063ffffffff16565b50611f318167ffffffffffffffff16600485611fc19092919063ffffffff16565b50611f77565b611f54601b60058460ff16901b1784611fa190919063ffffffff16565b50611f758167ffffffffffffffff16600885611fc19092919063ffffffff16565b505b5b5b5b505050565b611f87612264565b611f9983846000015151848551611fe3565b905092915050565b611fa9612264565b611fb983846000015151846120d2565b905092915050565b611fc9612264565b611fda848560000151518585612129565b90509392505050565b611feb612264565b8251821115611ff957600080fd5b8460200151828561200a9190612b8c565b111561203f5761203e85600261202f8860200151888761202a9190612b8c565b6121b7565b6120399190612d84565b6121d3565b5b60008086518051876020830101935080888701111561205e5787860182525b60208701925050505b602084106120a557805182526020826120809190612b8c565b915060208161208f9190612b8c565b905060208461209e9190612dde565b9350612067565b60006001856020036101000a03905080198251168184511681811785525050508692505050949350505050565b6120da612264565b83602001518310612100576120ff84600286602001516120fa9190612d84565b6121d3565b5b835180516020858301018481538186141561211c576001820183525b5050508390509392505050565b612131612264565b846020015184836121429190612b8c565b111561216a57612169856002868561215a9190612b8c565b6121649190612d84565b6121d3565b5b600060018361010061217c9190612c66565b6121869190612dde565b905085518386820101858319825116178152815185880111156121a95784870182525b505085915050949350505050565b6000818311156121c9578290506121cd565b8190505b92915050565b6000826000015190506121e68383611d90565b506121f18382611f7f565b50505050565b6040518060a0016040528060008019168152602001600073ffffffffffffffffffffffffffffffffffffffff16815260200160007bffffffffffffffffffffffffffffffffffffffffffffffffffffffff191681526020016000815260200161225e612264565b81525090565b604051806040016040528060608152602001600081525090565b600061229161228c84612b2e565b612b09565b9050828152602081018484840111156122ad576122ac613112565b5b6122b8848285612f07565b509392505050565b6000813590506122cf816134c8565b92915050565b6000815190506122e4816134df565b92915050565b6000813590506122f9816134f6565b92915050565b600082601f8301126123145761231361310d565b5b813561232484826020860161227e565b91505092915050565b60008151905061233c8161350d565b92915050565b6000602082840312156123585761235761311c565b5b6000612366848285016122c0565b91505092915050565b6000602082840312156123855761238461311c565b5b6000612393848285016122d5565b91505092915050565b600080604083850312156123b3576123b261311c565b5b60006123c1858286016122ea565b92505060206123d2858286016122ea565b9150509250929050565b6000602082840312156123f2576123f161311c565b5b600082013567ffffffffffffffff8111156124105761240f613117565b5b61241c848285016122ff565b91505092915050565b60006020828403121561243b5761243a61311c565b5b60006124498482850161232d565b91505092915050565b61245b81612ead565b82525050565b61246a81612e12565b82525050565b61247981612e30565b82525050565b61248881612e3a565b82525050565b600061249982612b5f565b6124a38185612b6a565b93506124b3818560208601612f16565b6124bc81613121565b840191505092915050565b6124d86124d382612ebf565b612fc3565b82525050565b6124e781612ed1565b82525050565b6124f681612e79565b82525050565b6000612509602683612b7b565b91506125148261314c565b604082019050919050565b600061252c603283612b7b565b91506125378261319b565b604082019050919050565b600061254f602383612b7b565b915061255a826131ea565b604082019050919050565b6000612572602483612b7b565b915061257d82613239565b604082019050919050565b6000612595602183612b7b565b91506125a082613288565b604082019050919050565b60006125b8602883612b7b565b91506125c3826132d7565b604082019050919050565b60006125db602983612b7b565b91506125e682613326565b604082019050919050565b60006125fe601283612b7b565b915061260982613375565b602082019050919050565b6000612621602083612b7b565b915061262c8261339e565b602082019050919050565b6000612644602383612b7b565b915061264f826133c7565b604082019050919050565b6000612667602883612b7b565b915061267282613416565b604082019050919050565b600061268a602383612b7b565b915061269582613465565b604082019050919050565b6126a981612ea3565b82525050565b6126c06126bb82612ea3565b612fe7565b82525050565b60006126d282856124c7565b6014820191506126e282846126af565b6020820191508190509392505050565b60006020820190506127076000830184612461565b92915050565b60006020820190506127226000830184612452565b92915050565b600060e08201905061273d600083018a612461565b61274a6020830189612461565b61275760408301886126a0565b61276460608301876126a0565b61277160808301866126a0565b61277e60a08301856126a0565b61278b60c08301846124de565b98975050505050505050565b60006040820190506127ac6000830185612461565b6127b960208301846126a0565b9392505050565b6000610100820190506127d6600083018b612461565b6127e3602083018a6126a0565b6127f06040830189612470565b6127fd6060830188612461565b61280a608083018761247f565b61281760a08301866126a0565b61282460c08301856126a0565b81810360e0830152612836818461248e565b90509998505050505050505050565b600060608201905061285a6000830186612461565b61286760208301856126a0565b8181036040830152612879818461248e565b9050949350505050565b600060208201905061289860008301846124de565b92915050565b600060208201905081810360008301526128b7816124fc565b9050919050565b600060208201905081810360008301526128d78161251f565b9050919050565b600060208201905081810360008301526128f781612542565b9050919050565b6000602082019050818103600083015261291781612565565b9050919050565b6000602082019050818103600083015261293781612588565b9050919050565b60006020820190508181036000830152612957816125ab565b9050919050565b60006020820190508181036000830152612977816125ce565b9050919050565b60006020820190508181036000830152612997816125f1565b9050919050565b600060208201905081810360008301526129b781612614565b9050919050565b600060208201905081810360008301526129d781612637565b9050919050565b600060208201905081810360008301526129f78161265a565b9050919050565b60006020820190508181036000830152612a178161267d565b9050919050565b6000602082019050612a3360008301846126a0565b92915050565b600060c082019050612a4e60008301896126a0565b612a5b60208301886124ed565b612a6860408301876124ed565b612a7560608301866126a0565b612a8260808301856124ed565b612a8f60a08301846124ed565b979650505050505050565b600060e082019050612aaf600083018a6126a0565b612abc60208301896126a0565b612ac960408301886126a0565b612ad660608301876126a0565b612ae360808301866126a0565b612af060a08301856126a0565b612afd60c08301846126a0565b98975050505050505050565b6000612b13612b24565b9050612b1f8282612f49565b919050565b6000604051905090565b600067ffffffffffffffff821115612b4957612b486130de565b5b612b5282613121565b9050602081019050919050565b600081519050919050565b600082825260208201905092915050565b600082825260208201905092915050565b6000612b9782612ea3565b9150612ba283612ea3565b9250827fffffffffffffffffffffffffffffffffffffffffffffffffffffffffffffffff03821115612bd757612bd6613022565b5b828201905092915050565b6000612bed82612ea3565b9150612bf883612ea3565b925082612c0857612c07613051565b5b828204905092915050565b6000808291508390505b6001851115612c5d57808604811115612c3957612c38613022565b5b6001851615612c485780820291505b8081029050612c568561313f565b9450612c1d565b94509492505050565b6000612c7182612ea3565b9150612c7c83612ea3565b9250612ca97fffffffffffffffffffffffffffffffffffffffffffffffffffffffffffffffff8484612cb1565b905092915050565b600082612cc15760019050612d7d565b81612ccf5760009050612d7d565b8160018114612ce55760028114612cef57612d1e565b6001915050612d7d565b60ff841115612d0157612d00613022565b5b8360020a915084821115612d1857612d17613022565b5b50612d7d565b5060208310610133831016604e8410600b8410161715612d535782820a905083811115612d4e57612d4d613022565b5b612d7d565b612d608484846001612c13565b92509050818404811115612d7757612d76613022565b5b81810290505b9392505050565b6000612d8f82612ea3565b9150612d9a83612ea3565b9250817fffffffffffffffffffffffffffffffffffffffffffffffffffffffffffffffff0483118215151615612dd357612dd2613022565b5b828202905092915050565b6000612de982612ea3565b9150612df483612ea3565b925082821015612e0757612e06613022565b5b828203905092915050565b6000612e1d82612e83565b9050919050565b60008115159050919050565b6000819050919050565b60007fffffffff0000000000000000000000000000000000000000000000000000000082169050919050565b6000819050612e74826134b4565b919050565b6000819050919050565b600073ffffffffffffffffffffffffffffffffffffffff82169050919050565b6000819050919050565b6000612eb882612ee3565b9050919050565b6000612eca82612ee3565b9050919050565b6000612edc82612e66565b9050919050565b6000612eee82612ef5565b9050919050565b6000612f0082612e83565b9050919050565b82818337600083830152505050565b60005b83811015612f34578082015181840152602081019050612f19565b83811115612f43576000848401525b50505050565b612f5282613121565b810181811067ffffffffffffffff82111715612f7157612f706130de565b5b80604052505050565b6000612f8582612ea3565b91507fffffffffffffffffffffffffffffffffffffffffffffffffffffffffffffffff821415612fb857612fb7613022565b5b600182019050919050565b6000612fce82612fd5565b9050919050565b6000612fe082613132565b9050919050565b6000819050919050565b6000612ffc82612ea3565b915061300783612ea3565b92508261301757613016613051565b5b828206905092915050565b7f4e487b7100000000000000000000000000000000000000000000000000000000600052601160045260246000fd5b7f4e487b7100000000000000000000000000000000000000000000000000000000600052601260045260246000fd5b7f4e487b7100000000000000000000000000000000000000000000000000000000600052602160045260246000fd5b7f4e487b7100000000000000000000000000000000000000000000000000000000600052603260045260246000fd5b7f4e487b7100000000000000000000000000000000000000000000000000000000600052604160045260246000fd5b600080fd5b600080fd5b600080fd5b600080fd5b6000601f19601f8301169050919050565b60008160601b9050919050565b60008160011c9050919050565b7f4f776e61626c653a206e6577206f776e657220697320746865207a65726f206160008201527f6464726573730000000000000000000000000000000000000000000000000000602082015250565b7f41677265656d656e74206e6f7420656c696769626c6520666f7220666f72636560008201527f642063616e63656c6c6174696f6e207965740000000000000000000000000000602082015250565b7f756e61626c6520746f207472616e73666572416e6443616c6c20746f206f726160008201527f636c650000000000000000000000000000000000000000000000000000000000602082015250565b7f537461727420446174652f54696d6520686173206e6f74206265656e2072656160008201527f6368656400000000000000000000000000000000000000000000000000000000602082015250565b7f436f6e7472616374206d75737420626520696e2041435449564520737461747560008201527f7300000000000000000000000000000000000000000000000000000000000000602082015250565b7f4f6e6c792056656869636c65204f776e65722063616e20706572666f726d207460008201527f6869732073746570000000000000000000000000000000000000000000000000602082015250565b7f4f6e6c792056656869636c652052656e7465722063616e20706572666f726d2060008201527f7468697320737465700000000000000000000000000000000000000000000000602082015250565b7f556e61626c6520746f207472616e736665720000000000000000000000000000600082015250565b7f4f776e61626c653a2063616c6c6572206973206e6f7420746865206f776e6572600082015250565b7f436f6e7472616374206d75737420626520696e2050524f504f5345442073746160008201527f7475730000000000000000000000000000000000000000000000000000000000602082015250565b7f536f75726365206d75737420626520746865206f7261636c65206f662074686560008201527f2072657175657374000000000000000000000000000000000000000000000000602082015250565b7f436f6e7472616374206d75737420626520696e20415050524f5645442073746160008201527f7475730000000000000000000000000000000000000000000000000000000000602082015250565b600681106134c5576134c4613080565b5b50565b6134d181612e12565b81146134dc57600080fd5b50565b6134e881612e24565b81146134f357600080fd5b50565b6134ff81612e30565b811461350a57600080fd5b50565b61351681612ea3565b811461352157600080fd5b5056fea264697066735822122079d19a106af34bf2df910ce65f4e5fa1f28f59ef56b95378de9b083eefa0bb0464736f6c63430008070033",
  "linkReferences": {},
  "deployedLinkReferences": {}
}