{
  "_format": "hh-sol-artifact-1",
  "contractName": "LigoRentalAgreement",
  "sourceName": "contracts/LigoRentalAgreement.sol",
  "abi": [
    {
      "inputs": [
        {
          "internalType": "address",
          "name": "_vehicleOwner",
          "type": "address"
        },
        {
          "internalType": "address",
          "name": "_renter",
          "type": "address"
        },
        {
          "internalType": "uint256",
          "name": "_startDateTime",
          "type": "uint256"
        },
        {
          "internalType": "uint256",
          "name": "_endDateTime",
          "type": "uint256"
        },
        {
          "internalType": "uint256",
          "name": "_totalRentCost",
          "type": "uint256"
        },
        {
          "internalType": "uint256",
          "name": "_totalBond",
          "type": "uint256"
        },
        {
          "internalType": "address",
          "name": "_link",
          "type": "address"
        },
        {
          "internalType": "address",
          "name": "_oracle",
          "type": "address"
        },
        {
          "internalType": "uint256",
          "name": "_oraclePaymentAmount",
          "type": "uint256"
        },
        {
          "internalType": "bytes32",
          "name": "_jobId",
          "type": "bytes32"
        }
      ],
      "stateMutability": "payable",
      "type": "constructor"
    },
    {
      "anonymous": false,
      "inputs": [
        {
          "indexed": true,
          "internalType": "bytes32",
          "name": "id",
          "type": "bytes32"
        }
      ],
      "name": "ChainlinkCancelled",
      "type": "event"
    },
    {
      "anonymous": false,
      "inputs": [
        {
          "indexed": true,
          "internalType": "bytes32",
          "name": "id",
          "type": "bytes32"
        }
      ],
      "name": "ChainlinkFulfilled",
      "type": "event"
    },
    {
      "anonymous": false,
      "inputs": [
        {
          "indexed": true,
          "internalType": "bytes32",
          "name": "id",
          "type": "bytes32"
        }
      ],
      "name": "ChainlinkRequested",
      "type": "event"
    },
    {
      "anonymous": false,
      "inputs": [
        {
          "indexed": true,
          "internalType": "address",
          "name": "previousOwner",
          "type": "address"
        },
        {
          "indexed": true,
          "internalType": "address",
          "name": "newOwner",
          "type": "address"
        }
      ],
      "name": "OwnershipTransferred",
      "type": "event"
    },
    {
      "anonymous": false,
      "inputs": [
        {
          "indexed": false,
          "internalType": "uint256",
          "name": "_platformFee",
          "type": "uint256"
        },
        {
          "indexed": false,
          "internalType": "uint256",
          "name": "_totalRent",
          "type": "uint256"
        },
        {
          "indexed": false,
          "internalType": "uint256",
          "name": "_totalBondReturned",
          "type": "uint256"
        },
        {
          "indexed": false,
          "internalType": "uint256",
          "name": "_totalBondForfeitted",
          "type": "uint256"
        },
        {
          "indexed": false,
          "internalType": "uint256",
          "name": "_timePenality",
          "type": "uint256"
        },
        {
          "indexed": false,
          "internalType": "uint256",
          "name": "_locationPenalty",
          "type": "uint256"
        },
        {
          "indexed": false,
          "internalType": "uint256",
          "name": "_kmPenalty",
          "type": "uint256"
        }
      ],
      "name": "agreementPayments",
      "type": "event"
    },
    {
      "anonymous": false,
      "inputs": [
        {
          "indexed": false,
          "internalType": "uint256",
          "name": "_startOdometer",
          "type": "uint256"
        },
        {
          "indexed": false,
          "internalType": "int256",
          "name": "_startVehicleLongitude",
          "type": "int256"
        },
        {
          "indexed": false,
          "internalType": "int256",
          "name": "_startVehicleLatitude",
          "type": "int256"
        }
      ],
      "name": "contractActive",
      "type": "event"
    },
    {
      "anonymous": false,
      "inputs": [
        {
          "indexed": false,
          "internalType": "uint256",
          "name": "_endOdometer",
          "type": "uint256"
        },
        {
          "indexed": false,
          "internalType": "int256",
          "name": "_endVehicleLongitude",
          "type": "int256"
        },
        {
          "indexed": false,
          "internalType": "int256",
          "name": "_endVehicleLatitide",
          "type": "int256"
        }
      ],
      "name": "contractCompleted",
      "type": "event"
    },
    {
      "anonymous": false,
      "inputs": [
        {
          "indexed": false,
          "internalType": "uint256",
          "name": "_endOdometer",
          "type": "uint256"
        },
        {
          "indexed": false,
          "internalType": "int256",
          "name": "_endVehicleLongitude",
          "type": "int256"
        },
        {
          "indexed": false,
          "internalType": "int256",
          "name": "_endVehicleLatitide",
          "type": "int256"
        }
      ],
      "name": "contractCompletedError",
      "type": "event"
    },
    {
      "anonymous": false,
      "inputs": [
        {
          "indexed": false,
          "internalType": "address",
          "name": "_vehicleOwner",
          "type": "address"
        },
        {
          "indexed": false,
          "internalType": "address",
          "name": "_renter",
          "type": "address"
        },
        {
          "indexed": false,
          "internalType": "uint256",
          "name": "_startDateTime",
          "type": "uint256"
        },
        {
          "indexed": false,
          "internalType": "uint256",
          "name": "_endDateTime",
          "type": "uint256"
        },
        {
          "indexed": false,
          "internalType": "uint256",
          "name": "_totalRentCost",
          "type": "uint256"
        },
        {
          "indexed": false,
          "internalType": "uint256",
          "name": "_totalBond",
          "type": "uint256"
        }
      ],
      "name": "rentalAgreementCreated",
      "type": "event"
    },
    {
      "inputs": [
        {
          "internalType": "string",
          "name": "_encToken",
          "type": "string"
        }
      ],
      "name": "activateRentalContract",
      "outputs": [],
      "stateMutability": "nonpayable",
      "type": "function"
    },
    {
      "inputs": [
        {
          "internalType": "bytes32",
          "name": "_requestId",
          "type": "bytes32"
        },
        {
          "internalType": "uint256",
          "name": "_startOdometer",
          "type": "uint256"
        },
        {
          "internalType": "int256",
          "name": "_startLongitude",
          "type": "int256"
        },
        {
          "internalType": "int256",
          "name": "_startLatitude",
          "type": "int256"
        }
      ],
      "name": "activateRentalContractCallback",
      "outputs": [],
      "stateMutability": "nonpayable",
      "type": "function"
    },
    {
      "inputs": [],
      "name": "approveContract",
      "outputs": [],
      "stateMutability": "nonpayable",
      "type": "function"
    },
    {
      "inputs": [
        {
          "internalType": "string",
          "name": "_encToken",
          "type": "string"
        }
      ],
      "name": "endRentalContract",
      "outputs": [],
      "stateMutability": "nonpayable",
      "type": "function"
    },
    {
      "inputs": [
        {
          "internalType": "bytes32",
          "name": "_requestId",
          "type": "bytes32"
        },
        {
          "internalType": "uint256",
          "name": "_endOdometer",
          "type": "uint256"
        },
        {
          "internalType": "int256",
          "name": "_endLongitude",
          "type": "int256"
        },
        {
          "internalType": "int256",
          "name": "_endLatitude",
          "type": "int256"
        }
      ],
      "name": "endRentalContractCallback",
      "outputs": [],
      "stateMutability": "nonpayable",
      "type": "function"
    },
    {
      "inputs": [
        {
          "internalType": "string",
          "name": "_encToken",
          "type": "string"
        }
      ],
      "name": "forceEndRentalContract",
      "outputs": [],
      "stateMutability": "nonpayable",
      "type": "function"
    },
    {
      "inputs": [
        {
          "internalType": "bytes32",
          "name": "_requestId",
          "type": "bytes32"
        },
        {
          "internalType": "uint256",
          "name": "_endOdometer",
          "type": "uint256"
        },
        {
          "internalType": "int256",
          "name": "_endLongitude",
          "type": "int256"
        },
        {
          "internalType": "int256",
          "name": "_endLatitude",
          "type": "int256"
        }
      ],
      "name": "forceEndRentalContractCallback",
      "outputs": [],
      "stateMutability": "nonpayable",
      "type": "function"
    },
    {
      "inputs": [],
      "name": "getAgreementData",
      "outputs": [
        {
          "internalType": "uint256",
          "name": "",
          "type": "uint256"
        },
        {
          "internalType": "int256",
          "name": "",
          "type": "int256"
        },
        {
          "internalType": "int256",
          "name": "",
          "type": "int256"
        },
        {
          "internalType": "uint256",
          "name": "",
          "type": "uint256"
        },
        {
          "internalType": "int256",
          "name": "",
          "type": "int256"
        },
        {
          "internalType": "int256",
          "name": "",
          "type": "int256"
        }
      ],
      "stateMutability": "view",
      "type": "function"
    },
    {
      "inputs": [],
      "name": "getAgreementDetails",
      "outputs": [
        {
          "internalType": "address",
          "name": "",
          "type": "address"
        },
        {
          "internalType": "address",
          "name": "",
          "type": "address"
        },
        {
          "internalType": "uint256",
          "name": "",
          "type": "uint256"
        },
        {
          "internalType": "uint256",
          "name": "",
          "type": "uint256"
        },
        {
          "internalType": "uint256",
          "name": "",
          "type": "uint256"
        },
        {
          "internalType": "uint256",
          "name": "",
          "type": "uint256"
        },
        {
          "internalType": "enum LigoAgreementsFactory.RentalAgreementStatus",
          "name": "",
          "type": "uint8"
        }
      ],
      "stateMutability": "view",
      "type": "function"
    },
    {
      "inputs": [],
      "name": "getAgreementEndTime",
      "outputs": [
        {
          "internalType": "uint256",
          "name": "",
          "type": "uint256"
        }
      ],
      "stateMutability": "view",
      "type": "function"
    },
    {
      "inputs": [],
      "name": "getAgreementStartTime",
      "outputs": [
        {
          "internalType": "uint256",
          "name": "",
          "type": "uint256"
        }
      ],
      "stateMutability": "view",
      "type": "function"
    },
    {
      "inputs": [],
      "name": "getAgreementStatus",
      "outputs": [
        {
          "internalType": "enum LigoAgreementsFactory.RentalAgreementStatus",
          "name": "",
          "type": "uint8"
        }
      ],
      "stateMutability": "view",
      "type": "function"
    },
    {
      "inputs": [],
      "name": "getChainlinkToken",
      "outputs": [
        {
          "internalType": "address",
          "name": "",
          "type": "address"
        }
      ],
      "stateMutability": "view",
      "type": "function"
    },
    {
      "inputs": [],
      "name": "getPaymentDetails",
      "outputs": [
        {
          "internalType": "uint256",
          "name": "",
          "type": "uint256"
        },
        {
          "internalType": "uint256",
          "name": "",
          "type": "uint256"
        },
        {
          "internalType": "uint256",
          "name": "",
          "type": "uint256"
        },
        {
          "internalType": "uint256",
          "name": "",
          "type": "uint256"
        },
        {
          "internalType": "uint256",
          "name": "",
          "type": "uint256"
        },
        {
          "internalType": "uint256",
          "name": "",
          "type": "uint256"
        },
        {
          "internalType": "uint256",
          "name": "",
          "type": "uint256"
        }
      ],
      "stateMutability": "view",
      "type": "function"
    },
    {
      "inputs": [],
      "name": "getVehicleOwner",
      "outputs": [
        {
          "internalType": "address",
          "name": "",
          "type": "address"
        }
      ],
      "stateMutability": "view",
      "type": "function"
    },
    {
      "inputs": [],
      "name": "getVehicleRenter",
      "outputs": [
        {
          "internalType": "address",
          "name": "",
          "type": "address"
        }
      ],
      "stateMutability": "view",
      "type": "function"
    },
    {
      "inputs": [],
      "name": "owner",
      "outputs": [
        {
          "internalType": "address",
          "name": "",
          "type": "address"
        }
      ],
      "stateMutability": "view",
      "type": "function"
    },
    {
      "inputs": [],
      "name": "rejectContract",
      "outputs": [],
      "stateMutability": "nonpayable",
      "type": "function"
    },
    {
      "inputs": [],
      "name": "renounceOwnership",
      "outputs": [],
      "stateMutability": "nonpayable",
      "type": "function"
    },
    {
      "inputs": [
        {
          "internalType": "address",
          "name": "newOwner",
          "type": "address"
        }
      ],
      "name": "transferOwnership",
      "outputs": [],
      "stateMutability": "nonpayable",
      "type": "function"
    }
  ],
  "bytecode": "0x608060405260016004556000600e556000600f5560006010556000601155600060125560006013556000601455600060155560006016556000601755600060185560006019556000601a556000601b556000601c556000601d556000601e556000601f55604051620043db380380620043db833981810160405281019062000088919062000430565b620000a86200009c6200029560201b60201c565b6200029d60201b60201c565b8585620000b691906200060f565b3411620000fa576040517f08c379a0000000000000000000000000000000000000000000000000000000008152600401620000f190620005dc565b60405180910390fd5b6200010b846200036360201b60201c565b6200011c83620003a760201b60201c565b806021819055508160208190555089600760006101000a81548173ffffffffffffffffffffffffffffffffffffffff021916908373ffffffffffffffffffffffffffffffffffffffff16021790555088600860006101000a81548173ffffffffffffffffffffffffffffffffffffffff021916908373ffffffffffffffffffffffffffffffffffffffff1602179055508760098190555086600a8190555085600b8190555084600c819055506000600d60006101000a81548160ff02191690836005811115620001f157620001f06200071f565b5b02179055507f3132a2cb0b8eb76453926793c3d8709cf31b987728faa0c223963e8703351188600760009054906101000a900473ffffffffffffffffffffffffffffffffffffffff16600860009054906101000a900473ffffffffffffffffffffffffffffffffffffffff16600954600a54600b54600c546040516200027d969594939291906200056f565b60405180910390a150505050505050505050620007f0565b600033905090565b6000600660009054906101000a900473ffffffffffffffffffffffffffffffffffffffff16905081600660006101000a81548173ffffffffffffffffffffffffffffffffffffffff021916908373ffffffffffffffffffffffffffffffffffffffff1602179055508173ffffffffffffffffffffffffffffffffffffffff168173ffffffffffffffffffffffffffffffffffffffff167f8be0079c531659141344cd1fd0a4f28419497f9722a3daafe3b4186f6b6457e060405160405180910390a35050565b80600260006101000a81548173ffffffffffffffffffffffffffffffffffffffff021916908373ffffffffffffffffffffffffffffffffffffffff16021790555050565b80600360006101000a81548173ffffffffffffffffffffffffffffffffffffffff021916908373ffffffffffffffffffffffffffffffffffffffff16021790555050565b600081519050620003fc81620007a2565b92915050565b6000815190506200041381620007bc565b92915050565b6000815190506200042a81620007d6565b92915050565b6000806000806000806000806000806101408b8d0312156200045757620004566200074e565b5b6000620004678d828e01620003eb565b9a505060206200047a8d828e01620003eb565b99505060406200048d8d828e0162000419565b9850506060620004a08d828e0162000419565b9750506080620004b38d828e0162000419565b96505060a0620004c68d828e0162000419565b95505060c0620004d98d828e01620003eb565b94505060e0620004ec8d828e01620003eb565b935050610100620005008d828e0162000419565b925050610120620005148d828e0162000402565b9150509295989b9194979a5092959850565b6200053181620006b4565b82525050565b600062000546602183620005fe565b9150620005538262000753565b604082019050919050565b6200056981620006aa565b82525050565b600060c08201905062000586600083018962000526565b62000595602083018862000526565b620005a460408301876200055e565b620005b360608301866200055e565b620005c260808301856200055e565b620005d160a08301846200055e565b979650505050505050565b60006020820190508181036000830152620005f78162000537565b9050919050565b600082825260208201905092915050565b60006200061c82620006aa565b91506200062983620006aa565b9250827fffffffffffffffffffffffffffffffffffffffffffffffffffffffffffffffff03821115620006615762000660620006f0565b5b828201905092915050565b600062000679826200068a565b9050919050565b6000819050919050565b600073ffffffffffffffffffffffffffffffffffffffff82169050919050565b6000819050919050565b6000620006c182620006c8565b9050919050565b6000620006d582620006dc565b9050919050565b6000620006e9826200068a565b9050919050565b7f4e487b7100000000000000000000000000000000000000000000000000000000600052601160045260246000fd5b7f4e487b7100000000000000000000000000000000000000000000000000000000600052602160045260246000fd5b600080fd5b7f4e6f7420656e6f7567682066756e64732073656e7420746f20636f6e7472616360008201527f7400000000000000000000000000000000000000000000000000000000000000602082015250565b620007ad816200066c565b8114620007b957600080fd5b50565b620007c78162000680565b8114620007d357600080fd5b50565b620007e181620006aa565b8114620007ed57600080fd5b50565b613bdb80620008006000396000f3fe608060405234801561001057600080fd5b506004361061012c5760003560e01c8063715018a6116100ad578063ce7706e211610071578063ce7706e2146102c0578063dbc8e0c6146102dc578063dddab240146102fa578063f2fde38b14610318578063f9541926146103345761012c565b8063715018a6146102345780638da5cb5b1461023e578063b4bd77841461025c578063b9548eda14610280578063c92ae9591461029c5761012c565b806327b0a930116100f457806327b0a930146101c85780632afb4068146101e657806331c84ea61461020257806338582b891461020c57806343d00d041461022a5761012c565b8063165d35e1146101315780631723537d1461014f57806317cefd291461016d5780631bce33c8146101895780632053d78c146101ac575b600080fd5b610139610350565b6040516101469190612d09565b60405180910390f35b61015761035f565b6040516101649190612e9a565b60405180910390f35b610187600480360381019061018291906129cd565b610376565b005b6101916106c1565b6040516101a396959493929190613067565b60405180910390f35b6101c660048036038101906101c19190612966565b6106f0565b005b6101d061098b565b6040516101dd9190613015565b60405180910390f35b61020060048036038101906101fb9190612966565b610995565b005b61020a610f2d565b005b6102146111f3565b6040516102219190612d09565b60405180910390f35b61023261121d565b005b61023c611350565b005b6102466113d8565b6040516102539190612d09565b60405180910390f35b610264611402565b6040516102779796959493929190612d3f565b60405180910390f35b61029a60048036038101906102959190612966565b611486565b005b6102a4611613565b6040516102b797969594939291906130c8565b60405180910390f35b6102da60048036038101906102d591906129cd565b61164a565b005b6102e46119a1565b6040516102f19190612d09565b60405180910390f35b6103026119cb565b60405161030f9190613015565b60405180910390f35b610332600480360381019061032d919061290c565b6119d5565b005b61034e600480360381019061034991906129cd565b611acd565b005b600061035a611dd3565b905090565b6000600d60009054906101000a900460ff16905090565b3373ffffffffffffffffffffffffffffffffffffffff16600860009054906101000a900473ffffffffffffffffffffffffffffffffffffffff1673ffffffffffffffffffffffffffffffffffffffff1614610406576040517f08c379a00000000000000000000000000000000000000000000000000000000081526004016103fd90612f75565b60405180910390fd5b6001600581111561041a57610419613742565b5b600d60009054906101000a900460ff16600581111561043c5761043b613742565b5b1461047c576040517f08c379a000000000000000000000000000000000000000000000000000000000815260040161047390612ff5565b60405180910390fd5b4260095411156104c1576040517f08c379a00000000000000000000000000000000000000000000000000000000081526004016104b890612f15565b60405180910390fd5b60006104cb6113d8565b73ffffffffffffffffffffffffffffffffffffffff16633f1aafe3600760009054906101000a900473ffffffffffffffffffffffffffffffffffffffff166040518263ffffffff1660e01b81526004016105259190612d24565b60006040518083038186803b15801561053d57600080fd5b505afa158015610551573d6000803e3d6000fd5b505050506040513d6000823e3d601f19601f8201168201806040525081019061057a9190612a16565b905060006105926021543063b9548eda60e01b611dfd565b90506105de6040518060400160405280600981526020017f76656869636c65496400000000000000000000000000000000000000000000008152508383611e2e9092919063ffffffff16565b6106286040518060400160405280600881526020017f656e63546f6b656e0000000000000000000000000000000000000000000000008152508483611e2e9092919063ffffffff16565b6106a76040518060400160405280600681526020017f616374696f6e00000000000000000000000000000000000000000000000000008152506040518060400160405280600681526020017f756e6c6f636b000000000000000000000000000000000000000000000000000081525083611e2e9092919063ffffffff16565b6106bb6106b2611e61565b82602054611e8b565b50505050565b600080600080600080600e54601054601154600f54601254601354955095509550955095509550909192939495565b836005600082815260200190815260200160002060009054906101000a900473ffffffffffffffffffffffffffffffffffffffff1673ffffffffffffffffffffffffffffffffffffffff163373ffffffffffffffffffffffffffffffffffffffff1614610792576040517f08c379a000000000000000000000000000000000000000000000000000000000815260040161078990612fd5565b60405180910390fd5b6005600082815260200190815260200160002060006101000a81549073ffffffffffffffffffffffffffffffffffffffff0219169055807f7cc135e0cebb02c3480ae5d74d377283180a2601f8f644edf7987b009316c63a60405160405180910390a283600f819055508260128190555081601381905550600160646108189190613210565b600b546108259190613210565b601c81905550601c54600b5461083b91906134a0565b601d81905550600c54601f819055506108526113d8565b73ffffffffffffffffffffffffffffffffffffffff166108fc601c549081150290604051600060405180830381858888f19350505050158015610899573d6000803e3d6000fd5b506000601f54601d546108ac91906131ba565b9050600760009054906101000a900473ffffffffffffffffffffffffffffffffffffffff1673ffffffffffffffffffffffffffffffffffffffff166108fc829081150290604051600060405180830381858888f19350505050158015610916573d6000803e3d6000fd5b506005600d60006101000a81548160ff0219169083600581111561093d5761093c613742565b5b02179055507f0f8471b07aa834f7bdec51c4767701ea242e0cddf089e2c6fb2732d217b1c880600f5460125460135460405161097b93929190613030565b60405180910390a1505050505050565b6000600a54905090565b836005600082815260200190815260200160002060009054906101000a900473ffffffffffffffffffffffffffffffffffffffff1673ffffffffffffffffffffffffffffffffffffffff163373ffffffffffffffffffffffffffffffffffffffff1614610a37576040517f08c379a0000000000000000000000000000000000000000000000000000000008152600401610a2e90612fd5565b60405180910390fd5b6005600082815260200190815260200160002060006101000a81549073ffffffffffffffffffffffffffffffffffffffff0219169055807f7cc135e0cebb02c3480ae5d74d377283180a2601f8f644edf7987b009316c63a60405160405180910390a283600f8190555082601281905550816013819055504260148190555060016064610ac49190613210565b600b54610ad19190613210565b601c81905550601c54600b54610ae791906134a0565b601d81905550600e54600f54610afd91906134a0565b60158190555060056015541115610b495760016064610b1c9190613210565b600c54610b299190613210565b6005601554610b3891906134a0565b610b4291906133b2565b601a819055505b600a546014541115610c0157600a54601454610b6591906134a0565b601681905550612a306016541115610c0057610e10612a30601654610b8a91906134a0565b1015610bb65760016064610b9e9190613210565b600c54610bab9190613210565b601b81905550610bff565b60016064610bc49190613210565b600c54610bd19190613210565b610e10612a30601654610be491906134a0565b610bee9190613210565b610bf891906133b2565b601b819055505b5b5b610c19601254601054610c14919061340c565b611f57565b601781905550610c37601354601154610c32919061340c565b611f57565b601881905550600a6017541115610c885760016064610c569190613210565b600c54610c639190613210565b612710601754610c739190613210565b610c7d91906133b2565b601981905550610cd0565b600a6018541115610ccf5760016064610ca19190613210565b600c54610cae9190613210565b612710601854610cbe9190613210565b610cc891906133b2565b6019819055505b5b601954601b54601a54610ce391906131ba565b610ced91906131ba565b601f81905550600c54601f541115610d0d57600c54601f81905550610d24565b601f54600c54610d1d91906134a0565b601e819055505b610d2c6113d8565b73ffffffffffffffffffffffffffffffffffffffff166108fc601c549081150290604051600060405180830381858888f19350505050158015610d73573d6000803e3d6000fd5b506000601f54601d54610d8691906131ba565b9050600760009054906101000a900473ffffffffffffffffffffffffffffffffffffffff1673ffffffffffffffffffffffffffffffffffffffff166108fc829081150290604051600060405180830381858888f19350505050158015610df0573d6000803e3d6000fd5b506000601e541115610e6857600860009054906101000a900473ffffffffffffffffffffffffffffffffffffffff1673ffffffffffffffffffffffffffffffffffffffff166108fc601e549081150290604051600060405180830381858888f19350505050158015610e66573d6000803e3d6000fd5b505b6004600d60006101000a81548160ff02191690836005811115610e8e57610e8d613742565b5b02179055507f2b0da50a9f3e635e4867ebdd1ae92c657705d81584e4346770bc26c0b66308d1601c54601d54601e54601f54601b54601954601a54604051610edc97969594939291906130c8565b60405180910390a17f5f10e40433cd5d42d0bde2f03ba7e122f1ad2993f1c7333b2ce74dc0cdfab18a600f54601254601354604051610f1d93929190613030565b60405180910390a1505050505050565b3373ffffffffffffffffffffffffffffffffffffffff16600760009054906101000a900473ffffffffffffffffffffffffffffffffffffffff1673ffffffffffffffffffffffffffffffffffffffff1614610fbd576040517f08c379a0000000000000000000000000000000000000000000000000000000008152600401610fb490612f55565b60405180910390fd5b60006005811115610fd157610fd0613742565b5b600d60009054906101000a900460ff166005811115610ff357610ff2613742565b5b14611033576040517f08c379a000000000000000000000000000000000000000000000000000000000815260040161102a90612fb5565b60405180910390fd5b600860009054906101000a900473ffffffffffffffffffffffffffffffffffffffff1673ffffffffffffffffffffffffffffffffffffffff166108fc479081150290604051600060405180830381858888f1935050505015801561109b573d6000803e3d6000fd5b5060006110a6611dd3565b90508073ffffffffffffffffffffffffffffffffffffffff1663a9059cbb6110cc6113d8565b8373ffffffffffffffffffffffffffffffffffffffff166370a08231306040518263ffffffff1660e01b81526004016111059190612d09565b60206040518083038186803b15801561111d57600080fd5b505afa158015611131573d6000803e3d6000fd5b505050506040513d601f19601f820116820180604052508101906111559190612a5f565b6040518363ffffffff1660e01b8152600401611172929190612dae565b602060405180830381600087803b15801561118c57600080fd5b505af11580156111a0573d6000803e3d6000fd5b505050506040513d601f19601f820116820180604052508101906111c49190612939565b506002600d60006101000a81548160ff021916908360058111156111eb576111ea613742565b5b021790555050565b6000600860009054906101000a900473ffffffffffffffffffffffffffffffffffffffff16905090565b3373ffffffffffffffffffffffffffffffffffffffff16600760009054906101000a900473ffffffffffffffffffffffffffffffffffffffff1673ffffffffffffffffffffffffffffffffffffffff16146112ad576040517f08c379a00000000000000000000000000000000000000000000000000000000081526004016112a490612f55565b60405180910390fd5b600060058111156112c1576112c0613742565b5b600d60009054906101000a900460ff1660058111156112e3576112e2613742565b5b14611323576040517f08c379a000000000000000000000000000000000000000000000000000000000815260040161131a90612fb5565b60405180910390fd5b6001600d60006101000a81548160ff0219169083600581111561134957611348613742565b5b0217905550565b611358611f79565b73ffffffffffffffffffffffffffffffffffffffff166113766113d8565b73ffffffffffffffffffffffffffffffffffffffff16146113cc576040517f08c379a00000000000000000000000000000000000000000000000000000000081526004016113c390612f95565b60405180910390fd5b6113d66000611f81565b565b6000600660009054906101000a900473ffffffffffffffffffffffffffffffffffffffff16905090565b6000806000806000806000600760009054906101000a900473ffffffffffffffffffffffffffffffffffffffff16600860009054906101000a900473ffffffffffffffffffffffffffffffffffffffff16600954600a54600b54600c54600d60009054906101000a900460ff16965096509650965096509650965090919293949596565b836005600082815260200190815260200160002060009054906101000a900473ffffffffffffffffffffffffffffffffffffffff1673ffffffffffffffffffffffffffffffffffffffff163373ffffffffffffffffffffffffffffffffffffffff1614611528576040517f08c379a000000000000000000000000000000000000000000000000000000000815260040161151f90612fd5565b60405180910390fd5b6005600082815260200190815260200160002060006101000a81549073ffffffffffffffffffffffffffffffffffffffff0219169055807f7cc135e0cebb02c3480ae5d74d377283180a2601f8f644edf7987b009316c63a60405160405180910390a283600e8190555082601081905550816011819055506003600d60006101000a81548160ff021916908360058111156115c6576115c5613742565b5b02179055507fecffdc5f6e74be4dabdb4e5f024eec5677f5be94e1715541b3e6294cd4e11dff600e5460105460115460405161160493929190613030565b60405180910390a15050505050565b6000806000806000806000601454601954601a54601b54601c54601d54601e54965096509650965096509650965090919293949596565b3373ffffffffffffffffffffffffffffffffffffffff16600760009054906101000a900473ffffffffffffffffffffffffffffffffffffffff1673ffffffffffffffffffffffffffffffffffffffff16146116da576040517f08c379a00000000000000000000000000000000000000000000000000000000081526004016116d190612f55565b60405180910390fd5b600360058111156116ee576116ed613742565b5b600d60009054906101000a900460ff1660058111156117105761170f613742565b5b14611750576040517f08c379a000000000000000000000000000000000000000000000000000000000815260040161174790612f35565b60405180910390fd5b612a30600a5461176091906131ba565b42116117a1576040517f08c379a000000000000000000000000000000000000000000000000000000000815260040161179890612ed5565b60405180910390fd5b60006117ab6113d8565b73ffffffffffffffffffffffffffffffffffffffff16633f1aafe3600760009054906101000a900473ffffffffffffffffffffffffffffffffffffffff166040518263ffffffff1660e01b81526004016118059190612d24565b60006040518083038186803b15801561181d57600080fd5b505afa158015611831573d6000803e3d6000fd5b505050506040513d6000823e3d601f19601f8201168201806040525081019061185a9190612a16565b9050600061187260215430632053d78c60e01b611dfd565b90506118be6040518060400160405280600981526020017f76656869636c65496400000000000000000000000000000000000000000000008152508383611e2e9092919063ffffffff16565b6119086040518060400160405280600881526020017f656e63546f6b656e0000000000000000000000000000000000000000000000008152508483611e2e9092919063ffffffff16565b6119876040518060400160405280600681526020017f616374696f6e00000000000000000000000000000000000000000000000000008152506040518060400160405280600c81526020017f76656869636c655f64617461000000000000000000000000000000000000000081525083611e2e9092919063ffffffff16565b61199b611992611e61565b82602054611e8b565b50505050565b6000600760009054906101000a900473ffffffffffffffffffffffffffffffffffffffff16905090565b6000600954905090565b6119dd611f79565b73ffffffffffffffffffffffffffffffffffffffff166119fb6113d8565b73ffffffffffffffffffffffffffffffffffffffff1614611a51576040517f08c379a0000000000000000000000000000000000000000000000000000000008152600401611a4890612f95565b60405180910390fd5b600073ffffffffffffffffffffffffffffffffffffffff168173ffffffffffffffffffffffffffffffffffffffff161415611ac1576040517f08c379a0000000000000000000000000000000000000000000000000000000008152600401611ab890612eb5565b60405180910390fd5b611aca81611f81565b50565b3373ffffffffffffffffffffffffffffffffffffffff16600860009054906101000a900473ffffffffffffffffffffffffffffffffffffffff1673ffffffffffffffffffffffffffffffffffffffff1614611b5d576040517f08c379a0000000000000000000000000000000000000000000000000000000008152600401611b5490612f75565b60405180910390fd5b60036005811115611b7157611b70613742565b5b600d60009054906101000a900460ff166005811115611b9357611b92613742565b5b14611bd3576040517f08c379a0000000000000000000000000000000000000000000000000000000008152600401611bca90612f35565b60405180910390fd5b6000611bdd6113d8565b73ffffffffffffffffffffffffffffffffffffffff16633f1aafe3600760009054906101000a900473ffffffffffffffffffffffffffffffffffffffff166040518263ffffffff1660e01b8152600401611c379190612d24565b60006040518083038186803b158015611c4f57600080fd5b505afa158015611c63573d6000803e3d6000fd5b505050506040513d6000823e3d601f19601f82011682018060405250810190611c8c9190612a16565b90506000611ca460215430632afb406860e01b611dfd565b9050611cf06040518060400160405280600981526020017f76656869636c65496400000000000000000000000000000000000000000000008152508383611e2e9092919063ffffffff16565b611d3a6040518060400160405280600881526020017f656e63546f6b656e0000000000000000000000000000000000000000000000008152508483611e2e9092919063ffffffff16565b611db96040518060400160405280600681526020017f616374696f6e00000000000000000000000000000000000000000000000000008152506040518060400160405280600481526020017f6c6f636b0000000000000000000000000000000000000000000000000000000081525083611e2e9092919063ffffffff16565b611dcd611dc4611e61565b82602054611e8b565b50505050565b6000600260009054906101000a900473ffffffffffffffffffffffffffffffffffffffff16905090565b611e05612727565b611e0d612727565b611e2485858584612047909392919063ffffffff16565b9150509392505050565b611e458284608001516120f790919063ffffffff16565b611e5c8184608001516120f790919063ffffffff16565b505050565b6000600360009054906101000a900473ffffffffffffffffffffffffffffffffffffffff16905090565b6000806004549050600181611ea091906131ba565b6004819055506000634042994660e01b60008087600001513089604001518760018c6080015160000151604051602401611ee1989796959493929190612dd7565b604051602081830303815290604052907bffffffffffffffffffffffffffffffffffffffffffffffffffffffff19166020820180517bffffffffffffffffffffffffffffffffffffffffffffffffffffffff83818316178352505050509050611f4c8683868461211c565b925050509392505050565b600080821215611f705781611f6b9061369b565b611f72565b815b9050919050565b600033905090565b6000600660009054906101000a900473ffffffffffffffffffffffffffffffffffffffff16905081600660006101000a81548173ffffffffffffffffffffffffffffffffffffffff021916908373ffffffffffffffffffffffffffffffffffffffff1602179055508173ffffffffffffffffffffffffffffffffffffffff168173ffffffffffffffffffffffffffffffffffffffff167f8be0079c531659141344cd1fd0a4f28419497f9722a3daafe3b4186f6b6457e060405160405180910390a35050565b61204f612727565b61205f85608001516101006122c0565b508385600001818152505082856020019073ffffffffffffffffffffffffffffffffffffffff16908173ffffffffffffffffffffffffffffffffffffffff16815250508185604001907bffffffffffffffffffffffffffffffffffffffffffffffffffffffff191690817bffffffffffffffffffffffffffffffffffffffffffffffffffffffff191681525050849050949350505050565b612104826003835161232a565b61211781836124af90919063ffffffff16565b505050565b60003084604051602001612131929190612cdd565b604051602081830303815290604052805190602001209050846005600083815260200190815260200160002060006101000a81548173ffffffffffffffffffffffffffffffffffffffff021916908373ffffffffffffffffffffffffffffffffffffffff160217905550807fb5e6e01e79f91267dc17b4e6314d5d4d03593d2ceee0fbb452b750bd70ea5af960405160405180910390a2600260009054906101000a900473ffffffffffffffffffffffffffffffffffffffff1673ffffffffffffffffffffffffffffffffffffffff16634000aea08685856040518463ffffffff1660e01b815260040161222793929190612e5c565b602060405180830381600087803b15801561224157600080fd5b505af1158015612255573d6000803e3d6000fd5b505050506040513d601f19601f820116820180604052508101906122799190612939565b6122b8576040517f08c379a00000000000000000000000000000000000000000000000000000000081526004016122af90612ef5565b60405180910390fd5b949350505050565b6122c8612794565b60006020836122d7919061366a565b14612303576020826122e9919061366a565b60206122f591906134a0565b8261230091906131ba565b91505b81836020018181525050604051808452600081528281016020016040525082905092915050565b60178167ffffffffffffffff16116123615761235b8160058460ff16901b60ff1617846124d190919063ffffffff16565b506124aa565b60ff8167ffffffffffffffff16116123b757612390601860058460ff16901b17846124d190919063ffffffff16565b506123b18167ffffffffffffffff166001856124f19092919063ffffffff16565b506124a9565b61ffff8167ffffffffffffffff161161240e576123e7601960058460ff16901b17846124d190919063ffffffff16565b506124088167ffffffffffffffff166002856124f19092919063ffffffff16565b506124a8565b63ffffffff8167ffffffffffffffff161161246757612440601a60058460ff16901b17846124d190919063ffffffff16565b506124618167ffffffffffffffff166004856124f19092919063ffffffff16565b506124a7565b612484601b60058460ff16901b17846124d190919063ffffffff16565b506124a58167ffffffffffffffff166008856124f19092919063ffffffff16565b505b5b5b5b505050565b6124b7612794565b6124c983846000015151848551612513565b905092915050565b6124d9612794565b6124e98384600001515184612602565b905092915050565b6124f9612794565b61250a848560000151518585612659565b90509392505050565b61251b612794565b825182111561252957600080fd5b8460200151828561253a91906131ba565b111561256f5761256e85600261255f8860200151888761255a91906131ba565b6126e7565b61256991906133b2565b612703565b5b60008086518051876020830101935080888701111561258e5787860182525b60208701925050505b602084106125d557805182526020826125b091906131ba565b91506020816125bf91906131ba565b90506020846125ce91906134a0565b9350612597565b60006001856020036101000a03905080198251168184511681811785525050508692505050949350505050565b61260a612794565b836020015183106126305761262f846002866020015161262a91906133b2565b612703565b5b835180516020858301018481538186141561264c576001820183525b5050508390509392505050565b612661612794565b8460200151848361267291906131ba565b111561269a57612699856002868561268a91906131ba565b61269491906133b2565b612703565b5b60006001836101006126ac9190613294565b6126b691906134a0565b905085518386820101858319825116178152815185880111156126d95784870182525b505085915050949350505050565b6000818311156126f9578290506126fd565b8190505b92915050565b60008260000151905061271683836122c0565b5061272183826124af565b50505050565b6040518060a0016040528060008019168152602001600073ffffffffffffffffffffffffffffffffffffffff16815260200160007bffffffffffffffffffffffffffffffffffffffffffffffffffffffff191681526020016000815260200161278e612794565b81525090565b604051806040016040528060608152602001600081525090565b60006127c16127bc8461315c565b613137565b9050828152602081018484840111156127dd576127dc6137a5565b5b6127e88482856135c9565b509392505050565b60006128036127fe8461315c565b613137565b90508281526020810184848401111561281f5761281e6137a5565b5b61282a8482856135d8565b509392505050565b60008135905061284181613b32565b92915050565b60008151905061285681613b49565b92915050565b60008135905061286b81613b60565b92915050565b60008135905061288081613b77565b92915050565b600082601f83011261289b5761289a6137a0565b5b81356128ab8482602086016127ae565b91505092915050565b600082601f8301126128c9576128c86137a0565b5b81516128d98482602086016127f0565b91505092915050565b6000813590506128f181613b8e565b92915050565b60008151905061290681613b8e565b92915050565b600060208284031215612922576129216137af565b5b600061293084828501612832565b91505092915050565b60006020828403121561294f5761294e6137af565b5b600061295d84828501612847565b91505092915050565b600080600080608085870312156129805761297f6137af565b5b600061298e8782880161285c565b945050602061299f878288016128e2565b93505060406129b087828801612871565b92505060606129c187828801612871565b91505092959194509250565b6000602082840312156129e3576129e26137af565b5b600082013567ffffffffffffffff811115612a0157612a006137aa565b5b612a0d84828501612886565b91505092915050565b600060208284031215612a2c57612a2b6137af565b5b600082015167ffffffffffffffff811115612a4a57612a496137aa565b5b612a56848285016128b4565b91505092915050565b600060208284031215612a7557612a746137af565b5b6000612a83848285016128f7565b91505092915050565b612a958161356f565b82525050565b612aa4816134d4565b82525050565b612ab3816134f2565b82525050565b612ac2816134fc565b82525050565b6000612ad38261318d565b612add8185613198565b9350612aed8185602086016135d8565b612af6816137b4565b840191505092915050565b612b12612b0d82613581565b61363c565b82525050565b612b2181613593565b82525050565b612b308161353b565b82525050565b6000612b436026836131a9565b9150612b4e826137df565b604082019050919050565b6000612b666032836131a9565b9150612b718261382e565b604082019050919050565b6000612b896023836131a9565b9150612b948261387d565b604082019050919050565b6000612bac6024836131a9565b9150612bb7826138cc565b604082019050919050565b6000612bcf6021836131a9565b9150612bda8261391b565b604082019050919050565b6000612bf26028836131a9565b9150612bfd8261396a565b604082019050919050565b6000612c156029836131a9565b9150612c20826139b9565b604082019050919050565b6000612c386020836131a9565b9150612c4382613a08565b602082019050919050565b6000612c5b6023836131a9565b9150612c6682613a31565b604082019050919050565b6000612c7e6028836131a9565b9150612c8982613a80565b604082019050919050565b6000612ca16023836131a9565b9150612cac82613acf565b604082019050919050565b612cc081613565565b82525050565b612cd7612cd282613565565b613660565b82525050565b6000612ce98285612b01565b601482019150612cf98284612cc6565b6020820191508190509392505050565b6000602082019050612d1e6000830184612a9b565b92915050565b6000602082019050612d396000830184612a8c565b92915050565b600060e082019050612d54600083018a612a9b565b612d616020830189612a9b565b612d6e6040830188612cb7565b612d7b6060830187612cb7565b612d886080830186612cb7565b612d9560a0830185612cb7565b612da260c0830184612b18565b98975050505050505050565b6000604082019050612dc36000830185612a9b565b612dd06020830184612cb7565b9392505050565b600061010082019050612ded600083018b612a9b565b612dfa602083018a612cb7565b612e076040830189612aaa565b612e146060830188612a9b565b612e216080830187612ab9565b612e2e60a0830186612cb7565b612e3b60c0830185612cb7565b81810360e0830152612e4d8184612ac8565b90509998505050505050505050565b6000606082019050612e716000830186612a9b565b612e7e6020830185612cb7565b8181036040830152612e908184612ac8565b9050949350505050565b6000602082019050612eaf6000830184612b18565b92915050565b60006020820190508181036000830152612ece81612b36565b9050919050565b60006020820190508181036000830152612eee81612b59565b9050919050565b60006020820190508181036000830152612f0e81612b7c565b9050919050565b60006020820190508181036000830152612f2e81612b9f565b9050919050565b60006020820190508181036000830152612f4e81612bc2565b9050919050565b60006020820190508181036000830152612f6e81612be5565b9050919050565b60006020820190508181036000830152612f8e81612c08565b9050919050565b60006020820190508181036000830152612fae81612c2b565b9050919050565b60006020820190508181036000830152612fce81612c4e565b9050919050565b60006020820190508181036000830152612fee81612c71565b9050919050565b6000602082019050818103600083015261300e81612c94565b9050919050565b600060208201905061302a6000830184612cb7565b92915050565b60006060820190506130456000830186612cb7565b6130526020830185612b27565b61305f6040830184612b27565b949350505050565b600060c08201905061307c6000830189612cb7565b6130896020830188612b27565b6130966040830187612b27565b6130a36060830186612cb7565b6130b06080830185612b27565b6130bd60a0830184612b27565b979650505050505050565b600060e0820190506130dd600083018a612cb7565b6130ea6020830189612cb7565b6130f76040830188612cb7565b6131046060830187612cb7565b6131116080830186612cb7565b61311e60a0830185612cb7565b61312b60c0830184612cb7565b98975050505050505050565b6000613141613152565b905061314d828261360b565b919050565b6000604051905090565b600067ffffffffffffffff82111561317757613176613771565b5b613180826137b4565b9050602081019050919050565b600081519050919050565b600082825260208201905092915050565b600082825260208201905092915050565b60006131c582613565565b91506131d083613565565b9250827fffffffffffffffffffffffffffffffffffffffffffffffffffffffffffffffff03821115613205576132046136e4565b5b828201905092915050565b600061321b82613565565b915061322683613565565b92508261323657613235613713565b5b828204905092915050565b6000808291508390505b600185111561328b57808604811115613267576132666136e4565b5b60018516156132765780820291505b8081029050613284856137d2565b945061324b565b94509492505050565b600061329f82613565565b91506132aa83613565565b92506132d77fffffffffffffffffffffffffffffffffffffffffffffffffffffffffffffffff84846132df565b905092915050565b6000826132ef57600190506133ab565b816132fd57600090506133ab565b8160018114613313576002811461331d5761334c565b60019150506133ab565b60ff84111561332f5761332e6136e4565b5b8360020a915084821115613346576133456136e4565b5b506133ab565b5060208310610133831016604e8410600b84101617156133815782820a90508381111561337c5761337b6136e4565b5b6133ab565b61338e8484846001613241565b925090508184048111156133a5576133a46136e4565b5b81810290505b9392505050565b60006133bd82613565565b91506133c883613565565b9250817fffffffffffffffffffffffffffffffffffffffffffffffffffffffffffffffff0483118215151615613401576134006136e4565b5b828202905092915050565b60006134178261353b565b91506134228361353b565b9250827f80000000000000000000000000000000000000000000000000000000000000000182126000841215161561345d5761345c6136e4565b5b827f7fffffffffffffffffffffffffffffffffffffffffffffffffffffffffffffff018213600084121615613495576134946136e4565b5b828203905092915050565b60006134ab82613565565b91506134b683613565565b9250828210156134c9576134c86136e4565b5b828203905092915050565b60006134df82613545565b9050919050565b60008115159050919050565b6000819050919050565b60007fffffffff0000000000000000000000000000000000000000000000000000000082169050919050565b600081905061353682613b1e565b919050565b6000819050919050565b600073ffffffffffffffffffffffffffffffffffffffff82169050919050565b6000819050919050565b600061357a826135a5565b9050919050565b600061358c826135a5565b9050919050565b600061359e82613528565b9050919050565b60006135b0826135b7565b9050919050565b60006135c282613545565b9050919050565b82818337600083830152505050565b60005b838110156135f65780820151818401526020810190506135db565b83811115613605576000848401525b50505050565b613614826137b4565b810181811067ffffffffffffffff8211171561363357613632613771565b5b80604052505050565b60006136478261364e565b9050919050565b6000613659826137c5565b9050919050565b6000819050919050565b600061367582613565565b915061368083613565565b9250826136905761368f613713565b5b828206905092915050565b60006136a68261353b565b91507f80000000000000000000000000000000000000000000000000000000000000008214156136d9576136d86136e4565b5b816000039050919050565b7f4e487b7100000000000000000000000000000000000000000000000000000000600052601160045260246000fd5b7f4e487b7100000000000000000000000000000000000000000000000000000000600052601260045260246000fd5b7f4e487b7100000000000000000000000000000000000000000000000000000000600052602160045260246000fd5b7f4e487b7100000000000000000000000000000000000000000000000000000000600052604160045260246000fd5b600080fd5b600080fd5b600080fd5b600080fd5b6000601f19601f8301169050919050565b60008160601b9050919050565b60008160011c9050919050565b7f4f776e61626c653a206e6577206f776e657220697320746865207a65726f206160008201527f6464726573730000000000000000000000000000000000000000000000000000602082015250565b7f41677265656d656e74206e6f7420656c696769626c6520666f7220666f72636560008201527f642063616e63656c6c6174696f6e207965740000000000000000000000000000602082015250565b7f756e61626c6520746f207472616e73666572416e6443616c6c20746f206f726160008201527f636c650000000000000000000000000000000000000000000000000000000000602082015250565b7f537461727420446174652f54696d6520686173206e6f74206265656e2072656160008201527f6368656400000000000000000000000000000000000000000000000000000000602082015250565b7f436f6e7472616374206d75737420626520696e2041435449564520737461747560008201527f7300000000000000000000000000000000000000000000000000000000000000602082015250565b7f4f6e6c792056656869636c65204f776e65722063616e20706572666f726d207460008201527f6869732073746570000000000000000000000000000000000000000000000000602082015250565b7f4f6e6c792056656869636c652052656e7465722063616e20706572666f726d2060008201527f7468697320737465700000000000000000000000000000000000000000000000602082015250565b7f4f776e61626c653a2063616c6c6572206973206e6f7420746865206f776e6572600082015250565b7f436f6e7472616374206d75737420626520696e2050524f504f5345442073746160008201527f7475730000000000000000000000000000000000000000000000000000000000602082015250565b7f536f75726365206d75737420626520746865206f7261636c65206f662074686560008201527f2072657175657374000000000000000000000000000000000000000000000000602082015250565b7f436f6e7472616374206d75737420626520696e20415050524f5645442073746160008201527f7475730000000000000000000000000000000000000000000000000000000000602082015250565b60068110613b2f57613b2e613742565b5b50565b613b3b816134d4565b8114613b4657600080fd5b50565b613b52816134e6565b8114613b5d57600080fd5b50565b613b69816134f2565b8114613b7457600080fd5b50565b613b808161353b565b8114613b8b57600080fd5b50565b613b9781613565565b8114613ba257600080fd5b5056fea26469706673582212209d2a1a47393bfdbc608b96aee81d2d1e955ca8861e0b5b597a35f65e6eb4f3ea64736f6c63430008070033",
  "linkReferences": {},
  "deployedLinkReferences": {}
}