{
  "_format": "hh-sol-artifact-1",
  "contractName": "LigoRentalAgreement",
  "sourceName": "contracts/LigoRentalAgreement.sol",
  "abi": [
    {
      "inputs": [
        {
          "components": [
            {
              "internalType": "address",
              "name": "vehicleOwner",
              "type": "address"
            },
            {
              "internalType": "address",
              "name": "renter",
              "type": "address"
            },
            {
              "internalType": "string",
              "name": "vehicleId",
              "type": "string"
            },
            {
              "internalType": "uint256",
              "name": "startDateTime",
              "type": "uint256"
            },
            {
              "internalType": "uint256",
              "name": "endDateTime",
              "type": "uint256"
            },
            {
              "internalType": "uint256",
              "name": "totalRentCost",
              "type": "uint256"
            },
            {
              "internalType": "uint256",
              "name": "bondRequired",
              "type": "uint256"
            },
            {
              "internalType": "address",
              "name": "linkToken",
              "type": "address"
            },
            {
              "internalType": "address",
              "name": "oracleContract",
              "type": "address"
            },
            {
              "internalType": "uint256",
              "name": "oraclePayment",
              "type": "uint256"
            },
            {
              "internalType": "bytes32",
              "name": "jobId",
              "type": "bytes32"
            }
          ],
          "internalType": "struct LigoAgreementsFactory.Agreement",
          "name": "_agreementDetails",
          "type": "tuple"
        }
      ],
      "stateMutability": "payable",
      "type": "constructor"
    },
    {
      "anonymous": false,
      "inputs": [
        {
          "indexed": true,
          "internalType": "bytes32",
          "name": "id",
          "type": "bytes32"
        }
      ],
      "name": "ChainlinkCancelled",
      "type": "event"
    },
    {
      "anonymous": false,
      "inputs": [
        {
          "indexed": true,
          "internalType": "bytes32",
          "name": "id",
          "type": "bytes32"
        }
      ],
      "name": "ChainlinkFulfilled",
      "type": "event"
    },
    {
      "anonymous": false,
      "inputs": [
        {
          "indexed": true,
          "internalType": "bytes32",
          "name": "id",
          "type": "bytes32"
        }
      ],
      "name": "ChainlinkRequested",
      "type": "event"
    },
    {
      "anonymous": false,
      "inputs": [
        {
          "indexed": true,
          "internalType": "address",
          "name": "previousOwner",
          "type": "address"
        },
        {
          "indexed": true,
          "internalType": "address",
          "name": "newOwner",
          "type": "address"
        }
      ],
      "name": "OwnershipTransferred",
      "type": "event"
    },
    {
      "anonymous": false,
      "inputs": [
        {
          "indexed": false,
          "internalType": "uint256",
          "name": "_platformFee",
          "type": "uint256"
        },
        {
          "indexed": false,
          "internalType": "uint256",
          "name": "_totalRent",
          "type": "uint256"
        },
        {
          "indexed": false,
          "internalType": "uint256",
          "name": "_totalBondReturned",
          "type": "uint256"
        },
        {
          "indexed": false,
          "internalType": "uint256",
          "name": "_totalBondForfeitted",
          "type": "uint256"
        },
        {
          "indexed": false,
          "internalType": "uint256",
          "name": "_timePenality",
          "type": "uint256"
        },
        {
          "indexed": false,
          "internalType": "uint256",
          "name": "_locationPenalty",
          "type": "uint256"
        },
        {
          "indexed": false,
          "internalType": "uint256",
          "name": "_kmPenalty",
          "type": "uint256"
        }
      ],
      "name": "agreementPayments",
      "type": "event"
    },
    {
      "anonymous": false,
      "inputs": [
        {
          "indexed": false,
          "internalType": "uint256",
          "name": "_startOdometer",
          "type": "uint256"
        },
        {
          "indexed": false,
          "internalType": "int256",
          "name": "_startVehicleLongitude",
          "type": "int256"
        },
        {
          "indexed": false,
          "internalType": "int256",
          "name": "_startVehicleLatitude",
          "type": "int256"
        }
      ],
      "name": "contractActive",
      "type": "event"
    },
    {
      "anonymous": false,
      "inputs": [
        {
          "indexed": false,
          "internalType": "uint256",
          "name": "_endOdometer",
          "type": "uint256"
        },
        {
          "indexed": false,
          "internalType": "int256",
          "name": "_endVehicleLongitude",
          "type": "int256"
        },
        {
          "indexed": false,
          "internalType": "int256",
          "name": "_endVehicleLatitide",
          "type": "int256"
        }
      ],
      "name": "contractCompleted",
      "type": "event"
    },
    {
      "anonymous": false,
      "inputs": [
        {
          "indexed": false,
          "internalType": "address",
          "name": "_vehicleOwner",
          "type": "address"
        },
        {
          "indexed": false,
          "internalType": "address",
          "name": "_renter",
          "type": "address"
        },
        {
          "indexed": false,
          "internalType": "string",
          "name": "_vehicleId",
          "type": "string"
        },
        {
          "indexed": false,
          "internalType": "uint256",
          "name": "_startDateTime",
          "type": "uint256"
        },
        {
          "indexed": false,
          "internalType": "uint256",
          "name": "_endDateTime",
          "type": "uint256"
        },
        {
          "indexed": false,
          "internalType": "uint256",
          "name": "_totalRentCost",
          "type": "uint256"
        },
        {
          "indexed": false,
          "internalType": "uint256",
          "name": "_totalBond",
          "type": "uint256"
        }
      ],
      "name": "rentalAgreementCreated",
      "type": "event"
    },
    {
      "inputs": [
        {
          "internalType": "string",
          "name": "_encToken",
          "type": "string"
        }
      ],
      "name": "activateRentalContract",
      "outputs": [],
      "stateMutability": "nonpayable",
      "type": "function"
    },
    {
      "inputs": [
        {
          "internalType": "bytes32",
          "name": "_requestId",
          "type": "bytes32"
        },
        {
          "internalType": "uint256",
          "name": "_startOdometer",
          "type": "uint256"
        },
        {
          "internalType": "int256",
          "name": "_startLongitude",
          "type": "int256"
        },
        {
          "internalType": "int256",
          "name": "_startLatitude",
          "type": "int256"
        }
      ],
      "name": "activateRentalContractCallback",
      "outputs": [],
      "stateMutability": "nonpayable",
      "type": "function"
    },
    {
      "inputs": [],
      "name": "approveContract",
      "outputs": [],
      "stateMutability": "nonpayable",
      "type": "function"
    },
    {
      "inputs": [
        {
          "internalType": "string",
          "name": "_encToken",
          "type": "string"
        }
      ],
      "name": "endRentalContract",
      "outputs": [],
      "stateMutability": "nonpayable",
      "type": "function"
    },
    {
      "inputs": [
        {
          "internalType": "bytes32",
          "name": "_requestId",
          "type": "bytes32"
        },
        {
          "internalType": "uint256",
          "name": "_endOdometer",
          "type": "uint256"
        },
        {
          "internalType": "int256",
          "name": "_endLongitude",
          "type": "int256"
        },
        {
          "internalType": "int256",
          "name": "_endLatitude",
          "type": "int256"
        }
      ],
      "name": "endRentalContractCallback",
      "outputs": [],
      "stateMutability": "payable",
      "type": "function"
    },
    {
      "inputs": [],
      "name": "getAgreementData",
      "outputs": [
        {
          "internalType": "uint256",
          "name": "",
          "type": "uint256"
        },
        {
          "internalType": "int256",
          "name": "",
          "type": "int256"
        },
        {
          "internalType": "int256",
          "name": "",
          "type": "int256"
        },
        {
          "internalType": "uint256",
          "name": "",
          "type": "uint256"
        },
        {
          "internalType": "int256",
          "name": "",
          "type": "int256"
        },
        {
          "internalType": "int256",
          "name": "",
          "type": "int256"
        }
      ],
      "stateMutability": "view",
      "type": "function"
    },
    {
      "inputs": [],
      "name": "getAgreementDetails",
      "outputs": [
        {
          "internalType": "address",
          "name": "",
          "type": "address"
        },
        {
          "internalType": "address",
          "name": "",
          "type": "address"
        },
        {
          "internalType": "uint256",
          "name": "",
          "type": "uint256"
        },
        {
          "internalType": "uint256",
          "name": "",
          "type": "uint256"
        },
        {
          "internalType": "uint256",
          "name": "",
          "type": "uint256"
        },
        {
          "internalType": "uint256",
          "name": "",
          "type": "uint256"
        },
        {
          "internalType": "enum LigoAgreementsFactory.RentalAgreementStatus",
          "name": "",
          "type": "uint8"
        }
      ],
      "stateMutability": "view",
      "type": "function"
    },
    {
      "inputs": [],
      "name": "getAgreementEndTime",
      "outputs": [
        {
          "internalType": "uint256",
          "name": "",
          "type": "uint256"
        }
      ],
      "stateMutability": "view",
      "type": "function"
    },
    {
      "inputs": [],
      "name": "getAgreementStartTime",
      "outputs": [
        {
          "internalType": "uint256",
          "name": "",
          "type": "uint256"
        }
      ],
      "stateMutability": "view",
      "type": "function"
    },
    {
      "inputs": [],
      "name": "getAgreementStatus",
      "outputs": [
        {
          "internalType": "enum LigoAgreementsFactory.RentalAgreementStatus",
          "name": "",
          "type": "uint8"
        }
      ],
      "stateMutability": "view",
      "type": "function"
    },
    {
      "inputs": [],
      "name": "getChainlinkToken",
      "outputs": [
        {
          "internalType": "address",
          "name": "",
          "type": "address"
        }
      ],
      "stateMutability": "view",
      "type": "function"
    },
    {
      "inputs": [],
      "name": "getPaymentDetails",
      "outputs": [
        {
          "internalType": "uint256",
          "name": "",
          "type": "uint256"
        },
        {
          "internalType": "uint256",
          "name": "",
          "type": "uint256"
        },
        {
          "internalType": "uint256",
          "name": "",
          "type": "uint256"
        },
        {
          "internalType": "uint256",
          "name": "",
          "type": "uint256"
        },
        {
          "internalType": "uint256",
          "name": "",
          "type": "uint256"
        },
        {
          "internalType": "uint256",
          "name": "",
          "type": "uint256"
        }
      ],
      "stateMutability": "view",
      "type": "function"
    },
    {
      "inputs": [],
      "name": "getVehicleOwner",
      "outputs": [
        {
          "internalType": "address",
          "name": "",
          "type": "address"
        }
      ],
      "stateMutability": "view",
      "type": "function"
    },
    {
      "inputs": [],
      "name": "getVehicleRenter",
      "outputs": [
        {
          "internalType": "address",
          "name": "",
          "type": "address"
        }
      ],
      "stateMutability": "view",
      "type": "function"
    },
    {
      "inputs": [],
      "name": "owner",
      "outputs": [
        {
          "internalType": "address",
          "name": "",
          "type": "address"
        }
      ],
      "stateMutability": "view",
      "type": "function"
    },
    {
      "inputs": [],
      "name": "rejectContract",
      "outputs": [],
      "stateMutability": "payable",
      "type": "function"
    },
    {
      "inputs": [],
      "name": "renounceOwnership",
      "outputs": [],
      "stateMutability": "nonpayable",
      "type": "function"
    },
    {
      "inputs": [
        {
          "internalType": "address",
          "name": "newOwner",
          "type": "address"
        }
      ],
      "name": "transferOwnership",
      "outputs": [],
      "stateMutability": "nonpayable",
      "type": "function"
    }
  ],
  "bytecode": "0x608060405260016004556064600755600a600855611c20600955600060125560006013556000601455600060155560006016556000601755600060185560006019556000601a556000601b556000601c556000601d556000601e5560405162002140380380620021408339810160408190526200007c91620003d7565b620000873362000231565b8060c001518160a001516200009d919062000574565b341015620000f15760405162461bcd60e51b815260206004820152601d60248201527f496e73756666696369656e742072656e74202620626f6e642070616964000000604482015260640160405180910390fd5b60e08101516200011d90600280546001600160a01b0319166001600160a01b0392909216919091179055565b6101008101516200014a90600380546001600160a01b0319166001600160a01b0392909216919091179055565b610140810151601f5561012081015160209081558151600a80546001600160a01b039283166001600160a01b03199182161790915582840151600b805491909316911617905560408201518051620001a792600c92019062000283565b506060810151600d8190556080820151600e81905560a0830151600f81905560c084015160108190556011805460ff191690558451602086015160408088015190517f74fd000967411f0e26e596d01668b091792f0faf4e27596fe49c83aa610804e2976200022297949693959294909390929091620004dd565b60405180910390a15062000621565b600680546001600160a01b038381166001600160a01b0319831681179093556040519116919082907f8be0079c531659141344cd1fd0a4f28419497f9722a3daafe3b4186f6b6457e090600090a35050565b8280546200029190620005ce565b90600052602060002090601f016020900481019282620002b5576000855562000300565b82601f10620002d057805160ff191683800117855562000300565b8280016001018555821562000300579182015b8281111562000300578251825591602001919060010190620002e3565b506200030e92915062000312565b5090565b5b808211156200030e576000815560010162000313565b80516001600160a01b03811681146200034157600080fd5b919050565b600082601f8301126200035857600080fd5b81516001600160401b03808211156200037557620003756200060b565b604051601f8301601f19908116603f01168101908282118183101715620003a057620003a06200060b565b81604052838152866020858801011115620003ba57600080fd5b620003cd8460208301602089016200059b565b9695505050505050565b600060208284031215620003ea57600080fd5b81516001600160401b03808211156200040257600080fd5b9083019061016082860312156200041857600080fd5b6200042262000548565b6200042d8362000329565b81526200043d6020840162000329565b60208201526040830151828111156200045557600080fd5b620004638782860162000346565b604083015250606083015160608201526080830151608082015260a083015160a082015260c083015160c08201526200049f60e0840162000329565b60e08201526101009150620004b682840162000329565b91810191909152610120828101519082015261014091820151918101919091529392505050565b600060018060a01b03808a16835280891660208401525060e0604083015286518060e0840152610100620005188282860160208c016200059b565b606084019790975260808301959095525060a081019290925260c0820152601f909101601f191601019392505050565b60405161016081016001600160401b03811182821017156200056e576200056e6200060b565b60405290565b600082198211156200059657634e487b7160e01b600052601160045260246000fd5b500190565b60005b83811015620005b85781810151838201526020016200059e565b83811115620005c8576000848401525b50505050565b600181811c90821680620005e357607f821691505b602082108114156200060557634e487b7160e01b600052602260045260246000fd5b50919050565b634e487b7160e01b600052604160045260246000fd5b611b0f80620006316000396000f3fe6080604052600436106100d95760003560e01c8063165d35e1146100de5780631723537d1461011057806317cefd29146101305780631bce33c81461015257806327b0a9301461019f5780632afb4068146101be57806331c84ea6146101d157806338582b89146101d957806343d00d04146101f7578063715018a61461020c5780638da5cb5b14610221578063b4bd778414610236578063b9548eda1461027a578063c92ae9591461029a578063dbc8e0c6146102be578063dddab240146102dc578063f2fde38b146102f1578063f954192614610311575b600080fd5b3480156100ea57600080fd5b506100f3610331565b6040516001600160a01b0390911681526020015b60405180910390f35b34801561011c57600080fd5b5060115460ff1660405161010791906116fa565b34801561013c57600080fd5b5061015061014b366004611512565b61034a565b005b34801561015e57600080fd5b506012546014546015546013546016546017545b604080519687526020870195909552938501929092526060840152608083015260a082015260c001610107565b3480156101ab57600080fd5b50600e545b604051908152602001610107565b6101506101cc3660046114e0565b610561565b610150610a0b565b3480156101e557600080fd5b50600b546001600160a01b03166100f3565b34801561020357600080fd5b50610150610abc565b34801561021857600080fd5b50610150610b2f565b34801561022d57600080fd5b506100f3610b6a565b34801561024257600080fd5b50600a54600b54600d54600e54600f54601054601154604051610107976001600160a01b039081169716959493929160ff1690611631565b34801561028657600080fd5b506101506102953660046114e0565b610b79565b3480156102a657600080fd5b50601854601954601a54601b54601c54601d54610172565b3480156102ca57600080fd5b50600a546001600160a01b03166100f3565b3480156102e857600080fd5b50600d546101b0565b3480156102fd57600080fd5b5061015061030c36600461148e565b610c4b565b34801561031d57600080fd5b5061015061032c366004611512565b610ceb565b60006103456002546001600160a01b031690565b905090565b600b546001600160a01b0316331461037d5760405162461bcd60e51b815260040161037490611750565b60405180910390fd5b600160115460ff16600481111561039657610396611a8d565b146103ef5760405162461bcd60e51b815260206004820152602360248201527f436f6e7472616374206d75737420626520696e20415050524f5645442073746160448201526274757360e81b6064820152608401610374565b42600d54111561044d5760405162461bcd60e51b8152602060048201526024808201527f537461727420446174652f54696d6520686173206e6f74206265656e2072656160448201526318da195960e21b6064820152608401610374565b6000610463601f543063b9548eda60e01b610d97565b9050610525604051806040016040528060098152602001681d995a1a58db19525960ba1b815250600c8054610497906119fb565b80601f01602080910402602001604051908101604052809291908181526020018280546104c3906119fb565b80156105105780601f106104e557610100808354040283529160200191610510565b820191906000526020600020905b8154815290600101906020018083116104f357829003601f168201915b505050505083610dbc9092919063ffffffff16565b60408051808201909152600881526732b731aa37b5b2b760c11b602082015261055090829084610dbc565b61055c81602054610dda565b505050565b60008481526005602052604090205484906001600160a01b031633146105995760405162461bcd60e51b815260040161037490611811565b60008181526005602052604080822080546001600160a01b0319169055518291600080516020611aba83398151915291a26105d66103e885611887565b601355601683905560178290556105ef60016064611887565b600f546105fc9190611887565b601b819055600f5461060e91906119e4565b601c5560125460135460009161062d9161062891906119a5565b610dfd565b905060085481111561066d5761064560016064611887565b6010546106529190611887565b60085461065f90836119e4565b6106699190611986565b6019555b600e544290811115610711576000600e548261068991906119e4565b905060095481111561070f57610e10600954826106a691906119e4565b10156106cd576106b860016064611887565b6010546106c59190611887565b601a5561070f565b6106d960016064611887565b6010546106e69190611887565b610e10600954836106f791906119e4565b6107019190611887565b61070b9190611986565b601a555b505b600061072660165460145461062891906119a5565b9050600061073d60175460155461062891906119a5565b9050600061074d60016064611887565b60105461075a9190611887565b9050818311801561076c575060075483115b156107c0576103e86007548461078291906119e4565b1015610792576018819055610820565b806103e8600754856107a491906119e4565b6107ae9190611887565b6107b89190611986565b601855610820565b82821180156107d0575060075482115b15610820576103e8600754836107e691906119e4565b10156107f6576018819055610820565b806103e86007548461080891906119e4565b6108129190611887565b61081c9190611986565b6018555b601854601a54601954610833919061186f565b61083d919061186f565b601e819055601054101561085657601054601e5561086a565b601e5460105461086691906119e4565b601d555b610872610b6a565b6001600160a01b03166108fc601b549081150290604051600060405180830381858888f193505050501580156108ac573d6000803e3d6000fd5b506000601e54601c546108bf919061186f565b600a546040519192506001600160a01b03169082156108fc029083906000818181858888f193505050501580156108fa573d6000803e3d6000fd5b50601d541561094157600b54601d546040516001600160a01b039092169181156108fc0291906000818181858888f1935050505015801561093f573d6000803e3d6000fd5b505b6011805460ff19166004179055601b54601c54601d54601e54601a54601854601954604080519788526020880196909652948601939093526060850191909152608084015260a083015260c08201527f2b0da50a9f3e635e4867ebdd1ae92c657705d81584e4346770bc26c0b66308d19060e00160405180910390a17f5f10e40433cd5d42d0bde2f03ba7e122f1ad2993f1c7333b2ce74dc0cdfab18a6013546016546017546040516109f693929190611859565b60405180910390a15050505050505050505050565b600a546001600160a01b03163314610a355760405162461bcd60e51b815260040161037490611708565b600060115460ff166004811115610a4e57610a4e611a8d565b14610a6b5760405162461bcd60e51b8152600401610374906117ce565b600b546040516001600160a01b03909116904780156108fc02916000818181858888f19350505050158015610aa4573d6000803e3d6000fd5b50601180546002919060ff19166001835b0217905550565b600a546001600160a01b03163314610ae65760405162461bcd60e51b815260040161037490611708565b600060115460ff166004811115610aff57610aff611a8d565b14610b1c5760405162461bcd60e51b8152600401610374906117ce565b601180546001919060ff19168280610ab5565b33610b38610b6a565b6001600160a01b031614610b5e5760405162461bcd60e51b815260040161037490611799565b610b686000610e19565b565b6006546001600160a01b031690565b60008481526005602052604090205484906001600160a01b03163314610bb15760405162461bcd60e51b815260040161037490611811565b60008181526005602052604080822080546001600160a01b0319169055518291600080516020611aba83398151915291a2610bee6103e885611887565b6012819055601484905560158390556011805460ff191660031790556040517fecffdc5f6e74be4dabdb4e5f024eec5677f5be94e1715541b3e6294cd4e11dff91610c3c9186908690611859565b60405180910390a15050505050565b33610c54610b6a565b6001600160a01b031614610c7a5760405162461bcd60e51b815260040161037490611799565b6001600160a01b038116610cdf5760405162461bcd60e51b815260206004820152602660248201527f4f776e61626c653a206e6577206f776e657220697320746865207a65726f206160448201526564647265737360d01b6064820152608401610374565b610ce881610e19565b50565b600b546001600160a01b03163314610d155760405162461bcd60e51b815260040161037490611750565b600360115460ff166004811115610d2e57610d2e611a8d565b14610d855760405162461bcd60e51b815260206004820152602160248201527f436f6e7472616374206d75737420626520696e204143544956452073746174756044820152607360f81b6064820152608401610374565b6000610463601f5430632afb406860e01b5b610d9f61143f565b610da761143f565b610db381868686610e6b565b95945050505050565b6080830151610dcb9083610eb1565b608083015161055c9082610eb1565b600354600090610df4906001600160a01b03168484610ec8565b90505b92915050565b600080821215610e1557610e1082611a44565b610df7565b5090565b600680546001600160a01b038381166001600160a01b0319831681179093556040519116919082907f8be0079c531659141344cd1fd0a4f28419497f9722a3daafe3b4186f6b6457e090600090a35050565b610e7361143f565b610e838560800151610100610f59565b50508284526001600160a01b03821660208501526001600160e01b031981166040850152835b949350505050565b610ebe8260038351610fb1565b61055c82826110be565b600454600090610ed981600161186f565b60045583516040808601516080870151519151600093633c6d41b960e01b93610f0f93869384939289916002919060240161167e565b60408051601f198184030181529190526020810180516001600160e01b03166001600160e01b0319909316929092179091529050610f4f868386846110d8565b9695505050505050565b610f61611474565b610f6c602083611a30565b15610f9457610f7c602083611a30565b610f879060206119e4565b610f91908361186f565b91505b506020828101829052604080518085526000815290920101905290565b6017816001600160401b031611610fdb57610fd58360e0600585901b168317611240565b50505050565b60ff816001600160401b03161161101757611001836018611fe0600586901b1617611240565b50610fd5836001600160401b0383166001611258565b61ffff816001600160401b0316116110545761103e836019611fe0600586901b1617611240565b50610fd5836001600160401b0383166002611258565b63ffffffff816001600160401b0316116110935761107d83601a611fe0600586901b1617611240565b50610fd5836001600160401b0383166004611258565b6110a883601b611fe0600586901b1617611240565b50610fd5836001600160401b0383166008611258565b6110c6611474565b610df483846000015151848551611271565b6040516001600160601b03193060601b1660208201526034810184905260009060540160408051808303601f1901815282825280516020918201206000818152600590925291812080546001600160a01b0319166001600160a01b038a1617905590925082917fb5e6e01e79f91267dc17b4e6314d5d4d03593d2ceee0fbb452b750bd70ea5af99190a2600254604051630200057560e51b81526001600160a01b0390911690634000aea090611196908890879087906004016116d3565b602060405180830381600087803b1580156111b057600080fd5b505af11580156111c4573d6000803e3d6000fd5b505050506040513d601f19601f820116820180604052508101906111e891906114be565b610ea95760405162461bcd60e51b815260206004820152602360248201527f756e61626c6520746f207472616e73666572416e6443616c6c20746f206f7261604482015262636c6560e81b6064820152608401610374565b611248611474565b610df4838460000151518461134e565b611260611474565b610ea984856000015151858561139d565b611279611474565b825182111561128757600080fd5b6020850151611296838661186f565b11156112c9576112c9856112b9876020015187866112b4919061186f565b611411565b6112c4906002611986565b611428565b6000808651805187602083010193508088870111156112e85787860182525b505050602084015b60208410611328578051825261130760208361186f565b915061131460208261186f565b90506113216020856119e4565b93506112f0565b51815160001960208690036101000a019081169019919091161790525083949350505050565b611356611474565b836020015183106113765761137684856020015160026112c49190611986565b835180516020858301018481535080851415611393576001810182525b5093949350505050565b6113a5611474565b60208501516113b4858461186f565b11156113c8576113c8856112b9868561186f565b600060016113d8846101006118de565b6113e291906119e4565b90508551838682010185831982511617815250805184870111156114065783860181525b509495945050505050565b600081831115611422575081610df7565b50919050565b81516114348383610f59565b50610fd583826110be565b6040805160a08101825260008082526020820181905291810182905260608101919091526080810161146f611474565b905290565b604051806040016040528060608152602001600081525090565b6000602082840312156114a057600080fd5b81356001600160a01b03811681146114b757600080fd5b9392505050565b6000602082840312156114d057600080fd5b815180151581146114b757600080fd5b600080600080608085870312156114f657600080fd5b5050823594602084013594506040840135936060013592509050565b60006020828403121561152457600080fd5b81356001600160401b038082111561153b57600080fd5b818401915084601f83011261154f57600080fd5b81358181111561156157611561611aa3565b604051601f8201601f19908116603f0116810190838211818310171561158957611589611aa3565b816040528281528760208487010111156115a257600080fd5b826020860160208301376000928101602001929092525095945050505050565b6000815180845260005b818110156115e8576020818501810151868301820152016115cc565b818111156115fa576000602083870101525b50601f01601f19169290920160200192915050565b6005811061162d57634e487b7160e01b600052602160045260246000fd5b9052565b6001600160a01b0388811682528716602082015260408101869052606081018590526080810184905260a0810183905260e0810161167260c083018461160f565b98975050505050505050565b60018060a01b038816815286602082015285604082015263ffffffff60e01b851660608201528360808201528260a082015260e060c082015260006116c660e08301846115c2565b9998505050505050505050565b60018060a01b0384168152826020820152606060408201526000610db360608301846115c2565b60208101610df7828461160f565b60208082526028908201527f4f6e6c792056656869636c65204f776e65722063616e20706572666f726d2074604082015267068697320737465760c41b606082015260800190565b60208082526029908201527f4f6e6c792056656869636c652052656e7465722063616e20706572666f726d2060408201526807468697320737465760bc1b606082015260800190565b6020808252818101527f4f776e61626c653a2063616c6c6572206973206e6f7420746865206f776e6572604082015260600190565b60208082526023908201527f436f6e7472616374206d75737420626520696e2050524f504f5345442073746160408201526274757360e81b606082015260800190565b60208082526028908201527f536f75726365206d75737420626520746865206f7261636c65206f6620746865604082015267081c995c5d595cdd60c21b606082015260800190565b9283526020830191909152604082015260600190565b6000821982111561188257611882611a61565b500190565b60008261189657611896611a77565b500490565b600181815b808511156118d65781600019048211156118bc576118bc611a61565b808516156118c957918102915b93841c93908002906118a0565b509250929050565b6000610df483836000826118f457506001610df7565b8161190157506000610df7565b816001811461191757600281146119215761193d565b6001915050610df7565b60ff84111561193257611932611a61565b50506001821b610df7565b5060208310610133831016604e8410600b8410161715611960575081810a610df7565b61196a838361189b565b806000190482111561197e5761197e611a61565b029392505050565b60008160001904831182151516156119a0576119a0611a61565b500290565b60008083128015600160ff1b8501841216156119c3576119c3611a61565b6001600160ff1b03840183138116156119de576119de611a61565b50500390565b6000828210156119f6576119f6611a61565b500390565b600181811c90821680611a0f57607f821691505b6020821081141561142257634e487b7160e01b600052602260045260246000fd5b600082611a3f57611a3f611a77565b500690565b6000600160ff1b821415611a5a57611a5a611a61565b5060000390565b634e487b7160e01b600052601160045260246000fd5b634e487b7160e01b600052601260045260246000fd5b634e487b7160e01b600052602160045260246000fd5b634e487b7160e01b600052604160045260246000fdfe7cc135e0cebb02c3480ae5d74d377283180a2601f8f644edf7987b009316c63aa264697066735822122009b2619c9d5b16462404286da9e948cab19d5a428d19d2e6a8082efccc40045b64736f6c63430008070033",
  "linkReferences": {},
  "deployedLinkReferences": {}
}