{
  "_format": "hh-sol-artifact-1",
  "contractName": "LigoRentalAgreement",
  "sourceName": "contracts/LigoRentalAgreement.sol",
  "abi": [
    {
      "inputs": [
        {
          "components": [
            {
              "internalType": "address",
              "name": "vehicleOwner",
              "type": "address"
            },
            {
              "internalType": "address",
              "name": "renter",
              "type": "address"
            },
            {
              "internalType": "string",
              "name": "vehicleId",
              "type": "string"
            },
            {
              "internalType": "uint256",
              "name": "startDateTime",
              "type": "uint256"
            },
            {
              "internalType": "uint256",
              "name": "endDateTime",
              "type": "uint256"
            },
            {
              "internalType": "uint256",
              "name": "totalRentCost",
              "type": "uint256"
            },
            {
              "internalType": "uint256",
              "name": "bondRequired",
              "type": "uint256"
            },
            {
              "internalType": "address",
              "name": "linkToken",
              "type": "address"
            },
            {
              "internalType": "address",
              "name": "oracleContract",
              "type": "address"
            },
            {
              "internalType": "uint256",
              "name": "oraclePayment",
              "type": "uint256"
            },
            {
              "internalType": "bytes32",
              "name": "jobId",
              "type": "bytes32"
            }
          ],
          "internalType": "struct LigoAgreementsFactory.Agreement",
          "name": "_agreementDetails",
          "type": "tuple"
        }
      ],
      "stateMutability": "payable",
      "type": "constructor"
    },
    {
      "anonymous": false,
      "inputs": [
        {
          "indexed": true,
          "internalType": "bytes32",
          "name": "id",
          "type": "bytes32"
        }
      ],
      "name": "ChainlinkCancelled",
      "type": "event"
    },
    {
      "anonymous": false,
      "inputs": [
        {
          "indexed": true,
          "internalType": "bytes32",
          "name": "id",
          "type": "bytes32"
        }
      ],
      "name": "ChainlinkFulfilled",
      "type": "event"
    },
    {
      "anonymous": false,
      "inputs": [
        {
          "indexed": true,
          "internalType": "bytes32",
          "name": "id",
          "type": "bytes32"
        }
      ],
      "name": "ChainlinkRequested",
      "type": "event"
    },
    {
      "anonymous": false,
      "inputs": [
        {
          "indexed": true,
          "internalType": "address",
          "name": "previousOwner",
          "type": "address"
        },
        {
          "indexed": true,
          "internalType": "address",
          "name": "newOwner",
          "type": "address"
        }
      ],
      "name": "OwnershipTransferred",
      "type": "event"
    },
    {
      "anonymous": false,
      "inputs": [
        {
          "indexed": false,
          "internalType": "uint256",
          "name": "_platformFee",
          "type": "uint256"
        },
        {
          "indexed": false,
          "internalType": "uint256",
          "name": "_totalRent",
          "type": "uint256"
        },
        {
          "indexed": false,
          "internalType": "uint256",
          "name": "_totalBondReturned",
          "type": "uint256"
        },
        {
          "indexed": false,
          "internalType": "uint256",
          "name": "_totalBondForfeitted",
          "type": "uint256"
        },
        {
          "indexed": false,
          "internalType": "uint256",
          "name": "_timePenality",
          "type": "uint256"
        },
        {
          "indexed": false,
          "internalType": "uint256",
          "name": "_locationPenalty",
          "type": "uint256"
        },
        {
          "indexed": false,
          "internalType": "uint256",
          "name": "_kmPenalty",
          "type": "uint256"
        }
      ],
      "name": "agreementPayments",
      "type": "event"
    },
    {
      "anonymous": false,
      "inputs": [
        {
          "indexed": false,
          "internalType": "uint256",
          "name": "_startOdometer",
          "type": "uint256"
        },
        {
          "indexed": false,
          "internalType": "int256",
          "name": "_startVehicleLongitude",
          "type": "int256"
        },
        {
          "indexed": false,
          "internalType": "int256",
          "name": "_startVehicleLatitude",
          "type": "int256"
        }
      ],
      "name": "contractActive",
      "type": "event"
    },
    {
      "anonymous": false,
      "inputs": [
        {
          "indexed": false,
          "internalType": "uint256",
          "name": "_endOdometer",
          "type": "uint256"
        },
        {
          "indexed": false,
          "internalType": "int256",
          "name": "_endVehicleLongitude",
          "type": "int256"
        },
        {
          "indexed": false,
          "internalType": "int256",
          "name": "_endVehicleLatitide",
          "type": "int256"
        }
      ],
      "name": "contractCompleted",
      "type": "event"
    },
    {
      "anonymous": false,
      "inputs": [
        {
          "indexed": false,
          "internalType": "address",
          "name": "_vehicleOwner",
          "type": "address"
        },
        {
          "indexed": false,
          "internalType": "address",
          "name": "_renter",
          "type": "address"
        },
        {
          "indexed": false,
          "internalType": "string",
          "name": "_vehicleId",
          "type": "string"
        },
        {
          "indexed": false,
          "internalType": "uint256",
          "name": "_startDateTime",
          "type": "uint256"
        },
        {
          "indexed": false,
          "internalType": "uint256",
          "name": "_endDateTime",
          "type": "uint256"
        },
        {
          "indexed": false,
          "internalType": "uint256",
          "name": "_totalRentCost",
          "type": "uint256"
        },
        {
          "indexed": false,
          "internalType": "uint256",
          "name": "_totalBond",
          "type": "uint256"
        }
      ],
      "name": "rentalAgreementCreated",
      "type": "event"
    },
    {
      "inputs": [
        {
          "internalType": "string",
          "name": "_encToken",
          "type": "string"
        }
      ],
      "name": "activateRentalContract",
      "outputs": [],
      "stateMutability": "nonpayable",
      "type": "function"
    },
    {
      "inputs": [
        {
          "internalType": "bytes32",
          "name": "_requestId",
          "type": "bytes32"
        },
        {
          "internalType": "uint256",
          "name": "_startOdometer",
          "type": "uint256"
        },
        {
          "internalType": "int256",
          "name": "_startLongitude",
          "type": "int256"
        },
        {
          "internalType": "int256",
          "name": "_startLatitude",
          "type": "int256"
        }
      ],
      "name": "activateRentalContractCallback",
      "outputs": [],
      "stateMutability": "nonpayable",
      "type": "function"
    },
    {
      "inputs": [],
      "name": "approveContract",
      "outputs": [],
      "stateMutability": "nonpayable",
      "type": "function"
    },
    {
      "inputs": [
        {
          "internalType": "string",
          "name": "_encToken",
          "type": "string"
        }
      ],
      "name": "endRentalContract",
      "outputs": [],
      "stateMutability": "nonpayable",
      "type": "function"
    },
    {
      "inputs": [
        {
          "internalType": "bytes32",
          "name": "_requestId",
          "type": "bytes32"
        },
        {
          "internalType": "uint256",
          "name": "_endOdometer",
          "type": "uint256"
        },
        {
          "internalType": "int256",
          "name": "_endLongitude",
          "type": "int256"
        },
        {
          "internalType": "int256",
          "name": "_endLatitude",
          "type": "int256"
        }
      ],
      "name": "endRentalContractCallback",
      "outputs": [],
      "stateMutability": "payable",
      "type": "function"
    },
    {
      "inputs": [],
      "name": "getAgreementData",
      "outputs": [
        {
          "internalType": "uint256",
          "name": "",
          "type": "uint256"
        },
        {
          "internalType": "int256",
          "name": "",
          "type": "int256"
        },
        {
          "internalType": "int256",
          "name": "",
          "type": "int256"
        },
        {
          "internalType": "uint256",
          "name": "",
          "type": "uint256"
        },
        {
          "internalType": "int256",
          "name": "",
          "type": "int256"
        },
        {
          "internalType": "int256",
          "name": "",
          "type": "int256"
        }
      ],
      "stateMutability": "view",
      "type": "function"
    },
    {
      "inputs": [],
      "name": "getAgreementDetails",
      "outputs": [
        {
          "internalType": "address",
          "name": "",
          "type": "address"
        },
        {
          "internalType": "address",
          "name": "",
          "type": "address"
        },
        {
          "internalType": "uint256",
          "name": "",
          "type": "uint256"
        },
        {
          "internalType": "uint256",
          "name": "",
          "type": "uint256"
        },
        {
          "internalType": "uint256",
          "name": "",
          "type": "uint256"
        },
        {
          "internalType": "uint256",
          "name": "",
          "type": "uint256"
        },
        {
          "internalType": "enum LigoAgreementsFactory.RentalAgreementStatus",
          "name": "",
          "type": "uint8"
        }
      ],
      "stateMutability": "view",
      "type": "function"
    },
    {
      "inputs": [],
      "name": "getAgreementEndTime",
      "outputs": [
        {
          "internalType": "uint256",
          "name": "",
          "type": "uint256"
        }
      ],
      "stateMutability": "view",
      "type": "function"
    },
    {
      "inputs": [],
      "name": "getAgreementStartTime",
      "outputs": [
        {
          "internalType": "uint256",
          "name": "",
          "type": "uint256"
        }
      ],
      "stateMutability": "view",
      "type": "function"
    },
    {
      "inputs": [],
      "name": "getAgreementStatus",
      "outputs": [
        {
          "internalType": "enum LigoAgreementsFactory.RentalAgreementStatus",
          "name": "",
          "type": "uint8"
        }
      ],
      "stateMutability": "view",
      "type": "function"
    },
    {
      "inputs": [],
      "name": "getChainlinkToken",
      "outputs": [
        {
          "internalType": "address",
          "name": "",
          "type": "address"
        }
      ],
      "stateMutability": "view",
      "type": "function"
    },
    {
      "inputs": [],
      "name": "getPaymentDetails",
      "outputs": [
        {
          "internalType": "uint256",
          "name": "",
          "type": "uint256"
        },
        {
          "internalType": "uint256",
          "name": "",
          "type": "uint256"
        },
        {
          "internalType": "uint256",
          "name": "",
          "type": "uint256"
        },
        {
          "internalType": "uint256",
          "name": "",
          "type": "uint256"
        },
        {
          "internalType": "uint256",
          "name": "",
          "type": "uint256"
        },
        {
          "internalType": "uint256",
          "name": "",
          "type": "uint256"
        }
      ],
      "stateMutability": "view",
      "type": "function"
    },
    {
      "inputs": [],
      "name": "getVehicleId",
      "outputs": [
        {
          "internalType": "string",
          "name": "",
          "type": "string"
        }
      ],
      "stateMutability": "view",
      "type": "function"
    },
    {
      "inputs": [],
      "name": "getVehicleOwner",
      "outputs": [
        {
          "internalType": "address",
          "name": "",
          "type": "address"
        }
      ],
      "stateMutability": "view",
      "type": "function"
    },
    {
      "inputs": [],
      "name": "getVehicleRenter",
      "outputs": [
        {
          "internalType": "address",
          "name": "",
          "type": "address"
        }
      ],
      "stateMutability": "view",
      "type": "function"
    },
    {
      "inputs": [],
      "name": "owner",
      "outputs": [
        {
          "internalType": "address",
          "name": "",
          "type": "address"
        }
      ],
      "stateMutability": "view",
      "type": "function"
    },
    {
      "inputs": [],
      "name": "rejectContract",
      "outputs": [],
      "stateMutability": "payable",
      "type": "function"
    },
    {
      "inputs": [],
      "name": "renounceOwnership",
      "outputs": [],
      "stateMutability": "nonpayable",
      "type": "function"
    },
    {
      "inputs": [
        {
          "internalType": "address",
          "name": "newOwner",
          "type": "address"
        }
      ],
      "name": "transferOwnership",
      "outputs": [],
      "stateMutability": "nonpayable",
      "type": "function"
    }
  ],
  "bytecode": "0x608060405260016004556064600755600a600855611c20600955600060125560006013556000601455600060155560006016556000601755600060185560006019556000601a556000601b556000601c556000601d556000601e5560405162002212380380620022128339810160408190526200007c91620003d7565b620000873362000231565b8060c001518160a001516200009d919062000574565b341015620000f15760405162461bcd60e51b815260206004820152601d60248201527f496e73756666696369656e742072656e74202620626f6e642070616964000000604482015260640160405180910390fd5b60e08101516200011d90600280546001600160a01b0319166001600160a01b0392909216919091179055565b6101008101516200014a90600380546001600160a01b0319166001600160a01b0392909216919091179055565b610140810151601f5561012081015160209081558151600a80546001600160a01b039283166001600160a01b03199182161790915582840151600b805491909316911617905560408201518051620001a792600c92019062000283565b506060810151600d8190556080820151600e81905560a0830151600f81905560c084015160108190556011805460ff191690558451602086015160408088015190517f74fd000967411f0e26e596d01668b091792f0faf4e27596fe49c83aa610804e2976200022297949693959294909390929091620004dd565b60405180910390a15062000621565b600680546001600160a01b038381166001600160a01b0319831681179093556040519116919082907f8be0079c531659141344cd1fd0a4f28419497f9722a3daafe3b4186f6b6457e090600090a35050565b8280546200029190620005ce565b90600052602060002090601f016020900481019282620002b5576000855562000300565b82601f10620002d057805160ff191683800117855562000300565b8280016001018555821562000300579182015b8281111562000300578251825591602001919060010190620002e3565b506200030e92915062000312565b5090565b5b808211156200030e576000815560010162000313565b80516001600160a01b03811681146200034157600080fd5b919050565b600082601f8301126200035857600080fd5b81516001600160401b03808211156200037557620003756200060b565b604051601f8301601f19908116603f01168101908282118183101715620003a057620003a06200060b565b81604052838152866020858801011115620003ba57600080fd5b620003cd8460208301602089016200059b565b9695505050505050565b600060208284031215620003ea57600080fd5b81516001600160401b03808211156200040257600080fd5b9083019061016082860312156200041857600080fd5b6200042262000548565b6200042d8362000329565b81526200043d6020840162000329565b60208201526040830151828111156200045557600080fd5b620004638782860162000346565b604083015250606083015160608201526080830151608082015260a083015160a082015260c083015160c08201526200049f60e0840162000329565b60e08201526101009150620004b682840162000329565b91810191909152610120828101519082015261014091820151918101919091529392505050565b600060018060a01b03808a16835280891660208401525060e0604083015286518060e0840152610100620005188282860160208c016200059b565b606084019790975260808301959095525060a081019290925260c0820152601f909101601f191601019392505050565b60405161016081016001600160401b03811182821017156200056e576200056e6200060b565b60405290565b600082198211156200059657634e487b7160e01b600052601160045260246000fd5b500190565b60005b83811015620005b85781810151838201526020016200059e565b83811115620005c8576000848401525b50505050565b600181811c90821680620005e357607f821691505b602082108114156200060557634e487b7160e01b600052602260045260246000fd5b50919050565b634e487b7160e01b600052604160045260246000fd5b611be180620006316000396000f3fe6080604052600436106100e45760003560e01c8063165d35e1146100e95780631723537d1461011b57806317cefd291461013b5780631bce33c81461015d57806327b0a930146101aa5780632afb4068146101c957806331c84ea6146101dc57806338582b89146101e457806343d00d0414610202578063715018a6146102175780638da5cb5b1461022c578063b4bd778414610241578063b9548eda14610285578063c92ae959146102a5578063d1a10489146102c9578063dbc8e0c6146102eb578063dddab24014610309578063f2fde38b1461031e578063f95419261461033e575b600080fd5b3480156100f557600080fd5b506100fe61035e565b6040516001600160a01b0390911681526020015b60405180910390f35b34801561012757600080fd5b5060115460ff1660405161011291906117b9565b34801561014757600080fd5b5061015b6101563660046115d1565b610377565b005b34801561016957600080fd5b506012546014546015546013546016546017545b604080519687526020870195909552938501929092526060840152608083015260a082015260c001610112565b3480156101b657600080fd5b50600e545b604051908152602001610112565b61015b6101d736600461159f565b61058e565b61015b610a38565b3480156101f057600080fd5b50600b546001600160a01b03166100fe565b34801561020e57600080fd5b5061015b610ae9565b34801561022357600080fd5b5061015b610b5c565b34801561023857600080fd5b506100fe610b97565b34801561024d57600080fd5b50600a54600b54600d54600e54600f54601054601154604051610112976001600160a01b039081169716959493929160ff16906116f0565b34801561029157600080fd5b5061015b6102a036600461159f565b610ba6565b3480156102b157600080fd5b50601854601954601a54601b54601c54601d5461017d565b3480156102d557600080fd5b506102de610c78565b60405161011291906117c7565b3480156102f757600080fd5b50600a546001600160a01b03166100fe565b34801561031557600080fd5b50600d546101bb565b34801561032a57600080fd5b5061015b61033936600461154d565b610d0a565b34801561034a57600080fd5b5061015b6103593660046115d1565b610daa565b60006103726002546001600160a01b031690565b905090565b600b546001600160a01b031633146103aa5760405162461bcd60e51b81526004016103a190611822565b60405180910390fd5b600160115460ff1660048111156103c3576103c3611b5f565b1461041c5760405162461bcd60e51b815260206004820152602360248201527f436f6e7472616374206d75737420626520696e20415050524f5645442073746160448201526274757360e81b60648201526084016103a1565b42600d54111561047a5760405162461bcd60e51b8152602060048201526024808201527f537461727420446174652f54696d6520686173206e6f74206265656e2072656160448201526318da195960e21b60648201526084016103a1565b6000610490601f543063b9548eda60e01b610e56565b9050610552604051806040016040528060098152602001681d995a1a58db19525960ba1b815250600c80546104c490611acd565b80601f01602080910402602001604051908101604052809291908181526020018280546104f090611acd565b801561053d5780601f106105125761010080835404028352916020019161053d565b820191906000526020600020905b81548152906001019060200180831161052057829003601f168201915b505050505083610e7b9092919063ffffffff16565b60408051808201909152600881526732b731aa37b5b2b760c11b602082015261057d90829084610e7b565b61058981602054610e99565b505050565b60008481526005602052604090205484906001600160a01b031633146105c65760405162461bcd60e51b81526004016103a1906118e3565b60008181526005602052604080822080546001600160a01b0319169055518291600080516020611b8c83398151915291a26106036103e885611959565b6013556016839055601782905561061c60016064611959565b600f546106299190611959565b601b819055600f5461063b9190611ab6565b601c5560125460135460009161065a916106559190611a77565b610ebc565b905060085481111561069a5761067260016064611959565b60105461067f9190611959565b60085461068c9083611ab6565b6106969190611a58565b6019555b600e54429081111561073e576000600e54826106b69190611ab6565b905060095481111561073c57610e10600954826106d39190611ab6565b10156106fa576106e560016064611959565b6010546106f29190611959565b601a5561073c565b61070660016064611959565b6010546107139190611959565b610e10600954836107249190611ab6565b61072e9190611959565b6107389190611a58565b601a555b505b60006107536016546014546106559190611a77565b9050600061076a6017546015546106559190611a77565b9050600061077a60016064611959565b6010546107879190611959565b90508183118015610799575060075483115b156107ed576103e8600754846107af9190611ab6565b10156107bf57601881905561084d565b806103e8600754856107d19190611ab6565b6107db9190611959565b6107e59190611a58565b60185561084d565b82821180156107fd575060075482115b1561084d576103e8600754836108139190611ab6565b101561082357601881905561084d565b806103e8600754846108359190611ab6565b61083f9190611959565b6108499190611a58565b6018555b601854601a546019546108609190611941565b61086a9190611941565b601e819055601054101561088357601054601e55610897565b601e546010546108939190611ab6565b601d555b61089f610b97565b6001600160a01b03166108fc601b549081150290604051600060405180830381858888f193505050501580156108d9573d6000803e3d6000fd5b506000601e54601c546108ec9190611941565b600a546040519192506001600160a01b03169082156108fc029083906000818181858888f19350505050158015610927573d6000803e3d6000fd5b50601d541561096e57600b54601d546040516001600160a01b039092169181156108fc0291906000818181858888f1935050505015801561096c573d6000803e3d6000fd5b505b6011805460ff19166004179055601b54601c54601d54601e54601a54601854601954604080519788526020880196909652948601939093526060850191909152608084015260a083015260c08201527f2b0da50a9f3e635e4867ebdd1ae92c657705d81584e4346770bc26c0b66308d19060e00160405180910390a17f5f10e40433cd5d42d0bde2f03ba7e122f1ad2993f1c7333b2ce74dc0cdfab18a601354601654601754604051610a239392919061192b565b60405180910390a15050505050505050505050565b600a546001600160a01b03163314610a625760405162461bcd60e51b81526004016103a1906117da565b600060115460ff166004811115610a7b57610a7b611b5f565b14610a985760405162461bcd60e51b81526004016103a1906118a0565b600b546040516001600160a01b03909116904780156108fc02916000818181858888f19350505050158015610ad1573d6000803e3d6000fd5b50601180546002919060ff19166001835b0217905550565b600a546001600160a01b03163314610b135760405162461bcd60e51b81526004016103a1906117da565b600060115460ff166004811115610b2c57610b2c611b5f565b14610b495760405162461bcd60e51b81526004016103a1906118a0565b601180546001919060ff19168280610ae2565b33610b65610b97565b6001600160a01b031614610b8b5760405162461bcd60e51b81526004016103a19061186b565b610b956000610ed8565b565b6006546001600160a01b031690565b60008481526005602052604090205484906001600160a01b03163314610bde5760405162461bcd60e51b81526004016103a1906118e3565b60008181526005602052604080822080546001600160a01b0319169055518291600080516020611b8c83398151915291a2610c1b6103e885611959565b6012819055601484905560158390556011805460ff191660031790556040517fecffdc5f6e74be4dabdb4e5f024eec5677f5be94e1715541b3e6294cd4e11dff91610c69918690869061192b565b60405180910390a15050505050565b6060600c8054610c8790611acd565b80601f0160208091040260200160405190810160405280929190818152602001828054610cb390611acd565b8015610d005780601f10610cd557610100808354040283529160200191610d00565b820191906000526020600020905b815481529060010190602001808311610ce357829003601f168201915b5050505050905090565b33610d13610b97565b6001600160a01b031614610d395760405162461bcd60e51b81526004016103a19061186b565b6001600160a01b038116610d9e5760405162461bcd60e51b815260206004820152602660248201527f4f776e61626c653a206e6577206f776e657220697320746865207a65726f206160448201526564647265737360d01b60648201526084016103a1565b610da781610ed8565b50565b600b546001600160a01b03163314610dd45760405162461bcd60e51b81526004016103a190611822565b600360115460ff166004811115610ded57610ded611b5f565b14610e445760405162461bcd60e51b815260206004820152602160248201527f436f6e7472616374206d75737420626520696e204143544956452073746174756044820152607360f81b60648201526084016103a1565b6000610490601f5430632afb406860e01b5b610e5e6114fe565b610e666114fe565b610e7281868686610f2a565b95945050505050565b6080830151610e8a9083610f70565b60808301516105899082610f70565b600354600090610eb3906001600160a01b03168484610f87565b90505b92915050565b600080821215610ed457610ecf82611b16565b610eb6565b5090565b600680546001600160a01b038381166001600160a01b0319831681179093556040519116919082907f8be0079c531659141344cd1fd0a4f28419497f9722a3daafe3b4186f6b6457e090600090a35050565b610f326114fe565b610f428560800151610100611018565b50508284526001600160a01b03821660208501526001600160e01b031981166040850152835b949350505050565b610f7d8260038351611070565b610589828261117d565b600454600090610f98816001611941565b60045583516040808601516080870151519151600093633c6d41b960e01b93610fce93869384939289916002919060240161173d565b60408051601f198184030181529190526020810180516001600160e01b03166001600160e01b031990931692909217909152905061100e86838684611197565b9695505050505050565b611020611533565b61102b602083611b02565b156110535761103b602083611b02565b611046906020611ab6565b6110509083611941565b91505b506020828101829052604080518085526000815290920101905290565b6017816001600160401b03161161109a576110948360e0600585901b1683176112ff565b50505050565b60ff816001600160401b0316116110d6576110c0836018611fe0600586901b16176112ff565b50611094836001600160401b0383166001611317565b61ffff816001600160401b031611611113576110fd836019611fe0600586901b16176112ff565b50611094836001600160401b0383166002611317565b63ffffffff816001600160401b0316116111525761113c83601a611fe0600586901b16176112ff565b50611094836001600160401b0383166004611317565b61116783601b611fe0600586901b16176112ff565b50611094836001600160401b0383166008611317565b611185611533565b610eb383846000015151848551611330565b6040516001600160601b03193060601b1660208201526034810184905260009060540160408051808303601f1901815282825280516020918201206000818152600590925291812080546001600160a01b0319166001600160a01b038a1617905590925082917fb5e6e01e79f91267dc17b4e6314d5d4d03593d2ceee0fbb452b750bd70ea5af99190a2600254604051630200057560e51b81526001600160a01b0390911690634000aea09061125590889087908790600401611792565b602060405180830381600087803b15801561126f57600080fd5b505af1158015611283573d6000803e3d6000fd5b505050506040513d601f19601f820116820180604052508101906112a7919061157d565b610f685760405162461bcd60e51b815260206004820152602360248201527f756e61626c6520746f207472616e73666572416e6443616c6c20746f206f7261604482015262636c6560e81b60648201526084016103a1565b611307611533565b610eb3838460000151518461140d565b61131f611533565b610f6884856000015151858561145c565b611338611533565b825182111561134657600080fd5b60208501516113558386611941565b11156113885761138885611378876020015187866113739190611941565b6114d0565b611383906002611a58565b6114e7565b6000808651805187602083010193508088870111156113a75787860182525b505050602084015b602084106113e757805182526113c6602083611941565b91506113d3602082611941565b90506113e0602085611ab6565b93506113af565b51815160001960208690036101000a019081169019919091161790525083949350505050565b611415611533565b836020015183106114355761143584856020015160026113839190611a58565b835180516020858301018481535080851415611452576001810182525b5093949350505050565b611464611533565b60208501516114738584611941565b111561148757611487856113788685611941565b60006001611497846101006119b0565b6114a19190611ab6565b90508551838682010185831982511617815250805184870111156114c55783860181525b509495945050505050565b6000818311156114e1575081610eb6565b50919050565b81516114f38383611018565b50611094838261117d565b6040805160a08101825260008082526020820181905291810182905260608101919091526080810161152e611533565b905290565b604051806040016040528060608152602001600081525090565b60006020828403121561155f57600080fd5b81356001600160a01b038116811461157657600080fd5b9392505050565b60006020828403121561158f57600080fd5b8151801515811461157657600080fd5b600080600080608085870312156115b557600080fd5b5050823594602084013594506040840135936060013592509050565b6000602082840312156115e357600080fd5b81356001600160401b03808211156115fa57600080fd5b818401915084601f83011261160e57600080fd5b81358181111561162057611620611b75565b604051601f8201601f19908116603f0116810190838211818310171561164857611648611b75565b8160405282815287602084870101111561166157600080fd5b826020860160208301376000928101602001929092525095945050505050565b6000815180845260005b818110156116a75760208185018101518683018201520161168b565b818111156116b9576000602083870101525b50601f01601f19169290920160200192915050565b600581106116ec57634e487b7160e01b600052602160045260246000fd5b9052565b6001600160a01b0388811682528716602082015260408101869052606081018590526080810184905260a0810183905260e0810161173160c08301846116ce565b98975050505050505050565b60018060a01b038816815286602082015285604082015263ffffffff60e01b851660608201528360808201528260a082015260e060c0820152600061178560e0830184611681565b9998505050505050505050565b60018060a01b0384168152826020820152606060408201526000610e726060830184611681565b60208101610eb682846116ce565b602081526000610eb36020830184611681565b60208082526028908201527f4f6e6c792056656869636c65204f776e65722063616e20706572666f726d2074604082015267068697320737465760c41b606082015260800190565b60208082526029908201527f4f6e6c792056656869636c652052656e7465722063616e20706572666f726d2060408201526807468697320737465760bc1b606082015260800190565b6020808252818101527f4f776e61626c653a2063616c6c6572206973206e6f7420746865206f776e6572604082015260600190565b60208082526023908201527f436f6e7472616374206d75737420626520696e2050524f504f5345442073746160408201526274757360e81b606082015260800190565b60208082526028908201527f536f75726365206d75737420626520746865206f7261636c65206f6620746865604082015267081c995c5d595cdd60c21b606082015260800190565b9283526020830191909152604082015260600190565b6000821982111561195457611954611b33565b500190565b60008261196857611968611b49565b500490565b600181815b808511156119a857816000190482111561198e5761198e611b33565b8085161561199b57918102915b93841c9390800290611972565b509250929050565b6000610eb383836000826119c657506001610eb6565b816119d357506000610eb6565b81600181146119e957600281146119f357611a0f565b6001915050610eb6565b60ff841115611a0457611a04611b33565b50506001821b610eb6565b5060208310610133831016604e8410600b8410161715611a32575081810a610eb6565b611a3c838361196d565b8060001904821115611a5057611a50611b33565b029392505050565b6000816000190483118215151615611a7257611a72611b33565b500290565b60008083128015600160ff1b850184121615611a9557611a95611b33565b6001600160ff1b0384018313811615611ab057611ab0611b33565b50500390565b600082821015611ac857611ac8611b33565b500390565b600181811c90821680611ae157607f821691505b602082108114156114e157634e487b7160e01b600052602260045260246000fd5b600082611b1157611b11611b49565b500690565b6000600160ff1b821415611b2c57611b2c611b33565b5060000390565b634e487b7160e01b600052601160045260246000fd5b634e487b7160e01b600052601260045260246000fd5b634e487b7160e01b600052602160045260246000fd5b634e487b7160e01b600052604160045260246000fdfe7cc135e0cebb02c3480ae5d74d377283180a2601f8f644edf7987b009316c63aa26469706673582212204fea8c3d528974fecfe0db74c95cdff57277ab7a299cccdcf733294553ea4dd664736f6c63430008070033",
  "linkReferences": {},
  "deployedLinkReferences": {}
}