{
  "_format": "hh-sol-artifact-1",
  "contractName": "LigoContract",
  "sourceName": "contracts/LigoContract.sol",
  "abi": [
    {
      "anonymous": false,
      "inputs": [
        {
          "indexed": true,
          "internalType": "address",
          "name": "previousOwner",
          "type": "address"
        },
        {
          "indexed": true,
          "internalType": "address",
          "name": "newOwner",
          "type": "address"
        }
      ],
      "name": "OwnershipTransferred",
      "type": "event"
    },
    {
      "inputs": [],
      "name": "getSender",
      "outputs": [],
      "stateMutability": "view",
      "type": "function"
    },
    {
      "inputs": [],
      "name": "owner",
      "outputs": [
        {
          "internalType": "address",
          "name": "",
          "type": "address"
        }
      ],
      "stateMutability": "view",
      "type": "function"
    },
    {
      "inputs": [],
      "name": "renounceOwnership",
      "outputs": [],
      "stateMutability": "nonpayable",
      "type": "function"
    },
    {
      "inputs": [
        {
          "internalType": "address",
          "name": "newOwner",
          "type": "address"
        }
      ],
      "name": "transferOwnership",
      "outputs": [],
      "stateMutability": "nonpayable",
      "type": "function"
    }
  ],
  "bytecode": "0x608060405234801561001057600080fd5b5061002d61002261003260201b60201c565b61003a60201b60201c565b6100fe565b600033905090565b60008060009054906101000a900473ffffffffffffffffffffffffffffffffffffffff169050816000806101000a81548173ffffffffffffffffffffffffffffffffffffffff021916908373ffffffffffffffffffffffffffffffffffffffff1602179055508173ffffffffffffffffffffffffffffffffffffffff168173ffffffffffffffffffffffffffffffffffffffff167f8be0079c531659141344cd1fd0a4f28419497f9722a3daafe3b4186f6b6457e060405160405180910390a35050565b6105e78061010d6000396000f3fe608060405234801561001057600080fd5b506004361061004c5760003560e01c80635e01eb5a14610051578063715018a61461005b5780638da5cb5b14610065578063f2fde38b14610083575b600080fd5b61005961009f565b005b6100636100b1565b005b61006d610139565b60405161007a919061047f565b60405180910390f35b61009d600480360381019061009891906103fd565b610162565b005b6100af6100aa610139565b61025a565b565b6100b96102f3565b73ffffffffffffffffffffffffffffffffffffffff166100d7610139565b73ffffffffffffffffffffffffffffffffffffffff161461012d576040517f08c379a0000000000000000000000000000000000000000000000000000000008152600401610124906104ba565b60405180910390fd5b61013760006102fb565b565b60008060009054906101000a900473ffffffffffffffffffffffffffffffffffffffff16905090565b61016a6102f3565b73ffffffffffffffffffffffffffffffffffffffff16610188610139565b73ffffffffffffffffffffffffffffffffffffffff16146101de576040517f08c379a00000000000000000000000000000000000000000000000000000000081526004016101d5906104ba565b60405180910390fd5b600073ffffffffffffffffffffffffffffffffffffffff168173ffffffffffffffffffffffffffffffffffffffff16141561024e576040517f08c379a00000000000000000000000000000000000000000000000000000000081526004016102459061049a565b60405180910390fd5b610257816102fb565b50565b6102f08160405160240161026e919061047f565b6040516020818303038152906040527f2c2ecbc2000000000000000000000000000000000000000000000000000000007bffffffffffffffffffffffffffffffffffffffffffffffffffffffff19166020820180517bffffffffffffffffffffffffffffffffffffffffffffffffffffffff83818316178352505050506103bf565b50565b600033905090565b60008060009054906101000a900473ffffffffffffffffffffffffffffffffffffffff169050816000806101000a81548173ffffffffffffffffffffffffffffffffffffffff021916908373ffffffffffffffffffffffffffffffffffffffff1602179055508173ffffffffffffffffffffffffffffffffffffffff168173ffffffffffffffffffffffffffffffffffffffff167f8be0079c531659141344cd1fd0a4f28419497f9722a3daafe3b4186f6b6457e060405160405180910390a35050565b60008151905060006a636f6e736f6c652e6c6f679050602083016000808483855afa5050505050565b6000813590506103f78161059a565b92915050565b6000602082840312156104135761041261051d565b5b6000610421848285016103e8565b91505092915050565b610433816104eb565b82525050565b60006104466026836104da565b915061045182610522565b604082019050919050565b60006104696020836104da565b915061047482610571565b602082019050919050565b6000602082019050610494600083018461042a565b92915050565b600060208201905081810360008301526104b381610439565b9050919050565b600060208201905081810360008301526104d38161045c565b9050919050565b600082825260208201905092915050565b60006104f6826104fd565b9050919050565b600073ffffffffffffffffffffffffffffffffffffffff82169050919050565b600080fd5b7f4f776e61626c653a206e6577206f776e657220697320746865207a65726f206160008201527f6464726573730000000000000000000000000000000000000000000000000000602082015250565b7f4f776e61626c653a2063616c6c6572206973206e6f7420746865206f776e6572600082015250565b6105a3816104eb565b81146105ae57600080fd5b5056fea2646970667358221220452b1683f4f95dd5f45912dda6dc4f481eb40716809540dbe113c309b970880964736f6c63430008070033",
  "linkReferences": {},
  "deployedLinkReferences": {}
}