{
  "_format": "hh-sol-artifact-1",
  "contractName": "LigoAgreementsFactory",
  "sourceName": "contracts/LigoAgreementsFactory.sol",
  "abi": [
    {
      "inputs": [],
      "stateMutability": "nonpayable",
      "type": "constructor"
    },
    {
      "anonymous": false,
      "inputs": [
        {
          "indexed": true,
          "internalType": "address",
          "name": "previousOwner",
          "type": "address"
        },
        {
          "indexed": true,
          "internalType": "address",
          "name": "newOwner",
          "type": "address"
        }
      ],
      "name": "OwnershipTransferred",
      "type": "event"
    },
    {
      "anonymous": false,
      "inputs": [
        {
          "indexed": false,
          "internalType": "address",
          "name": "_newAgreement",
          "type": "address"
        },
        {
          "indexed": false,
          "internalType": "uint256",
          "name": "_totalFundsHeld",
          "type": "uint256"
        }
      ],
      "name": "rentalAgreementCreated",
      "type": "event"
    },
    {
      "anonymous": false,
      "inputs": [
        {
          "indexed": false,
          "internalType": "string",
          "name": "_vehicleId",
          "type": "string"
        },
        {
          "indexed": false,
          "internalType": "string",
          "name": "_filecoinCid",
          "type": "string"
        },
        {
          "indexed": false,
          "internalType": "address",
          "name": "_vehicleOwner",
          "type": "address"
        },
        {
          "indexed": false,
          "internalType": "uint256",
          "name": "_baseHourFee",
          "type": "uint256"
        },
        {
          "indexed": false,
          "internalType": "uint256",
          "name": "_bondRequired",
          "type": "uint256"
        }
      ],
      "name": "vehicleAdded",
      "type": "event"
    },
    {
      "inputs": [],
      "name": "endContractProvider",
      "outputs": [],
      "stateMutability": "nonpayable",
      "type": "function"
    },
    {
      "inputs": [
        {
          "internalType": "bool",
          "name": "_isOwner",
          "type": "bool"
        },
        {
          "internalType": "address",
          "name": "_address",
          "type": "address"
        }
      ],
      "name": "getRentalContractsByUser",
      "outputs": [
        {
          "internalType": "address[]",
          "name": "",
          "type": "address[]"
        }
      ],
      "stateMutability": "view",
      "type": "function"
    },
    {
      "inputs": [
        {
          "internalType": "string",
          "name": "_vehicleId",
          "type": "string"
        }
      ],
      "name": "getVehicle",
      "outputs": [
        {
          "internalType": "string",
          "name": "",
          "type": "string"
        },
        {
          "internalType": "string",
          "name": "",
          "type": "string"
        },
        {
          "internalType": "address",
          "name": "",
          "type": "address"
        },
        {
          "internalType": "uint256",
          "name": "",
          "type": "uint256"
        },
        {
          "internalType": "uint256",
          "name": "",
          "type": "uint256"
        }
      ],
      "stateMutability": "view",
      "type": "function"
    },
    {
      "inputs": [],
      "name": "getVehicleIds",
      "outputs": [
        {
          "internalType": "string[]",
          "name": "",
          "type": "string[]"
        }
      ],
      "stateMutability": "view",
      "type": "function"
    },
    {
      "inputs": [
        {
          "internalType": "string",
          "name": "_vehicleId",
          "type": "string"
        },
        {
          "internalType": "address",
          "name": "_vehicleOwner",
          "type": "address"
        },
        {
          "internalType": "address",
          "name": "_renter",
          "type": "address"
        },
        {
          "internalType": "uint256",
          "name": "_startDateTime",
          "type": "uint256"
        },
        {
          "internalType": "uint256",
          "name": "_endDateTime",
          "type": "uint256"
        }
      ],
      "name": "newRentalAgreement",
      "outputs": [
        {
          "internalType": "address",
          "name": "",
          "type": "address"
        }
      ],
      "stateMutability": "payable",
      "type": "function"
    },
    {
      "inputs": [
        {
          "internalType": "string",
          "name": "_vehicleId",
          "type": "string"
        },
        {
          "internalType": "string",
          "name": "_filecoinCid",
          "type": "string"
        },
        {
          "internalType": "address",
          "name": "_vehicleOwner",
          "type": "address"
        },
        {
          "internalType": "uint256",
          "name": "_baseHourFee",
          "type": "uint256"
        },
        {
          "internalType": "uint256",
          "name": "_bondRequired",
          "type": "uint256"
        }
      ],
      "name": "newVehicle",
      "outputs": [],
      "stateMutability": "nonpayable",
      "type": "function"
    },
    {
      "inputs": [],
      "name": "owner",
      "outputs": [
        {
          "internalType": "address",
          "name": "",
          "type": "address"
        }
      ],
      "stateMutability": "view",
      "type": "function"
    },
    {
      "inputs": [],
      "name": "renounceOwnership",
      "outputs": [],
      "stateMutability": "nonpayable",
      "type": "function"
    },
    {
      "inputs": [
        {
          "internalType": "address",
          "name": "newOwner",
          "type": "address"
        }
      ],
      "name": "transferOwnership",
      "outputs": [],
      "stateMutability": "nonpayable",
      "type": "function"
    },
    {
      "inputs": [
        {
          "internalType": "address",
          "name": "_toAddress",
          "type": "address"
        }
      ],
      "name": "transferPlatformFunds",
      "outputs": [],
      "stateMutability": "payable",
      "type": "function"
    },
    {
      "stateMutability": "payable",
      "type": "receive"
    }
  ],
  "bytecode": "0x60806040527f3635663236636336396665323435346561636631323961656638343665363561600155600280546001600160a01b03199081167389dca850f3c3bf8fb0209190cd45e4a59632c73d1790915560006003556004805490911673a36085f69e2889c224210f603d836748e7dc008817905534801561008157600080fd5b5061008b33610090565b6100e0565b600080546001600160a01b038381166001600160a01b0319831681178455604051919092169283917f8be0079c531659141344cd1fd0a4f28419497f9722a3daafe3b4186f6b6457e09190a35050565b6135dd806100ef6000396000f3fe608060405260043610620000905760003560e01c8063047fd579146200009d57806306f1b2ee14620000de5780634a915a771462000105578063533032e51462000139578063715018a614620001605780637aa213ce14620001785780638da5cb5b14620001a8578063a1219c4214620001c0578063d5c1dcb714620001d8578063f2fde38b14620001ef57600080fd5b366200009857005b600080fd5b348015620000aa57600080fd5b50620000c2620000bc36600462000ec2565b62000214565b604051620000d5959493929190620010fd565b60405180910390f35b348015620000eb57600080fd5b50620000f6620003d4565b604051620000d5919062001097565b3480156200011257600080fd5b506200012a6200012436600462000e84565b620004b7565b604051620000d5919062001048565b3480156200014657600080fd5b506200015e6200015836600462000f79565b620005ad565b005b3480156200016d57600080fd5b506200015e62000701565b6200018f6200018936600462000f02565b6200074c565b6040516001600160a01b039091168152602001620000d5565b348015620001b557600080fd5b506200018f62000b3b565b348015620001cd57600080fd5b506200015e62000b4a565b6200015e620001e936600462000e5f565b62000b93565b348015620001fc57600080fd5b506200015e6200020e36600462000e5f565b62000c01565b6060806000806000806006876040516200022f91906200102a565b90815260200160405180910390206040518060a00160405290816000820180546200025a90620012df565b80601f01602080910402602001604051908101604052809291908181526020018280546200028890620012df565b8015620002d95780601f10620002ad57610100808354040283529160200191620002d9565b820191906000526020600020905b815481529060010190602001808311620002bb57829003601f168201915b50505050508152602001600182018054620002f490620012df565b80601f01602080910402602001604051908101604052809291908181526020018280546200032290620012df565b8015620003735780601f10620003475761010080835404028352916020019162000373565b820191906000526020600020905b8154815290600101906020018083116200035557829003601f168201915b505050918352505060028201546001600160a01b031660208083019190915260038301546040808401919091526004909301546060928301528351908401519284015191840151608090940151909b929a5090985091965090945092505050565b60606005805480602002602001604051908101604052809291908181526020016000905b82821015620004ae5783829060005260206000200180546200041a90620012df565b80601f01602080910402602001604051908101604052809291908181526020018280546200044890620012df565b8015620004995780601f106200046d5761010080835404028352916020019162000499565b820191906000526020600020905b8154815290600101906020018083116200047b57829003601f168201915b505050505081526020019060010190620003f8565b50505050905090565b6060821562000537576001600160a01b038216600090815260076020908152604091829020805483518184028101840190945280845290918301828280156200052a57602002820191906000526020600020905b81546001600160a01b031681526001909101906020018083116200050b575b50505050509050620005a7565b6001600160a01b038216600090815260086020908152604091829020805483518184028101840190945280845290918301828280156200052a576020028201919060005260206000209081546001600160a01b031681526001909101906020018083116200050b57505050505090505b92915050565b6040518060a00160405280868152602001858152602001846001600160a01b0316815260200183815260200182815250600686604051620005ef91906200102a565b908152602001604051809103902060008201518160000190805190602001906200061b92919062000cfa565b50602082810151805162000636926001850192019062000cfa565b5060408201516002820180546001600160a01b0319166001600160a01b0390921691909117905560608201516003820155608090910151600490910155600580546001810182556000919091528551620006b8917f036b6384b5eca791c62761152d0c79bb0604c104a5fb6f4eb0703f3154bb3db00190602088019062000cfa565b507f9c0a0c2c53101fd50ade3dd59f7732d296f8b0feb9a38bf0fca4fd10d47e30498585858585604051620006f2959493929190620010fd565b60405180910390a15050505050565b336200070c62000b3b565b6001600160a01b0316146200073e5760405162461bcd60e51b815260040162000735906200114d565b60405180910390fd5b6200074a600062000caa565b565b6000836001600160a01b0316856001600160a01b03161415620007b25760405162461bcd60e51b815260206004820181905260248201527f4f776e657220262052656e746572206d75737420626520646966666572656e74604482015260640162000735565b620007c083610e106200123e565b8210156200081a5760405162461bcd60e51b815260206004820152603160248201526000805160206200358883398151915260448201527036b4b734b6bab69037b31018903437bab960791b606482015260840162000735565b610e1062000829848462001292565b6200083591906200131c565b15620008945760405162461bcd60e51b81526020600482015260386024820152600080516020620035888339815191526044820152776469736372657465206e756d626572206f6620686f75727360401b606482015260840162000735565b42831015620008f65760405162461bcd60e51b815260206004820152602760248201527f56656869636c652041677265656d656e742063616e6e6f7420626520696e20746044820152661a19481c185cdd60ca1b606482015260840162000735565b6000610e1062000907858562001292565b62000913919062001259565b6006886040516200092591906200102a565b90815260200160405180910390206003015462000943919062001270565b905060006006886040516200095991906200102a565b9081526040519081900360200190206004015490506200097a81836200123e565b341015620009cb5760405162461bcd60e51b815260206004820152601d60248201527f496e73756666696369656e742072656e74202620626f6e642070616964000000604482015260640162000735565b6000620009d982846200123e565b60408051610160810182526001600160a01b03808c1682528a811660208301528183018d9052606082018a90526080820189905260a0820187905260c08201869052600454811660e083015260025416610100820152600354610120820152600154610140820152905162000a4e9062000d89565b62000a5a919062001182565b6040518091039082f090508015801562000a78573d6000803e3d6000fd5b506001600160a01b03808a1660009081526007602090815260408083208054600181810183559185528385200180548688166001600160a01b03199182168117909255958e168552600884529184208054918201815584529190922001805490921617905590507ffb5dad936d949cabc158e5207f9b4e6737de3193127bc8b9a1ac721b44d163578162000b0d84866200123e565b604080516001600160a01b03909316835260208301919091520160405180910390a198975050505050505050565b6000546001600160a01b031690565b3362000b5562000b3b565b6001600160a01b03161462000b7e5760405162461bcd60e51b815260040162000735906200114d565b62000b8862000b3b565b6001600160a01b0316ff5b3362000b9e62000b3b565b6001600160a01b03161462000bc75760405162461bcd60e51b815260040162000735906200114d565b6040516001600160a01b038216904780156108fc02916000818181858888f1935050505015801562000bfd573d6000803e3d6000fd5b5050565b3362000c0c62000b3b565b6001600160a01b03161462000c355760405162461bcd60e51b815260040162000735906200114d565b6001600160a01b03811662000c9c5760405162461bcd60e51b815260206004820152602660248201527f4f776e61626c653a206e6577206f776e657220697320746865207a65726f206160448201526564647265737360d01b606482015260840162000735565b62000ca78162000caa565b50565b600080546001600160a01b038381166001600160a01b0319831681178455604051919092169283917f8be0079c531659141344cd1fd0a4f28419497f9722a3daafe3b4186f6b6457e09190a35050565b82805462000d0890620012df565b90600052602060002090601f01602090048101928262000d2c576000855562000d77565b82601f1062000d4757805160ff191683800117855562000d77565b8280016001018555821562000d77579182015b8281111562000d7757825182559160200191906001019062000d5a565b5062000d8592915062000d97565b5090565b612212806200137683390190565b5b8082111562000d85576000815560010162000d98565b80356001600160a01b038116811462000dc657600080fd5b919050565b600082601f83011262000ddd57600080fd5b81356001600160401b038082111562000dfa5762000dfa6200135f565b604051601f8301601f19908116603f0116810190828211818310171562000e255762000e256200135f565b8160405283815286602085880101111562000e3f57600080fd5b836020870160208301376000602085830101528094505050505092915050565b60006020828403121562000e7257600080fd5b62000e7d8262000dae565b9392505050565b6000806040838503121562000e9857600080fd5b8235801515811462000ea957600080fd5b915062000eb96020840162000dae565b90509250929050565b60006020828403121562000ed557600080fd5b81356001600160401b0381111562000eec57600080fd5b62000efa8482850162000dcb565b949350505050565b600080600080600060a0868803121562000f1b57600080fd5b85356001600160401b0381111562000f3257600080fd5b62000f408882890162000dcb565b95505062000f516020870162000dae565b935062000f616040870162000dae565b94979396509394606081013594506080013592915050565b600080600080600060a0868803121562000f9257600080fd5b85356001600160401b038082111562000faa57600080fd5b62000fb889838a0162000dcb565b9650602088013591508082111562000fcf57600080fd5b5062000fde8882890162000dcb565b94505062000f616040870162000dae565b6001600160a01b03169052565b6000815180845262001016816020860160208601620012ac565b601f01601f19169290920160200192915050565b600082516200103e818460208701620012ac565b9190910192915050565b6020808252825182820181905260009190848201906040850190845b818110156200108b5783516001600160a01b03168352928401929184019160010162001064565b50909695505050505050565b6000602080830181845280855180835260408601915060408160051b870101925083870160005b82811015620010f057603f19888603018452620010dd85835162000ffc565b94509285019290850190600101620010be565b5092979650505050505050565b60a0815260006200111260a083018862000ffc565b828103602084015262001126818862000ffc565b6001600160a01b039690961660408401525050606081019290925260809091015292915050565b6020808252818101527f4f776e61626c653a2063616c6c6572206973206e6f7420746865206f776e6572604082015260600190565b602081526200119660208201835162000fef565b60006020830151620011ac604084018262000fef565b506040830151610160806060850152620011cb61018085018362000ffc565b915060608501516080850152608085015160a085015260a085015160c085015260c085015160e085015260e08501516101006200120b8187018362000fef565b8601519050610120620012218682018362000fef565b860151610140868101919091529095015193019290925250919050565b6000821982111562001254576200125462001333565b500190565b6000826200126b576200126b62001349565b500490565b60008160001904831182151516156200128d576200128d62001333565b500290565b600082821015620012a757620012a762001333565b500390565b60005b83811015620012c9578181015183820152602001620012af565b83811115620012d9576000848401525b50505050565b600181811c90821680620012f457607f821691505b602082108114156200131657634e487b7160e01b600052602260045260246000fd5b50919050565b6000826200132e576200132e62001349565b500690565b634e487b7160e01b600052601160045260246000fd5b634e487b7160e01b600052601260045260246000fd5b634e487b7160e01b600052604160045260246000fdfe608060405260016004556064600755600a600855611c20600955600060125560006013556000601455600060155560006016556000601755600060185560006019556000601a556000601b556000601c556000601d556000601e5560405162002212380380620022128339810160408190526200007c91620003d7565b620000873362000231565b8060c001518160a001516200009d919062000574565b341015620000f15760405162461bcd60e51b815260206004820152601d60248201527f496e73756666696369656e742072656e74202620626f6e642070616964000000604482015260640160405180910390fd5b60e08101516200011d90600280546001600160a01b0319166001600160a01b0392909216919091179055565b6101008101516200014a90600380546001600160a01b0319166001600160a01b0392909216919091179055565b610140810151601f5561012081015160209081558151600a80546001600160a01b039283166001600160a01b03199182161790915582840151600b805491909316911617905560408201518051620001a792600c92019062000283565b506060810151600d8190556080820151600e81905560a0830151600f81905560c084015160108190556011805460ff191690558451602086015160408088015190517f74fd000967411f0e26e596d01668b091792f0faf4e27596fe49c83aa610804e2976200022297949693959294909390929091620004dd565b60405180910390a15062000621565b600680546001600160a01b038381166001600160a01b0319831681179093556040519116919082907f8be0079c531659141344cd1fd0a4f28419497f9722a3daafe3b4186f6b6457e090600090a35050565b8280546200029190620005ce565b90600052602060002090601f016020900481019282620002b5576000855562000300565b82601f10620002d057805160ff191683800117855562000300565b8280016001018555821562000300579182015b8281111562000300578251825591602001919060010190620002e3565b506200030e92915062000312565b5090565b5b808211156200030e576000815560010162000313565b80516001600160a01b03811681146200034157600080fd5b919050565b600082601f8301126200035857600080fd5b81516001600160401b03808211156200037557620003756200060b565b604051601f8301601f19908116603f01168101908282118183101715620003a057620003a06200060b565b81604052838152866020858801011115620003ba57600080fd5b620003cd8460208301602089016200059b565b9695505050505050565b600060208284031215620003ea57600080fd5b81516001600160401b03808211156200040257600080fd5b9083019061016082860312156200041857600080fd5b6200042262000548565b6200042d8362000329565b81526200043d6020840162000329565b60208201526040830151828111156200045557600080fd5b620004638782860162000346565b604083015250606083015160608201526080830151608082015260a083015160a082015260c083015160c08201526200049f60e0840162000329565b60e08201526101009150620004b682840162000329565b91810191909152610120828101519082015261014091820151918101919091529392505050565b600060018060a01b03808a16835280891660208401525060e0604083015286518060e0840152610100620005188282860160208c016200059b565b606084019790975260808301959095525060a081019290925260c0820152601f909101601f191601019392505050565b60405161016081016001600160401b03811182821017156200056e576200056e6200060b565b60405290565b600082198211156200059657634e487b7160e01b600052601160045260246000fd5b500190565b60005b83811015620005b85781810151838201526020016200059e565b83811115620005c8576000848401525b50505050565b600181811c90821680620005e357607f821691505b602082108114156200060557634e487b7160e01b600052602260045260246000fd5b50919050565b634e487b7160e01b600052604160045260246000fd5b611be180620006316000396000f3fe6080604052600436106100e45760003560e01c8063165d35e1146100e95780631723537d1461011b57806317cefd291461013b5780631bce33c81461015d57806327b0a930146101aa5780632afb4068146101c957806331c84ea6146101dc57806338582b89146101e457806343d00d0414610202578063715018a6146102175780638da5cb5b1461022c578063b4bd778414610241578063b9548eda14610285578063c92ae959146102a5578063d1a10489146102c9578063dbc8e0c6146102eb578063dddab24014610309578063f2fde38b1461031e578063f95419261461033e575b600080fd5b3480156100f557600080fd5b506100fe61035e565b6040516001600160a01b0390911681526020015b60405180910390f35b34801561012757600080fd5b5060115460ff1660405161011291906117b9565b34801561014757600080fd5b5061015b6101563660046115d1565b610377565b005b34801561016957600080fd5b506012546014546015546013546016546017545b604080519687526020870195909552938501929092526060840152608083015260a082015260c001610112565b3480156101b657600080fd5b50600e545b604051908152602001610112565b61015b6101d736600461159f565b61058e565b61015b610a38565b3480156101f057600080fd5b50600b546001600160a01b03166100fe565b34801561020e57600080fd5b5061015b610ae9565b34801561022357600080fd5b5061015b610b5c565b34801561023857600080fd5b506100fe610b97565b34801561024d57600080fd5b50600a54600b54600d54600e54600f54601054601154604051610112976001600160a01b039081169716959493929160ff16906116f0565b34801561029157600080fd5b5061015b6102a036600461159f565b610ba6565b3480156102b157600080fd5b50601854601954601a54601b54601c54601d5461017d565b3480156102d557600080fd5b506102de610c78565b60405161011291906117c7565b3480156102f757600080fd5b50600a546001600160a01b03166100fe565b34801561031557600080fd5b50600d546101bb565b34801561032a57600080fd5b5061015b61033936600461154d565b610d0a565b34801561034a57600080fd5b5061015b6103593660046115d1565b610daa565b60006103726002546001600160a01b031690565b905090565b600b546001600160a01b031633146103aa5760405162461bcd60e51b81526004016103a190611822565b60405180910390fd5b600160115460ff1660048111156103c3576103c3611b5f565b1461041c5760405162461bcd60e51b815260206004820152602360248201527f436f6e7472616374206d75737420626520696e20415050524f5645442073746160448201526274757360e81b60648201526084016103a1565b42600d54111561047a5760405162461bcd60e51b8152602060048201526024808201527f537461727420446174652f54696d6520686173206e6f74206265656e2072656160448201526318da195960e21b60648201526084016103a1565b6000610490601f543063b9548eda60e01b610e56565b9050610552604051806040016040528060098152602001681d995a1a58db19525960ba1b815250600c80546104c490611acd565b80601f01602080910402602001604051908101604052809291908181526020018280546104f090611acd565b801561053d5780601f106105125761010080835404028352916020019161053d565b820191906000526020600020905b81548152906001019060200180831161052057829003601f168201915b505050505083610e7b9092919063ffffffff16565b60408051808201909152600881526732b731aa37b5b2b760c11b602082015261057d90829084610e7b565b61058981602054610e99565b505050565b60008481526005602052604090205484906001600160a01b031633146105c65760405162461bcd60e51b81526004016103a1906118e3565b60008181526005602052604080822080546001600160a01b0319169055518291600080516020611b8c83398151915291a26106036103e885611959565b6013556016839055601782905561061c60016064611959565b600f546106299190611959565b601b819055600f5461063b9190611ab6565b601c5560125460135460009161065a916106559190611a77565b610ebc565b905060085481111561069a5761067260016064611959565b60105461067f9190611959565b60085461068c9083611ab6565b6106969190611a58565b6019555b600e54429081111561073e576000600e54826106b69190611ab6565b905060095481111561073c57610e10600954826106d39190611ab6565b10156106fa576106e560016064611959565b6010546106f29190611959565b601a5561073c565b61070660016064611959565b6010546107139190611959565b610e10600954836107249190611ab6565b61072e9190611959565b6107389190611a58565b601a555b505b60006107536016546014546106559190611a77565b9050600061076a6017546015546106559190611a77565b9050600061077a60016064611959565b6010546107879190611959565b90508183118015610799575060075483115b156107ed576103e8600754846107af9190611ab6565b10156107bf57601881905561084d565b806103e8600754856107d19190611ab6565b6107db9190611959565b6107e59190611a58565b60185561084d565b82821180156107fd575060075482115b1561084d576103e8600754836108139190611ab6565b101561082357601881905561084d565b806103e8600754846108359190611ab6565b61083f9190611959565b6108499190611a58565b6018555b601854601a546019546108609190611941565b61086a9190611941565b601e819055601054101561088357601054601e55610897565b601e546010546108939190611ab6565b601d555b61089f610b97565b6001600160a01b03166108fc601b549081150290604051600060405180830381858888f193505050501580156108d9573d6000803e3d6000fd5b506000601e54601c546108ec9190611941565b600a546040519192506001600160a01b03169082156108fc029083906000818181858888f19350505050158015610927573d6000803e3d6000fd5b50601d541561096e57600b54601d546040516001600160a01b039092169181156108fc0291906000818181858888f1935050505015801561096c573d6000803e3d6000fd5b505b6011805460ff19166004179055601b54601c54601d54601e54601a54601854601954604080519788526020880196909652948601939093526060850191909152608084015260a083015260c08201527f2b0da50a9f3e635e4867ebdd1ae92c657705d81584e4346770bc26c0b66308d19060e00160405180910390a17f5f10e40433cd5d42d0bde2f03ba7e122f1ad2993f1c7333b2ce74dc0cdfab18a601354601654601754604051610a239392919061192b565b60405180910390a15050505050505050505050565b600a546001600160a01b03163314610a625760405162461bcd60e51b81526004016103a1906117da565b600060115460ff166004811115610a7b57610a7b611b5f565b14610a985760405162461bcd60e51b81526004016103a1906118a0565b600b546040516001600160a01b03909116904780156108fc02916000818181858888f19350505050158015610ad1573d6000803e3d6000fd5b50601180546002919060ff19166001835b0217905550565b600a546001600160a01b03163314610b135760405162461bcd60e51b81526004016103a1906117da565b600060115460ff166004811115610b2c57610b2c611b5f565b14610b495760405162461bcd60e51b81526004016103a1906118a0565b601180546001919060ff19168280610ae2565b33610b65610b97565b6001600160a01b031614610b8b5760405162461bcd60e51b81526004016103a19061186b565b610b956000610ed8565b565b6006546001600160a01b031690565b60008481526005602052604090205484906001600160a01b03163314610bde5760405162461bcd60e51b81526004016103a1906118e3565b60008181526005602052604080822080546001600160a01b0319169055518291600080516020611b8c83398151915291a2610c1b6103e885611959565b6012819055601484905560158390556011805460ff191660031790556040517fecffdc5f6e74be4dabdb4e5f024eec5677f5be94e1715541b3e6294cd4e11dff91610c69918690869061192b565b60405180910390a15050505050565b6060600c8054610c8790611acd565b80601f0160208091040260200160405190810160405280929190818152602001828054610cb390611acd565b8015610d005780601f10610cd557610100808354040283529160200191610d00565b820191906000526020600020905b815481529060010190602001808311610ce357829003601f168201915b5050505050905090565b33610d13610b97565b6001600160a01b031614610d395760405162461bcd60e51b81526004016103a19061186b565b6001600160a01b038116610d9e5760405162461bcd60e51b815260206004820152602660248201527f4f776e61626c653a206e6577206f776e657220697320746865207a65726f206160448201526564647265737360d01b60648201526084016103a1565b610da781610ed8565b50565b600b546001600160a01b03163314610dd45760405162461bcd60e51b81526004016103a190611822565b600360115460ff166004811115610ded57610ded611b5f565b14610e445760405162461bcd60e51b815260206004820152602160248201527f436f6e7472616374206d75737420626520696e204143544956452073746174756044820152607360f81b60648201526084016103a1565b6000610490601f5430632afb406860e01b5b610e5e6114fe565b610e666114fe565b610e7281868686610f2a565b95945050505050565b6080830151610e8a9083610f70565b60808301516105899082610f70565b600354600090610eb3906001600160a01b03168484610f87565b90505b92915050565b600080821215610ed457610ecf82611b16565b610eb6565b5090565b600680546001600160a01b038381166001600160a01b0319831681179093556040519116919082907f8be0079c531659141344cd1fd0a4f28419497f9722a3daafe3b4186f6b6457e090600090a35050565b610f326114fe565b610f428560800151610100611018565b50508284526001600160a01b03821660208501526001600160e01b031981166040850152835b949350505050565b610f7d8260038351611070565b610589828261117d565b600454600090610f98816001611941565b60045583516040808601516080870151519151600093633c6d41b960e01b93610fce93869384939289916002919060240161173d565b60408051601f198184030181529190526020810180516001600160e01b03166001600160e01b031990931692909217909152905061100e86838684611197565b9695505050505050565b611020611533565b61102b602083611b02565b156110535761103b602083611b02565b611046906020611ab6565b6110509083611941565b91505b506020828101829052604080518085526000815290920101905290565b6017816001600160401b03161161109a576110948360e0600585901b1683176112ff565b50505050565b60ff816001600160401b0316116110d6576110c0836018611fe0600586901b16176112ff565b50611094836001600160401b0383166001611317565b61ffff816001600160401b031611611113576110fd836019611fe0600586901b16176112ff565b50611094836001600160401b0383166002611317565b63ffffffff816001600160401b0316116111525761113c83601a611fe0600586901b16176112ff565b50611094836001600160401b0383166004611317565b61116783601b611fe0600586901b16176112ff565b50611094836001600160401b0383166008611317565b611185611533565b610eb383846000015151848551611330565b6040516001600160601b03193060601b1660208201526034810184905260009060540160408051808303601f1901815282825280516020918201206000818152600590925291812080546001600160a01b0319166001600160a01b038a1617905590925082917fb5e6e01e79f91267dc17b4e6314d5d4d03593d2ceee0fbb452b750bd70ea5af99190a2600254604051630200057560e51b81526001600160a01b0390911690634000aea09061125590889087908790600401611792565b602060405180830381600087803b15801561126f57600080fd5b505af1158015611283573d6000803e3d6000fd5b505050506040513d601f19601f820116820180604052508101906112a7919061157d565b610f685760405162461bcd60e51b815260206004820152602360248201527f756e61626c6520746f207472616e73666572416e6443616c6c20746f206f7261604482015262636c6560e81b60648201526084016103a1565b611307611533565b610eb3838460000151518461140d565b61131f611533565b610f6884856000015151858561145c565b611338611533565b825182111561134657600080fd5b60208501516113558386611941565b11156113885761138885611378876020015187866113739190611941565b6114d0565b611383906002611a58565b6114e7565b6000808651805187602083010193508088870111156113a75787860182525b505050602084015b602084106113e757805182526113c6602083611941565b91506113d3602082611941565b90506113e0602085611ab6565b93506113af565b51815160001960208690036101000a019081169019919091161790525083949350505050565b611415611533565b836020015183106114355761143584856020015160026113839190611a58565b835180516020858301018481535080851415611452576001810182525b5093949350505050565b611464611533565b60208501516114738584611941565b111561148757611487856113788685611941565b60006001611497846101006119b0565b6114a19190611ab6565b90508551838682010185831982511617815250805184870111156114c55783860181525b509495945050505050565b6000818311156114e1575081610eb6565b50919050565b81516114f38383611018565b50611094838261117d565b6040805160a08101825260008082526020820181905291810182905260608101919091526080810161152e611533565b905290565b604051806040016040528060608152602001600081525090565b60006020828403121561155f57600080fd5b81356001600160a01b038116811461157657600080fd5b9392505050565b60006020828403121561158f57600080fd5b8151801515811461157657600080fd5b600080600080608085870312156115b557600080fd5b5050823594602084013594506040840135936060013592509050565b6000602082840312156115e357600080fd5b81356001600160401b03808211156115fa57600080fd5b818401915084601f83011261160e57600080fd5b81358181111561162057611620611b75565b604051601f8201601f19908116603f0116810190838211818310171561164857611648611b75565b8160405282815287602084870101111561166157600080fd5b826020860160208301376000928101602001929092525095945050505050565b6000815180845260005b818110156116a75760208185018101518683018201520161168b565b818111156116b9576000602083870101525b50601f01601f19169290920160200192915050565b600581106116ec57634e487b7160e01b600052602160045260246000fd5b9052565b6001600160a01b0388811682528716602082015260408101869052606081018590526080810184905260a0810183905260e0810161173160c08301846116ce565b98975050505050505050565b60018060a01b038816815286602082015285604082015263ffffffff60e01b851660608201528360808201528260a082015260e060c0820152600061178560e0830184611681565b9998505050505050505050565b60018060a01b0384168152826020820152606060408201526000610e726060830184611681565b60208101610eb682846116ce565b602081526000610eb36020830184611681565b60208082526028908201527f4f6e6c792056656869636c65204f776e65722063616e20706572666f726d2074604082015267068697320737465760c41b606082015260800190565b60208082526029908201527f4f6e6c792056656869636c652052656e7465722063616e20706572666f726d2060408201526807468697320737465760bc1b606082015260800190565b6020808252818101527f4f776e61626c653a2063616c6c6572206973206e6f7420746865206f776e6572604082015260600190565b60208082526023908201527f436f6e7472616374206d75737420626520696e2050524f504f5345442073746160408201526274757360e81b606082015260800190565b60208082526028908201527f536f75726365206d75737420626520746865206f7261636c65206f6620746865604082015267081c995c5d595cdd60c21b606082015260800190565b9283526020830191909152604082015260600190565b6000821982111561195457611954611b33565b500190565b60008261196857611968611b49565b500490565b600181815b808511156119a857816000190482111561198e5761198e611b33565b8085161561199b57918102915b93841c9390800290611972565b509250929050565b6000610eb383836000826119c657506001610eb6565b816119d357506000610eb6565b81600181146119e957600281146119f357611a0f565b6001915050610eb6565b60ff841115611a0457611a04611b33565b50506001821b610eb6565b5060208310610133831016604e8410600b8410161715611a32575081810a610eb6565b611a3c838361196d565b8060001904821115611a5057611a50611b33565b029392505050565b6000816000190483118215151615611a7257611a72611b33565b500290565b60008083128015600160ff1b850184121615611a9557611a95611b33565b6001600160ff1b0384018313811615611ab057611ab0611b33565b50500390565b600082821015611ac857611ac8611b33565b500390565b600181811c90821680611ae157607f821691505b602082108114156114e157634e487b7160e01b600052602260045260246000fd5b600082611b1157611b11611b49565b500690565b6000600160ff1b821415611b2c57611b2c611b33565b5060000390565b634e487b7160e01b600052601160045260246000fd5b634e487b7160e01b600052601260045260246000fd5b634e487b7160e01b600052602160045260246000fd5b634e487b7160e01b600052604160045260246000fdfe7cc135e0cebb02c3480ae5d74d377283180a2601f8f644edf7987b009316c63aa26469706673582212204fea8c3d528974fecfe0db74c95cdff57277ab7a299cccdcf733294553ea4dd664736f6c6343000807003356656869636c652041677265656d656e74206d75737420626520666f72206120a2646970667358221220854a6b6fccbff302e856c7bf9a97c4192c79b748b035b014a9145a2c98e90cf864736f6c63430008070033",
  "linkReferences": {},
  "deployedLinkReferences": {}
}