{
  "_format": "hh-sol-artifact-1",
  "contractName": "LigoAgreementsFactory",
  "sourceName": "contracts/LigoAgreementsFactory.sol",
  "abi": [
    {
      "inputs": [],
      "stateMutability": "payable",
      "type": "constructor"
    },
    {
      "anonymous": false,
      "inputs": [
        {
          "indexed": true,
          "internalType": "address",
          "name": "previousOwner",
          "type": "address"
        },
        {
          "indexed": true,
          "internalType": "address",
          "name": "newOwner",
          "type": "address"
        }
      ],
      "name": "OwnershipTransferred",
      "type": "event"
    },
    {
      "anonymous": false,
      "inputs": [
        {
          "indexed": false,
          "internalType": "address",
          "name": "_newAgreement",
          "type": "address"
        },
        {
          "indexed": false,
          "internalType": "uint256",
          "name": "_totalFundsHeld",
          "type": "uint256"
        }
      ],
      "name": "rentalAgreementCreated",
      "type": "event"
    },
    {
      "anonymous": false,
      "inputs": [
        {
          "indexed": false,
          "internalType": "string",
          "name": "_vehicleId",
          "type": "string"
        },
        {
          "indexed": false,
          "internalType": "address",
          "name": "_vehicleOwner",
          "type": "address"
        },
        {
          "indexed": false,
          "internalType": "uint256",
          "name": "_baseHireFee",
          "type": "uint256"
        },
        {
          "indexed": false,
          "internalType": "uint256",
          "name": "_bondRequired",
          "type": "uint256"
        },
        {
          "indexed": false,
          "internalType": "enum LigoAgreementsFactory.Currency",
          "name": "_ownerCurrency",
          "type": "uint8"
        },
        {
          "indexed": false,
          "internalType": "string",
          "name": "_vehicleMake",
          "type": "string"
        },
        {
          "indexed": false,
          "internalType": "string",
          "name": "_vehicleModel",
          "type": "string"
        },
        {
          "indexed": false,
          "internalType": "int256",
          "name": "_vehicleLongitude",
          "type": "int256"
        },
        {
          "indexed": false,
          "internalType": "int256",
          "name": "_vehicleLatitude",
          "type": "int256"
        }
      ],
      "name": "vehicleAdded",
      "type": "event"
    },
    {
      "inputs": [
        {
          "internalType": "address",
          "name": "_walletOwner",
          "type": "address"
        }
      ],
      "name": "approveVehicle",
      "outputs": [],
      "stateMutability": "nonpayable",
      "type": "function"
    },
    {
      "inputs": [
        {
          "internalType": "uint256",
          "name": "_value",
          "type": "uint256"
        },
        {
          "internalType": "enum LigoAgreementsFactory.Currency",
          "name": "_toCurrency",
          "type": "uint8"
        }
      ],
      "name": "convertEthToFiat",
      "outputs": [
        {
          "internalType": "uint256",
          "name": "",
          "type": "uint256"
        }
      ],
      "stateMutability": "view",
      "type": "function"
    },
    {
      "inputs": [
        {
          "internalType": "uint256",
          "name": "_value",
          "type": "uint256"
        },
        {
          "internalType": "enum LigoAgreementsFactory.Currency",
          "name": "_fromCurrency",
          "type": "uint8"
        }
      ],
      "name": "convertFiatToEth",
      "outputs": [
        {
          "internalType": "uint256",
          "name": "",
          "type": "uint256"
        }
      ],
      "stateMutability": "view",
      "type": "function"
    },
    {
      "inputs": [],
      "name": "endContractProvider",
      "outputs": [],
      "stateMutability": "payable",
      "type": "function"
    },
    {
      "inputs": [],
      "name": "getLatestEthUsdPrice",
      "outputs": [
        {
          "internalType": "int256",
          "name": "",
          "type": "int256"
        }
      ],
      "stateMutability": "view",
      "type": "function"
    },
    {
      "inputs": [
        {
          "internalType": "address",
          "name": "_rentalContract",
          "type": "address"
        }
      ],
      "name": "getRentalContract",
      "outputs": [
        {
          "internalType": "address",
          "name": "",
          "type": "address"
        },
        {
          "internalType": "address",
          "name": "",
          "type": "address"
        },
        {
          "internalType": "uint256",
          "name": "",
          "type": "uint256"
        },
        {
          "internalType": "uint256",
          "name": "",
          "type": "uint256"
        },
        {
          "internalType": "uint256",
          "name": "",
          "type": "uint256"
        },
        {
          "internalType": "uint256",
          "name": "",
          "type": "uint256"
        },
        {
          "internalType": "enum LigoAgreementsFactory.RentalAgreementStatus",
          "name": "",
          "type": "uint8"
        }
      ],
      "stateMutability": "view",
      "type": "function"
    },
    {
      "inputs": [],
      "name": "getRentalContracts",
      "outputs": [
        {
          "internalType": "contract LigoRentalAgreement[]",
          "name": "",
          "type": "address[]"
        }
      ],
      "stateMutability": "view",
      "type": "function"
    },
    {
      "inputs": [
        {
          "internalType": "bool",
          "name": "_isOwner",
          "type": "bool"
        },
        {
          "internalType": "address",
          "name": "_address",
          "type": "address"
        }
      ],
      "name": "getRentalContracts",
      "outputs": [
        {
          "internalType": "address[]",
          "name": "",
          "type": "address[]"
        }
      ],
      "stateMutability": "view",
      "type": "function"
    },
    {
      "inputs": [
        {
          "internalType": "address",
          "name": "_walletOwner",
          "type": "address"
        }
      ],
      "name": "getVehicle",
      "outputs": [
        {
          "components": [
            {
              "internalType": "string",
              "name": "vehicleId",
              "type": "string"
            },
            {
              "internalType": "address",
              "name": "ownerAddress",
              "type": "address"
            },
            {
              "internalType": "uint256",
              "name": "baseHireFee",
              "type": "uint256"
            },
            {
              "internalType": "uint256",
              "name": "bondRequired",
              "type": "uint256"
            },
            {
              "internalType": "enum LigoAgreementsFactory.Currency",
              "name": "ownerCurrency",
              "type": "uint8"
            },
            {
              "internalType": "string",
              "name": "vehicleMake",
              "type": "string"
            },
            {
              "internalType": "string",
              "name": "vehicleModel",
              "type": "string"
            },
            {
              "internalType": "int256",
              "name": "vehicleLongitude",
              "type": "int256"
            },
            {
              "internalType": "int256",
              "name": "vehicleLatitude",
              "type": "int256"
            },
            {
              "internalType": "enum LigoAgreementsFactory.VehicleStatus",
              "name": "status",
              "type": "uint8"
            }
          ],
          "internalType": "struct LigoAgreementsFactory.Vehicle",
          "name": "",
          "type": "tuple"
        }
      ],
      "stateMutability": "view",
      "type": "function"
    },
    {
      "inputs": [],
      "name": "getVehicleAddresses",
      "outputs": [
        {
          "internalType": "address[]",
          "name": "",
          "type": "address[]"
        }
      ],
      "stateMutability": "view",
      "type": "function"
    },
    {
      "inputs": [
        {
          "internalType": "address",
          "name": "_vehicleOwnerAddress",
          "type": "address"
        }
      ],
      "name": "getVehicleId",
      "outputs": [
        {
          "internalType": "string",
          "name": "",
          "type": "string"
        }
      ],
      "stateMutability": "view",
      "type": "function"
    },
    {
      "inputs": [
        {
          "internalType": "address",
          "name": "_ownerAddress",
          "type": "address"
        },
        {
          "internalType": "uint256",
          "name": "_start",
          "type": "uint256"
        },
        {
          "internalType": "uint256",
          "name": "_end",
          "type": "uint256"
        }
      ],
      "name": "isVehicleAvailable",
      "outputs": [
        {
          "internalType": "bool",
          "name": "",
          "type": "bool"
        }
      ],
      "stateMutability": "view",
      "type": "function"
    },
    {
      "inputs": [
        {
          "internalType": "address",
          "name": "_vehicleOwner",
          "type": "address"
        },
        {
          "internalType": "address",
          "name": "_renter",
          "type": "address"
        },
        {
          "internalType": "uint256",
          "name": "_startDateTime",
          "type": "uint256"
        },
        {
          "internalType": "uint256",
          "name": "_endDateTime",
          "type": "uint256"
        }
      ],
      "name": "newRentalAgreement",
      "outputs": [
        {
          "internalType": "address",
          "name": "",
          "type": "address"
        }
      ],
      "stateMutability": "payable",
      "type": "function"
    },
    {
      "inputs": [
        {
          "internalType": "address",
          "name": "_vehicleOwner",
          "type": "address"
        },
        {
          "internalType": "string",
          "name": "_vehicleId",
          "type": "string"
        },
        {
          "internalType": "uint256",
          "name": "_baseHireFee",
          "type": "uint256"
        },
        {
          "internalType": "uint256",
          "name": "_bondRequired",
          "type": "uint256"
        },
        {
          "internalType": "enum LigoAgreementsFactory.Currency",
          "name": "_ownerCurrency",
          "type": "uint8"
        },
        {
          "internalType": "string",
          "name": "_vehicleMake",
          "type": "string"
        },
        {
          "internalType": "string",
          "name": "_vehicleModel",
          "type": "string"
        },
        {
          "internalType": "int256",
          "name": "_vehicleLongitude",
          "type": "int256"
        },
        {
          "internalType": "int256",
          "name": "_vehicleLatitude",
          "type": "int256"
        }
      ],
      "name": "newVehicle",
      "outputs": [],
      "stateMutability": "nonpayable",
      "type": "function"
    },
    {
      "inputs": [],
      "name": "owner",
      "outputs": [
        {
          "internalType": "address",
          "name": "",
          "type": "address"
        }
      ],
      "stateMutability": "view",
      "type": "function"
    },
    {
      "inputs": [],
      "name": "renounceOwnership",
      "outputs": [],
      "stateMutability": "nonpayable",
      "type": "function"
    },
    {
      "inputs": [
        {
          "internalType": "uint256",
          "name": "",
          "type": "uint256"
        }
      ],
      "name": "rentalAgreements",
      "outputs": [
        {
          "internalType": "contract LigoRentalAgreement",
          "name": "",
          "type": "address"
        }
      ],
      "stateMutability": "view",
      "type": "function"
    },
    {
      "inputs": [
        {
          "internalType": "uint256",
          "name": "_start",
          "type": "uint256"
        },
        {
          "internalType": "uint256",
          "name": "_end",
          "type": "uint256"
        }
      ],
      "name": "returnAvailableVehicles",
      "outputs": [
        {
          "internalType": "address[]",
          "name": "",
          "type": "address[]"
        }
      ],
      "stateMutability": "view",
      "type": "function"
    },
    {
      "inputs": [
        {
          "internalType": "address",
          "name": "newOwner",
          "type": "address"
        }
      ],
      "name": "transferOwnership",
      "outputs": [],
      "stateMutability": "nonpayable",
      "type": "function"
    },
    {
      "inputs": [
        {
          "internalType": "address",
          "name": "",
          "type": "address"
        }
      ],
      "name": "vehicles",
      "outputs": [
        {
          "internalType": "string",
          "name": "vehicleId",
          "type": "string"
        },
        {
          "internalType": "address",
          "name": "ownerAddress",
          "type": "address"
        },
        {
          "internalType": "uint256",
          "name": "baseHireFee",
          "type": "uint256"
        },
        {
          "internalType": "uint256",
          "name": "bondRequired",
          "type": "uint256"
        },
        {
          "internalType": "enum LigoAgreementsFactory.Currency",
          "name": "ownerCurrency",
          "type": "uint8"
        },
        {
          "internalType": "string",
          "name": "vehicleMake",
          "type": "string"
        },
        {
          "internalType": "string",
          "name": "vehicleModel",
          "type": "string"
        },
        {
          "internalType": "int256",
          "name": "vehicleLongitude",
          "type": "int256"
        },
        {
          "internalType": "int256",
          "name": "vehicleLatitude",
          "type": "int256"
        },
        {
          "internalType": "enum LigoAgreementsFactory.VehicleStatus",
          "name": "status",
          "type": "uint8"
        }
      ],
      "stateMutability": "view",
      "type": "function"
    }
  ],
  "bytecode": "0x60806040526000600155620000296200001d6200008460201b60201c565b6200008c60201b60201c565b739326bfa02add2366b30bacb125260af641031331600360006101000a81548173ffffffffffffffffffffffffffffffffffffffff021916908373ffffffffffffffffffffffffffffffffffffffff16021790555062000150565b600033905090565b60008060009054906101000a900473ffffffffffffffffffffffffffffffffffffffff169050816000806101000a81548173ffffffffffffffffffffffffffffffffffffffff021916908373ffffffffffffffffffffffffffffffffffffffff1602179055508173ffffffffffffffffffffffffffffffffffffffff168173ffffffffffffffffffffffffffffffffffffffff167f8be0079c531659141344cd1fd0a4f28419497f9722a3daafe3b4186f6b6457e060405160405180910390a35050565b618c4e80620001606000396000f3fe6080604052600436106200013a5760003560e01c80639af7efc011620000af578063aaed9f4d116200006d578063aaed9f4d146200047a578063ac06b0d814620004b0578063e888652914620004f4578063f0daf2ae146200053e578063f2fde38b146200056e576200013a565b80639af7efc0146200035e5780639b14708e14620003a25780639d8680a214620003e6578063a1219c42146200042a578063a93ab1011462000436576200013a565b80633b7c94e211620000fd5780633b7c94e2146200025e5780633f1aafe314620002a2578063715018a614620002e65780638417acdd14620003005780638da5cb5b146200032e576200013a565b8063028e7768146200013f578063081df5ec146200018c5780633021459914620001bc57806331beb67b14620001ec578063334a3a18146200021a575b600080fd5b3480156200014c57600080fd5b506200016b600480360381019062000165919062002fea565b6200059c565b604051620001839a9998979695949392919062003d40565b60405180910390f35b3480156200019957600080fd5b50620001a4620007da565b604051620001b3919062003bed565b60405180910390f35b348015620001c957600080fd5b50620001d46200086a565b604051620001e3919062003c4b565b60405180910390f35b348015620001f957600080fd5b5062000218600480360381019062000212919062002fea565b6200091e565b005b3480156200022757600080fd5b50620002466004803603810190620002409190620032af565b62000a77565b60405162000255919062003c11565b60405180910390f35b3480156200026b57600080fd5b506200028a60048036038101906200028491906200341a565b62000f0f565b60405162000299919062003f5b565b60405180910390f35b348015620002af57600080fd5b50620002ce6004803603810190620002c8919062002fea565b62000fcc565b604051620002dd919062003c68565b60405180910390f35b348015620002f357600080fd5b50620002fe620010a8565b005b3480156200030d57600080fd5b506200032c600480360381019062000326919062003173565b62001139565b005b3480156200033b57600080fd5b5062000346620013f9565b60405162000355919062003a25565b60405180910390f35b3480156200036b57600080fd5b506200038a600480360381019062000384919062003461565b62001422565b60405162000399919062003bc9565b60405180910390f35b348015620003af57600080fd5b50620003ce6004803603810190620003c891906200333d565b6200163f565b604051620003dd919062003bc9565b60405180910390f35b348015620003f357600080fd5b506200041260048036038101906200040c91906200341a565b62001c62565b60405162000421919062003f5b565b60405180910390f35b6200043462001d1f565b005b3480156200044357600080fd5b506200046260048036038101906200045c919062002fea565b62001eff565b60405162000471919062003f37565b60405180910390f35b6200049860048036038101906200049291906200304e565b62002229565b604051620004a7919062003a25565b60405180910390f35b348015620004bd57600080fd5b50620004dc6004803603810190620004d69190620033b6565b620028ee565b604051620004eb919062003c2e565b60405180910390f35b3480156200050157600080fd5b506200052060048036038101906200051a919062002fea565b6200292e565b60405162000535979695949392919062003af2565b60405180910390f35b3480156200054b57600080fd5b506200055662002abe565b60405162000565919062003bc9565b60405180910390f35b3480156200057b57600080fd5b506200059a600480360381019062000594919062002fea565b62002b4e565b005b6004602052806000526040600020600091509050806000018054620005c1906200431a565b80601f0160208091040260200160405190810160405280929190818152602001828054620005ef906200431a565b8015620006405780601f10620006145761010080835404028352916020019162000640565b820191906000526020600020905b8154815290600101906020018083116200062257829003601f168201915b5050505050908060010160009054906101000a900473ffffffffffffffffffffffffffffffffffffffff16908060020154908060030154908060040160009054906101000a900460ff16908060050180546200069c906200431a565b80601f0160208091040260200160405190810160405280929190818152602001828054620006ca906200431a565b80156200071b5780601f10620006ef576101008083540402835291602001916200071b565b820191906000526020600020905b815481529060010190602001808311620006fd57829003601f168201915b50505050509080600601805462000732906200431a565b80601f016020809104026020016040519081016040528092919081815260200182805462000760906200431a565b8015620007b15780601f106200078557610100808354040283529160200191620007b1565b820191906000526020600020905b8154815290600101906020018083116200079357829003601f168201915b5050505050908060070154908060080154908060090160009054906101000a900460ff1690508a565b606060058054806020026020016040519081016040528092919081815260200182805480156200086057602002820191906000526020600020905b8160009054906101000a900473ffffffffffffffffffffffffffffffffffffffff1673ffffffffffffffffffffffffffffffffffffffff168152602001906001019080831162000815575b5050505050905090565b600080600360009054906101000a900473ffffffffffffffffffffffffffffffffffffffff1673ffffffffffffffffffffffffffffffffffffffff1663feaf968c6040518163ffffffff1660e01b815260040160a06040518083038186803b158015620008d657600080fd5b505afa158015620008eb573d6000803e3d6000fd5b505050506040513d601f19601f82011682018060405250810190620009119190620034a8565b5050509150508091505090565b3373ffffffffffffffffffffffffffffffffffffffff1673ce83d12d9613d9b0a2bee78c221474120c606b6773ffffffffffffffffffffffffffffffffffffffff1614620009a3576040517f08c379a00000000000000000000000000000000000000000000000000000000081526004016200099a9062003e8d565b60405180910390fd5b6001600460008373ffffffffffffffffffffffffffffffffffffffff1673ffffffffffffffffffffffffffffffffffffffff16815260200190815260200160002060090160006101000a81548160ff0219169083600181111562000a0c5762000a0b6200446a565b5b02179055506002819080600181540180825580915050600190039060005260206000200160009091909190916101000a81548173ffffffffffffffffffffffffffffffffffffffff021916908373ffffffffffffffffffffffffffffffffffffffff16021790555050565b600060018081111562000a8f5762000a8e6200446a565b5b600460008673ffffffffffffffffffffffffffffffffffffffff1673ffffffffffffffffffffffffffffffffffffffff16815260200190815260200160002060090160009054906101000a900460ff16600181111562000af45762000af36200446a565b5b141562000ef95760005b60058054905081101562000ef2578473ffffffffffffffffffffffffffffffffffffffff166005828154811062000b3a5762000b39620044c8565b5b9060005260206000200160009054906101000a900473ffffffffffffffffffffffffffffffffffffffff1673ffffffffffffffffffffffffffffffffffffffff1663dbc8e0c66040518163ffffffff1660e01b815260040160206040518083038186803b15801562000bab57600080fd5b505afa15801562000bc0573d6000803e3d6000fd5b505050506040513d601f19601f8201168201806040525081019062000be691906200301c565b73ffffffffffffffffffffffffffffffffffffffff16141562000edc5760006005828154811062000c1c5762000c1b620044c8565b5b9060005260206000200160009054906101000a900473ffffffffffffffffffffffffffffffffffffffff1673ffffffffffffffffffffffffffffffffffffffff16631723537d6040518163ffffffff1660e01b815260040160206040518083038186803b15801562000c8d57600080fd5b505afa15801562000ca2573d6000803e3d6000fd5b505050506040513d601f19601f8201168201806040525081019062000cc8919062003384565b90506001600581111562000ce15762000ce06200446a565b5b81600581111562000cf75762000cf66200446a565b5b148062000d2e57506003600581111562000d165762000d156200446a565b5b81600581111562000d2c5762000d2b6200446a565b5b145b1562000eda576005828154811062000d4b5762000d4a620044c8565b5b9060005260206000200160009054906101000a900473ffffffffffffffffffffffffffffffffffffffff1673ffffffffffffffffffffffffffffffffffffffff166327b0a9306040518163ffffffff1660e01b815260040160206040518083038186803b15801562000dbc57600080fd5b505afa15801562000dd1573d6000803e3d6000fd5b505050506040513d601f19601f8201168201806040525081019062000df79190620033e8565b8510801562000ec757506005828154811062000e185762000e17620044c8565b5b9060005260206000200160009054906101000a900473ffffffffffffffffffffffffffffffffffffffff1673ffffffffffffffffffffffffffffffffffffffff1663dddab2406040518163ffffffff1660e01b815260040160206040518083038186803b15801562000e8957600080fd5b505afa15801562000e9e573d6000803e3d6000fd5b505050506040513d601f19601f8201168201806040525081019062000ec49190620033e8565b84115b1562000ed95760009250505062000f08565b5b505b808062000ee99062004386565b91505062000afe565b5062000f03565b6000905062000f08565b600190505b9392505050565b600080600181111562000f275762000f266200446a565b5b82600181111562000f3d5762000f3c6200446a565b5b141562000f4d5782905062000fc6565b600062000f596200086a565b90506000670de0b6b3a7640000828662000f749190620040fa565b62000f809190620040c2565b905060018081111562000f985762000f976200446a565b5b84600181111562000fae5762000fad6200446a565b5b141562000fc057809250505062000fc6565b84925050505b92915050565b6060600460008373ffffffffffffffffffffffffffffffffffffffff1673ffffffffffffffffffffffffffffffffffffffff16815260200190815260200160002060000180546200101d906200431a565b80601f01602080910402602001604051908101604052809291908181526020018280546200104b906200431a565b80156200109c5780601f1062001070576101008083540402835291602001916200109c565b820191906000526020600020905b8154815290600101906020018083116200107e57829003601f168201915b50505050509050919050565b620010b262002c52565b73ffffffffffffffffffffffffffffffffffffffff16620010d2620013f9565b73ffffffffffffffffffffffffffffffffffffffff16146200112b576040517f08c379a0000000000000000000000000000000000000000000000000000000008152600401620011229062003eaf565b60405180910390fd5b62001137600062002c5a565b565b6200114362002d1e565b88816000018190525089816020019073ffffffffffffffffffffffffffffffffffffffff16908173ffffffffffffffffffffffffffffffffffffffff168152505087816040018181525050868160600181815250508581608001906001811115620011b357620011b26200446a565b5b90816001811115620011ca57620011c96200446a565b5b81525050848160a00181905250838160c00181905250828160e00181815250508181610100018181525050600081610120019060018111156200121257620012116200446a565b5b908160018111156200122957620012286200446a565b5b8152505080600460008c73ffffffffffffffffffffffffffffffffffffffff1673ffffffffffffffffffffffffffffffffffffffff16815260200190815260200160002060008201518160000190805190602001906200128b92919062002db1565b5060208201518160010160006101000a81548173ffffffffffffffffffffffffffffffffffffffff021916908373ffffffffffffffffffffffffffffffffffffffff160217905550604082015181600201556060820151816003015560808201518160040160006101000a81548160ff021916908360018111156200131557620013146200446a565b5b021790555060a08201518160050190805190602001906200133892919062002db1565b5060c08201518160060190805190602001906200135792919062002db1565b5060e0820151816007015561010082015181600801556101208201518160090160006101000a81548160ff021916908360018111156200139c576200139b6200446a565b5b02179055509050507fe61e1b3c81d202f7c50b953a8b8ed3495ec241a6299d9b3f99894a0a9c49e628898b8a8a8a8a8a8a8a604051620013e59998979695949392919062003c8c565b60405180910390a150505050505050505050565b60008060009054906101000a900473ffffffffffffffffffffffffffffffffffffffff16905090565b60606000805b600280549050811015620014b957600115156200148860028381548110620014555762001454620044c8565b5b9060005260206000200160009054906101000a900473ffffffffffffffffffffffffffffffffffffffff16878762000a77565b15151415620014a357600182620014a0919062004065565b91505b8080620014b09062004386565b91505062001428565b5060008167ffffffffffffffff811115620014d957620014d8620044f7565b5b604051908082528060200260200182016040528015620015085781602001602082028036833780820191505090505b5090506000805b6002805490508110156200163257600115156200156f600283815481106200153c576200153b620044c8565b5b9060005260206000200160009054906101000a900473ffffffffffffffffffffffffffffffffffffffff16898962000a77565b151514156200161c57600281815481106200158f576200158e620044c8565b5b9060005260206000200160009054906101000a900473ffffffffffffffffffffffffffffffffffffffff16838381518110620015d057620015cf620044c8565b5b602002602001019073ffffffffffffffffffffffffffffffffffffffff16908173ffffffffffffffffffffffffffffffffffffffff168152505060018262001619919062004065565b91505b8080620016299062004386565b9150506200150f565b5081935050505092915050565b60606000805b600580549050811015620018905760011515851515141562001770578373ffffffffffffffffffffffffffffffffffffffff16600582815481106200168f576200168e620044c8565b5b9060005260206000200160009054906101000a900473ffffffffffffffffffffffffffffffffffffffff1673ffffffffffffffffffffffffffffffffffffffff1663dbc8e0c66040518163ffffffff1660e01b815260040160206040518083038186803b1580156200170057600080fd5b505afa15801562001715573d6000803e3d6000fd5b505050506040513d601f19601f820116820180604052508101906200173b91906200301c565b73ffffffffffffffffffffffffffffffffffffffff1614156200176a5760018262001767919062004065565b91505b6200187a565b8373ffffffffffffffffffffffffffffffffffffffff16600582815481106200179e576200179d620044c8565b5b9060005260206000200160009054906101000a900473ffffffffffffffffffffffffffffffffffffffff1673ffffffffffffffffffffffffffffffffffffffff166338582b896040518163ffffffff1660e01b815260040160206040518083038186803b1580156200180f57600080fd5b505afa15801562001824573d6000803e3d6000fd5b505050506040513d601f19601f820116820180604052508101906200184a91906200301c565b73ffffffffffffffffffffffffffffffffffffffff161415620018795760018262001876919062004065565b91505b5b8080620018879062004386565b91505062001645565b5060008167ffffffffffffffff811115620018b057620018af620044f7565b5b604051908082528060200260200182016040528015620018df5781602001602082028036833780820191505090505b5090506000805b60058054905081101562001c555760011515871515141562001aa3578573ffffffffffffffffffffffffffffffffffffffff166005828154811062001930576200192f620044c8565b5b9060005260206000200160009054906101000a900473ffffffffffffffffffffffffffffffffffffffff1673ffffffffffffffffffffffffffffffffffffffff1663dbc8e0c66040518163ffffffff1660e01b815260040160206040518083038186803b158015620019a157600080fd5b505afa158015620019b6573d6000803e3d6000fd5b505050506040513d601f19601f82011682018060405250810190620019dc91906200301c565b73ffffffffffffffffffffffffffffffffffffffff16141562001a9d576005818154811062001a105762001a0f620044c8565b5b9060005260206000200160009054906101000a900473ffffffffffffffffffffffffffffffffffffffff1683838151811062001a515762001a50620044c8565b5b602002602001019073ffffffffffffffffffffffffffffffffffffffff16908173ffffffffffffffffffffffffffffffffffffffff168152505060018262001a9a919062004065565b91505b62001c3f565b8573ffffffffffffffffffffffffffffffffffffffff166005828154811062001ad15762001ad0620044c8565b5b9060005260206000200160009054906101000a900473ffffffffffffffffffffffffffffffffffffffff1673ffffffffffffffffffffffffffffffffffffffff166338582b896040518163ffffffff1660e01b815260040160206040518083038186803b15801562001b4257600080fd5b505afa15801562001b57573d6000803e3d6000fd5b505050506040513d601f19601f8201168201806040525081019062001b7d91906200301c565b73ffffffffffffffffffffffffffffffffffffffff16141562001c3e576005818154811062001bb15762001bb0620044c8565b5b9060005260206000200160009054906101000a900473ffffffffffffffffffffffffffffffffffffffff1683838151811062001bf25762001bf1620044c8565b5b602002602001019073ffffffffffffffffffffffffffffffffffffffff16908173ffffffffffffffffffffffffffffffffffffffff168152505060018262001c3b919062004065565b91505b5b808062001c4c9062004386565b915050620018e6565b5081935050505092915050565b600080600181111562001c7a5762001c796200446a565b5b82600181111562001c905762001c8f6200446a565b5b141562001ca05782905062001d19565b600062001cac6200086a565b9050600081670de0b6b3a76400008662001cc79190620040fa565b62001cd39190620040c2565b905060018081111562001ceb5762001cea6200446a565b5b84600181111562001d015762001d006200446a565b5b141562001d1357809250505062001d19565b84925050505b92915050565b62001d2962002c52565b73ffffffffffffffffffffffffffffffffffffffff1662001d49620013f9565b73ffffffffffffffffffffffffffffffffffffffff161462001da2576040517f08c379a000000000000000000000000000000000000000000000000000000000815260040162001d999062003eaf565b60405180910390fd5b600073a36085f69e2889c224210f603d836748e7dc008890508073ffffffffffffffffffffffffffffffffffffffff1663a9059cbb338373ffffffffffffffffffffffffffffffffffffffff166370a08231306040518263ffffffff1660e01b815260040162001e13919062003a25565b60206040518083038186803b15801562001e2c57600080fd5b505afa15801562001e41573d6000803e3d6000fd5b505050506040513d601f19601f8201168201806040525081019062001e679190620033e8565b6040518363ffffffff1660e01b815260040162001e8692919062003b9c565b602060405180830381600087803b15801562001ea157600080fd5b505af115801562001eb6573d6000803e3d6000fd5b505050506040513d601f19601f8201168201806040525081019062001edc91906200330b565b5062001ee7620013f9565b73ffffffffffffffffffffffffffffffffffffffff16ff5b62001f0962002d1e565b600460008373ffffffffffffffffffffffffffffffffffffffff1673ffffffffffffffffffffffffffffffffffffffff1681526020019081526020016000206040518061014001604052908160008201805462001f66906200431a565b80601f016020809104026020016040519081016040528092919081815260200182805462001f94906200431a565b801562001fe55780601f1062001fb95761010080835404028352916020019162001fe5565b820191906000526020600020905b81548152906001019060200180831162001fc757829003601f168201915b505050505081526020016001820160009054906101000a900473ffffffffffffffffffffffffffffffffffffffff1673ffffffffffffffffffffffffffffffffffffffff1673ffffffffffffffffffffffffffffffffffffffff16815260200160028201548152602001600382015481526020016004820160009054906101000a900460ff16600181111562002080576200207f6200446a565b5b60018111156200209557620020946200446a565b5b8152602001600582018054620020ab906200431a565b80601f0160208091040260200160405190810160405280929190818152602001828054620020d9906200431a565b80156200212a5780601f10620020fe576101008083540402835291602001916200212a565b820191906000526020600020905b8154815290600101906020018083116200210c57829003601f168201915b5050505050815260200160068201805462002145906200431a565b80601f016020809104026020016040519081016040528092919081815260200182805462002173906200431a565b8015620021c45780601f106200219857610100808354040283529160200191620021c4565b820191906000526020600020905b815481529060010190602001808311620021a657829003601f168201915b5050505050815260200160078201548152602001600882015481526020016009820160009054906101000a900460ff1660018111156200220957620022086200446a565b5b60018111156200221e576200221d6200446a565b5b815250509050919050565b60008373ffffffffffffffffffffffffffffffffffffffff168573ffffffffffffffffffffffffffffffffffffffff1614156200229d576040517f08c379a0000000000000000000000000000000000000000000000000000000008152600401620022949062003f15565b60405180910390fd5b610e1083620022ad919062004065565b821015620022f2576040517f08c379a0000000000000000000000000000000000000000000000000000000008152600401620022e99062003ed1565b60405180910390fd5b6000610e1084846200230591906200415b565b620023119190620043d4565b1462002354576040517f08c379a00000000000000000000000000000000000000000000000000000000081526004016200234b9062003ef3565b60405180910390fd5b6001808111156200236a57620023696200446a565b5b600460008773ffffffffffffffffffffffffffffffffffffffff1673ffffffffffffffffffffffffffffffffffffffff16815260200190815260200160002060090160009054906101000a900460ff166001811115620023cf57620023ce6200446a565b5b1462002412576040517f08c379a0000000000000000000000000000000000000000000000000000000008152600401620024099062003e49565b60405180910390fd5b4283101562002458576040517f08c379a00000000000000000000000000000000000000000000000000000000081526004016200244f9062003e6b565b60405180910390fd5b6000620024b534600460008973ffffffffffffffffffffffffffffffffffffffff1673ffffffffffffffffffffffffffffffffffffffff16815260200190815260200160002060040160009054906101000a900460ff1662000f0f565b90506000610e108585620024ca91906200415b565b620024d69190620040c2565b600460008973ffffffffffffffffffffffffffffffffffffffff1673ffffffffffffffffffffffffffffffffffffffff16815260200190815260200160002060020154620025259190620040fa565b90506000600460008973ffffffffffffffffffffffffffffffffffffffff1673ffffffffffffffffffffffffffffffffffffffff16815260200190815260200160002060030154905080826200257c919062004065565b6064846200258b9190620040c2565b8462002598919062004065565b1015620025dc576040517f08c379a0000000000000000000000000000000000000000000000000000000008152600401620025d39062003e27565b60405180910390fd5b60006200263982600460008c73ffffffffffffffffffffffffffffffffffffffff1673ffffffffffffffffffffffffffffffffffffffff16815260200190815260200160002060040160009054906101000a900460ff1662001c62565b9050600081346200264b91906200415b565b905060008a8a8a8a858773a36085f69e2889c224210f603d836748e7dc008873ce83d12d9613d9b0a2bee78c221474120c606b676000600154604051620026929062002e42565b620026a79a9998979695949392919062003a42565b604051809103906000f080158015620026c4573d6000803e3d6000fd5b5090508073ffffffffffffffffffffffffffffffffffffffff166108fc8484620026ef919062004065565b9081150290604051600060405180830381858888f193505050501580156200271b573d6000803e3d6000fd5b506005819080600181540180825580915050600190039060005260206000200160009091909190916101000a81548173ffffffffffffffffffffffffffffffffffffffff021916908373ffffffffffffffffffffffffffffffffffffffff1602179055507ffb5dad936d949cabc158e5207f9b4e6737de3193127bc8b9a1ac721b44d163578134604051620027b292919062003b9c565b60405180910390a160008173ffffffffffffffffffffffffffffffffffffffff1663165d35e16040518163ffffffff1660e01b815260040160206040518083038186803b1580156200280357600080fd5b505afa15801562002818573d6000803e3d6000fd5b505050506040513d601f19601f820116820180604052508101906200283e91906200301c565b90508073ffffffffffffffffffffffffffffffffffffffff1663a9059cbb83670de0b6b3a76400006040518363ffffffff1660e01b81526004016200288592919062003b6f565b602060405180830381600087803b158015620028a057600080fd5b505af1158015620028b5573d6000803e3d6000fd5b505050506040513d601f19601f82011682018060405250810190620028db91906200330b565b5081975050505050505050949350505050565b60058181548110620028ff57600080fd5b906000526020600020016000915054906101000a900473ffffffffffffffffffffffffffffffffffffffff1681565b600080600080600080600080600090505b60058054905081101562002ab1578873ffffffffffffffffffffffffffffffffffffffff16600582815481106200297b576200297a620044c8565b5b9060005260206000200160009054906101000a900473ffffffffffffffffffffffffffffffffffffffff1673ffffffffffffffffffffffffffffffffffffffff16141562002a9b5760058181548110620029da57620029d9620044c8565b5b9060005260206000200160009054906101000a900473ffffffffffffffffffffffffffffffffffffffff1673ffffffffffffffffffffffffffffffffffffffff1663b4bd77846040518163ffffffff1660e01b815260040160e06040518083038186803b15801562002a4b57600080fd5b505afa15801562002a60573d6000803e3d6000fd5b505050506040513d601f19601f8201168201806040525081019062002a869190620030c0565b97509750975097509750975097505062002ab3565b808062002aa89062004386565b9150506200293f565b505b919395979092949650565b6060600280548060200260200160405190810160405280929190818152602001828054801562002b4457602002820191906000526020600020905b8160009054906101000a900473ffffffffffffffffffffffffffffffffffffffff1673ffffffffffffffffffffffffffffffffffffffff168152602001906001019080831162002af9575b5050505050905090565b62002b5862002c52565b73ffffffffffffffffffffffffffffffffffffffff1662002b78620013f9565b73ffffffffffffffffffffffffffffffffffffffff161462002bd1576040517f08c379a000000000000000000000000000000000000000000000000000000000815260040162002bc89062003eaf565b60405180910390fd5b600073ffffffffffffffffffffffffffffffffffffffff168173ffffffffffffffffffffffffffffffffffffffff16141562002c44576040517f08c379a000000000000000000000000000000000000000000000000000000000815260040162002c3b9062003e05565b60405180910390fd5b62002c4f8162002c5a565b50565b600033905090565b60008060009054906101000a900473ffffffffffffffffffffffffffffffffffffffff169050816000806101000a81548173ffffffffffffffffffffffffffffffffffffffff021916908373ffffffffffffffffffffffffffffffffffffffff1602179055508173ffffffffffffffffffffffffffffffffffffffff168173ffffffffffffffffffffffffffffffffffffffff167f8be0079c531659141344cd1fd0a4f28419497f9722a3daafe3b4186f6b6457e060405160405180910390a35050565b60405180610140016040528060608152602001600073ffffffffffffffffffffffffffffffffffffffff16815260200160008152602001600081526020016000600181111562002d735762002d726200446a565b5b8152602001606081526020016060815260200160008152602001600081526020016000600181111562002dab5762002daa6200446a565b5b81525090565b82805462002dbf906200431a565b90600052602060002090601f01602090048101928262002de3576000855562002e2f565b82601f1062002dfe57805160ff191683800117855562002e2f565b8280016001018555821562002e2f579182015b8281111562002e2e57825182559160200191906001019062002e11565b5b50905062002e3e919062002e50565b5090565b6143db806200483e83390190565b5b8082111562002e6b57600081600090555060010162002e51565b5090565b600062002e8662002e808462003fa1565b62003f78565b90508281526020810184848401111562002ea55762002ea46200452b565b5b62002eb2848285620042d5565b509392505050565b60008135905062002ecb8162004799565b92915050565b60008151905062002ee28162004799565b92915050565b60008135905062002ef981620047b3565b92915050565b60008151905062002f1081620047b3565b92915050565b60008135905062002f2781620047cd565b92915050565b60008151905062002f3e81620047de565b92915050565b60008135905062002f5581620047ef565b92915050565b60008151905062002f6c81620047ef565b92915050565b600082601f83011262002f8a5762002f8962004526565b5b813562002f9c84826020860162002e6f565b91505092915050565b60008135905062002fb68162004809565b92915050565b60008151905062002fcd8162004809565b92915050565b60008151905062002fe48162004823565b92915050565b60006020828403121562003003576200300262004535565b5b6000620030138482850162002eba565b91505092915050565b60006020828403121562003035576200303462004535565b5b6000620030458482850162002ed1565b91505092915050565b600080600080608085870312156200306b576200306a62004535565b5b60006200307b8782880162002eba565b94505060206200308e8782880162002eba565b9350506040620030a18782880162002fa5565b9250506060620030b48782880162002fa5565b91505092959194509250565b600080600080600080600060e0888a031215620030e257620030e162004535565b5b6000620030f28a828b0162002ed1565b9750506020620031058a828b0162002ed1565b9650506040620031188a828b0162002fbc565b95505060606200312b8a828b0162002fbc565b94505060806200313e8a828b0162002fbc565b93505060a0620031518a828b0162002fbc565b92505060c0620031648a828b0162002f2d565b91505092959891949750929550565b60008060008060008060008060006101208a8c03121562003199576200319862004535565b5b6000620031a98c828d0162002eba565b99505060208a013567ffffffffffffffff811115620031cd57620031cc62004530565b5b620031db8c828d0162002f72565b9850506040620031ee8c828d0162002fa5565b9750506060620032018c828d0162002fa5565b9650506080620032148c828d0162002f16565b95505060a08a013567ffffffffffffffff81111562003238576200323762004530565b5b620032468c828d0162002f72565b94505060c08a013567ffffffffffffffff8111156200326a576200326962004530565b5b620032788c828d0162002f72565b93505060e06200328b8c828d0162002f44565b9250506101006200329f8c828d0162002f44565b9150509295985092959850929598565b600080600060608486031215620032cb57620032ca62004535565b5b6000620032db8682870162002eba565b9350506020620032ee8682870162002fa5565b9250506040620033018682870162002fa5565b9150509250925092565b60006020828403121562003324576200332362004535565b5b6000620033348482850162002eff565b91505092915050565b6000806040838503121562003357576200335662004535565b5b6000620033678582860162002ee8565b92505060206200337a8582860162002eba565b9150509250929050565b6000602082840312156200339d576200339c62004535565b5b6000620033ad8482850162002f2d565b91505092915050565b600060208284031215620033cf57620033ce62004535565b5b6000620033df8482850162002fa5565b91505092915050565b60006020828403121562003401576200340062004535565b5b6000620034118482850162002fbc565b91505092915050565b6000806040838503121562003434576200343362004535565b5b6000620034448582860162002fa5565b9250506020620034578582860162002f16565b9150509250929050565b600080604083850312156200347b576200347a62004535565b5b60006200348b8582860162002fa5565b92505060206200349e8582860162002fa5565b9150509250929050565b600080600080600060a08688031215620034c757620034c662004535565b5b6000620034d78882890162002fd3565b9550506020620034ea8882890162002f5b565b9450506040620034fd8882890162002fbc565b9350506060620035108882890162002fbc565b9250506080620035238882890162002fd3565b9150509295509295909350565b60006200353e838362003564565b60208301905092915050565b60006200355883836200367c565b60208301905092915050565b6200356f8162004196565b82525050565b620035808162004196565b82525050565b6000620035938262003ff7565b6200359f818562004032565b9350620035ac8362003fd7565b8060005b83811015620035e3578151620035c7888262003530565b9750620035d48362004018565b925050600181019050620035b0565b5085935050505092915050565b6000620035fd8262004002565b62003609818562004032565b9350620036168362003fe7565b8060005b838110156200364d5781516200363188826200354a565b97506200363e8362004025565b9250506001810190506200361a565b5085935050505092915050565b6200366581620041aa565b82525050565b6200367681620041b6565b82525050565b620036878162004249565b82525050565b620036988162004249565b82525050565b620036a9816200425d565b82525050565b620036ba816200425d565b82525050565b620036cb8162004271565b82525050565b620036dc8162004285565b82525050565b620036ed8162004285565b82525050565b620036fe81620041ff565b82525050565b6200370f81620041ff565b82525050565b620037208162004299565b82525050565b600062003733826200400d565b6200373f818562004043565b935062003751818560208601620042e4565b6200375c816200453a565b840191505092915050565b600062003774826200400d565b62003780818562004054565b935062003792818560208601620042e4565b6200379d816200453a565b840191505092915050565b6000620037b760268362004054565b9150620037c4826200454b565b604082019050919050565b6000620037de601d8362004054565b9150620037eb826200459a565b602082019050919050565b60006200380560178362004054565b91506200381282620045c3565b602082019050919050565b60006200382c60278362004054565b91506200383982620045ec565b604082019050919050565b60006200385360208362004054565b915062003860826200463b565b602082019050919050565b60006200387a60208362004054565b9150620038878262004664565b602082019050919050565b6000620038a160318362004054565b9150620038ae826200468d565b604082019050919050565b6000620038c860388362004054565b9150620038d582620046dc565b604082019050919050565b6000620038ef60208362004054565b9150620038fc826200472b565b602082019050919050565b600061014083016000830151848203600086015262003927828262003726565b91505060208301516200393e602086018262003564565b50604083015162003953604086018262003a03565b50606083015162003968606086018262003a03565b5060808301516200397d60808601826200369e565b5060a083015184820360a086015262003997828262003726565b91505060c083015184820360c0860152620039b3828262003726565b91505060e0830151620039ca60e0860182620036f3565b50610100830151620039e1610100860182620036f3565b50610120830151620039f8610120860182620036d1565b508091505092915050565b62003a0e8162004229565b82525050565b62003a1f8162004229565b82525050565b600060208201905062003a3c600083018462003575565b92915050565b60006101408201905062003a5a600083018d62003575565b62003a69602083018c62003575565b62003a78604083018b62003a14565b62003a87606083018a62003a14565b62003a96608083018962003a14565b62003aa560a083018862003a14565b62003ab460c083018762003575565b62003ac360e083018662003575565b62003ad361010083018562003a14565b62003ae36101208301846200366b565b9b9a5050505050505050505050565b600060e08201905062003b09600083018a62003575565b62003b18602083018962003575565b62003b27604083018862003a14565b62003b36606083018762003a14565b62003b45608083018662003a14565b62003b5460a083018562003a14565b62003b6360c0830184620036c0565b98975050505050505050565b600060408201905062003b86600083018562003575565b62003b95602083018462003715565b9392505050565b600060408201905062003bb3600083018562003575565b62003bc2602083018462003a14565b9392505050565b6000602082019050818103600083015262003be5818462003586565b905092915050565b6000602082019050818103600083015262003c098184620035f0565b905092915050565b600060208201905062003c2860008301846200365a565b92915050565b600060208201905062003c4560008301846200368d565b92915050565b600060208201905062003c62600083018462003704565b92915050565b6000602082019050818103600083015262003c84818462003767565b905092915050565b600061012082019050818103600083015262003ca9818c62003767565b905062003cba602083018b62003575565b62003cc9604083018a62003a14565b62003cd8606083018962003a14565b62003ce76080830188620036af565b81810360a083015262003cfb818762003767565b905081810360c083015262003d11818662003767565b905062003d2260e083018562003704565b62003d3261010083018462003704565b9a9950505050505050505050565b600061014082019050818103600083015262003d5d818d62003767565b905062003d6e602083018c62003575565b62003d7d604083018b62003a14565b62003d8c606083018a62003a14565b62003d9b6080830189620036af565b81810360a083015262003daf818862003767565b905081810360c083015262003dc5818762003767565b905062003dd660e083018662003704565b62003de661010083018562003704565b62003df6610120830184620036e2565b9b9a5050505050505050505050565b6000602082019050818103600083015262003e2081620037a8565b9050919050565b6000602082019050818103600083015262003e4281620037cf565b9050919050565b6000602082019050818103600083015262003e6481620037f6565b9050919050565b6000602082019050818103600083015262003e86816200381d565b9050919050565b6000602082019050818103600083015262003ea88162003844565b9050919050565b6000602082019050818103600083015262003eca816200386b565b9050919050565b6000602082019050818103600083015262003eec8162003892565b9050919050565b6000602082019050818103600083015262003f0e81620038b9565b9050919050565b6000602082019050818103600083015262003f3081620038e0565b9050919050565b6000602082019050818103600083015262003f53818462003907565b905092915050565b600060208201905062003f72600083018462003a14565b92915050565b600062003f8462003f97565b905062003f92828262004350565b919050565b6000604051905090565b600067ffffffffffffffff82111562003fbf5762003fbe620044f7565b5b62003fca826200453a565b9050602081019050919050565b6000819050602082019050919050565b6000819050602082019050919050565b600081519050919050565b600081519050919050565b600081519050919050565b6000602082019050919050565b6000602082019050919050565b600082825260208201905092915050565b600082825260208201905092915050565b600082825260208201905092915050565b6000620040728262004229565b91506200407f8362004229565b9250827fffffffffffffffffffffffffffffffffffffffffffffffffffffffffffffffff03821115620040b757620040b66200440c565b5b828201905092915050565b6000620040cf8262004229565b9150620040dc8362004229565b925082620040ef57620040ee6200443b565b5b828204905092915050565b6000620041078262004229565b9150620041148362004229565b9250817fffffffffffffffffffffffffffffffffffffffffffffffffffffffffffffffff048311821515161562004150576200414f6200440c565b5b828202905092915050565b6000620041688262004229565b9150620041758362004229565b9250828210156200418b576200418a6200440c565b5b828203905092915050565b6000620041a38262004209565b9050919050565b60008115159050919050565b6000819050919050565b6000819050620041d08262004754565b919050565b6000819050620041e5826200476b565b919050565b6000819050620041fa8262004782565b919050565b6000819050919050565b600073ffffffffffffffffffffffffffffffffffffffff82169050919050565b6000819050919050565b600069ffffffffffffffffffff82169050919050565b60006200425682620042ad565b9050919050565b60006200426a82620041c0565b9050919050565b60006200427e82620041d5565b9050919050565b60006200429282620041ea565b9050919050565b6000620042a68262004229565b9050919050565b6000620042ba82620042c1565b9050919050565b6000620042ce8262004209565b9050919050565b82818337600083830152505050565b60005b8381101562004304578082015181840152602081019050620042e7565b8381111562004314576000848401525b50505050565b600060028204905060018216806200433357607f821691505b602082108114156200434a576200434962004499565b5b50919050565b6200435b826200453a565b810181811067ffffffffffffffff821117156200437d576200437c620044f7565b5b80604052505050565b6000620043938262004229565b91507fffffffffffffffffffffffffffffffffffffffffffffffffffffffffffffffff821415620043c957620043c86200440c565b5b600182019050919050565b6000620043e18262004229565b9150620043ee8362004229565b9250826200440157620044006200443b565b5b828206905092915050565b7f4e487b7100000000000000000000000000000000000000000000000000000000600052601160045260246000fd5b7f4e487b7100000000000000000000000000000000000000000000000000000000600052601260045260246000fd5b7f4e487b7100000000000000000000000000000000000000000000000000000000600052602160045260246000fd5b7f4e487b7100000000000000000000000000000000000000000000000000000000600052602260045260246000fd5b7f4e487b7100000000000000000000000000000000000000000000000000000000600052603260045260246000fd5b7f4e487b7100000000000000000000000000000000000000000000000000000000600052604160045260246000fd5b600080fd5b600080fd5b600080fd5b600080fd5b6000601f19601f8301169050919050565b7f4f776e61626c653a206e6577206f776e657220697320746865207a65726f206160008201527f6464726573730000000000000000000000000000000000000000000000000000602082015250565b7f496e73756666696369656e742072656e74202620626f6e642070616964000000600082015250565b7f56656869636c65206973206e6f7420617070726f766564000000000000000000600082015250565b7f56656869636c652041677265656d656e742063616e6e6f7420626520696e207460008201527f6865207061737400000000000000000000000000000000000000000000000000602082015250565b7f4f6e6c79204e6f64652063616e2063616c6c20746869732066756e6374696f6e600082015250565b7f4f776e61626c653a2063616c6c6572206973206e6f7420746865206f776e6572600082015250565b7f56656869636c652041677265656d656e74206d75737420626520666f7220612060008201527f6d696e696d756d206f66203120686f7572000000000000000000000000000000602082015250565b7f56656869636c652041677265656d656e74206d75737420626520666f7220612060008201527f6469736372657465206e756d626572206f6620686f7572730000000000000000602082015250565b7f4f776e657220262052656e746572206d75737420626520646966666572656e74600082015250565b600281106200476857620047676200446a565b5b50565b600681106200477f576200477e6200446a565b5b50565b600281106200479657620047956200446a565b5b50565b620047a48162004196565b8114620047b057600080fd5b50565b620047be81620041aa565b8114620047ca57600080fd5b50565b60028110620047db57600080fd5b50565b60068110620047ec57600080fd5b50565b620047fa81620041ff565b81146200480657600080fd5b50565b620048148162004229565b81146200482057600080fd5b50565b6200482e8162004233565b81146200483a57600080fd5b5056fe608060405260016004556000600e556000600f5560006010556000601155600060125560006013556000601455600060155560006016556000601755600060185560006019556000601a556000601b556000601c556000601d556000601e556000601f55604051620043db380380620043db833981810160405281019062000088919062000430565b620000a86200009c6200029560201b60201c565b6200029d60201b60201c565b8585620000b691906200060f565b3411620000fa576040517f08c379a0000000000000000000000000000000000000000000000000000000008152600401620000f190620005dc565b60405180910390fd5b6200010b846200036360201b60201c565b6200011c83620003a760201b60201c565b806021819055508160208190555089600760006101000a81548173ffffffffffffffffffffffffffffffffffffffff021916908373ffffffffffffffffffffffffffffffffffffffff16021790555088600860006101000a81548173ffffffffffffffffffffffffffffffffffffffff021916908373ffffffffffffffffffffffffffffffffffffffff1602179055508760098190555086600a8190555085600b8190555084600c819055506000600d60006101000a81548160ff02191690836005811115620001f157620001f06200071f565b5b02179055507f3132a2cb0b8eb76453926793c3d8709cf31b987728faa0c223963e8703351188600760009054906101000a900473ffffffffffffffffffffffffffffffffffffffff16600860009054906101000a900473ffffffffffffffffffffffffffffffffffffffff16600954600a54600b54600c546040516200027d969594939291906200056f565b60405180910390a150505050505050505050620007f0565b600033905090565b6000600660009054906101000a900473ffffffffffffffffffffffffffffffffffffffff16905081600660006101000a81548173ffffffffffffffffffffffffffffffffffffffff021916908373ffffffffffffffffffffffffffffffffffffffff1602179055508173ffffffffffffffffffffffffffffffffffffffff168173ffffffffffffffffffffffffffffffffffffffff167f8be0079c531659141344cd1fd0a4f28419497f9722a3daafe3b4186f6b6457e060405160405180910390a35050565b80600260006101000a81548173ffffffffffffffffffffffffffffffffffffffff021916908373ffffffffffffffffffffffffffffffffffffffff16021790555050565b80600360006101000a81548173ffffffffffffffffffffffffffffffffffffffff021916908373ffffffffffffffffffffffffffffffffffffffff16021790555050565b600081519050620003fc81620007a2565b92915050565b6000815190506200041381620007bc565b92915050565b6000815190506200042a81620007d6565b92915050565b6000806000806000806000806000806101408b8d0312156200045757620004566200074e565b5b6000620004678d828e01620003eb565b9a505060206200047a8d828e01620003eb565b99505060406200048d8d828e0162000419565b9850506060620004a08d828e0162000419565b9750506080620004b38d828e0162000419565b96505060a0620004c68d828e0162000419565b95505060c0620004d98d828e01620003eb565b94505060e0620004ec8d828e01620003eb565b935050610100620005008d828e0162000419565b925050610120620005148d828e0162000402565b9150509295989b9194979a5092959850565b6200053181620006b4565b82525050565b600062000546602183620005fe565b9150620005538262000753565b604082019050919050565b6200056981620006aa565b82525050565b600060c08201905062000586600083018962000526565b62000595602083018862000526565b620005a460408301876200055e565b620005b360608301866200055e565b620005c260808301856200055e565b620005d160a08301846200055e565b979650505050505050565b60006020820190508181036000830152620005f78162000537565b9050919050565b600082825260208201905092915050565b60006200061c82620006aa565b91506200062983620006aa565b9250827fffffffffffffffffffffffffffffffffffffffffffffffffffffffffffffffff03821115620006615762000660620006f0565b5b828201905092915050565b600062000679826200068a565b9050919050565b6000819050919050565b600073ffffffffffffffffffffffffffffffffffffffff82169050919050565b6000819050919050565b6000620006c182620006c8565b9050919050565b6000620006d582620006dc565b9050919050565b6000620006e9826200068a565b9050919050565b7f4e487b7100000000000000000000000000000000000000000000000000000000600052601160045260246000fd5b7f4e487b7100000000000000000000000000000000000000000000000000000000600052602160045260246000fd5b600080fd5b7f4e6f7420656e6f7567682066756e64732073656e7420746f20636f6e7472616360008201527f7400000000000000000000000000000000000000000000000000000000000000602082015250565b620007ad816200066c565b8114620007b957600080fd5b50565b620007c78162000680565b8114620007d357600080fd5b50565b620007e181620006aa565b8114620007ed57600080fd5b50565b613bdb80620008006000396000f3fe608060405234801561001057600080fd5b506004361061012c5760003560e01c8063715018a6116100ad578063ce7706e211610071578063ce7706e2146102c0578063dbc8e0c6146102dc578063dddab240146102fa578063f2fde38b14610318578063f9541926146103345761012c565b8063715018a6146102345780638da5cb5b1461023e578063b4bd77841461025c578063b9548eda14610280578063c92ae9591461029c5761012c565b806327b0a930116100f457806327b0a930146101c85780632afb4068146101e657806331c84ea61461020257806338582b891461020c57806343d00d041461022a5761012c565b8063165d35e1146101315780631723537d1461014f57806317cefd291461016d5780631bce33c8146101895780632053d78c146101ac575b600080fd5b610139610350565b6040516101469190612d09565b60405180910390f35b61015761035f565b6040516101649190612e9a565b60405180910390f35b610187600480360381019061018291906129cd565b610376565b005b6101916106c1565b6040516101a396959493929190613067565b60405180910390f35b6101c660048036038101906101c19190612966565b6106f0565b005b6101d061098b565b6040516101dd9190613015565b60405180910390f35b61020060048036038101906101fb9190612966565b610995565b005b61020a610f2d565b005b6102146111f3565b6040516102219190612d09565b60405180910390f35b61023261121d565b005b61023c611350565b005b6102466113d8565b6040516102539190612d09565b60405180910390f35b610264611402565b6040516102779796959493929190612d3f565b60405180910390f35b61029a60048036038101906102959190612966565b611486565b005b6102a4611613565b6040516102b797969594939291906130c8565b60405180910390f35b6102da60048036038101906102d591906129cd565b61164a565b005b6102e46119a1565b6040516102f19190612d09565b60405180910390f35b6103026119cb565b60405161030f9190613015565b60405180910390f35b610332600480360381019061032d919061290c565b6119d5565b005b61034e600480360381019061034991906129cd565b611acd565b005b600061035a611dd3565b905090565b6000600d60009054906101000a900460ff16905090565b3373ffffffffffffffffffffffffffffffffffffffff16600860009054906101000a900473ffffffffffffffffffffffffffffffffffffffff1673ffffffffffffffffffffffffffffffffffffffff1614610406576040517f08c379a00000000000000000000000000000000000000000000000000000000081526004016103fd90612f75565b60405180910390fd5b6001600581111561041a57610419613742565b5b600d60009054906101000a900460ff16600581111561043c5761043b613742565b5b1461047c576040517f08c379a000000000000000000000000000000000000000000000000000000000815260040161047390612ff5565b60405180910390fd5b4260095411156104c1576040517f08c379a00000000000000000000000000000000000000000000000000000000081526004016104b890612f15565b60405180910390fd5b60006104cb6113d8565b73ffffffffffffffffffffffffffffffffffffffff16633f1aafe3600760009054906101000a900473ffffffffffffffffffffffffffffffffffffffff166040518263ffffffff1660e01b81526004016105259190612d24565b60006040518083038186803b15801561053d57600080fd5b505afa158015610551573d6000803e3d6000fd5b505050506040513d6000823e3d601f19601f8201168201806040525081019061057a9190612a16565b905060006105926021543063b9548eda60e01b611dfd565b90506105de6040518060400160405280600981526020017f76656869636c65496400000000000000000000000000000000000000000000008152508383611e2e9092919063ffffffff16565b6106286040518060400160405280600881526020017f656e63546f6b656e0000000000000000000000000000000000000000000000008152508483611e2e9092919063ffffffff16565b6106a76040518060400160405280600681526020017f616374696f6e00000000000000000000000000000000000000000000000000008152506040518060400160405280600681526020017f756e6c6f636b000000000000000000000000000000000000000000000000000081525083611e2e9092919063ffffffff16565b6106bb6106b2611e61565b82602054611e8b565b50505050565b600080600080600080600e54601054601154600f54601254601354955095509550955095509550909192939495565b836005600082815260200190815260200160002060009054906101000a900473ffffffffffffffffffffffffffffffffffffffff1673ffffffffffffffffffffffffffffffffffffffff163373ffffffffffffffffffffffffffffffffffffffff1614610792576040517f08c379a000000000000000000000000000000000000000000000000000000000815260040161078990612fd5565b60405180910390fd5b6005600082815260200190815260200160002060006101000a81549073ffffffffffffffffffffffffffffffffffffffff0219169055807f7cc135e0cebb02c3480ae5d74d377283180a2601f8f644edf7987b009316c63a60405160405180910390a283600f819055508260128190555081601381905550600160646108189190613210565b600b546108259190613210565b601c81905550601c54600b5461083b91906134a0565b601d81905550600c54601f819055506108526113d8565b73ffffffffffffffffffffffffffffffffffffffff166108fc601c549081150290604051600060405180830381858888f19350505050158015610899573d6000803e3d6000fd5b506000601f54601d546108ac91906131ba565b9050600760009054906101000a900473ffffffffffffffffffffffffffffffffffffffff1673ffffffffffffffffffffffffffffffffffffffff166108fc829081150290604051600060405180830381858888f19350505050158015610916573d6000803e3d6000fd5b506005600d60006101000a81548160ff0219169083600581111561093d5761093c613742565b5b02179055507f0f8471b07aa834f7bdec51c4767701ea242e0cddf089e2c6fb2732d217b1c880600f5460125460135460405161097b93929190613030565b60405180910390a1505050505050565b6000600a54905090565b836005600082815260200190815260200160002060009054906101000a900473ffffffffffffffffffffffffffffffffffffffff1673ffffffffffffffffffffffffffffffffffffffff163373ffffffffffffffffffffffffffffffffffffffff1614610a37576040517f08c379a0000000000000000000000000000000000000000000000000000000008152600401610a2e90612fd5565b60405180910390fd5b6005600082815260200190815260200160002060006101000a81549073ffffffffffffffffffffffffffffffffffffffff0219169055807f7cc135e0cebb02c3480ae5d74d377283180a2601f8f644edf7987b009316c63a60405160405180910390a283600f8190555082601281905550816013819055504260148190555060016064610ac49190613210565b600b54610ad19190613210565b601c81905550601c54600b54610ae791906134a0565b601d81905550600e54600f54610afd91906134a0565b60158190555060056015541115610b495760016064610b1c9190613210565b600c54610b299190613210565b6005601554610b3891906134a0565b610b4291906133b2565b601a819055505b600a546014541115610c0157600a54601454610b6591906134a0565b601681905550612a306016541115610c0057610e10612a30601654610b8a91906134a0565b1015610bb65760016064610b9e9190613210565b600c54610bab9190613210565b601b81905550610bff565b60016064610bc49190613210565b600c54610bd19190613210565b610e10612a30601654610be491906134a0565b610bee9190613210565b610bf891906133b2565b601b819055505b5b5b610c19601254601054610c14919061340c565b611f57565b601781905550610c37601354601154610c32919061340c565b611f57565b601881905550600a6017541115610c885760016064610c569190613210565b600c54610c639190613210565b612710601754610c739190613210565b610c7d91906133b2565b601981905550610cd0565b600a6018541115610ccf5760016064610ca19190613210565b600c54610cae9190613210565b612710601854610cbe9190613210565b610cc891906133b2565b6019819055505b5b601954601b54601a54610ce391906131ba565b610ced91906131ba565b601f81905550600c54601f541115610d0d57600c54601f81905550610d24565b601f54600c54610d1d91906134a0565b601e819055505b610d2c6113d8565b73ffffffffffffffffffffffffffffffffffffffff166108fc601c549081150290604051600060405180830381858888f19350505050158015610d73573d6000803e3d6000fd5b506000601f54601d54610d8691906131ba565b9050600760009054906101000a900473ffffffffffffffffffffffffffffffffffffffff1673ffffffffffffffffffffffffffffffffffffffff166108fc829081150290604051600060405180830381858888f19350505050158015610df0573d6000803e3d6000fd5b506000601e541115610e6857600860009054906101000a900473ffffffffffffffffffffffffffffffffffffffff1673ffffffffffffffffffffffffffffffffffffffff166108fc601e549081150290604051600060405180830381858888f19350505050158015610e66573d6000803e3d6000fd5b505b6004600d60006101000a81548160ff02191690836005811115610e8e57610e8d613742565b5b02179055507f2b0da50a9f3e635e4867ebdd1ae92c657705d81584e4346770bc26c0b66308d1601c54601d54601e54601f54601b54601954601a54604051610edc97969594939291906130c8565b60405180910390a17f5f10e40433cd5d42d0bde2f03ba7e122f1ad2993f1c7333b2ce74dc0cdfab18a600f54601254601354604051610f1d93929190613030565b60405180910390a1505050505050565b3373ffffffffffffffffffffffffffffffffffffffff16600760009054906101000a900473ffffffffffffffffffffffffffffffffffffffff1673ffffffffffffffffffffffffffffffffffffffff1614610fbd576040517f08c379a0000000000000000000000000000000000000000000000000000000008152600401610fb490612f55565b60405180910390fd5b60006005811115610fd157610fd0613742565b5b600d60009054906101000a900460ff166005811115610ff357610ff2613742565b5b14611033576040517f08c379a000000000000000000000000000000000000000000000000000000000815260040161102a90612fb5565b60405180910390fd5b600860009054906101000a900473ffffffffffffffffffffffffffffffffffffffff1673ffffffffffffffffffffffffffffffffffffffff166108fc479081150290604051600060405180830381858888f1935050505015801561109b573d6000803e3d6000fd5b5060006110a6611dd3565b90508073ffffffffffffffffffffffffffffffffffffffff1663a9059cbb6110cc6113d8565b8373ffffffffffffffffffffffffffffffffffffffff166370a08231306040518263ffffffff1660e01b81526004016111059190612d09565b60206040518083038186803b15801561111d57600080fd5b505afa158015611131573d6000803e3d6000fd5b505050506040513d601f19601f820116820180604052508101906111559190612a5f565b6040518363ffffffff1660e01b8152600401611172929190612dae565b602060405180830381600087803b15801561118c57600080fd5b505af11580156111a0573d6000803e3d6000fd5b505050506040513d601f19601f820116820180604052508101906111c49190612939565b506002600d60006101000a81548160ff021916908360058111156111eb576111ea613742565b5b021790555050565b6000600860009054906101000a900473ffffffffffffffffffffffffffffffffffffffff16905090565b3373ffffffffffffffffffffffffffffffffffffffff16600760009054906101000a900473ffffffffffffffffffffffffffffffffffffffff1673ffffffffffffffffffffffffffffffffffffffff16146112ad576040517f08c379a00000000000000000000000000000000000000000000000000000000081526004016112a490612f55565b60405180910390fd5b600060058111156112c1576112c0613742565b5b600d60009054906101000a900460ff1660058111156112e3576112e2613742565b5b14611323576040517f08c379a000000000000000000000000000000000000000000000000000000000815260040161131a90612fb5565b60405180910390fd5b6001600d60006101000a81548160ff0219169083600581111561134957611348613742565b5b0217905550565b611358611f79565b73ffffffffffffffffffffffffffffffffffffffff166113766113d8565b73ffffffffffffffffffffffffffffffffffffffff16146113cc576040517f08c379a00000000000000000000000000000000000000000000000000000000081526004016113c390612f95565b60405180910390fd5b6113d66000611f81565b565b6000600660009054906101000a900473ffffffffffffffffffffffffffffffffffffffff16905090565b6000806000806000806000600760009054906101000a900473ffffffffffffffffffffffffffffffffffffffff16600860009054906101000a900473ffffffffffffffffffffffffffffffffffffffff16600954600a54600b54600c54600d60009054906101000a900460ff16965096509650965096509650965090919293949596565b836005600082815260200190815260200160002060009054906101000a900473ffffffffffffffffffffffffffffffffffffffff1673ffffffffffffffffffffffffffffffffffffffff163373ffffffffffffffffffffffffffffffffffffffff1614611528576040517f08c379a000000000000000000000000000000000000000000000000000000000815260040161151f90612fd5565b60405180910390fd5b6005600082815260200190815260200160002060006101000a81549073ffffffffffffffffffffffffffffffffffffffff0219169055807f7cc135e0cebb02c3480ae5d74d377283180a2601f8f644edf7987b009316c63a60405160405180910390a283600e8190555082601081905550816011819055506003600d60006101000a81548160ff021916908360058111156115c6576115c5613742565b5b02179055507fecffdc5f6e74be4dabdb4e5f024eec5677f5be94e1715541b3e6294cd4e11dff600e5460105460115460405161160493929190613030565b60405180910390a15050505050565b6000806000806000806000601454601954601a54601b54601c54601d54601e54965096509650965096509650965090919293949596565b3373ffffffffffffffffffffffffffffffffffffffff16600760009054906101000a900473ffffffffffffffffffffffffffffffffffffffff1673ffffffffffffffffffffffffffffffffffffffff16146116da576040517f08c379a00000000000000000000000000000000000000000000000000000000081526004016116d190612f55565b60405180910390fd5b600360058111156116ee576116ed613742565b5b600d60009054906101000a900460ff1660058111156117105761170f613742565b5b14611750576040517f08c379a000000000000000000000000000000000000000000000000000000000815260040161174790612f35565b60405180910390fd5b612a30600a5461176091906131ba565b42116117a1576040517f08c379a000000000000000000000000000000000000000000000000000000000815260040161179890612ed5565b60405180910390fd5b60006117ab6113d8565b73ffffffffffffffffffffffffffffffffffffffff16633f1aafe3600760009054906101000a900473ffffffffffffffffffffffffffffffffffffffff166040518263ffffffff1660e01b81526004016118059190612d24565b60006040518083038186803b15801561181d57600080fd5b505afa158015611831573d6000803e3d6000fd5b505050506040513d6000823e3d601f19601f8201168201806040525081019061185a9190612a16565b9050600061187260215430632053d78c60e01b611dfd565b90506118be6040518060400160405280600981526020017f76656869636c65496400000000000000000000000000000000000000000000008152508383611e2e9092919063ffffffff16565b6119086040518060400160405280600881526020017f656e63546f6b656e0000000000000000000000000000000000000000000000008152508483611e2e9092919063ffffffff16565b6119876040518060400160405280600681526020017f616374696f6e00000000000000000000000000000000000000000000000000008152506040518060400160405280600c81526020017f76656869636c655f64617461000000000000000000000000000000000000000081525083611e2e9092919063ffffffff16565b61199b611992611e61565b82602054611e8b565b50505050565b6000600760009054906101000a900473ffffffffffffffffffffffffffffffffffffffff16905090565b6000600954905090565b6119dd611f79565b73ffffffffffffffffffffffffffffffffffffffff166119fb6113d8565b73ffffffffffffffffffffffffffffffffffffffff1614611a51576040517f08c379a0000000000000000000000000000000000000000000000000000000008152600401611a4890612f95565b60405180910390fd5b600073ffffffffffffffffffffffffffffffffffffffff168173ffffffffffffffffffffffffffffffffffffffff161415611ac1576040517f08c379a0000000000000000000000000000000000000000000000000000000008152600401611ab890612eb5565b60405180910390fd5b611aca81611f81565b50565b3373ffffffffffffffffffffffffffffffffffffffff16600860009054906101000a900473ffffffffffffffffffffffffffffffffffffffff1673ffffffffffffffffffffffffffffffffffffffff1614611b5d576040517f08c379a0000000000000000000000000000000000000000000000000000000008152600401611b5490612f75565b60405180910390fd5b60036005811115611b7157611b70613742565b5b600d60009054906101000a900460ff166005811115611b9357611b92613742565b5b14611bd3576040517f08c379a0000000000000000000000000000000000000000000000000000000008152600401611bca90612f35565b60405180910390fd5b6000611bdd6113d8565b73ffffffffffffffffffffffffffffffffffffffff16633f1aafe3600760009054906101000a900473ffffffffffffffffffffffffffffffffffffffff166040518263ffffffff1660e01b8152600401611c379190612d24565b60006040518083038186803b158015611c4f57600080fd5b505afa158015611c63573d6000803e3d6000fd5b505050506040513d6000823e3d601f19601f82011682018060405250810190611c8c9190612a16565b90506000611ca460215430632afb406860e01b611dfd565b9050611cf06040518060400160405280600981526020017f76656869636c65496400000000000000000000000000000000000000000000008152508383611e2e9092919063ffffffff16565b611d3a6040518060400160405280600881526020017f656e63546f6b656e0000000000000000000000000000000000000000000000008152508483611e2e9092919063ffffffff16565b611db96040518060400160405280600681526020017f616374696f6e00000000000000000000000000000000000000000000000000008152506040518060400160405280600481526020017f6c6f636b0000000000000000000000000000000000000000000000000000000081525083611e2e9092919063ffffffff16565b611dcd611dc4611e61565b82602054611e8b565b50505050565b6000600260009054906101000a900473ffffffffffffffffffffffffffffffffffffffff16905090565b611e05612727565b611e0d612727565b611e2485858584612047909392919063ffffffff16565b9150509392505050565b611e458284608001516120f790919063ffffffff16565b611e5c8184608001516120f790919063ffffffff16565b505050565b6000600360009054906101000a900473ffffffffffffffffffffffffffffffffffffffff16905090565b6000806004549050600181611ea091906131ba565b6004819055506000634042994660e01b60008087600001513089604001518760018c6080015160000151604051602401611ee1989796959493929190612dd7565b604051602081830303815290604052907bffffffffffffffffffffffffffffffffffffffffffffffffffffffff19166020820180517bffffffffffffffffffffffffffffffffffffffffffffffffffffffff83818316178352505050509050611f4c8683868461211c565b925050509392505050565b600080821215611f705781611f6b9061369b565b611f72565b815b9050919050565b600033905090565b6000600660009054906101000a900473ffffffffffffffffffffffffffffffffffffffff16905081600660006101000a81548173ffffffffffffffffffffffffffffffffffffffff021916908373ffffffffffffffffffffffffffffffffffffffff1602179055508173ffffffffffffffffffffffffffffffffffffffff168173ffffffffffffffffffffffffffffffffffffffff167f8be0079c531659141344cd1fd0a4f28419497f9722a3daafe3b4186f6b6457e060405160405180910390a35050565b61204f612727565b61205f85608001516101006122c0565b508385600001818152505082856020019073ffffffffffffffffffffffffffffffffffffffff16908173ffffffffffffffffffffffffffffffffffffffff16815250508185604001907bffffffffffffffffffffffffffffffffffffffffffffffffffffffff191690817bffffffffffffffffffffffffffffffffffffffffffffffffffffffff191681525050849050949350505050565b612104826003835161232a565b61211781836124af90919063ffffffff16565b505050565b60003084604051602001612131929190612cdd565b604051602081830303815290604052805190602001209050846005600083815260200190815260200160002060006101000a81548173ffffffffffffffffffffffffffffffffffffffff021916908373ffffffffffffffffffffffffffffffffffffffff160217905550807fb5e6e01e79f91267dc17b4e6314d5d4d03593d2ceee0fbb452b750bd70ea5af960405160405180910390a2600260009054906101000a900473ffffffffffffffffffffffffffffffffffffffff1673ffffffffffffffffffffffffffffffffffffffff16634000aea08685856040518463ffffffff1660e01b815260040161222793929190612e5c565b602060405180830381600087803b15801561224157600080fd5b505af1158015612255573d6000803e3d6000fd5b505050506040513d601f19601f820116820180604052508101906122799190612939565b6122b8576040517f08c379a00000000000000000000000000000000000000000000000000000000081526004016122af90612ef5565b60405180910390fd5b949350505050565b6122c8612794565b60006020836122d7919061366a565b14612303576020826122e9919061366a565b60206122f591906134a0565b8261230091906131ba565b91505b81836020018181525050604051808452600081528281016020016040525082905092915050565b60178167ffffffffffffffff16116123615761235b8160058460ff16901b60ff1617846124d190919063ffffffff16565b506124aa565b60ff8167ffffffffffffffff16116123b757612390601860058460ff16901b17846124d190919063ffffffff16565b506123b18167ffffffffffffffff166001856124f19092919063ffffffff16565b506124a9565b61ffff8167ffffffffffffffff161161240e576123e7601960058460ff16901b17846124d190919063ffffffff16565b506124088167ffffffffffffffff166002856124f19092919063ffffffff16565b506124a8565b63ffffffff8167ffffffffffffffff161161246757612440601a60058460ff16901b17846124d190919063ffffffff16565b506124618167ffffffffffffffff166004856124f19092919063ffffffff16565b506124a7565b612484601b60058460ff16901b17846124d190919063ffffffff16565b506124a58167ffffffffffffffff166008856124f19092919063ffffffff16565b505b5b5b5b505050565b6124b7612794565b6124c983846000015151848551612513565b905092915050565b6124d9612794565b6124e98384600001515184612602565b905092915050565b6124f9612794565b61250a848560000151518585612659565b90509392505050565b61251b612794565b825182111561252957600080fd5b8460200151828561253a91906131ba565b111561256f5761256e85600261255f8860200151888761255a91906131ba565b6126e7565b61256991906133b2565b612703565b5b60008086518051876020830101935080888701111561258e5787860182525b60208701925050505b602084106125d557805182526020826125b091906131ba565b91506020816125bf91906131ba565b90506020846125ce91906134a0565b9350612597565b60006001856020036101000a03905080198251168184511681811785525050508692505050949350505050565b61260a612794565b836020015183106126305761262f846002866020015161262a91906133b2565b612703565b5b835180516020858301018481538186141561264c576001820183525b5050508390509392505050565b612661612794565b8460200151848361267291906131ba565b111561269a57612699856002868561268a91906131ba565b61269491906133b2565b612703565b5b60006001836101006126ac9190613294565b6126b691906134a0565b905085518386820101858319825116178152815185880111156126d95784870182525b505085915050949350505050565b6000818311156126f9578290506126fd565b8190505b92915050565b60008260000151905061271683836122c0565b5061272183826124af565b50505050565b6040518060a0016040528060008019168152602001600073ffffffffffffffffffffffffffffffffffffffff16815260200160007bffffffffffffffffffffffffffffffffffffffffffffffffffffffff191681526020016000815260200161278e612794565b81525090565b604051806040016040528060608152602001600081525090565b60006127c16127bc8461315c565b613137565b9050828152602081018484840111156127dd576127dc6137a5565b5b6127e88482856135c9565b509392505050565b60006128036127fe8461315c565b613137565b90508281526020810184848401111561281f5761281e6137a5565b5b61282a8482856135d8565b509392505050565b60008135905061284181613b32565b92915050565b60008151905061285681613b49565b92915050565b60008135905061286b81613b60565b92915050565b60008135905061288081613b77565b92915050565b600082601f83011261289b5761289a6137a0565b5b81356128ab8482602086016127ae565b91505092915050565b600082601f8301126128c9576128c86137a0565b5b81516128d98482602086016127f0565b91505092915050565b6000813590506128f181613b8e565b92915050565b60008151905061290681613b8e565b92915050565b600060208284031215612922576129216137af565b5b600061293084828501612832565b91505092915050565b60006020828403121561294f5761294e6137af565b5b600061295d84828501612847565b91505092915050565b600080600080608085870312156129805761297f6137af565b5b600061298e8782880161285c565b945050602061299f878288016128e2565b93505060406129b087828801612871565b92505060606129c187828801612871565b91505092959194509250565b6000602082840312156129e3576129e26137af565b5b600082013567ffffffffffffffff811115612a0157612a006137aa565b5b612a0d84828501612886565b91505092915050565b600060208284031215612a2c57612a2b6137af565b5b600082015167ffffffffffffffff811115612a4a57612a496137aa565b5b612a56848285016128b4565b91505092915050565b600060208284031215612a7557612a746137af565b5b6000612a83848285016128f7565b91505092915050565b612a958161356f565b82525050565b612aa4816134d4565b82525050565b612ab3816134f2565b82525050565b612ac2816134fc565b82525050565b6000612ad38261318d565b612add8185613198565b9350612aed8185602086016135d8565b612af6816137b4565b840191505092915050565b612b12612b0d82613581565b61363c565b82525050565b612b2181613593565b82525050565b612b308161353b565b82525050565b6000612b436026836131a9565b9150612b4e826137df565b604082019050919050565b6000612b666032836131a9565b9150612b718261382e565b604082019050919050565b6000612b896023836131a9565b9150612b948261387d565b604082019050919050565b6000612bac6024836131a9565b9150612bb7826138cc565b604082019050919050565b6000612bcf6021836131a9565b9150612bda8261391b565b604082019050919050565b6000612bf26028836131a9565b9150612bfd8261396a565b604082019050919050565b6000612c156029836131a9565b9150612c20826139b9565b604082019050919050565b6000612c386020836131a9565b9150612c4382613a08565b602082019050919050565b6000612c5b6023836131a9565b9150612c6682613a31565b604082019050919050565b6000612c7e6028836131a9565b9150612c8982613a80565b604082019050919050565b6000612ca16023836131a9565b9150612cac82613acf565b604082019050919050565b612cc081613565565b82525050565b612cd7612cd282613565565b613660565b82525050565b6000612ce98285612b01565b601482019150612cf98284612cc6565b6020820191508190509392505050565b6000602082019050612d1e6000830184612a9b565b92915050565b6000602082019050612d396000830184612a8c565b92915050565b600060e082019050612d54600083018a612a9b565b612d616020830189612a9b565b612d6e6040830188612cb7565b612d7b6060830187612cb7565b612d886080830186612cb7565b612d9560a0830185612cb7565b612da260c0830184612b18565b98975050505050505050565b6000604082019050612dc36000830185612a9b565b612dd06020830184612cb7565b9392505050565b600061010082019050612ded600083018b612a9b565b612dfa602083018a612cb7565b612e076040830189612aaa565b612e146060830188612a9b565b612e216080830187612ab9565b612e2e60a0830186612cb7565b612e3b60c0830185612cb7565b81810360e0830152612e4d8184612ac8565b90509998505050505050505050565b6000606082019050612e716000830186612a9b565b612e7e6020830185612cb7565b8181036040830152612e908184612ac8565b9050949350505050565b6000602082019050612eaf6000830184612b18565b92915050565b60006020820190508181036000830152612ece81612b36565b9050919050565b60006020820190508181036000830152612eee81612b59565b9050919050565b60006020820190508181036000830152612f0e81612b7c565b9050919050565b60006020820190508181036000830152612f2e81612b9f565b9050919050565b60006020820190508181036000830152612f4e81612bc2565b9050919050565b60006020820190508181036000830152612f6e81612be5565b9050919050565b60006020820190508181036000830152612f8e81612c08565b9050919050565b60006020820190508181036000830152612fae81612c2b565b9050919050565b60006020820190508181036000830152612fce81612c4e565b9050919050565b60006020820190508181036000830152612fee81612c71565b9050919050565b6000602082019050818103600083015261300e81612c94565b9050919050565b600060208201905061302a6000830184612cb7565b92915050565b60006060820190506130456000830186612cb7565b6130526020830185612b27565b61305f6040830184612b27565b949350505050565b600060c08201905061307c6000830189612cb7565b6130896020830188612b27565b6130966040830187612b27565b6130a36060830186612cb7565b6130b06080830185612b27565b6130bd60a0830184612b27565b979650505050505050565b600060e0820190506130dd600083018a612cb7565b6130ea6020830189612cb7565b6130f76040830188612cb7565b6131046060830187612cb7565b6131116080830186612cb7565b61311e60a0830185612cb7565b61312b60c0830184612cb7565b98975050505050505050565b6000613141613152565b905061314d828261360b565b919050565b6000604051905090565b600067ffffffffffffffff82111561317757613176613771565b5b613180826137b4565b9050602081019050919050565b600081519050919050565b600082825260208201905092915050565b600082825260208201905092915050565b60006131c582613565565b91506131d083613565565b9250827fffffffffffffffffffffffffffffffffffffffffffffffffffffffffffffffff03821115613205576132046136e4565b5b828201905092915050565b600061321b82613565565b915061322683613565565b92508261323657613235613713565b5b828204905092915050565b6000808291508390505b600185111561328b57808604811115613267576132666136e4565b5b60018516156132765780820291505b8081029050613284856137d2565b945061324b565b94509492505050565b600061329f82613565565b91506132aa83613565565b92506132d77fffffffffffffffffffffffffffffffffffffffffffffffffffffffffffffffff84846132df565b905092915050565b6000826132ef57600190506133ab565b816132fd57600090506133ab565b8160018114613313576002811461331d5761334c565b60019150506133ab565b60ff84111561332f5761332e6136e4565b5b8360020a915084821115613346576133456136e4565b5b506133ab565b5060208310610133831016604e8410600b84101617156133815782820a90508381111561337c5761337b6136e4565b5b6133ab565b61338e8484846001613241565b925090508184048111156133a5576133a46136e4565b5b81810290505b9392505050565b60006133bd82613565565b91506133c883613565565b9250817fffffffffffffffffffffffffffffffffffffffffffffffffffffffffffffffff0483118215151615613401576134006136e4565b5b828202905092915050565b60006134178261353b565b91506134228361353b565b9250827f80000000000000000000000000000000000000000000000000000000000000000182126000841215161561345d5761345c6136e4565b5b827f7fffffffffffffffffffffffffffffffffffffffffffffffffffffffffffffff018213600084121615613495576134946136e4565b5b828203905092915050565b60006134ab82613565565b91506134b683613565565b9250828210156134c9576134c86136e4565b5b828203905092915050565b60006134df82613545565b9050919050565b60008115159050919050565b6000819050919050565b60007fffffffff0000000000000000000000000000000000000000000000000000000082169050919050565b600081905061353682613b1e565b919050565b6000819050919050565b600073ffffffffffffffffffffffffffffffffffffffff82169050919050565b6000819050919050565b600061357a826135a5565b9050919050565b600061358c826135a5565b9050919050565b600061359e82613528565b9050919050565b60006135b0826135b7565b9050919050565b60006135c282613545565b9050919050565b82818337600083830152505050565b60005b838110156135f65780820151818401526020810190506135db565b83811115613605576000848401525b50505050565b613614826137b4565b810181811067ffffffffffffffff8211171561363357613632613771565b5b80604052505050565b60006136478261364e565b9050919050565b6000613659826137c5565b9050919050565b6000819050919050565b600061367582613565565b915061368083613565565b9250826136905761368f613713565b5b828206905092915050565b60006136a68261353b565b91507f80000000000000000000000000000000000000000000000000000000000000008214156136d9576136d86136e4565b5b816000039050919050565b7f4e487b7100000000000000000000000000000000000000000000000000000000600052601160045260246000fd5b7f4e487b7100000000000000000000000000000000000000000000000000000000600052601260045260246000fd5b7f4e487b7100000000000000000000000000000000000000000000000000000000600052602160045260246000fd5b7f4e487b7100000000000000000000000000000000000000000000000000000000600052604160045260246000fd5b600080fd5b600080fd5b600080fd5b600080fd5b6000601f19601f8301169050919050565b60008160601b9050919050565b60008160011c9050919050565b7f4f776e61626c653a206e6577206f776e657220697320746865207a65726f206160008201527f6464726573730000000000000000000000000000000000000000000000000000602082015250565b7f41677265656d656e74206e6f7420656c696769626c6520666f7220666f72636560008201527f642063616e63656c6c6174696f6e207965740000000000000000000000000000602082015250565b7f756e61626c6520746f207472616e73666572416e6443616c6c20746f206f726160008201527f636c650000000000000000000000000000000000000000000000000000000000602082015250565b7f537461727420446174652f54696d6520686173206e6f74206265656e2072656160008201527f6368656400000000000000000000000000000000000000000000000000000000602082015250565b7f436f6e7472616374206d75737420626520696e2041435449564520737461747560008201527f7300000000000000000000000000000000000000000000000000000000000000602082015250565b7f4f6e6c792056656869636c65204f776e65722063616e20706572666f726d207460008201527f6869732073746570000000000000000000000000000000000000000000000000602082015250565b7f4f6e6c792056656869636c652052656e7465722063616e20706572666f726d2060008201527f7468697320737465700000000000000000000000000000000000000000000000602082015250565b7f4f776e61626c653a2063616c6c6572206973206e6f7420746865206f776e6572600082015250565b7f436f6e7472616374206d75737420626520696e2050524f504f5345442073746160008201527f7475730000000000000000000000000000000000000000000000000000000000602082015250565b7f536f75726365206d75737420626520746865206f7261636c65206f662074686560008201527f2072657175657374000000000000000000000000000000000000000000000000602082015250565b7f436f6e7472616374206d75737420626520696e20415050524f5645442073746160008201527f7475730000000000000000000000000000000000000000000000000000000000602082015250565b60068110613b2f57613b2e613742565b5b50565b613b3b816134d4565b8114613b4657600080fd5b50565b613b52816134e6565b8114613b5d57600080fd5b50565b613b69816134f2565b8114613b7457600080fd5b50565b613b808161353b565b8114613b8b57600080fd5b50565b613b9781613565565b8114613ba257600080fd5b5056fea264697066735822122091eccb964ab9ccc592b3a3d25e569c697ba545e90d65a4bf47f7f245a1cd9ba964736f6c63430008070033a2646970667358221220bd90c6344bde28308e521343a1a4c994caf26e3fecc8ae807f454c5cb11e10fc64736f6c63430008070033",
  "linkReferences": {},
  "deployedLinkReferences": {}
}