{
  "_format": "hh-sol-artifact-1",
  "contractName": "LigoAgreementsFactory",
  "sourceName": "contracts/LigoAgreementsFactory.sol",
  "abi": [
    {
      "inputs": [],
      "stateMutability": "nonpayable",
      "type": "constructor"
    },
    {
      "anonymous": false,
      "inputs": [
        {
          "indexed": true,
          "internalType": "address",
          "name": "previousOwner",
          "type": "address"
        },
        {
          "indexed": true,
          "internalType": "address",
          "name": "newOwner",
          "type": "address"
        }
      ],
      "name": "OwnershipTransferred",
      "type": "event"
    },
    {
      "anonymous": false,
      "inputs": [
        {
          "indexed": false,
          "internalType": "address",
          "name": "_newAgreement",
          "type": "address"
        },
        {
          "indexed": false,
          "internalType": "uint256",
          "name": "_totalFundsHeld",
          "type": "uint256"
        }
      ],
      "name": "rentalAgreementCreated",
      "type": "event"
    },
    {
      "anonymous": false,
      "inputs": [
        {
          "indexed": false,
          "internalType": "string",
          "name": "_vehicleId",
          "type": "string"
        },
        {
          "indexed": false,
          "internalType": "string",
          "name": "_filecoinCid",
          "type": "string"
        },
        {
          "indexed": false,
          "internalType": "address",
          "name": "_vehicleOwner",
          "type": "address"
        },
        {
          "indexed": false,
          "internalType": "uint256",
          "name": "_baseHourFee",
          "type": "uint256"
        },
        {
          "indexed": false,
          "internalType": "uint256",
          "name": "_bondRequired",
          "type": "uint256"
        }
      ],
      "name": "vehicleAdded",
      "type": "event"
    },
    {
      "inputs": [],
      "name": "endContractProvider",
      "outputs": [],
      "stateMutability": "nonpayable",
      "type": "function"
    },
    {
      "inputs": [
        {
          "internalType": "bool",
          "name": "_isOwner",
          "type": "bool"
        },
        {
          "internalType": "address",
          "name": "_address",
          "type": "address"
        }
      ],
      "name": "getRentalContractsByUser",
      "outputs": [
        {
          "internalType": "address[]",
          "name": "",
          "type": "address[]"
        }
      ],
      "stateMutability": "view",
      "type": "function"
    },
    {
      "inputs": [
        {
          "internalType": "string",
          "name": "_vehicleId",
          "type": "string"
        }
      ],
      "name": "getVehicle",
      "outputs": [
        {
          "internalType": "string",
          "name": "",
          "type": "string"
        },
        {
          "internalType": "string",
          "name": "",
          "type": "string"
        },
        {
          "internalType": "address",
          "name": "",
          "type": "address"
        },
        {
          "internalType": "uint256",
          "name": "",
          "type": "uint256"
        },
        {
          "internalType": "uint256",
          "name": "",
          "type": "uint256"
        }
      ],
      "stateMutability": "view",
      "type": "function"
    },
    {
      "inputs": [],
      "name": "getVehicleIds",
      "outputs": [
        {
          "internalType": "string[]",
          "name": "",
          "type": "string[]"
        }
      ],
      "stateMutability": "view",
      "type": "function"
    },
    {
      "inputs": [
        {
          "internalType": "string",
          "name": "_vehicleId",
          "type": "string"
        },
        {
          "internalType": "address",
          "name": "_vehicleOwner",
          "type": "address"
        },
        {
          "internalType": "address",
          "name": "_renter",
          "type": "address"
        },
        {
          "internalType": "uint256",
          "name": "_startDateTime",
          "type": "uint256"
        },
        {
          "internalType": "uint256",
          "name": "_endDateTime",
          "type": "uint256"
        }
      ],
      "name": "newRentalAgreement",
      "outputs": [
        {
          "internalType": "address",
          "name": "",
          "type": "address"
        }
      ],
      "stateMutability": "payable",
      "type": "function"
    },
    {
      "inputs": [
        {
          "internalType": "string",
          "name": "_vehicleId",
          "type": "string"
        },
        {
          "internalType": "string",
          "name": "_filecoinCid",
          "type": "string"
        },
        {
          "internalType": "address",
          "name": "_vehicleOwner",
          "type": "address"
        },
        {
          "internalType": "uint256",
          "name": "_baseHourFee",
          "type": "uint256"
        },
        {
          "internalType": "uint256",
          "name": "_bondRequired",
          "type": "uint256"
        }
      ],
      "name": "newVehicle",
      "outputs": [],
      "stateMutability": "nonpayable",
      "type": "function"
    },
    {
      "inputs": [],
      "name": "owner",
      "outputs": [
        {
          "internalType": "address",
          "name": "",
          "type": "address"
        }
      ],
      "stateMutability": "view",
      "type": "function"
    },
    {
      "inputs": [],
      "name": "renounceOwnership",
      "outputs": [],
      "stateMutability": "nonpayable",
      "type": "function"
    },
    {
      "inputs": [
        {
          "internalType": "address",
          "name": "newOwner",
          "type": "address"
        }
      ],
      "name": "transferOwnership",
      "outputs": [],
      "stateMutability": "nonpayable",
      "type": "function"
    },
    {
      "inputs": [
        {
          "internalType": "address",
          "name": "_toAddress",
          "type": "address"
        }
      ],
      "name": "transferPlatformFunds",
      "outputs": [],
      "stateMutability": "nonpayable",
      "type": "function"
    }
  ],
  "bytecode": "0x60806040527f3635663236636336396665323435346561636631323961656638343665363561600155600280546001600160a01b03199081167389dca850f3c3bf8fb0209190cd45e4a59632c73d1790915560006003556004805490911673a36085f69e2889c224210f603d836748e7dc008817905534801561008157600080fd5b5061008b33610090565b6100e0565b600080546001600160a01b038381166001600160a01b0319831681178455604051919092169283917f8be0079c531659141344cd1fd0a4f28419497f9722a3daafe3b4186f6b6457e09190a35050565b61344a806100ef6000396000f3fe6080604052600436106200008c5760003560e01c8063047fd579146200009157806306f1b2ee14620000d25780634a915a7714620000f9578063533032e5146200012d578063715018a614620001545780637aa213ce146200016c5780638da5cb5b146200019c578063a1219c4214620001b4578063d5c1dcb714620001cc578063f2fde38b14620001f1575b600080fd5b3480156200009e57600080fd5b50620000b6620000b036600462000ec4565b62000216565b604051620000c9959493929190620010ff565b60405180910390f35b348015620000df57600080fd5b50620000ea620003d6565b604051620000c9919062001099565b3480156200010657600080fd5b506200011e6200011836600462000e86565b620004b9565b604051620000c991906200104a565b3480156200013a57600080fd5b50620001526200014c36600462000f7b565b620005af565b005b3480156200016157600080fd5b506200015262000703565b620001836200017d36600462000f04565b6200074e565b6040516001600160a01b039091168152602001620000c9565b348015620001a957600080fd5b506200018362000b3d565b348015620001c157600080fd5b506200015262000b4c565b348015620001d957600080fd5b5062000152620001eb36600462000e61565b62000b95565b348015620001fe57600080fd5b50620001526200021036600462000e61565b62000c03565b6060806000806000806006876040516200023191906200102c565b90815260200160405180910390206040518060a00160405290816000820180546200025c90620012e1565b80601f01602080910402602001604051908101604052809291908181526020018280546200028a90620012e1565b8015620002db5780601f10620002af57610100808354040283529160200191620002db565b820191906000526020600020905b815481529060010190602001808311620002bd57829003601f168201915b50505050508152602001600182018054620002f690620012e1565b80601f01602080910402602001604051908101604052809291908181526020018280546200032490620012e1565b8015620003755780601f10620003495761010080835404028352916020019162000375565b820191906000526020600020905b8154815290600101906020018083116200035757829003601f168201915b505050918352505060028201546001600160a01b031660208083019190915260038301546040808401919091526004909301546060928301528351908401519284015191840151608090940151909b929a5090985091965090945092505050565b60606005805480602002602001604051908101604052809291908181526020016000905b82821015620004b05783829060005260206000200180546200041c90620012e1565b80601f01602080910402602001604051908101604052809291908181526020018280546200044a90620012e1565b80156200049b5780601f106200046f576101008083540402835291602001916200049b565b820191906000526020600020905b8154815290600101906020018083116200047d57829003601f168201915b505050505081526020019060010190620003fa565b50505050905090565b6060821562000539576001600160a01b038216600090815260076020908152604091829020805483518184028101840190945280845290918301828280156200052c57602002820191906000526020600020905b81546001600160a01b031681526001909101906020018083116200050d575b50505050509050620005a9565b6001600160a01b038216600090815260086020908152604091829020805483518184028101840190945280845290918301828280156200052c576020028201919060005260206000209081546001600160a01b031681526001909101906020018083116200050d57505050505090505b92915050565b6040518060a00160405280868152602001858152602001846001600160a01b0316815260200183815260200182815250600686604051620005f191906200102c565b908152602001604051809103902060008201518160000190805190602001906200061d92919062000cfc565b50602082810151805162000638926001850192019062000cfc565b5060408201516002820180546001600160a01b0319166001600160a01b0390921691909117905560608201516003820155608090910151600490910155600580546001810182556000919091528551620006ba917f036b6384b5eca791c62761152d0c79bb0604c104a5fb6f4eb0703f3154bb3db00190602088019062000cfc565b507f9c0a0c2c53101fd50ade3dd59f7732d296f8b0feb9a38bf0fca4fd10d47e30498585858585604051620006f4959493929190620010ff565b60405180910390a15050505050565b336200070e62000b3d565b6001600160a01b031614620007405760405162461bcd60e51b815260040162000737906200114f565b60405180910390fd5b6200074c600062000cac565b565b6000836001600160a01b0316856001600160a01b03161415620007b45760405162461bcd60e51b815260206004820181905260248201527f4f776e657220262052656e746572206d75737420626520646966666572656e74604482015260640162000737565b620007c283610e1062001240565b8210156200081c5760405162461bcd60e51b81526020600482015260316024820152600080516020620033f583398151915260448201527036b4b734b6bab69037b31018903437bab960791b606482015260840162000737565b610e106200082b848462001294565b6200083791906200131e565b15620008965760405162461bcd60e51b81526020600482015260386024820152600080516020620033f58339815191526044820152776469736372657465206e756d626572206f6620686f75727360401b606482015260840162000737565b42831015620008f85760405162461bcd60e51b815260206004820152602760248201527f56656869636c652041677265656d656e742063616e6e6f7420626520696e20746044820152661a19481c185cdd60ca1b606482015260840162000737565b6000610e1062000909858562001294565b6200091591906200125b565b6006886040516200092791906200102c565b90815260200160405180910390206003015462000945919062001272565b905060006006886040516200095b91906200102c565b9081526040519081900360200190206004015490506200097c818362001240565b341015620009cd5760405162461bcd60e51b815260206004820152601d60248201527f496e73756666696369656e742072656e74202620626f6e642070616964000000604482015260640162000737565b6000620009db828462001240565b60408051610160810182526001600160a01b03808c1682528a811660208301528183018d9052606082018a90526080820189905260a0820187905260c08201869052600454811660e083015260025416610100820152600354610120820152600154610140820152905162000a509062000d8b565b62000a5c919062001184565b6040518091039082f090508015801562000a7a573d6000803e3d6000fd5b506001600160a01b03808a1660009081526007602090815260408083208054600181810183559185528385200180548688166001600160a01b03199182168117909255958e168552600884529184208054918201815584529190922001805490921617905590507ffb5dad936d949cabc158e5207f9b4e6737de3193127bc8b9a1ac721b44d163578162000b0f848662001240565b604080516001600160a01b03909316835260208301919091520160405180910390a198975050505050505050565b6000546001600160a01b031690565b3362000b5762000b3d565b6001600160a01b03161462000b805760405162461bcd60e51b815260040162000737906200114f565b62000b8a62000b3d565b6001600160a01b0316ff5b3362000ba062000b3d565b6001600160a01b03161462000bc95760405162461bcd60e51b815260040162000737906200114f565b6040516001600160a01b038216904780156108fc02916000818181858888f1935050505015801562000bff573d6000803e3d6000fd5b5050565b3362000c0e62000b3d565b6001600160a01b03161462000c375760405162461bcd60e51b815260040162000737906200114f565b6001600160a01b03811662000c9e5760405162461bcd60e51b815260206004820152602660248201527f4f776e61626c653a206e6577206f776e657220697320746865207a65726f206160448201526564647265737360d01b606482015260840162000737565b62000ca98162000cac565b50565b600080546001600160a01b038381166001600160a01b0319831681178455604051919092169283917f8be0079c531659141344cd1fd0a4f28419497f9722a3daafe3b4186f6b6457e09190a35050565b82805462000d0a90620012e1565b90600052602060002090601f01602090048101928262000d2e576000855562000d79565b82601f1062000d4957805160ff191683800117855562000d79565b8280016001018555821562000d79579182015b8281111562000d7957825182559160200191906001019062000d5c565b5062000d8792915062000d99565b5090565b61207d806200137883390190565b5b8082111562000d87576000815560010162000d9a565b80356001600160a01b038116811462000dc857600080fd5b919050565b600082601f83011262000ddf57600080fd5b81356001600160401b038082111562000dfc5762000dfc62001361565b604051601f8301601f19908116603f0116810190828211818310171562000e275762000e2762001361565b8160405283815286602085880101111562000e4157600080fd5b836020870160208301376000602085830101528094505050505092915050565b60006020828403121562000e7457600080fd5b62000e7f8262000db0565b9392505050565b6000806040838503121562000e9a57600080fd5b8235801515811462000eab57600080fd5b915062000ebb6020840162000db0565b90509250929050565b60006020828403121562000ed757600080fd5b81356001600160401b0381111562000eee57600080fd5b62000efc8482850162000dcd565b949350505050565b600080600080600060a0868803121562000f1d57600080fd5b85356001600160401b0381111562000f3457600080fd5b62000f428882890162000dcd565b95505062000f536020870162000db0565b935062000f636040870162000db0565b94979396509394606081013594506080013592915050565b600080600080600060a0868803121562000f9457600080fd5b85356001600160401b038082111562000fac57600080fd5b62000fba89838a0162000dcd565b9650602088013591508082111562000fd157600080fd5b5062000fe08882890162000dcd565b94505062000f636040870162000db0565b6001600160a01b03169052565b6000815180845262001018816020860160208601620012ae565b601f01601f19169290920160200192915050565b6000825162001040818460208701620012ae565b9190910192915050565b6020808252825182820181905260009190848201906040850190845b818110156200108d5783516001600160a01b03168352928401929184019160010162001066565b50909695505050505050565b6000602080830181845280855180835260408601915060408160051b870101925083870160005b82811015620010f257603f19888603018452620010df85835162000ffe565b94509285019290850190600101620010c0565b5092979650505050505050565b60a0815260006200111460a083018862000ffe565b828103602084015262001128818862000ffe565b6001600160a01b039690961660408401525050606081019290925260809091015292915050565b6020808252818101527f4f776e61626c653a2063616c6c6572206973206e6f7420746865206f776e6572604082015260600190565b602081526200119860208201835162000ff1565b60006020830151620011ae604084018262000ff1565b506040830151610160806060850152620011cd61018085018362000ffe565b915060608501516080850152608085015160a085015260a085015160c085015260c085015160e085015260e08501516101006200120d8187018362000ff1565b8601519050610120620012238682018362000ff1565b860151610140868101919091529095015193019290925250919050565b6000821982111562001256576200125662001335565b500190565b6000826200126d576200126d6200134b565b500490565b60008160001904831182151516156200128f576200128f62001335565b500290565b600082821015620012a957620012a962001335565b500390565b60005b83811015620012cb578181015183820152602001620012b1565b83811115620012db576000848401525b50505050565b600181811c90821680620012f657607f821691505b602082108114156200131857634e487b7160e01b600052602260045260246000fd5b50919050565b6000826200133057620013306200134b565b500690565b634e487b7160e01b600052601160045260246000fd5b634e487b7160e01b600052601260045260246000fd5b634e487b7160e01b600052604160045260246000fdfe608060405260016004556064600755600a600855611c20600955600060125560006013556000601455600060155560006016556000601755600060185560006019556000601a556000601b556000601c556000601d556000601e556040516200207d3803806200207d8339810160408190526200007c91620003d7565b620000873362000231565b8060c001518160a001516200009d919062000574565b341015620000f15760405162461bcd60e51b815260206004820152601d60248201527f496e73756666696369656e742072656e74202620626f6e642070616964000000604482015260640160405180910390fd5b60e08101516200011d90600280546001600160a01b0319166001600160a01b0392909216919091179055565b6101008101516200014a90600380546001600160a01b0319166001600160a01b0392909216919091179055565b610140810151601f5561012081015160209081558151600a80546001600160a01b039283166001600160a01b03199182161790915582840151600b805491909316911617905560408201518051620001a792600c92019062000283565b506060810151600d8190556080820151600e81905560a0830151600f81905560c084015160108190556011805460ff191690558451602086015160408088015190517f74fd000967411f0e26e596d01668b091792f0faf4e27596fe49c83aa610804e2976200022297949693959294909390929091620004dd565b60405180910390a15062000621565b600680546001600160a01b038381166001600160a01b0319831681179093556040519116919082907f8be0079c531659141344cd1fd0a4f28419497f9722a3daafe3b4186f6b6457e090600090a35050565b8280546200029190620005ce565b90600052602060002090601f016020900481019282620002b5576000855562000300565b82601f10620002d057805160ff191683800117855562000300565b8280016001018555821562000300579182015b8281111562000300578251825591602001919060010190620002e3565b506200030e92915062000312565b5090565b5b808211156200030e576000815560010162000313565b80516001600160a01b03811681146200034157600080fd5b919050565b600082601f8301126200035857600080fd5b81516001600160401b03808211156200037557620003756200060b565b604051601f8301601f19908116603f01168101908282118183101715620003a057620003a06200060b565b81604052838152866020858801011115620003ba57600080fd5b620003cd8460208301602089016200059b565b9695505050505050565b600060208284031215620003ea57600080fd5b81516001600160401b03808211156200040257600080fd5b9083019061016082860312156200041857600080fd5b6200042262000548565b6200042d8362000329565b81526200043d6020840162000329565b60208201526040830151828111156200045557600080fd5b620004638782860162000346565b604083015250606083015160608201526080830151608082015260a083015160a082015260c083015160c08201526200049f60e0840162000329565b60e08201526101009150620004b682840162000329565b91810191909152610120828101519082015261014091820151918101919091529392505050565b600060018060a01b03808a16835280891660208401525060e0604083015286518060e0840152610100620005188282860160208c016200059b565b606084019790975260808301959095525060a081019290925260c0820152601f909101601f191601019392505050565b60405161016081016001600160401b03811182821017156200056e576200056e6200060b565b60405290565b600082198211156200059657634e487b7160e01b600052601160045260246000fd5b500190565b60005b83811015620005b85781810151838201526020016200059e565b83811115620005c8576000848401525b50505050565b600181811c90821680620005e357607f821691505b602082108114156200060557634e487b7160e01b600052602260045260246000fd5b50919050565b634e487b7160e01b600052604160045260246000fd5b611a4c80620006316000396000f3fe608060405234801561001057600080fd5b50600436106100e65760003560e01c8063165d35e1146100eb5780631723537d1461011057806317cefd29146101235780631bce33c81461013857806327b0a930146101785780632afb40681461018a57806331c84ea61461019d57806338582b89146101a557806343d00d04146101b6578063715018a6146101be5780638da5cb5b146101c6578063b4bd7784146101ce578063b9548eda14610205578063c92ae95914610218578063dbc8e0c61461022f578063dddab24014610240578063f2fde38b14610248578063f95419261461025b575b600080fd5b6100f361026e565b6040516001600160a01b0390911681526020015b60405180910390f35b60115460ff166040516101079190611637565b61013661013136600461144f565b610287565b005b6012546014546015546013546016546017545b604080519687526020870195909552938501929092526060840152608083015260a082015260c001610107565b600e545b604051908152602001610107565b61013661019836600461141d565b61049e565b610136610948565b600b546001600160a01b03166100f3565b6101366109f9565b610136610a6c565b6100f3610aa7565b600a54600b54600d54600e54600f54601054601154604051610107976001600160a01b039081169716959493929160ff169061156e565b61013661021336600461141d565b610ab6565b601854601954601a54601b54601c54601d5461014b565b600a546001600160a01b03166100f3565b600d5461017c565b6101366102563660046113cb565b610b88565b61013661026936600461144f565b610c28565b60006102826002546001600160a01b031690565b905090565b600b546001600160a01b031633146102ba5760405162461bcd60e51b81526004016102b19061168d565b60405180910390fd5b600160115460ff1660048111156102d3576102d36119ca565b1461032c5760405162461bcd60e51b815260206004820152602360248201527f436f6e7472616374206d75737420626520696e20415050524f5645442073746160448201526274757360e81b60648201526084016102b1565b42600d54111561038a5760405162461bcd60e51b8152602060048201526024808201527f537461727420446174652f54696d6520686173206e6f74206265656e2072656160448201526318da195960e21b60648201526084016102b1565b60006103a0601f543063b9548eda60e01b610cd4565b9050610462604051806040016040528060098152602001681d995a1a58db19525960ba1b815250600c80546103d490611938565b80601f016020809104026020016040519081016040528092919081815260200182805461040090611938565b801561044d5780601f106104225761010080835404028352916020019161044d565b820191906000526020600020905b81548152906001019060200180831161043057829003601f168201915b505050505083610cf99092919063ffffffff16565b60408051808201909152600881526732b731aa37b5b2b760c11b602082015261048d90829084610cf9565b61049981602054610d17565b505050565b60008481526005602052604090205484906001600160a01b031633146104d65760405162461bcd60e51b81526004016102b19061174e565b60008181526005602052604080822080546001600160a01b03191690555182916000805160206119f783398151915291a26105136103e8856117c4565b6013556016839055601782905561052c600160646117c4565b600f5461053991906117c4565b601b819055600f5461054b9190611921565b601c5560125460135460009161056a9161056591906118e2565b610d3a565b90506008548111156105aa57610582600160646117c4565b60105461058f91906117c4565b60085461059c9083611921565b6105a691906118c3565b6019555b600e54429081111561064e576000600e54826105c69190611921565b905060095481111561064c57610e10600954826105e39190611921565b101561060a576105f5600160646117c4565b60105461060291906117c4565b601a5561064c565b610616600160646117c4565b60105461062391906117c4565b610e10600954836106349190611921565b61063e91906117c4565b61064891906118c3565b601a555b505b600061066360165460145461056591906118e2565b9050600061067a60175460155461056591906118e2565b9050600061068a600160646117c4565b60105461069791906117c4565b905081831180156106a9575060075483115b156106fd576103e8600754846106bf9190611921565b10156106cf57601881905561075d565b806103e8600754856106e19190611921565b6106eb91906117c4565b6106f591906118c3565b60185561075d565b828211801561070d575060075482115b1561075d576103e8600754836107239190611921565b101561073357601881905561075d565b806103e8600754846107459190611921565b61074f91906117c4565b61075991906118c3565b6018555b601854601a5460195461077091906117ac565b61077a91906117ac565b601e819055601054101561079357601054601e556107a7565b601e546010546107a39190611921565b601d555b6107af610aa7565b6001600160a01b03166108fc601b549081150290604051600060405180830381858888f193505050501580156107e9573d6000803e3d6000fd5b506000601e54601c546107fc91906117ac565b600a546040519192506001600160a01b03169082156108fc029083906000818181858888f19350505050158015610837573d6000803e3d6000fd5b50601d541561087e57600b54601d546040516001600160a01b039092169181156108fc0291906000818181858888f1935050505015801561087c573d6000803e3d6000fd5b505b6011805460ff19166004179055601b54601c54601d54601e54601a54601854601954604080519788526020880196909652948601939093526060850191909152608084015260a083015260c08201527f2b0da50a9f3e635e4867ebdd1ae92c657705d81584e4346770bc26c0b66308d19060e00160405180910390a17f5f10e40433cd5d42d0bde2f03ba7e122f1ad2993f1c7333b2ce74dc0cdfab18a60135460165460175460405161093393929190611796565b60405180910390a15050505050505050505050565b600a546001600160a01b031633146109725760405162461bcd60e51b81526004016102b190611645565b600060115460ff16600481111561098b5761098b6119ca565b146109a85760405162461bcd60e51b81526004016102b19061170b565b600b546040516001600160a01b03909116904780156108fc02916000818181858888f193505050501580156109e1573d6000803e3d6000fd5b50601180546002919060ff19166001835b0217905550565b600a546001600160a01b03163314610a235760405162461bcd60e51b81526004016102b190611645565b600060115460ff166004811115610a3c57610a3c6119ca565b14610a595760405162461bcd60e51b81526004016102b19061170b565b601180546001919060ff191682806109f2565b33610a75610aa7565b6001600160a01b031614610a9b5760405162461bcd60e51b81526004016102b1906116d6565b610aa56000610d56565b565b6006546001600160a01b031690565b60008481526005602052604090205484906001600160a01b03163314610aee5760405162461bcd60e51b81526004016102b19061174e565b60008181526005602052604080822080546001600160a01b03191690555182916000805160206119f783398151915291a2610b2b6103e8856117c4565b6012819055601484905560158390556011805460ff191660031790556040517fecffdc5f6e74be4dabdb4e5f024eec5677f5be94e1715541b3e6294cd4e11dff91610b799186908690611796565b60405180910390a15050505050565b33610b91610aa7565b6001600160a01b031614610bb75760405162461bcd60e51b81526004016102b1906116d6565b6001600160a01b038116610c1c5760405162461bcd60e51b815260206004820152602660248201527f4f776e61626c653a206e6577206f776e657220697320746865207a65726f206160448201526564647265737360d01b60648201526084016102b1565b610c2581610d56565b50565b600b546001600160a01b03163314610c525760405162461bcd60e51b81526004016102b19061168d565b600360115460ff166004811115610c6b57610c6b6119ca565b14610cc25760405162461bcd60e51b815260206004820152602160248201527f436f6e7472616374206d75737420626520696e204143544956452073746174756044820152607360f81b60648201526084016102b1565b60006103a0601f5430632afb406860e01b5b610cdc61137c565b610ce461137c565b610cf081868686610da8565b95945050505050565b6080830151610d089083610dee565b60808301516104999082610dee565b600354600090610d31906001600160a01b03168484610e05565b90505b92915050565b600080821215610d5257610d4d82611981565b610d34565b5090565b600680546001600160a01b038381166001600160a01b0319831681179093556040519116919082907f8be0079c531659141344cd1fd0a4f28419497f9722a3daafe3b4186f6b6457e090600090a35050565b610db061137c565b610dc08560800151610100610e96565b50508284526001600160a01b03821660208501526001600160e01b031981166040850152835b949350505050565b610dfb8260038351610eee565b6104998282610ffb565b600454600090610e168160016117ac565b60045583516040808601516080870151519151600093633c6d41b960e01b93610e4c9386938493928991600291906024016115bb565b60408051601f198184030181529190526020810180516001600160e01b03166001600160e01b0319909316929092179091529050610e8c86838684611015565b9695505050505050565b610e9e6113b1565b610ea960208361196d565b15610ed157610eb960208361196d565b610ec4906020611921565b610ece90836117ac565b91505b506020828101829052604080518085526000815290920101905290565b6017816001600160401b031611610f1857610f128360e0600585901b16831761117d565b50505050565b60ff816001600160401b031611610f5457610f3e836018611fe0600586901b161761117d565b50610f12836001600160401b0383166001611195565b61ffff816001600160401b031611610f9157610f7b836019611fe0600586901b161761117d565b50610f12836001600160401b0383166002611195565b63ffffffff816001600160401b031611610fd057610fba83601a611fe0600586901b161761117d565b50610f12836001600160401b0383166004611195565b610fe583601b611fe0600586901b161761117d565b50610f12836001600160401b0383166008611195565b6110036113b1565b610d31838460000151518485516111ae565b6040516001600160601b03193060601b1660208201526034810184905260009060540160408051808303601f1901815282825280516020918201206000818152600590925291812080546001600160a01b0319166001600160a01b038a1617905590925082917fb5e6e01e79f91267dc17b4e6314d5d4d03593d2ceee0fbb452b750bd70ea5af99190a2600254604051630200057560e51b81526001600160a01b0390911690634000aea0906110d390889087908790600401611610565b602060405180830381600087803b1580156110ed57600080fd5b505af1158015611101573d6000803e3d6000fd5b505050506040513d601f19601f8201168201806040525081019061112591906113fb565b610de65760405162461bcd60e51b815260206004820152602360248201527f756e61626c6520746f207472616e73666572416e6443616c6c20746f206f7261604482015262636c6560e81b60648201526084016102b1565b6111856113b1565b610d31838460000151518461128b565b61119d6113b1565b610de68485600001515185856112da565b6111b66113b1565b82518211156111c457600080fd5b60208501516111d383866117ac565b111561120657611206856111f6876020015187866111f191906117ac565b61134e565b6112019060026118c3565b611365565b6000808651805187602083010193508088870111156112255787860182525b505050602084015b6020841061126557805182526112446020836117ac565b91506112516020826117ac565b905061125e602085611921565b935061122d565b51815160001960208690036101000a019081169019919091161790525083949350505050565b6112936113b1565b836020015183106112b3576112b3848560200151600261120191906118c3565b8351805160208583010184815350808514156112d0576001810182525b5093949350505050565b6112e26113b1565b60208501516112f185846117ac565b111561130557611305856111f686856117ac565b600060016113158461010061181b565b61131f9190611921565b90508551838682010185831982511617815250805184870111156113435783860181525b509495945050505050565b60008183111561135f575081610d34565b50919050565b81516113718383610e96565b50610f128382610ffb565b6040805160a0810182526000808252602082018190529181018290526060810191909152608081016113ac6113b1565b905290565b604051806040016040528060608152602001600081525090565b6000602082840312156113dd57600080fd5b81356001600160a01b03811681146113f457600080fd5b9392505050565b60006020828403121561140d57600080fd5b815180151581146113f457600080fd5b6000806000806080858703121561143357600080fd5b5050823594602084013594506040840135936060013592509050565b60006020828403121561146157600080fd5b81356001600160401b038082111561147857600080fd5b818401915084601f83011261148c57600080fd5b81358181111561149e5761149e6119e0565b604051601f8201601f19908116603f011681019083821181831017156114c6576114c66119e0565b816040528281528760208487010111156114df57600080fd5b826020860160208301376000928101602001929092525095945050505050565b6000815180845260005b8181101561152557602081850181015186830182015201611509565b81811115611537576000602083870101525b50601f01601f19169290920160200192915050565b6005811061156a57634e487b7160e01b600052602160045260246000fd5b9052565b6001600160a01b0388811682528716602082015260408101869052606081018590526080810184905260a0810183905260e081016115af60c083018461154c565b98975050505050505050565b60018060a01b038816815286602082015285604082015263ffffffff60e01b851660608201528360808201528260a082015260e060c0820152600061160360e08301846114ff565b9998505050505050505050565b60018060a01b0384168152826020820152606060408201526000610cf060608301846114ff565b60208101610d34828461154c565b60208082526028908201527f4f6e6c792056656869636c65204f776e65722063616e20706572666f726d2074604082015267068697320737465760c41b606082015260800190565b60208082526029908201527f4f6e6c792056656869636c652052656e7465722063616e20706572666f726d2060408201526807468697320737465760bc1b606082015260800190565b6020808252818101527f4f776e61626c653a2063616c6c6572206973206e6f7420746865206f776e6572604082015260600190565b60208082526023908201527f436f6e7472616374206d75737420626520696e2050524f504f5345442073746160408201526274757360e81b606082015260800190565b60208082526028908201527f536f75726365206d75737420626520746865206f7261636c65206f6620746865604082015267081c995c5d595cdd60c21b606082015260800190565b9283526020830191909152604082015260600190565b600082198211156117bf576117bf61199e565b500190565b6000826117d3576117d36119b4565b500490565b600181815b808511156118135781600019048211156117f9576117f961199e565b8085161561180657918102915b93841c93908002906117dd565b509250929050565b6000610d31838360008261183157506001610d34565b8161183e57506000610d34565b8160018114611854576002811461185e5761187a565b6001915050610d34565b60ff84111561186f5761186f61199e565b50506001821b610d34565b5060208310610133831016604e8410600b841016171561189d575081810a610d34565b6118a783836117d8565b80600019048211156118bb576118bb61199e565b029392505050565b60008160001904831182151516156118dd576118dd61199e565b500290565b60008083128015600160ff1b8501841216156119005761190061199e565b6001600160ff1b038401831381161561191b5761191b61199e565b50500390565b6000828210156119335761193361199e565b500390565b600181811c9082168061194c57607f821691505b6020821081141561135f57634e487b7160e01b600052602260045260246000fd5b60008261197c5761197c6119b4565b500690565b6000600160ff1b8214156119975761199761199e565b5060000390565b634e487b7160e01b600052601160045260246000fd5b634e487b7160e01b600052601260045260246000fd5b634e487b7160e01b600052602160045260246000fd5b634e487b7160e01b600052604160045260246000fdfe7cc135e0cebb02c3480ae5d74d377283180a2601f8f644edf7987b009316c63aa2646970667358221220582492494f5df79577c093531e9862c3dd7bdcc567bffe649e401066cada9e4064736f6c6343000807003356656869636c652041677265656d656e74206d75737420626520666f72206120a26469706673582212209f99e99ffce53adfd1df9e4a8c462d78958a6f01a441c6fddd75526a1e6d901464736f6c63430008070033",
  "linkReferences": {},
  "deployedLinkReferences": {}
}