{
  "_format": "hh-sol-artifact-1",
  "contractName": "LigoAgreementsFactory",
  "sourceName": "contracts/LigoAgreementsFactory.sol",
  "abi": [
    {
      "inputs": [
        {
          "internalType": "bytes32",
          "name": "_jobId",
          "type": "bytes32"
        },
        {
          "internalType": "address",
          "name": "_oracleContract",
          "type": "address"
        },
        {
          "internalType": "uint256",
          "name": "_oraclePayment",
          "type": "uint256"
        },
        {
          "internalType": "address",
          "name": "_nodeAddress",
          "type": "address"
        },
        {
          "internalType": "address",
          "name": "_linkToken",
          "type": "address"
        }
      ],
      "stateMutability": "nonpayable",
      "type": "constructor"
    },
    {
      "anonymous": false,
      "inputs": [
        {
          "indexed": true,
          "internalType": "address",
          "name": "previousOwner",
          "type": "address"
        },
        {
          "indexed": true,
          "internalType": "address",
          "name": "newOwner",
          "type": "address"
        }
      ],
      "name": "OwnershipTransferred",
      "type": "event"
    },
    {
      "anonymous": false,
      "inputs": [
        {
          "indexed": false,
          "internalType": "address",
          "name": "_newAgreement",
          "type": "address"
        },
        {
          "indexed": false,
          "internalType": "uint256",
          "name": "_totalFundsHeld",
          "type": "uint256"
        }
      ],
      "name": "rentalAgreementCreated",
      "type": "event"
    },
    {
      "anonymous": false,
      "inputs": [
        {
          "indexed": false,
          "internalType": "string",
          "name": "_vehicleId",
          "type": "string"
        },
        {
          "indexed": false,
          "internalType": "string",
          "name": "_filecoinCid",
          "type": "string"
        },
        {
          "indexed": false,
          "internalType": "address",
          "name": "_vehicleOwner",
          "type": "address"
        },
        {
          "indexed": false,
          "internalType": "uint256",
          "name": "_baseHourFee",
          "type": "uint256"
        },
        {
          "indexed": false,
          "internalType": "uint256",
          "name": "_bondRequired",
          "type": "uint256"
        }
      ],
      "name": "vehicleAdded",
      "type": "event"
    },
    {
      "inputs": [],
      "name": "endContractProvider",
      "outputs": [],
      "stateMutability": "payable",
      "type": "function"
    },
    {
      "inputs": [
        {
          "internalType": "bool",
          "name": "_isOwner",
          "type": "bool"
        },
        {
          "internalType": "address",
          "name": "_address",
          "type": "address"
        }
      ],
      "name": "getRentalContractsByUser",
      "outputs": [
        {
          "internalType": "address[]",
          "name": "",
          "type": "address[]"
        }
      ],
      "stateMutability": "view",
      "type": "function"
    },
    {
      "inputs": [
        {
          "internalType": "string",
          "name": "_vehicleId",
          "type": "string"
        }
      ],
      "name": "getVehicle",
      "outputs": [
        {
          "internalType": "string",
          "name": "",
          "type": "string"
        },
        {
          "internalType": "string",
          "name": "",
          "type": "string"
        },
        {
          "internalType": "address",
          "name": "",
          "type": "address"
        },
        {
          "internalType": "uint256",
          "name": "",
          "type": "uint256"
        },
        {
          "internalType": "uint256",
          "name": "",
          "type": "uint256"
        }
      ],
      "stateMutability": "view",
      "type": "function"
    },
    {
      "inputs": [],
      "name": "getVehicleIds",
      "outputs": [
        {
          "internalType": "string[]",
          "name": "",
          "type": "string[]"
        }
      ],
      "stateMutability": "view",
      "type": "function"
    },
    {
      "inputs": [
        {
          "internalType": "string",
          "name": "_vehicleId",
          "type": "string"
        },
        {
          "internalType": "address",
          "name": "_vehicleOwner",
          "type": "address"
        },
        {
          "internalType": "address",
          "name": "_renter",
          "type": "address"
        },
        {
          "internalType": "uint256",
          "name": "_startDateTime",
          "type": "uint256"
        },
        {
          "internalType": "uint256",
          "name": "_endDateTime",
          "type": "uint256"
        }
      ],
      "name": "newRentalAgreement",
      "outputs": [
        {
          "internalType": "address",
          "name": "",
          "type": "address"
        }
      ],
      "stateMutability": "payable",
      "type": "function"
    },
    {
      "inputs": [
        {
          "internalType": "string",
          "name": "_vehicleId",
          "type": "string"
        },
        {
          "internalType": "string",
          "name": "_filecoinCid",
          "type": "string"
        },
        {
          "internalType": "address",
          "name": "_vehicleOwner",
          "type": "address"
        },
        {
          "internalType": "uint256",
          "name": "_baseHourFee",
          "type": "uint256"
        },
        {
          "internalType": "uint256",
          "name": "_bondRequired",
          "type": "uint256"
        }
      ],
      "name": "newVehicle",
      "outputs": [],
      "stateMutability": "nonpayable",
      "type": "function"
    },
    {
      "inputs": [],
      "name": "owner",
      "outputs": [
        {
          "internalType": "address",
          "name": "",
          "type": "address"
        }
      ],
      "stateMutability": "view",
      "type": "function"
    },
    {
      "inputs": [],
      "name": "renounceOwnership",
      "outputs": [],
      "stateMutability": "nonpayable",
      "type": "function"
    },
    {
      "inputs": [
        {
          "internalType": "address",
          "name": "newOwner",
          "type": "address"
        }
      ],
      "name": "transferOwnership",
      "outputs": [],
      "stateMutability": "nonpayable",
      "type": "function"
    }
  ],
  "bytecode": "0x60806040523480156200001157600080fd5b5060405162003ab838038062003ab88339810160408190526200003491620000fa565b6200003f336200008d565b600194909455600280546001600160a01b03199081166001600160a01b0395861617909155600392909255600480548316918416919091179055600580549091169190921617905562000158565b600080546001600160a01b038381166001600160a01b0319831681178455604051919092169283917f8be0079c531659141344cd1fd0a4f28419497f9722a3daafe3b4186f6b6457e09190a35050565b80516001600160a01b0381168114620000f557600080fd5b919050565b600080600080600060a086880312156200011357600080fd5b855194506200012560208701620000dd565b9350604086015192506200013c60608701620000dd565b91506200014c60808701620000dd565b90509295509295909350565b61395080620001686000396000f3fe608060405260043610620000805760003560e01c8063047fd579146200008557806306f1b2ee14620000c65780634a915a7714620000ed578063533032e51462000121578063715018a614620001485780637aa213ce14620001605780638da5cb5b1462000186578063a1219c42146200019e578063f2fde38b14620001a8575b600080fd5b3480156200009257600080fd5b50620000aa620000a436600462000fbe565b620001cd565b604051620000bd95949392919062001240565b60405180910390f35b348015620000d357600080fd5b50620000de6200038d565b604051620000bd9190620011da565b348015620000fa57600080fd5b50620001126200010c36600462000f84565b62000470565b604051620000bd91906200118b565b3480156200012e57600080fd5b50620001466200014036600462001075565b62000566565b005b3480156200015557600080fd5b5062000146620006ba565b620001776200017136600462000ffe565b62000705565b604051620000bd91906200115e565b3480156200019357600080fd5b506200017762000b81565b6200014662000b90565b348015620001b557600080fd5b5062000146620001c736600462000f3f565b62000ce1565b606080600080600080600787604051620001e8919062001140565b90815260200160405180910390206040518060a0016040529081600082018054620002139062001422565b80601f0160208091040260200160405190810160405280929190818152602001828054620002419062001422565b8015620002925780601f10620002665761010080835404028352916020019162000292565b820191906000526020600020905b8154815290600101906020018083116200027457829003601f168201915b50505050508152602001600182018054620002ad9062001422565b80601f0160208091040260200160405190810160405280929190818152602001828054620002db9062001422565b80156200032c5780601f1062000300576101008083540402835291602001916200032c565b820191906000526020600020905b8154815290600101906020018083116200030e57829003601f168201915b505050918352505060028201546001600160a01b031660208083019190915260038301546040808401919091526004909301546060928301528351908401519284015191840151608090940151909b929a5090985091965090945092505050565b60606006805480602002602001604051908101604052809291908181526020016000905b8282101562000467578382906000526020600020018054620003d39062001422565b80601f0160208091040260200160405190810160405280929190818152602001828054620004019062001422565b8015620004525780601f10620004265761010080835404028352916020019162000452565b820191906000526020600020905b8154815290600101906020018083116200043457829003601f168201915b505050505081526020019060010190620003b1565b50505050905090565b60608215620004f0576001600160a01b03821660009081526008602090815260409182902080548351818402810184019094528084529091830182828015620004e357602002820191906000526020600020905b81546001600160a01b03168152600190910190602001808311620004c4575b5050505050905062000560565b6001600160a01b03821660009081526009602090815260409182902080548351818402810184019094528084529091830182828015620004e3576020028201919060005260206000209081546001600160a01b03168152600190910190602001808311620004c457505050505090505b92915050565b6040518060a00160405280868152602001858152602001846001600160a01b0316815260200183815260200182815250600786604051620005a8919062001140565b90815260200160405180910390206000820151816000019080519060200190620005d492919062000dda565b506020828101518051620005ef926001850192019062000dda565b5060408201516002820180546001600160a01b0319166001600160a01b039092169190911790556060820151600382015560809091015160049091015560068054600181018255600091909152855162000671917ff652222313e28459528d920b65115c16c04f3efc82aaedc97be59f3f377c0d3f0190602088019062000dda565b507f9c0a0c2c53101fd50ade3dd59f7732d296f8b0feb9a38bf0fca4fd10d47e30498585858585604051620006ab95949392919062001240565b60405180910390a15050505050565b33620006c562000b81565b6001600160a01b031614620006f75760405162461bcd60e51b8152600401620006ee9062001290565b60405180910390fd5b62000703600062000d8a565b565b6000836001600160a01b0316856001600160a01b031614156200076b5760405162461bcd60e51b815260206004820181905260248201527f4f776e657220262052656e746572206d75737420626520646966666572656e746044820152606401620006ee565b6200077983610e1062001381565b821015620007d35760405162461bcd60e51b81526020600482015260316024820152600080516020620038fb83398151915260448201527036b4b734b6bab69037b31018903437bab960791b6064820152608401620006ee565b610e10620007e28484620013d5565b620007ee91906200145f565b156200084d5760405162461bcd60e51b81526020600482015260386024820152600080516020620038fb8339815191526044820152776469736372657465206e756d626572206f6620686f75727360401b6064820152608401620006ee565b42831015620008af5760405162461bcd60e51b815260206004820152602760248201527f56656869636c652041677265656d656e742063616e6e6f7420626520696e20746044820152661a19481c185cdd60ca1b6064820152608401620006ee565b6000610e10620008c08585620013d5565b620008cc91906200139c565b600788604051620008de919062001140565b908152602001604051809103902060030154620008fc9190620013b3565b9050600060078860405162000912919062001140565b90815260405190819003602001902060040154905062000933818362001381565b341015620009845760405162461bcd60e51b815260206004820152601d60248201527f496e73756666696369656e742072656e74202620626f6e6420706169640000006044820152606401620006ee565b600062000992828462001381565b60408051610160810182526001600160a01b03808c1682528a811660208301528183018d9052606082018a90526080820189905260a0820187905260c08201869052600554811660e083015260025416610100820152600354610120820152600154610140820152905162000a079062000e69565b62000a139190620012c5565b6040518091039082f090508015801562000a31573d6000803e3d6000fd5b506001600160a01b03808a1660009081526008602090815260408083208054600181810183559185528385200180548688166001600160a01b03199182168117909255958e168552600984529184208054918201815584529190922001805490921617905590507ffb5dad936d949cabc158e5207f9b4e6737de3193127bc8b9a1ac721b44d163578162000ac6848662001381565b60405162000ad692919062001172565b60405180910390a160055460405163a9059cbb60e01b81526001600160a01b0390911690819063a9059cbb9062000b1c908590670de0b6b3a76400009060040162001172565b602060405180830381600087803b15801562000b3757600080fd5b505af115801562000b4c573d6000803e3d6000fd5b505050506040513d601f19601f8201168201806040525081019062000b72919062000f64565b50909998505050505050505050565b6000546001600160a01b031690565b3362000b9b62000b81565b6001600160a01b03161462000bc45760405162461bcd60e51b8152600401620006ee9062001290565b6005546040516370a0823160e01b81526001600160a01b0390911690819063a9059cbb90339083906370a082319062000c029030906004016200115e565b60206040518083038186803b15801562000c1b57600080fd5b505afa15801562000c30573d6000803e3d6000fd5b505050506040513d601f19601f8201168201806040525081019062000c569190620010eb565b6040518363ffffffff1660e01b815260040162000c7592919062001172565b602060405180830381600087803b15801562000c9057600080fd5b505af115801562000ca5573d6000803e3d6000fd5b505050506040513d601f19601f8201168201806040525081019062000ccb919062000f64565b5062000cd662000b81565b6001600160a01b0316ff5b3362000cec62000b81565b6001600160a01b03161462000d155760405162461bcd60e51b8152600401620006ee9062001290565b6001600160a01b03811662000d7c5760405162461bcd60e51b815260206004820152602660248201527f4f776e61626c653a206e6577206f776e657220697320746865207a65726f206160448201526564647265737360d01b6064820152608401620006ee565b62000d878162000d8a565b50565b600080546001600160a01b038381166001600160a01b0319831681178455604051919092169283917f8be0079c531659141344cd1fd0a4f28419497f9722a3daafe3b4186f6b6457e09190a35050565b82805462000de89062001422565b90600052602060002090601f01602090048101928262000e0c576000855562000e57565b82601f1062000e2757805160ff191683800117855562000e57565b8280016001018555821562000e57579182015b8281111562000e5757825182559160200191906001019062000e3a565b5062000e6592915062000e77565b5090565b61243380620014c883390190565b5b8082111562000e65576000815560010162000e78565b80356001600160a01b038116811462000ea657600080fd5b919050565b600082601f83011262000ebd57600080fd5b81356001600160401b038082111562000eda5762000eda620014a2565b604051601f8301601f19908116603f0116810190828211818310171562000f055762000f05620014a2565b8160405283815286602085880101111562000f1f57600080fd5b836020870160208301376000602085830101528094505050505092915050565b60006020828403121562000f5257600080fd5b62000f5d8262000e8e565b9392505050565b60006020828403121562000f7757600080fd5b815162000f5d81620014b8565b6000806040838503121562000f9857600080fd5b823562000fa581620014b8565b915062000fb56020840162000e8e565b90509250929050565b60006020828403121562000fd157600080fd5b81356001600160401b0381111562000fe857600080fd5b62000ff68482850162000eab565b949350505050565b600080600080600060a086880312156200101757600080fd5b85356001600160401b038111156200102e57600080fd5b6200103c8882890162000eab565b9550506200104d6020870162000e8e565b93506200105d6040870162000e8e565b94979396509394606081013594506080013592915050565b600080600080600060a086880312156200108e57600080fd5b85356001600160401b0380821115620010a657600080fd5b620010b489838a0162000eab565b96506020880135915080821115620010cb57600080fd5b50620010da8882890162000eab565b9450506200105d6040870162000e8e565b600060208284031215620010fe57600080fd5b5051919050565b6001600160a01b03169052565b600081518084526200112c816020860160208601620013ef565b601f01601f19169290920160200192915050565b6000825162001154818460208701620013ef565b9190910192915050565b6001600160a01b0391909116815260200190565b6001600160a01b03929092168252602082015260400190565b6020808252825182820181905260009190848201906040850190845b81811015620011ce5783516001600160a01b031683529284019291840191600101620011a7565b50909695505050505050565b6000602080830181845280855180835260408601915060408160051b870101925083870160005b828110156200123357603f198886030184526200122085835162001112565b9450928501929085019060010162001201565b5092979650505050505050565b60a0815260006200125560a083018862001112565b828103602084015262001269818862001112565b6001600160a01b039690961660408401525050606081019290925260809091015292915050565b6020808252818101527f4f776e61626c653a2063616c6c6572206973206e6f7420746865206f776e6572604082015260600190565b60208152620012d960208201835162001105565b60006020830151620012ef604084018262001105565b5060408301516101608060608501526200130e61018085018362001112565b915060608501516080850152608085015160a085015260a085015160c085015260c085015160e085015260e08501516101006200134e8187018362001105565b8601519050610120620013648682018362001105565b860151610140868101919091529095015193019290925250919050565b6000821982111562001397576200139762001476565b500190565b600082620013ae57620013ae6200148c565b500490565b6000816000190483118215151615620013d057620013d062001476565b500290565b600082821015620013ea57620013ea62001476565b500390565b60005b838110156200140c578181015183820152602001620013f2565b838111156200141c576000848401525b50505050565b600181811c908216806200143757607f821691505b602082108114156200145957634e487b7160e01b600052602260045260246000fd5b50919050565b6000826200147157620014716200148c565b500690565b634e487b7160e01b600052601160045260246000fd5b634e487b7160e01b600052601260045260246000fd5b634e487b7160e01b600052604160045260246000fd5b801515811462000d8757600080fdfe60806040526001600455600a6007556005600855612a30600955600060125560006013556000601455600060155560006016556000601755600060185560006019556000601a556000601b556000601c556000601d556000601e5560405162002433380380620024338339810160408190526200007c91620003d7565b620000873362000231565b8060c001518160a001516200009d919062000574565b341015620000f15760405162461bcd60e51b815260206004820152601d60248201527f496e73756666696369656e742072656e74202620626f6e642070616964000000604482015260640160405180910390fd5b60e08101516200011d90600280546001600160a01b0319166001600160a01b0392909216919091179055565b6101008101516200014a90600380546001600160a01b0319166001600160a01b0392909216919091179055565b610140810151601f5561012081015160209081558151600a80546001600160a01b039283166001600160a01b03199182161790915582840151600b805491909316911617905560408201518051620001a792600c92019062000283565b506060810151600d8190556080820151600e81905560a0830151600f81905560c084015160108190556011805460ff191690558451602086015160408088015190517f74fd000967411f0e26e596d01668b091792f0faf4e27596fe49c83aa610804e2976200022297949693959294909390929091620004dd565b60405180910390a15062000621565b600680546001600160a01b038381166001600160a01b0319831681179093556040519116919082907f8be0079c531659141344cd1fd0a4f28419497f9722a3daafe3b4186f6b6457e090600090a35050565b8280546200029190620005ce565b90600052602060002090601f016020900481019282620002b5576000855562000300565b82601f10620002d057805160ff191683800117855562000300565b8280016001018555821562000300579182015b8281111562000300578251825591602001919060010190620002e3565b506200030e92915062000312565b5090565b5b808211156200030e576000815560010162000313565b80516001600160a01b03811681146200034157600080fd5b919050565b600082601f8301126200035857600080fd5b81516001600160401b03808211156200037557620003756200060b565b604051601f8301601f19908116603f01168101908282118183101715620003a057620003a06200060b565b81604052838152866020858801011115620003ba57600080fd5b620003cd8460208301602089016200059b565b9695505050505050565b600060208284031215620003ea57600080fd5b81516001600160401b03808211156200040257600080fd5b9083019061016082860312156200041857600080fd5b6200042262000548565b6200042d8362000329565b81526200043d6020840162000329565b60208201526040830151828111156200045557600080fd5b620004638782860162000346565b604083015250606083015160608201526080830151608082015260a083015160a082015260c083015160c08201526200049f60e0840162000329565b60e08201526101009150620004b682840162000329565b91810191909152610120828101519082015261014091820151918101919091529392505050565b600060018060a01b03808a16835280891660208401525060e0604083015286518060e0840152610100620005188282860160208c016200059b565b606084019790975260808301959095525060a081019290925260c0820152601f909101601f191601019392505050565b60405161016081016001600160401b03811182821017156200056e576200056e6200060b565b60405290565b600082198211156200059657634e487b7160e01b600052601160045260246000fd5b500190565b60005b83811015620005b85781810151838201526020016200059e565b83811115620005c8576000848401525b50505050565b600181811c90821680620005e357607f821691505b602082108114156200060557634e487b7160e01b600052602260045260246000fd5b50919050565b634e487b7160e01b600052604160045260246000fd5b611e0280620006316000396000f3fe6080604052600436106100d95760003560e01c8063165d35e1146100de5780631723537d1461010957806317cefd29146101295780631bce33c81461014b57806327b0a930146101985780632afb4068146101b757806331c84ea6146101d757806338582b89146101df57806343d00d04146101fd578063715018a6146102125780638da5cb5b14610227578063b4bd77841461023c578063b9548eda14610280578063c92ae959146102a0578063dbc8e0c6146102c4578063dddab240146102e2578063f2fde38b146102f7578063f954192614610317575b600080fd5b3480156100ea57600080fd5b506100f3610337565b60405161010091906118e4565b60405180910390f35b34801561011557600080fd5b5060115460ff1660405161010091906119ed565b34801561013557600080fd5b506101496101443660046117ac565b610346565b005b34801561015757600080fd5b506012546014546015546013546016546017545b604080519687526020870195909552938501929092526060840152608083015260a082015260c001610100565b3480156101a457600080fd5b50600e545b604051908152602001610100565b3480156101c357600080fd5b506101496101d236600461177a565b6105c0565b610149610b07565b3480156101eb57600080fd5b50600b546001600160a01b03166100f3565b34801561020957600080fd5b50610149610cc0565b34801561021e57600080fd5b50610149610d2f565b34801561023357600080fd5b506100f3610d6a565b34801561024857600080fd5b50600a54600b54600d54600e54600f54601054601154604051610100976001600160a01b039081169716959493929160ff16906118f8565b34801561028c57600080fd5b5061014961029b36600461177a565b610d79565b3480156102ac57600080fd5b50601854601954601a54601b54601c54601d5461016b565b3480156102d057600080fd5b50600a546001600160a01b03166100f3565b3480156102ee57600080fd5b50600d546101a9565b34801561030357600080fd5b5061014961031236600461172f565b610e41565b34801561032357600080fd5b506101496103323660046117ac565b610ee1565b600061034161103f565b905090565b600b546001600160a01b031633146103795760405162461bcd60e51b815260040161037090611a43565b60405180910390fd5b600160115460ff16600481111561039257610392611d80565b146103eb5760405162461bcd60e51b815260206004820152602360248201527f436f6e7472616374206d75737420626520696e20415050524f5645442073746160448201526274757360e81b6064820152608401610370565b42600d5411156104495760405162461bcd60e51b8152602060048201526024808201527f537461727420446174652f54696d6520686173206e6f74206265656e2072656160448201526318da195960e21b6064820152608401610370565b600061045f601f543063b9548eda60e01b61104e565b9050610521604051806040016040528060098152602001681d995a1a58db19525960ba1b815250600c805461049390611cee565b80601f01602080910402602001604051908101604052809291908181526020018280546104bf90611cee565b801561050c5780601f106104e15761010080835404028352916020019161050c565b820191906000526020600020905b8154815290600101906020018083116104ef57829003601f168201915b5050505050836110739092919063ffffffff16565b60408051808201909152600881526732b731aa37b5b2b760c11b602082015261054c90829084611073565b61059d6040518060400160405280600681526020016530b1ba34b7b760d11b81525060405180604001604052806006815260200165756e6c6f636b60d01b815250836110739092919063ffffffff16565b6105bb6105b26003546001600160a01b031690565b82602054611091565b505050565b60008481526005602052604090205484906001600160a01b031633146105f85760405162461bcd60e51b815260040161037090611b04565b60008181526005602052604080822080546001600160a01b0319169055518291600080516020611dad83398151915291a260138490556016839055601782905561064460016064611b7a565b600f546106519190611b7a565b601b819055600f546106639190611cd7565b601c5560125460135460009161067891611cd7565b90506008548111156106b85761069060016064611b7a565b60105461069d9190611b7a565b6008546106aa9083611cd7565b6106b49190611c79565b6019555b600e54429081111561075c576000600e54826106d49190611cd7565b905060095481111561075a57610e10600954826106f19190611cd7565b10156107185761070360016064611b7a565b6010546107109190611b7a565b601a5561075a565b61072460016064611b7a565b6010546107319190611b7a565b610e10600954836107429190611cd7565b61074c9190611b7a565b6107569190611c79565b601a555b505b60006107766016546014546107719190611c98565b611124565b9050600061078d6017546015546107719190611c98565b90506007548211156107d0576107a560016064611b7a565b6010546107b29190611b7a565b6107be61271084611b7a565b6107c89190611c79565b60185561080d565b60075481111561080d576107e660016064611b7a565b6010546107f39190611b7a565b6107ff61271083611b7a565b6108099190611c79565b6018555b601854601a546019546108209190611b62565b61082a9190611b62565b601e819055601054101561084357601054601e55610857565b601e546010546108539190611cd7565b601d555b61085f610d6a565b6001600160a01b03166108fc601b549081150290604051600060405180830381858888f19350505050158015610899573d6000803e3d6000fd5b506000601e54601c546108ac9190611b62565b600a546040519192506001600160a01b03169082156108fc029083906000818181858888f193505050501580156108e7573d6000803e3d6000fd5b50601d541561092e57600b54601d546040516001600160a01b039092169181156108fc0291906000818181858888f1935050505015801561092c573d6000803e3d6000fd5b505b600061093861103f565b9050806001600160a01b031663a9059cbb610951610d6a565b6040516370a0823160e01b81526001600160a01b038516906370a082319061097d9030906004016118e4565b60206040518083038186803b15801561099557600080fd5b505afa1580156109a9573d6000803e3d6000fd5b505050506040513d601f19601f820116820180604052508101906109cd919061185c565b6040518363ffffffff1660e01b81526004016109ea929190611945565b602060405180830381600087803b158015610a0457600080fd5b505af1158015610a18573d6000803e3d6000fd5b505050506040513d601f19601f82011682018060405250810190610a3c9190611758565b506011805460ff19166004179055601b54601c54601d54601e54601a54601854601954604080519788526020880196909652948601939093526060850191909152608084015260a083015260c08201527f2b0da50a9f3e635e4867ebdd1ae92c657705d81584e4346770bc26c0b66308d19060e00160405180910390a17f5f10e40433cd5d42d0bde2f03ba7e122f1ad2993f1c7333b2ce74dc0cdfab18a601354601654601754604051610af293929190611b4c565b60405180910390a15050505050505050505050565b600a546001600160a01b03163314610b315760405162461bcd60e51b8152600401610370906119fb565b600060115460ff166004811115610b4a57610b4a611d80565b14610b675760405162461bcd60e51b815260040161037090611ac1565b600b546040516001600160a01b03909116904780156108fc02916000818181858888f19350505050158015610ba0573d6000803e3d6000fd5b506000610bab61103f565b9050806001600160a01b031663a9059cbb610bc4610d6a565b6040516370a0823160e01b81526001600160a01b038516906370a0823190610bf09030906004016118e4565b60206040518083038186803b158015610c0857600080fd5b505afa158015610c1c573d6000803e3d6000fd5b505050506040513d601f19601f82011682018060405250810190610c40919061185c565b6040518363ffffffff1660e01b8152600401610c5d929190611945565b602060405180830381600087803b158015610c7757600080fd5b505af1158015610c8b573d6000803e3d6000fd5b505050506040513d601f19601f82011682018060405250810190610caf9190611758565b50506011805460ff19166002179055565b600a546001600160a01b03163314610cea5760405162461bcd60e51b8152600401610370906119fb565b600060115460ff166004811115610d0357610d03611d80565b14610d205760405162461bcd60e51b815260040161037090611ac1565b6011805460ff19166001179055565b33610d38610d6a565b6001600160a01b031614610d5e5760405162461bcd60e51b815260040161037090611a8c565b610d686000611144565b565b6006546001600160a01b031690565b60008481526005602052604090205484906001600160a01b03163314610db15760405162461bcd60e51b815260040161037090611b04565b60008181526005602052604080822080546001600160a01b0319169055518291600080516020611dad83398151915291a26012849055601483905560158290556011805460ff191660031790556040517fecffdc5f6e74be4dabdb4e5f024eec5677f5be94e1715541b3e6294cd4e11dff90610e3290869086908690611b4c565b60405180910390a15050505050565b33610e4a610d6a565b6001600160a01b031614610e705760405162461bcd60e51b815260040161037090611a8c565b6001600160a01b038116610ed55760405162461bcd60e51b815260206004820152602660248201527f4f776e61626c653a206e6577206f776e657220697320746865207a65726f206160448201526564647265737360d01b6064820152608401610370565b610ede81611144565b50565b600b546001600160a01b03163314610f0b5760405162461bcd60e51b815260040161037090611a43565b600360115460ff166004811115610f2457610f24611d80565b14610f7b5760405162461bcd60e51b815260206004820152602160248201527f436f6e7472616374206d75737420626520696e204143544956452073746174756044820152607360f81b6064820152608401610370565b6000610f91601f5430632afb406860e01b61104e565b9050610fc5604051806040016040528060098152602001681d995a1a58db19525960ba1b815250600c805461049390611cee565b60408051808201909152600881526732b731aa37b5b2b760c11b6020820152610ff090829084611073565b61059d6040518060400160405280600681526020016530b1ba34b7b760d11b815250604051806040016040528060048152602001636c6f636b60e01b815250836110739092919063ffffffff16565b6002546001600160a01b031690565b6110566116e0565b61105e6116e0565b61106a81868686611196565b95945050505050565b608083015161108290836111dc565b60808301516105bb90826111dc565b6004546000906110a2816001611b62565b600455835160408086015160808701515191516000936320214ca360e11b936110da9386938493923092918a9160019160240161195e565b60408051601f198184030181529190526020810180516001600160e01b03166001600160e01b031990931692909217909152905061111a868386846111f3565b9695505050505050565b60008082121561113c5761113782611d37565b61113e565b815b92915050565b600680546001600160a01b038381166001600160a01b0319831681179093556040519116919082907f8be0079c531659141344cd1fd0a4f28419497f9722a3daafe3b4186f6b6457e090600090a35050565b61119e6116e0565b6111ae856080015161010061135b565b50508284526001600160a01b03821660208501526001600160e01b031981166040850152835b949350505050565b6111e982600383516113b3565b6105bb82826114c0565b6040516001600160601b03193060601b1660208201526034810184905260009060540160408051808303601f1901815282825280516020918201206000818152600590925291812080546001600160a01b0319166001600160a01b038a1617905590925082917fb5e6e01e79f91267dc17b4e6314d5d4d03593d2ceee0fbb452b750bd70ea5af99190a2600254604051630200057560e51b81526001600160a01b0390911690634000aea0906112b1908890879087906004016119c6565b602060405180830381600087803b1580156112cb57600080fd5b505af11580156112df573d6000803e3d6000fd5b505050506040513d601f19601f820116820180604052508101906113039190611758565b6111d45760405162461bcd60e51b815260206004820152602360248201527f756e61626c6520746f207472616e73666572416e6443616c6c20746f206f7261604482015262636c6560e81b6064820152608401610370565b611363611715565b61136e602083611d23565b156113965761137e602083611d23565b611389906020611cd7565b6113939083611b62565b91505b506020828101829052604080518085526000815290920101905290565b6017816001600160401b0316116113dd576113d78360e0600585901b1683176114e1565b50505050565b60ff816001600160401b03161161141957611403836018611fe0600586901b16176114e1565b506113d7836001600160401b03831660016114f9565b61ffff816001600160401b03161161145657611440836019611fe0600586901b16176114e1565b506113d7836001600160401b03831660026114f9565b63ffffffff816001600160401b0316116114955761147f83601a611fe0600586901b16176114e1565b506113d7836001600160401b03831660046114f9565b6114aa83601b611fe0600586901b16176114e1565b506113d7836001600160401b03831660086114f9565b6114c8611715565b6114da83846000015151848551611512565b9392505050565b6114e9611715565b6114da83846000015151846115ef565b611501611715565b6111d484856000015151858561163e565b61151a611715565b825182111561152857600080fd5b60208501516115378386611b62565b111561156a5761156a8561155a876020015187866115559190611b62565b6116b2565b611565906002611c79565b6116c9565b6000808651805187602083010193508088870111156115895787860182525b505050602084015b602084106115c957805182526115a8602083611b62565b91506115b5602082611b62565b90506115c2602085611cd7565b9350611591565b51815160001960208690036101000a019081169019919091161790525083949350505050565b6115f7611715565b836020015183106116175761161784856020015160026115659190611c79565b835180516020858301018481535080851415611634576001810182525b5093949350505050565b611646611715565b60208501516116558584611b62565b1115611669576116698561155a8685611b62565b6000600161167984610100611bd1565b6116839190611cd7565b90508551838682010185831982511617815250805184870111156116a75783860181525b509495945050505050565b6000818311156116c357508161113e565b50919050565b81516116d5838361135b565b506113d783826114c0565b6040805160a081018252600080825260208201819052918101829052606081019190915260808101611710611715565b905290565b604051806040016040528060608152602001600081525090565b60006020828403121561174157600080fd5b81356001600160a01b03811681146114da57600080fd5b60006020828403121561176a57600080fd5b815180151581146114da57600080fd5b6000806000806080858703121561179057600080fd5b5050823594602084013594506040840135936060013592509050565b6000602082840312156117be57600080fd5b81356001600160401b03808211156117d557600080fd5b818401915084601f8301126117e957600080fd5b8135818111156117fb576117fb611d96565b604051601f8201601f19908116603f0116810190838211818310171561182357611823611d96565b8160405282815287602084870101111561183c57600080fd5b826020860160208301376000928101602001929092525095945050505050565b60006020828403121561186e57600080fd5b5051919050565b6000815180845260005b8181101561189b5760208185018101518683018201520161187f565b818111156118ad576000602083870101525b50601f01601f19169290920160200192915050565b600581106118e057634e487b7160e01b600052602160045260246000fd5b9052565b6001600160a01b0391909116815260200190565b6001600160a01b0388811682528716602082015260408101869052606081018590526080810184905260a0810183905260e0810161193960c08301846118c2565b98975050505050505050565b6001600160a01b03929092168252602082015260400190565b6001600160a01b0389811682526020820189905260408201889052861660608201526001600160e01b03198516608082015260a0810184905260c0810183905261010060e082018190526000906119b783820185611875565b9b9a5050505050505050505050565b60018060a01b038416815282602082015260606040820152600061106a6060830184611875565b6020810161113e82846118c2565b60208082526028908201527f4f6e6c792056656869636c65204f776e65722063616e20706572666f726d2074604082015267068697320737465760c41b606082015260800190565b60208082526029908201527f4f6e6c792056656869636c652052656e7465722063616e20706572666f726d2060408201526807468697320737465760bc1b606082015260800190565b6020808252818101527f4f776e61626c653a2063616c6c6572206973206e6f7420746865206f776e6572604082015260600190565b60208082526023908201527f436f6e7472616374206d75737420626520696e2050524f504f5345442073746160408201526274757360e81b606082015260800190565b60208082526028908201527f536f75726365206d75737420626520746865206f7261636c65206f6620746865604082015267081c995c5d595cdd60c21b606082015260800190565b9283526020830191909152604082015260600190565b60008219821115611b7557611b75611d54565b500190565b600082611b8957611b89611d6a565b500490565b600181815b80851115611bc9578160001904821115611baf57611baf611d54565b80851615611bbc57918102915b93841c9390800290611b93565b509250929050565b60006114da8383600082611be75750600161113e565b81611bf45750600061113e565b8160018114611c0a5760028114611c1457611c30565b600191505061113e565b60ff841115611c2557611c25611d54565b50506001821b61113e565b5060208310610133831016604e8410600b8410161715611c53575081810a61113e565b611c5d8383611b8e565b8060001904821115611c7157611c71611d54565b029392505050565b6000816000190483118215151615611c9357611c93611d54565b500290565b60008083128015600160ff1b850184121615611cb657611cb6611d54565b6001600160ff1b0384018313811615611cd157611cd1611d54565b50500390565b600082821015611ce957611ce9611d54565b500390565b600181811c90821680611d0257607f821691505b602082108114156116c357634e487b7160e01b600052602260045260246000fd5b600082611d3257611d32611d6a565b500690565b6000600160ff1b821415611d4d57611d4d611d54565b5060000390565b634e487b7160e01b600052601160045260246000fd5b634e487b7160e01b600052601260045260246000fd5b634e487b7160e01b600052602160045260246000fd5b634e487b7160e01b600052604160045260246000fdfe7cc135e0cebb02c3480ae5d74d377283180a2601f8f644edf7987b009316c63aa2646970667358221220ebb55b1e553228835e504b20e31ff61b85b21dcb2829b1f0b20da4041f1c952b64736f6c6343000807003356656869636c652041677265656d656e74206d75737420626520666f72206120a2646970667358221220be1efdc8f24ad035352431b48a6631246e4ad1a8306bccdbc5550c737542684864736f6c63430008070033",
  "linkReferences": {},
  "deployedLinkReferences": {}
}