{
  "_format": "hh-sol-artifact-1",
  "contractName": "LigoAgreementsFactory",
  "sourceName": "contracts/LigoAgreementsFactory.sol",
  "abi": [
    {
      "anonymous": false,
      "inputs": [
        {
          "indexed": true,
          "internalType": "address",
          "name": "previousOwner",
          "type": "address"
        },
        {
          "indexed": true,
          "internalType": "address",
          "name": "newOwner",
          "type": "address"
        }
      ],
      "name": "OwnershipTransferred",
      "type": "event"
    },
    {
      "inputs": [
        {
          "internalType": "address",
          "name": "_vehicleAddress",
          "type": "address"
        }
      ],
      "name": "getVehicleId",
      "outputs": [
        {
          "internalType": "uint256",
          "name": "",
          "type": "uint256"
        }
      ],
      "stateMutability": "view",
      "type": "function"
    },
    {
      "inputs": [],
      "name": "owner",
      "outputs": [
        {
          "internalType": "address",
          "name": "",
          "type": "address"
        }
      ],
      "stateMutability": "view",
      "type": "function"
    },
    {
      "inputs": [],
      "name": "renounceOwnership",
      "outputs": [],
      "stateMutability": "nonpayable",
      "type": "function"
    },
    {
      "inputs": [
        {
          "internalType": "address",
          "name": "newOwner",
          "type": "address"
        }
      ],
      "name": "transferOwnership",
      "outputs": [],
      "stateMutability": "nonpayable",
      "type": "function"
    }
  ],
  "bytecode": "0x608060405234801561001057600080fd5b5061002d61002261003260201b60201c565b61003a60201b60201c565b6100fe565b600033905090565b60008060009054906101000a900473ffffffffffffffffffffffffffffffffffffffff169050816000806101000a81548173ffffffffffffffffffffffffffffffffffffffff021916908373ffffffffffffffffffffffffffffffffffffffff1602179055508173ffffffffffffffffffffffffffffffffffffffff168173ffffffffffffffffffffffffffffffffffffffff167f8be0079c531659141344cd1fd0a4f28419497f9722a3daafe3b4186f6b6457e060405160405180910390a35050565b6105788061010d6000396000f3fe608060405234801561001057600080fd5b506004361061004c5760003560e01c80633f1aafe314610051578063715018a6146100815780638da5cb5b1461008b578063f2fde38b146100a9575b600080fd5b61006b6004803603810190610066919061035a565b6100c5565b6040516100789190610446565b60405180910390f35b6100896100d0565b005b610093610158565b6040516100a091906103eb565b60405180910390f35b6100c360048036038101906100be919061035a565b610181565b005b600060019050919050565b6100d8610279565b73ffffffffffffffffffffffffffffffffffffffff166100f6610158565b73ffffffffffffffffffffffffffffffffffffffff161461014c576040517f08c379a000000000000000000000000000000000000000000000000000000000815260040161014390610426565b60405180910390fd5b6101566000610281565b565b60008060009054906101000a900473ffffffffffffffffffffffffffffffffffffffff16905090565b610189610279565b73ffffffffffffffffffffffffffffffffffffffff166101a7610158565b73ffffffffffffffffffffffffffffffffffffffff16146101fd576040517f08c379a00000000000000000000000000000000000000000000000000000000081526004016101f490610426565b60405180910390fd5b600073ffffffffffffffffffffffffffffffffffffffff168173ffffffffffffffffffffffffffffffffffffffff16141561026d576040517f08c379a000000000000000000000000000000000000000000000000000000000815260040161026490610406565b60405180910390fd5b61027681610281565b50565b600033905090565b60008060009054906101000a900473ffffffffffffffffffffffffffffffffffffffff169050816000806101000a81548173ffffffffffffffffffffffffffffffffffffffff021916908373ffffffffffffffffffffffffffffffffffffffff1602179055508173ffffffffffffffffffffffffffffffffffffffff168173ffffffffffffffffffffffffffffffffffffffff167f8be0079c531659141344cd1fd0a4f28419497f9722a3daafe3b4186f6b6457e060405160405180910390a35050565b6000813590506103548161052b565b92915050565b6000602082840312156103705761036f6104ae565b5b600061037e84828501610345565b91505092915050565b61039081610472565b82525050565b60006103a3602683610461565b91506103ae826104b3565b604082019050919050565b60006103c6602083610461565b91506103d182610502565b602082019050919050565b6103e5816104a4565b82525050565b60006020820190506104006000830184610387565b92915050565b6000602082019050818103600083015261041f81610396565b9050919050565b6000602082019050818103600083015261043f816103b9565b9050919050565b600060208201905061045b60008301846103dc565b92915050565b600082825260208201905092915050565b600061047d82610484565b9050919050565b600073ffffffffffffffffffffffffffffffffffffffff82169050919050565b6000819050919050565b600080fd5b7f4f776e61626c653a206e6577206f776e657220697320746865207a65726f206160008201527f6464726573730000000000000000000000000000000000000000000000000000602082015250565b7f4f776e61626c653a2063616c6c6572206973206e6f7420746865206f776e6572600082015250565b61053481610472565b811461053f57600080fd5b5056fea264697066735822122066f402b12adf4fb44d4c174517b060038a8f9345bea6436d654c490b794ca25664736f6c63430008070033",
  "linkReferences": {},
  "deployedLinkReferences": {}
}